:100000000C942A000C946F150C949C150C94C91533
:100010000C9433280C9406280C94D9270C9452275E
:100020000C947F270C94AC270C94F8260C9425276D
:100030000C9447000C944B2D0C94CD2C0C94470041
:100040000C94C9080C9447000C9447000C9447008A
:100050000C94470011241FBECFE5D8E0DEBFCDBF12
:1000600012E0A0E6B0E0ECE0F6E702C005900D92E9
:10007000A03FB107D9F713E0A0EFB2E001C01D9295
:10008000A934B107E1F70E94C72E0C94043B0C94ED
:100090000000EF92FF920F931F937B018C0120E0F1
:1000A00030E040E05FE40E94F50388238CF0C80153
:1000B000B70120E030E040E05FE40E94C1010E940F
:1000C00055049B01AC01205030404040504806C0D0
:1000D000C801B7010E9455049B01AC01B901CA01D6
:1000E0001F910F91FF90EF900895A0E0B0E0EBE733
:1000F000F0E00C94C43ADC012B01FA019C9192309F
:1001000008F439C1EB018881823008F433C194309E
:1001100069F4843009F02FC111969C91119789815F
:10012000981709F428C1ADEAB1E025C1843009F47B
:1001300021C18230A9F4923009F01DC19A01AD01AC
:1001400088E0EA010990AE01E90109929E0181501F
:10015000C1F7E201898111969C918923818308C1AD
:10016000923009F407C112962D903C901397EB0141
:100170008A819B811496AD90BD90CD90DC901797AD
:10018000EC80FD800E811F819101281B390BB90184
:1001900037FF04C066277727621B730B6032710537
:1001A0000CF061C0121613066CF537014801062EDB
:1001B00004C096948794779467940A94D2F721E0C8
:1001C00030E040E050E004C0220F331F441F551FB1
:1001D0006A95D2F721503040404050402E213F21B7
:1001E00040235123211531054105510521F021E01E
:1001F00030E040E050E079018A01E628F72808293C
:1002000019293CC0232BD1F1260E371E350146019A
:10021000062E04C096948794779467940A94D2F734
:1002200021E030E040E050E004C0220F331F441FC3
:10023000551F6A95D2F721503040404050402A2146
:100240003B214C215D21211531054105510521F04E
:1002500021E030E040E050E059016A01A628B728CB
:10026000C828D9280BC0821593052CF01C01AA249C
:10027000BB24650103C0EE24FF24870111969C91E5
:10028000D20111968C91981709F445C0992339F041
:10029000A80197012A193B094C095D0906C0A6016E
:1002A00095012E193F09400B510B57FD08C01182D3
:1002B0003382228224833583468357831DC081E0A5
:1002C00081833382228288279927DC01821B930B4A
:1002D000A40BB50B84839583A683B7830DC0220F2F
:1002E000331F441F551F24833583468357838281E0
:1002F000938101979383828324813581468157813D
:10030000DA01C9010197A109B1098F5F9F4FAF4F72
:10031000BF4328F30BC0918333822282EA0CFB1C7B
:100320000C1D1D1DE482F5820683178383E0808304
:10033000248135814681578157FF1AC0C901AA27F8
:1003400097FDA095BA2F81709070A070B0705695EF
:10035000479537952795822B932BA42BB52B848318
:100360009583A683B7838281938101969383828349
:10037000DF0101C0D201CD01CDB7DEB7E2E10C94BF
:10038000E03AA0E2B0E0E7ECF1E00C94D03A698307
:100390007A838B839C832D833E834F835887E9E048
:1003A000EE2EF12CEC0EFD1ECE010196B7010E943F
:1003B00046068E010F5E1F4FCE010596B8010E94C2
:1003C00046068A8991E089278A8BC701B801AE0168
:1003D000475E5F4F0E9475000E947105A096E6E09F
:1003E0000C94EC3AA0E2B0E0E8EFF1E00C94D03AE3
:1003F00069837A838B839C832D833E834F835887C5
:10040000F9E0EF2EF12CEC0EFD1ECE010196B701A6
:100410000E9446068E010F5E1F4FCE010596B80161
:100420000E944606C701B801AE01475E5F4F0E94B9
:1004300075000E947105A096E6E00C94EC3AA0E2EB
:10044000B0E0E5E2F2E00C94C43A69837A838B83EE
:100450009C832D833E834F835887CE010196BE0136
:10046000675F7F4F0E944606CE010596BE016F5E14
:100470007F4F0E9446069985923088F089898230A4
:10048000C8F0943019F4823051F404C0843029F457
:10049000923081F48DEA91E0C6C0923049F420E0B8
:1004A0009A858A89981321E02A87CE010996BBC0D4
:1004B000823049F420E09A858A89981321E02A8BBA
:1004C000CE014196B0C02D843E844F8458886D88FB
:1004D0007E888F88988CEE24FF248701AA24BB2471
:1004E000650140E050E060E070E0E0E0F0E0C10174
:1004F00081709070892BE9F0E60CF71C081D191D1E
:100500009A01AB012A0D3B1D4C1D5D1D80E090E062
:10051000A0E0B0E0E614F7040805190520F481E036
:1005200090E0A0E0B0E0BA01A901480F591F6A1F8E
:100530007B1FAA0CBB1CCC1CDD1C97FE08C081E0F5
:1005400090E0A0E0B0E0A82AB92ACA2ADB2A3196B6
:10055000E032F10549F0660C771C881C991C569412
:10056000479437942794C3CFFA85EA892B893C892D
:100570008B859C85280F391F2E5F3F4F17C0CA01FE
:1005800081709070892B61F016950795F794E79428
:1005900080E090E0A0E0B0E8E82AF92A0A2B1B2BC3
:1005A00076956795579547952F5F3F4F77FDE7CF36
:1005B0000CC0440F551F661F771F17FD4160EE0CDE
:1005C000FF1C001F111F21503040403090E05907A0
:1005D00090E0690790E4790760F32B8F3C8FDB0193
:1005E000CA018F779070A070B07080349105A1051A
:1005F000B10561F447FD0AC0E114F10401051105DC
:1006000029F0405C5F4F6F4F7F4F40781A8EFE1786
:1006100011F081E08A8F4D8F5E8F6F8F78A383E01A
:10062000898FCE0149960E947105A096E2E10C9453
:10063000E03AA8E1B0E0EFE1F3E00C94CC3A698352
:100640007A838B839C832D833E834F835887B9E0C5
:10065000EB2EF12CEC0EFD1ECE010196B7010E948F
:1006600046068E010F5E1F4FCE010596B8010E940F
:1006700046062985223008F47EC03989323010F4CC
:10068000B8017CC08A859A8989278A87243011F02D
:10069000223031F4231709F06EC06DEA71E06EC0AC
:1006A000343039F41D861E861F86188A1C861B86E8
:1006B00004C0323021F484E08987B7015FC02B8504
:1006C0003C858B899C89281B390B3C872B87ED84C3
:1006D000FE840F851889AD88BE88CF88D88CEA142F
:1006E000FB040C051D0540F4EE0CFF1C001F111F40
:1006F000215030403C872B8720E030E040E050E044
:1007000080E090E0A0E0B0E460E070E0EA14FB0478
:100710000C051D0540F0282B392B4A2B5B2BEA18C2
:10072000FB080C091D09B695A79597958795EE0CC2
:10073000FF1C001F111F6F5F7F4F6F31710531F775
:10074000DA01C9018F779070A070B0708034910584
:10075000A105B10561F427FD0AC0E114F10401050A
:10076000110529F0205C3F4F4F4F5F4F20782D87B8
:100770003E874F87588BBE01675F7F4FCB010E943A
:1007800071056896EAE00C94E83AA8E1B0E0EBEC79
:10079000F3E00C94D03A69837A838B839C832D8316
:1007A0003E834F83588789E0E82EF12CEC0EFD1E26
:1007B000CE010196B7010E9446068E010F5E1F4FC3
:1007C000CE010596B8010E9446068985823040F028
:1007D0008989823028F0C701B8010E94BE0601C095
:1007E0008FEF6896E6E00C94EC3AA8E1B0E0EBEF0E
:1007F000F3E00C94D03A69837A838B839C832D83B6
:100800003E834F83588789E0E82EF12CEC0EFD1EC5
:10081000CE010196B7010E9446068E010F5E1F4F62
:10082000CE010596B8010E9446068985823040F0C7
:100830008989823028F0C701B8010E94BE0601C034
:100840008FEF6896E6E00C94EC3AA8E1B0E0EBE2BA
:10085000F4E00C94D03A69837A838B839C832D8354
:100860003E834F83588789E0E82EF12CEC0EFD1E65
:10087000CE010196B7010E9446068E010F5E1F4F02
:10088000CE010596B8010E9446068985823040F067
:100890008989823028F0C701B8010E94BE0601C0D4
:1008A00081E06896E6E00C94EC3AACE0B0E0EBE571
:1008B000F4E00C94D43A69837A838B839C83CE01D1
:1008C0000196BE016B5F7F4F0E9446068D8182308C
:1008D00061F1823050F1843021F48E81882351F10E
:1008E0002EC02F81388537FD20C06E812F31310514
:1008F0001CF06623F9F023C08EE190E0821B930B7D
:1009000029853A854B855C8504C056954795379572
:1009100027958A95D2F76623B1F05095409530958A
:1009200021953F4F4F4F5F4F0EC020E030E040E039
:1009300050E009C02FEF3FEF4FEF5FE704C020E02A
:1009400030E040E050E8B901CA012C96E2E00C9496
:10095000F03AA8E0B0E0EFEAF4E00C94CC3A7B0186
:100960008C01611571058105910519F482E0898377
:1009700060C083E089838EE1C82ED12CDC82CB82DB
:10098000ED82FE820F831887C801B7010E942205FD
:10099000FC013197F7FF3BC0222733272E1B3F0B6B
:1009A00057016801022E04C0D694C794B794A79447
:1009B0000A94D2F740E050E060E070E081E090E01F
:1009C000A0E0B0E004C0880F991FAA1FBB1F2A95A2
:1009D000D2F70197A109B1098E219F21A023B1234C
:1009E0000097A105B10521F041E050E060E070E022
:1009F0004A295B296C297D294D835E836F83788723
:100A00008EE190E08E1B9F0B9C838B8312C03097EE
:100A100081F00E2E04C0EE0CFF1C001F111F0A9463
:100A2000D2F7ED82FE820F831887CE1ADF0ADC82AE
:100A3000CB821A82CE0101960E9471052896EAE0C7
:100A40000C94E83AEF92FF920F931F937B018C0175
:100A500080E0E81680E0F80681E0080780E01807EB
:100A600088F48FEFE816F1040105110531F028F044
:100A700088E090E0A0E0B0E017C080E090E0A0E067
:100A8000B0E012C080E0E81680E0F80680E00807D9
:100A900081E0180728F088E190E0A0E0B0E004C011
:100AA00080E190E0A0E0B0E020E230E040E050E003
:100AB000281B390B4A0B5B0B04C016950795F7945E
:100AC000E7948A95D2F7F701EB54FE4F8081281BFB
:100AD000310941095109C9011F910F91FF90EF9010
:100AE0000895DF92EF92FF920F931F93FC01E48031
:100AF000F58006811781D1808081823048F480E0C2
:100B000090E0A0E1B0E0E82AF92A0A2B1B2BA5C04F
:100B1000843009F49FC0823021F4EE24FF24870141
:100B200005C0E114F1040105110519F4E0E0F0E05D
:100B300096C0628173819FEF623879070CF05BC0C9
:100B400022E83FEF261B370B2A3131052CF020E03D
:100B500030E040E050E02AC0B801A701022E04C0F6
:100B600076956795579547950A94D2F781E090E07E
:100B7000A0E0B0E004C0880F991FAA1FBB1F2A95F0
:100B8000D2F70197A109B1098E219F21A023B1239A
:100B90000097A105B10521F081E090E0A0E0B0E070
:100BA0009A01AB01282B392B4A2B5B2BDA01C901A7
:100BB0008F779070A070B07080349105A105B10559
:100BC00039F427FF09C0205C3F4F4F4F5F4F04C0EF
:100BD000215C3F4F4F4F5F4FE0E0F0E02030A0E05E
:100BE0003A07A0E04A07A0E45A0710F0E1E0F0E07D
:100BF00079018A0127C06038710564F5FB01E1586D
:100C0000FF4FD801C7018F779070A070B07080340B
:100C10009105A105B10539F4E7FE0DC080E490E02F
:100C2000A0E0B0E004C08FE390E0A0E0B0E0E80E08
:100C3000F91E0A1F1B1F17FF05C016950795F7948D
:100C4000E794319687E016950795F794E7948A958F
:100C5000D1F705C0EE24FF248701EFEFF0E06E2FFF
:100C6000679566276795902F9F77D794DD24D79453
:100C70008E2F8695492F462B582F5D29B701CA0123
:100C80001F910F91FF90EF90DF900895FC01DB0121
:100C9000408151812281622F6F7770E0221F2227CD
:100CA000221F9381892F880F822B282F30E0991FD4
:100CB0009927991F11969C93119721153105A9F534
:100CC000411551056105710511F482E037C082E8D4
:100CD0009FEF13969C938E9312979A01AB0167E056
:100CE000220F331F441F551F6A95D1F783E08C9361
:100CF0000DC0220F331F441F551F12968D919C91DA
:100D00001397019713969C938E931297203080E04F
:100D1000380780E0480780E4580758F314962D936D
:100D20003D934D935C93179708952F3F310579F4C8
:100D3000411551056105710519F484E08C930895FE
:100D400064FF03C081E08C9312C01C9210C02F5727
:100D5000304013963C932E93129783E08C9387E058
:100D6000440F551F661F771F8A95D1F7706414963C
:100D70004D935D936D937C93179708951F93DC01BA
:100D8000FB019C91923008F447C08081823008F4C6
:100D900043C0943051F411961C91843099F58181AF
:100DA000682F70E0611B71093FC0843021F09230E0
:100DB00031F48230B9F18181882389F12DC01196F7
:100DC0001C9111978230F1F081811817D9F4129695
:100DD0002D913C911397828193818217930794F010
:100DE00028173907BCF014968D919D910D90BC91F8
:100DF000A02D2481358146815781281739074A075C
:100E00005B0718F4112341F00AC082179307A40767
:100E1000B50740F4112319F061E070E005C06FEFF1
:100E20007FEF02C060E070E0CB011F910895DF9377
:100E3000CF93CDB7DEB7A7E2B0E0E7E2F0E0808184
:100E40008F738C93A7E2B0E0E7E2F0E080818064EA
:100E50008C93A7E2B0E0E7E2F0E0808180628C93BF
:100E6000A6E2B0E0E6E2F0E08081887F8C93A6E223
:100E7000B0E0E6E2F0E0808186608C93A6E2B0E02C
:100E8000E6E2F0E080818F7D8C93A6E2B0E0E6E2BE
:100E9000F0E0808180688C93CF91DF910895DF939B
:100EA000CF93CDB7DEB728970FB6F894DEBF0FBE4D
:100EB000CDBF8E8378876F831D8219821A821B8231
:100EC0001C828091F002882309F06EC081E080933B
:100ED000F0028F819885009709F463C08E8180327B
:100EE00008F05CC0A7E2B0E0E7E2F0E08081807E3D
:100EF0008C93A7E2B0E0E7E2F0E090818E81892B4D
:100F00008C93A6E2B0E0E6E2F0E0808180648C930E
:100F10000BC089819A81AB81BC810196A11DB11D55
:100F200089839A83AB83BC83E6E2F0E0808182957B
:100F30008F70882F90E081709070009761F48981A4
:100F40009A81AB81BC81803523EC920720E0A20717
:100F500020E0B207F0F289819A81AB81BC818035B3
:100F600023EC920720E0A20720E0B20719F481E009
:100F70008D831CC0A6E2B0E0E6E2F0E080818F7EC7
:100F80008C93E4E2F0E080819181892F9927EF81B1
:100F9000F885918380831092F00208C081E08D83F0
:100FA00005C082E08D8302C083E08D838D81289609
:100FB0000FB6F894DEBF0FBECDBFCF91DF9108957D
:100FC000DF93CF9300D000D000D0CDB7DEB78A83B7
:100FD0007C836B835E834D8319828091F00288232A
:100FE00009F040C081E08093F0021092F5028B81FD
:100FF0009C81009721F48D819E81009781F18A81E7
:10100000803250F5A7E2B0E0E7E2F0E08081807E38
:101010008C93A7E2B0E0E7E2F0E090818A81892B2F
:101020008C938D819E819093F2028093F1028B814B
:101030009C819093F4028093F302A6E2B0E0E6E292
:10104000F0E0808180648C93A6E2B0E0E6E2F0E01C
:10105000808188608C9308C081E0898305C082E02C
:10106000898302C083E08983898126960FB6F8942C
:10107000DEBF0FBECDBFCF91DF910895DF93CF9339
:1010800000D00F92CDB7DEB79B838A8319828091FF
:10109000F002882309F074C081E08093F00281E0BF
:1010A0008093F502EA81FB8180819181009769F448
:1010B000EA81FB8183819481009739F4EA81FB8185
:1010C00085819681009709F458C0EA81FB812081CF
:1010D00031818091F602882F90E0F901E80FF91F25
:1010E0008081803208F046C0A7E2B0E0E7E2F0E09D
:1010F0008081807E8C93A7E2B0E0E7E2F0E040815F
:10110000EA81FB81208131818091F602882F90E075
:10111000F901E80FF91F8081842B8C93EA81FB8110
:10112000808191819093F8028093F702EA81FB819C
:10113000838194819093FA028093F902EA81FB8182
:10114000858196819093FC028093FB02EA81FB816A
:1011500082818093FD02A6E2B0E0E6E2F0E08081C9
:1011600080648C93A6E2B0E0E6E2F0E080818860E3
:101170008C9308C081E0898305C082E0898302C026
:1011800083E0898389810F900F900F90CF91DF9139
:1011900008951F920F920FB60F9211242F933F9331
:1011A0004F935F936F937F938F939F93AF93BF936F
:1011B000EF93FF93DF93CF93CDB7DEB78091F50226
:1011C0008823D9F4A091F302B091F402E4E2F0E0B4
:1011D00080819181892F99278D939C931092F002A1
:1011E000E091F102F091F2020995A6E2B0E0E6E2A8
:1011F000F0E08081877F8C9351C08091F50281302F
:1012000009F04CC02091FB023091FC028091F60263
:10121000882F90E0880F991FD901A80FB91FE4E229
:10122000F0E080819181892F992711969C938E936C
:101230008091F6028F5F8093F6029091F602809182
:10124000FD02981751F41092F002E091F902F0912A
:10125000FA0209951092F60221C0A7E2B0E0E7E297
:10126000F0E08081807E8C93A7E2B0E0E7E2F0E0DE
:1012700040812091F7023091F8028091F602882F88
:1012800090E0F901E80FF91F8081842B8C93A6E28E
:10129000B0E0E6E2F0E0808180648C93CF91DF9152
:1012A000FF91EF91BF91AF919F918F917F916F913E
:1012B0005F914F913F912F910F900FBE0F901F9014
:1012C0001895DF93CF93CDB7DEB7AC970FB6F894F0
:1012D000DEBF0FBECDBF8CA780EF8BA780E060E0A4
:1012E00040E00E942A109BA58CA589238BA782E051
:1012F0006BA50E94431180E062E041E00E942A1049
:1013000080E090E0A0E0B0E48FA398A7A9A7BAA7D7
:101310006FA178A589A59AA520E030E04AEF54E4B2
:101320000E941F02DC01CB018BA39CA3ADA3BEA333
:101330006BA17CA18DA19EA120E030E040E85FE39D
:101340000E94250488232CF481E090E09AA389A3CD
:101350003FC06BA17CA18DA19EA120E03FEF4FE794
:1013600057E40E94C50318164CF56FA178A589A50E
:101370009AA520E030E040E251E40E941F02DC0127
:10138000CB01BC01CD010E944900DC01CB019AA335
:1013900089A30FC088EC90E098A38F8F8F8D98A1C0
:1013A0000197F1F798A38F8F89A19AA101979AA32A
:1013B00089A389A19AA1009769F714C06BA17CA1A8
:1013C0008DA19EA10E944900DC01CB019AA389A3B3
:1013D00089A19AA19E8F8D8F8D8D9E8D0197F1F79A
:1013E0009E8F8D8F80E062E040E00E942A10809105
:1013F000FE02882309F48CC080EF8BA78BA5982F61
:1014000090958CA589238BA78BA5982F9295907F7B
:1014100082E0692F0E94431180E062E041E00E9477
:101420002A1080E090E0A0E0B0E4898F9A8FAB8F23
:10143000BC8F698D7A8D8B8D9C8D20E030E04AEFDA
:1014400054E40E941F02DC01CB018D8B9E8BAF8B7D
:10145000B88F6D897E898F89988D20E030E040E8D3
:101460005FE30E94250488232CF481E090E09C8BAC
:101470008B8B3FC06D897E898F89988D20E03FEFEF
:101480004FE757E40E94C50318164CF5698D7A8D15
:101490008B8D9C8D20E030E040E251E40E941F02E1
:1014A000DC01CB01BC01CD010E944900DC01CB0174
:1014B0009C8B8B8B0FC088EC90E09A8B898B8989F1
:1014C0009A890197F1F79A8B898B8B899C8901976F
:1014D0009C8B8B8B8B899C89009769F714C06D89D5
:1014E0007E898F89988D0E944900DC01CB019C8BFD
:1014F0008B8B8B899C89988B8F878F859889019797
:10150000F1F7988B8F8780E062E040E00E942A101C
:1015100080E090E0A0E0B0E48B879C87AD87BE8739
:101520006B857C858D859E8520E030E04AEF54E414
:101530000E941F02DC01CB018F839887A987BA879D
:101540006F81788589859A8520E030E040E85FE307
:101550000E94250488232CF481E090E09E838D83F3
:101560003FC06F81788589859A8520E03FEF4FE7FE
:1015700057E40E94C50318164CF56B857C858D8554
:101580009E8520E030E040E251E40E941F02DC0131
:10159000CB01BC01CD010E944900DC01CB019E833F
:1015A0008D830FC088EC90E09C838B838B819C8122
:1015B0000197F1F79C838B838D819E8101979E8398
:1015C0008D838D819E81009769F714C06F81788526
:1015D00089859A850E944900DC01CB019E838D8319
:1015E0008D819E819A83898389819A810197F1F700
:1015F0009A838983AC960FB6F894DEBF0FBECDBF39
:10160000CF91DF910895DF93CF9300D0CDB7DEB7B0
:101610001A8280E060E040E00E942A1080E061E0F1
:1016200041E00E942A1019821CC09E012E5F3F4F8C
:1016300082E06981A9010E9491118A81282F30E0FE
:101640008981882F90E0A90102C0440F551F8A9517
:10165000E2F7CA01982F8A81890F8A8389818F5F77
:1016600089838981873008F38A810F900F90CF9109
:10167000DF910895DF93CF93CDB7DEB7AC970FB668
:10168000F894DEBF0FBECDBF8CA780EF8BA780E0A4
:1016900060E041E00E942A109BA58CA589238BA7BE
:1016A00082E06BA50E94431180E062E041E00E946D
:1016B0002A1080E090E0A0E0B0E48FA398A7A9A74B
:1016C000BAA76FA178A589A59AA520E030E04AEFD6
:1016D00054E40E941F02DC01CB018BA39CA3ADA3A9
:1016E000BEA36BA17CA18DA19EA120E030E040E8CB
:1016F0005FE30E94250488232CF481E090E09AA304
:1017000089A33FC06BA17CA18DA19EA120E03FEFEA
:101710004FE757E40E94C50318164CF56FA178A552
:1017200089A59AA520E030E040E251E40E941F0222
:10173000DC01CB01BC01CD010E944900DC01CB01E1
:101740009AA389A30FC088EC90E098A38F8F8F8D08
:1017500098A10197F1F798A38F8F89A19AA101977A
:101760009AA389A389A19AA1009769F714C06BA1D4
:101770007CA18DA19EA10E944900DC01CB019AA30E
:1017800089A389A19AA19E8F8D8F8D8D9E8D0197A2
:10179000F1F79E8F8D8F80E062E040E00E942A107A
:1017A00080EF8BA78BA5982F90958CA589238BA76D
:1017B0008BA5982F9295907F82E0692F0E9443110C
:1017C00080E062E041E00E942A1080E090E0A0E02A
:1017D000B0E4898F9A8FAB8FBC8F698D7A8D8B8D9A
:1017E0009C8D20E030E04AEF54E40E941F02DC01AF
:1017F000CB018D8B9E8BAF8BB88F6D897E898F8946
:10180000988D20E030E040E85FE30E9425048823C3
:101810002CF481E090E09C8B8B8B3FC06D897E899E
:101820008F89988D20E03FEF4FE757E40E94C50372
:1018300018164CF5698D7A8D8B8D9C8D20E030E0EB
:1018400040E251E40E941F02DC01CB01BC01CD014A
:101850000E944900DC01CB019C8B8B8B0FC088EC74
:1018600090E09A8B898B89899A890197F1F79A8BF5
:10187000898B8B899C8901979C8B8B8B8B899C890D
:10188000009769F714C06D897E898F89988D0E94B1
:101890004900DC01CB019C8B8B8B8B899C89988BBD
:1018A0008F878F8598890197F1F7988B8F8780E0D4
:1018B00062E040E00E942A1080E090E0A0E0B0E406
:1018C0008B879C87AD87BE876B857C858D859E8544
:1018D00020E030E04AEF54E40E941F02DC01CB011B
:1018E0008F839887A987BA876F81788589859A853C
:1018F00020E030E040E85FE30E94250488232CF4D8
:1019000081E090E09E838D833FC06F8178858985DB
:101910009A8520E03FEF4FE757E40E94C503181671
:101920004CF56B857C858D859E8520E030E040E21E
:1019300051E40E941F02DC01CB01BC01CD010E94D9
:101940004900DC01CB019E838D830FC088EC90E0C1
:101950009C838B838B819C810197F1F79C838B8384
:101960008D819E8101979E838D838D819E810097BD
:1019700069F714C06F81788589859A850E9449002E
:10198000DC01CB019E838D838D819E819A83898327
:1019900089819A810197F1F79A83898386E00E9471
:1019A0006109AC960FB6F894DEBF0FBECDBFCF91E4
:1019B000DF910895DF93CF93CDB7DEB7E8970FB6E9
:1019C000F894DEBF0FBECDBF80E090E0A0E2B2E4AD
:1019D0008DAB9EABAFABB8AF6DA97EA98FA998AD0B
:1019E00020E030E04AEF54E40E941F02DC01CB010A
:1019F00089AB9AABABABBCAB69A97AA98BA99CA903
:101A000020E030E040E85FE30E94250488232CF4C6
:101A100081E090E098AB8FA73FC069A97AA98BA914
:101A20009CA920E03FEF4FE757E40E94C50318163A
:101A30004CF56DA97EA98FA998AD20E030E040E279
:101A400051E40E941F02DC01CB01BC01CD010E94C8
:101A50004900DC01CB0198AB8FA70FC088EC90E068
:101A60009EA78DA78DA59EA50197F1F79EA78DA78F
:101A70008FA598A9019798AB8FA78FA598A90097D4
:101A800069F714C069A97AA98BA99CA90E94490089
:101A9000DC01CB0198AB8FA78FA598A99CA78BA73A
:101AA0008BA59CA50197F1F79CA78BA780E20E94CC
:101AB000610980E20E94610980E80E94610980E07A
:101AC00090E0A0E8BFE38FA398A7A9A7BAA76FA14A
:101AD00078A589A59AA520E030E04AEF54E40E9459
:101AE0001F02DC01CB018BA39CA3ADA3BEA36BA102
:101AF0007CA18DA19EA120E030E040E85FE30E9440
:101B0000250488232CF481E090E09AA389A33FC0A8
:101B10006BA17CA18DA19EA120E03FEF4FE757E490
:101B20000E94C50318164CF56FA178A589A59AA542
:101B300020E030E040E251E40E941F02DC01CB01D2
:101B4000BC01CD010E944900DC01CB019AA389A30D
:101B50000FC088EC90E098A38F8F8F8D98A101978C
:101B6000F1F798A38F8F89A19AA101979AA389A3CE
:101B700089A19AA1009769F714C06BA17CA18DA1DE
:101B80009EA10E944900DC01CB019AA389A389A1EF
:101B90009AA19E8F8D8F8D8D9E8D0197F1F79E8FCF
:101BA0008D8F80E00E94610980EC0E94610980E0D5
:101BB00090E0A0E8BFE3898F9A8FAB8FBC8F698DCF
:101BC0007A8D8B8D9C8D20E030E04AEF54E40E94AA
:101BD0001F02DC01CB018D8B9E8BAF8BB88F6D8983
:101BE0007E898F89988D20E030E040E85FE30E9495
:101BF000250488232CF481E090E09C8B8B8B3FC0E4
:101C00006D897E898F89988D20E03FEF4FE757E4FB
:101C10000E94C50318164CF5698D7A8D8B8D9C8DAD
:101C200020E030E040E251E40E941F02DC01CB01E1
:101C3000BC01CD010E944900DC01CB019C8B8B8B48
:101C40000FC088EC90E09A8B898B89899A890197DB
:101C5000F1F79A8B898B8B899C8901979C8B8B8B55
:101C60008B899C89009769F714C06D897E898F895B
:101C7000988D0E944900DC01CB019C8B8B8B8B895A
:101C80009C89988B8F878F8598890197F1F7988B1E
:101C90008F8780E00E94610980E10E94610980E0F5
:101CA00090E0A0E0B0E48B879C87AD87BE876B8512
:101CB0007C858D859E8520E030E04AEF54E40E94CB
:101CC0001F02DC01CB018F839887A987BA876F81B8
:101CD000788589859A8520E030E040E85FE30E94BE
:101CE000250488232CF481E090E09E838D833FC0FF
:101CF0006F81788589859A8520E03FEF4FE757E42B
:101D00000E94C50318164CF56B857C858D859E85D4
:101D100020E030E040E251E40E941F02DC01CB01F0
:101D2000BC01CD010E944900DC01CB019E838D8363
:101D30000FC088EC90E09C838B838B819C81019702
:101D4000F1F79C838B838D819E8101979E838D8388
:101D50008D819E81009769F714C06F817885898590
:101D60009A850E944900DC01CB019E838D838D8181
:101D70009E819A83898389819A810197F1F79A8359
:101D8000898381E08093FE02E8960FB6F894DEBF67
:101D90000FBECDBFCF91DF910895DF93CF9300D0D9
:101DA0000F92CDB7DEB79B838A8319820EC08981DB
:101DB000282F30E08A819B81FC01E20FF31F808194
:101DC0000E943A0B89818F5F89838981282F30E0B7
:101DD0008A819B81FC01E20FF31F8081882339F700
:101DE0000F900F900F90CF91DF910895DF93CF93D5
:101DF00000D00F92CDB7DEB78A836B838A818823A8
:101E000051F48B81803120F08B81805C898309C003
:101E10008B81898306C08A81813019F48B81805C33
:101E20008983898180580E9461090F900F900F90DB
:101E3000CF91DF910895DF93CF93CDB7DEB727978A
:101E40000FB6F894DEBF0FBECDBF9C838B836D832E
:101E50004E832F831A828D81882F90E0880F991FDF
:101E6000880F991F880F991F8A838A81805C0E943E
:101E7000610919820EC08981282F30E08B819C81F5
:101E8000FC01E20FF31F80810E943A0B89818F5F72
:101E900089838981883078F38E816F810E94F60E64
:101EA0008D810E943A0B27960FB6F894DEBF0FBEC5
:101EB000CDBFCF91DF910895DF93CF9300D000D0B5
:101EC00000D0CDB7DEB76B837C838D839E838B81FF
:101ED0009C810E94A70F8A838A8189832CC0898173
:101EE00081500E94D20F9C0140E050E08B819C8188
:101EF000AD81BE81BC01CD010E94A23ADA01C901C7
:101F0000805D0E943A0B898181500E94D20F9C0112
:101F100040E050E08B819C81AD81BE81BC01CD0150
:101F20000E94A23ADC01CB018B839C83AD83BE83EC
:101F3000898181508983898118168CF226960FB683
:101F4000F894DEBF0FBECDBFCF91DF910895DF9330
:101F5000CF9300D000D0CDB7DEB79B838A831982A0
:101F60008A819B81009781F481E08C8313C08A81F0
:101F70009B812AE030E0B9010E948E3ACB019B831D
:101F80008A8389818F5F89838A819B81009779F712
:101F900089818C838C810F900F900F900F90CF913F
:101FA000DF910895DF93CF9300D000D0CDB7DEB797
:101FB0008C8381E090E09A8389831B8211C08981A0
:101FC0009A819C01220F331FC901880F991F880F26
:101FD000991F820F931F9A8389838B818F5F8B83D5
:101FE0009B818C81981758F389819A810F900F906B
:101FF0000F900F90CF91DF910895DF93CF9300D092
:102000000F92CDB7DEB789837B836A838A819B81F8
:10201000CC01A0E0B0E02FEF30E040E050E0BC01A8
:10202000CD010E946F3ADC01CB0128E833E140E0AA
:1020300050E0BC01CD010E94A23ADA01C901982FFB
:102040008981692F0E9443110F900F900F90CF91BB
:10205000DF910895DF93CF93CDB7DEB728970FB602
:10206000F894DEBF0FBECDBF8A836B834C83198289
:102070008C81813009F079C08B81883008F072C082
:102080008A81282F30E038872F838F81988581308F
:10209000910549F12F813885223031052CF48F814B
:1020A0009885009761F05BC02F813885223031051B
:1020B00071F18F81988583309105E9F150C0ABE3D0
:1020C000B0E0EBE3F0E08081482F8B81282F30E0F7
:1020D00081E090E0022E02C0880F991F0A94E2F777
:1020E000842B8C93C6C0A8E3B0E0E8E3F0E08081E5
:1020F000482F8B81282F30E081E090E0022E02C033
:10210000880F991F0A94E2F7842B8C93B2C0A5E341
:10211000B0E0E5E3F0E08081482F8B81282F30E0AC
:1021200081E090E0022E02C0880F991F0A94E2F726
:10213000842B8C939EC0A2E3B0E0E2E3F0E08081C8
:10214000482F8B81282F30E081E090E0022E02C0E2
:10215000880F991F0A94E2F7842B8C938AC081E040
:10216000898387C081E0898384C08C81882309F0BA
:102170007EC08B81883008F077C08A81282F30E0BC
:102180003E832D838D819E818130910559F12D8172
:102190003E81223031052CF48D819E81009769F0BB
:1021A00060C02D813E812230310589F18D819E8173
:1021B0008330910509F440C054C0ABE3B0E0EBE3D9
:1021C000F0E08081482F8B81282F30E081E090E083
:1021D000022E02C0880F991F0A94E2F7809584238B
:1021E0008C9347C0A8E3B0E0E8E3F0E08081482F9B
:1021F0008B81282F30E081E090E0022E02C0880F12
:10220000991F0A94E2F7809584238C9332C0A5E34A
:10221000B0E0E5E3F0E08081482F8B81282F30E0AB
:1022200081E090E0022E02C0880F991F0A94E2F725
:10223000809584238C931DC0A2E3B0E0E2E3F0E03C
:102240008081482F8B81282F30E081E090E0022EA2
:1022500002C0880F991F0A94E2F7809584238C931B
:1022600008C081E0898305C081E0898302C081E0E4
:102270008983898128960FB6F894DEBF0FBECDBF43
:10228000CF91DF910895DF93CF9300D000D00F92CC
:10229000CDB7DEB78A836B8319828A818830B0F527
:1022A0008A81282F30E03D832C838C819D81813071
:1022B0009105D1F02C813D81223031052CF48C81A7
:1022C0009D81009761F01FC02C813D812230310536
:1022D00081F08C819D818330910581F014C0EBE306
:1022E000F0E08B81808314C0E8E3F0E08B81808391
:1022F0000FC0E5E3F0E08B8180830AC0E2E3F0E009
:102300008B81808305C081E0898302C081E089835D
:1023100089810F900F900F900F900F90CF91DF91C8
:102320000895DF93CF93CDB7DEB727970FB6F89414
:10233000DEBF0FBECDBF8A836B835D834C83198262
:102340008C819D81009709F47BC08B81883008F0D7
:1023500074C08A81282F30E03F832E834E815F81B5
:102360004130510559F18E819F818230910534F4BD
:102370002E813F812115310569F05CC04E815F815E
:102380004230510579F18E819F818330910509F4A6
:102390003DC050C0E9E3F0E08081282F30E08B8120
:1023A000882F90E0A90102C0559547958A95E2F7DC
:1023B000CA018170EC81FD81808344C0E6E3F0E0D6
:1023C0008081282F30E08B81882F90E0A90102C006
:1023D000559547958A95E2F7CA018170EC81FD8198
:1023E000808330C0E3E3F0E08081282F30E08B81F0
:1023F000882F90E0A90102C0559547958A95E2F78C
:10240000CA018170EC81FD8180831CC0E0E3F0E0B3
:102410008081282F30E08B81882F90E0A90102C0B5
:10242000559547958A95E2F7CA018170EC81FD8147
:10243000808308C081E0898305C081E0898302C070
:1024400082E08983898127960FB6F894DEBF0FBE9C
:10245000CDBFCF91DF910895DF93CF9300D000D00F
:102460000F92CDB7DEB78A836B8319828B81883058
:1024700008F072C08A81282F30E03D832C838C8144
:102480009D818130910549F12C813D8122303105BA
:102490002CF48C819D81009761F05BC02C813D8183
:1024A0002230310571F18C819D8183309105E9F1F4
:1024B00050C0ABE3B0E0EBE3F0E08081482F8B81CC
:1024C000282F30E081E090E0022E02C0880F991F93
:1024D0000A94E2F784278C9341C0A8E3B0E0E8E3D4
:1024E000F0E08081482F8B81282F30E081E090E060
:1024F000022E02C0880F991F0A94E2F784278C935A
:102500002DC0A5E3B0E0E5E3F0E08081482F8B81AA
:10251000282F30E081E090E0022E02C0880F991F42
:102520000A94E2F784278C9319C0A2E3B0E0E2E3B7
:10253000F0E08081482F8B81282F30E081E090E00F
:10254000022E02C0880F991F0A94E2F784278C9309
:1025500005C081E0898302C081E0898389810F9071
:102560000F900F900F900F90CF91DF910895DF9310
:10257000CF9300D000D00F92CDB7DEB78A836B83A4
:1025800019828A81843008F062C08A81282F30E065
:102590003D832C838C819D818130910529F12C8193
:1025A0003D81223031052CF48C819D81009761F0B2
:1025B0004BC02C813D812230310531F18C819D81D0
:1025C0008330910589F140C0ABE3B0E0EBE3F0E08C
:1025D0008081807F8C93ABE3B0E0EBE3F0E090810F
:1025E0008B81892B8C9335C0A8E3B0E0E8E3F0E061
:1025F0008081807F8C93A8E3B0E0E8E3F0E09081F5
:102600008B81892B8C9325C0A5E3B0E0E5E3F0E056
:102610008081807F8C93A5E3B0E0E5E3F0E09081DA
:102620008B81892B8C9315C0A2E3B0E0E2E3F0E04C
:102630008081807F8C93A2E3B0E0E2E3F0E09081C0
:102640008B81892B8C9305C081E0898302C081E056
:10265000898389810F900F900F900F900F90CF91E9
:10266000DF910895DF93CF9300D000D00F92CDB7C4
:10267000DEB78A836B8319828A81843008F087C031
:102680008A81282F30E03D832C838C819D8181308D
:10269000910579F12C813D81223031052CF48C811A
:1026A0009D81009769F070C02C813D8122303105F9
:1026B000C9F18C819D818330910509F44CC064C0BF
:1026C000ABE3B0E0EBE3F0E080818F708C93ABE3A1
:1026D000B0E0EBE3F0E08081282F8B81882F90E041
:1026E00082959295907F9827807F9827822B8C9354
:1026F00050C0A8E3B0E0E8E3F0E080818F708C93F5
:10270000A8E3B0E0E8E3F0E08081282F8B81882FF8
:1027100090E082959295907F9827807F9827822BD2
:102720008C9337C0A5E3B0E0E5E3F0E080818F70E3
:102730008C93A5E3B0E0E5E3F0E08081282F8B8166
:10274000882F90E082959295907F9827807F982798
:10275000822B8C931EC0A2E3B0E0E2E3F0E0808124
:102760008F708C93A2E3B0E0E2E3F0E08081282F49
:102770008B81882F90E082959295907F9827807F1B
:102780009827822B8C9305C081E0898302C081E069
:10279000898389810F900F900F900F900F90CF91A8
:1027A000DF910895DF93CF93CDB7DEB7A5E5B0E015
:1027B000E5E5F0E080818C7F8C93A5E5B0E0E5E570
:1027C000F0E0808183608C93ABE5B0E0EBE5F0E076
:1027D000808180648C93CF91DF910895DF93CF93B4
:1027E00000D00F92CDB7DEB79B838A8319828A818E
:1027F0009B81009739F08A819B819093000380939D
:10280000FF0202C082E0898389810F900F900F90B0
:10281000CF91DF910895DF93CF9300D0CDB7DEB78E
:102820008A8319828A81843080F4A5E5B0E0E5E5E9
:10283000F0E080818C7F8C93A5E5B0E0E5E5F0E0E9
:1028400090818A81892B8C9302C081E08983898160
:102850000F900F90CF91DF910895DF93CF93CDB775
:10286000DEB7A5E5B0E0E5E5F0E08081837F8C93FD
:10287000A5E5B0E0E5E5F0E0808188608C93ABE50C
:10288000B0E0EBE5F0E0808180688C93CF91DF9140
:102890000895DF93CF9300D00F92CDB7DEB79B831F
:1028A0008A8319828A819B81009739F08A819B8172
:1028B000909302038093010302C082E0898389819F
:1028C0000F900F900F90CF91DF910895DF93CF93EA
:1028D00000D0CDB7DEB78A8319828A818430B8F4FC
:1028E000A5E5B0E0E5E5F0E08081837F8C93A5E588
:1028F000B0E0E5E5F0E08081282F8A81882F90E024
:10290000880F991F880F991F822B8C9302C081E03A
:10291000898389810F900F90CF91DF910895DF9384
:10292000CF93CDB7DEB7A4E5B0E0E4E5F0E0808179
:102930008F7B8C93A4E5B0E0E4E5F0E080818C939C
:10294000ABE5B0E0EBE5F0E0808180628C93CF9165
:10295000DF910895DF93CF9300D00F92CDB7DEB70C
:102960009B838A8319828A819B81009739F08A81AF
:102970009B81909304038093030302C082E08983C8
:1029800089810F900F900F90CF91DF910895DF9381
:10299000CF9300D0CDB7DEB78A8319828A81823087
:1029A000E0F4A4E5B0E0E4E5F0E080818F7B8C9377
:1029B000A4E5B0E0E4E5F0E08081282F8A81882F4B
:1029C00090E00024969587950794969587950794AF
:1029D000982F802D822B8C9302C081E0898389817E
:1029E0000F900F90CF91DF910895DF93CF9300D098
:1029F00000D0CDB7DEB78A8319828A81282F30E0D4
:102A00003C832B838B819C818130910589F02B81C4
:102A10003C8122303105A1F08B819C810097C1F46B
:102A2000ABE5B0E0EBE5F0E080818F7B8C9312C0EA
:102A3000ABE5B0E0EBE5F0E080818F778C930AC0E6
:102A4000ABE5B0E0EBE5F0E080818F7D8C9302C0D8
:102A500081E0898389810F900F900F900F90CF9123
:102A6000DF910895DF93CF9300D000D0CDB7DEB7CC
:102A70008A8319828A81282F30E03C832B838B81C3
:102A80009C818130910589F02B813C812230310578
:102A9000A1F08B819C810097C1F4ABE5B0E0EBE540
:102AA000F0E0808180648C9312C0ABE5B0E0EBE590
:102AB000F0E0808180688C930AC0ABE5B0E0EBE584
:102AC000F0E0808180628C9302C081E089838981FB
:102AD0000F900F900F900F90CF91DF9108951F925C
:102AE0000F920FB60F9211242F933F934F935F9342
:102AF0006F937F938F939F93AF93BF93EF93FF93C6
:102B0000DF93CF93CDB7DEB7E091FF02F0910003E2
:102B10000995CF91DF91FF91EF91BF91AF919F9177
:102B20008F917F916F915F914F913F912F910F9076
:102B30000FBE0F901F9018951F920F920FB60F9215
:102B400011242F933F934F935F936F937F938F93B2
:102B50009F93AF93BF93EF93FF93DF93CF93CDB743
:102B6000DEB7E0910103F09102030995CF91DF9167
:102B7000FF91EF91BF91AF919F918F917F916F9155
:102B80005F914F913F912F910F900FBE0F901F902B
:102B900018951F920F920FB60F9211242F933F9307
:102BA0004F935F936F937F938F939F93AF93BF9355
:102BB000EF93FF93DF93CF93CDB7DEB7E09103039D
:102BC000F09104030995CF91DF91FF91EF91BF91AF
:102BD000AF919F918F917F916F915F914F913F91B5
:102BE0002F910F900FBE0F901F901895DF93CF93EA
:102BF000CDB7DEB7AFE5B0E0EFE5F0E0808180680B
:102C00008C93CF91DF910895DF93CF93CDB7DEB74B
:102C1000AFE5B0E0EFE5F0E080818F778C93CF9166
:102C2000DF910895DF93CF9300D000D00F92CDB7FE
:102C3000DEB78FEF89831A825EC08A81882F90E089
:102C4000FC01EB53FD4F908182E0692F40E00E9430
:102C50002A101B823DC08B81882F90E0FC01E75336
:102C6000FD4F90819E012C5F3F4F82E0692FA901AB
:102C70000E9491118C81882341F58B81482F50E06F
:102C80008A81282F30E0CA01880F991F880F991F69
:102C9000820F931FFC01EB54FD4F808189830FC08D
:102CA0008B81882F90E0FC01E753FD4F90819E01BE
:102CB0002C5F3F4F82E0692FA9010E9491118C8106
:102CC000882371F389818D831CC08B818F5F8B83F7
:102CD0008B81843008F4BFCF8A81882F90E0FC017B
:102CE000EB53FD4F908182E0692F41E00E942A1052
:102CF0008A818F5F8A838A81843008F49ECF89819C
:102D00008D838D810F900F900F900F900F90CF912A
:102D1000DF910895DF93CF9300D00F92CDB7DEB748
:102D20009B838A831982EA81FB818281813059F4F5
:102D3000EA81FB818081EA81FB819181692F41E0F9
:102D40000E942A1012C0EA81FB818281882359F4F3
:102D5000EA81FB818081EA81FB819181692F40E0DA
:102D60000E942A1002C081E0898389810F900F9010
:102D70000F90CF91DF910895DF93CF9300D00F9202
:102D8000CDB7DEB79B838A831982EA81FB8182817A
:102D9000813059F4EA81FB818081EA81FB81918154
:102DA000692F40E00E942A1012C0EA81FB818281D3
:102DB000882359F4EA81FB818081EA81FB8191813A
:102DC000692F41E00E942A1002C081E08983898135
:102DD0000F900F900F90CF91DF910895DF93CF93D5
:102DE00000D00F92CDB7DEB79B838A831982EA8128
:102DF000FB818281813099F49091050381E08927DC
:102E000080930503EA81FB818081EA81FB819181C6
:102E100020910503692F422F0E942A101AC0EA81CF
:102E2000FB818281882399F49091050381E08927B1
:102E300080930503EA81FB818081EA81FB81918196
:102E400020910503692F422F0E942A1002C081E0C1
:102E5000898389810F900F900F90CF91DF91089512
:102E6000DF93CF93CDB7DEB7EAE3F0E087E080836E
:102E7000E7E3F0E089E08083E4E3F0E080EF808343
:102E8000E1E3F0E080E38083EBE3F0E080EC80833B
:102E9000E8E3F0E01082E5E3F0E08FEF8083E2E327
:102EA000F0E01082CF91DF910895DF93CF93CDB7FB
:102EB000DEB72A970FB6F894DEBF0FBECDBFCE01A6
:102EC00001969F838E83EAEDF2E0F987E887F5E0CB
:102ED000FA87E885F9850080888599850196998724
:102EE0008887EE81FF8100828E819F8101969F837A
:102EF0008E839A8591509A87EA85EE2351F780E276
:102F00009EE40E94AD25CE0101960E94FD222A96E4
:102F10000FB6F894DEBF0FBECDBFCF91DF910895FD
:102F2000AF92BF92CF92DF92EF92FF920F931F93D7
:102F3000DF93CF9300D000D000D0CDB7DEB79E8313
:102F40008D8319821A821B821C828D819E81CC0105
:102F5000A0E0B0E000D000D0EDB7FEB7319680839E
:102F60009183A283B38360E070E080E090E024EB83
:102F700030E040E050E00F2EFEEEEF2EF2E0FF2EAC
:102F8000F0E00F2FF0E01F2FF02D0F2EF3ECAF2EFF
:102F9000F9E0BF2EF0E0CF2EF0E0DF2EF02D0E9402
:102FA000F0170F900F900F900F90DC01CB018983E9
:102FB0009A83AB83BC8389819A810E94E3252696FC
:102FC0000FB6F894DEBF0FBECDBFCF91DF911F913A
:102FD0000F91FF90EF90DF90CF90BF90AF9008954A
:102FE000AF92BF92CF92DF92EF92FF920F931F9317
:102FF000DF93CF93CDB7DEB764970FB6F894DEBFFB
:103000000FBECDBF6D837E838F83988729873A87D4
:103010004B875C87ED86FE860F87188BA98ABA8A54
:10302000CB8ADC8A19821A821B821C8229A13AA1CE
:103030004BA15CA18D819E81AF81B88579018A0108
:10304000E81AF90A0A0B1B0B29893A894B895C8912
:103050008D859E85AF85B889281B390B4A0B5B0B84
:10306000C801B7010E946F3A7B018C0129853A851E
:103070004B855C858D819E81AF81B885281B390B7E
:103080004A0B5B0BC801B7010E94A23ADA01C901E1
:103090009C01AD018D859E85AF85B889820F931FF8
:1030A000A41FB51F89839A83AB83BC8389819A81CE
:1030B000AB81BC81BC01CD0164960FB6F894DEBF34
:1030C0000FBECDBFCF91DF911F910F91FF90EF9079
:1030D000DF90CF90BF90AF900895DF93CF9300D053
:1030E00000D0CDB7DEB78A837C836B831982EB81F6
:1030F000FC818081882391F4EB81FC8121818A818C
:10310000882F90E0FC01E353FD4F8081982F90952C
:10311000822F692F0E944311898317C0EB81FC81A4
:103120008081813081F4EB81FC8121818A81882F2B
:1031300090E0FC01E353FD4F9081822F692F0E94A4
:103140004311898302C081E0898389810F900F90A8
:103150000F900F90CF91DF910895DF93CF9300D020
:103160000F92CDB7DEB79B838A831982EA81FB81F8
:103170008081882361F4EA81FB818281EA81FB817D
:103180009381692F41E00E942A10898313C0EA814C
:10319000FB818081813061F4EA81FB818281EA8157
:1031A000FB819381692F40E00E942A10898302C02D
:1031B00081E0898389810F900F900F90CF91DF91EB
:1031C0000895DF93CF9300D00F92CDB7DEB79B83E6
:1031D0008A831982EA81FB818081882361F4EA81F4
:1031E000FB818281EA81FB819381692F40E00E940B
:1031F0002A10898313C0EA81FB818081813061F4C8
:10320000EA81FB818281EA81FB819381692F41E020
:103210000E942A10898302C081E0898389810F90EE
:103220000F900F90CF91DF910895DF93CF93CDB79B
:10323000DEB7C254D0400FB6F894DEBF0FBECDBF8C
:10324000FE01EF5BFF4F91838083FE01E05CFF4F47
:103250001082FE01EF5BFF4F0190F081E02D838132
:103260009481CC01A0E0B0E0BC01CD010E94A90492
:10327000DC01CB01BC01CD0123E333E343E351E4A3
:103280000E941903DC01CB01BC01CD0120E030E03C
:1032900040E852E40E941F02DC01CB01BC01CD01D9
:1032A0000E944900DC01CB019FAF8EAF8EAD9FAD78
:1032B00096958795969587959DAF8CAF1BAE1AAE68
:1032C00019AEFE01EF5BFF4F0190F081E02D81818F
:1032D000882309F05EC1FE01EF5BFF4F0190F08192
:1032E000E02D8281882309F0A2C01BAE1AAE96C0E1
:1032F00019AE8BC0FE01EF5BFF4F0190F081E02D16
:10330000408189AD282F30E081E090E002C0880F35
:10331000991F2A95E2F7982F842F692F0E94B712E0
:1033200080E090E0A0E0B0E48DAB9EABAFABB8AF77
:103330006DA97EA98FA998AD20E030E04AEF54E452
:103340000E941F02DC01CB0189AB9AABABABBCABDB
:1033500069A97AA98BA99CA920E030E040E85FE345
:103360000E94250488232CF481E090E098AB8FA77D
:103370003FC069A97AA98BA99CA920E03FEF4FE73C
:1033800057E40E94C50318164CF56DA97EA98FA9B4
:1033900098AD20E030E040E251E40E941F02DC01E1
:1033A000CB01BC01CD010E944900DC01CB0198ABEF
:1033B0008FA70FC088EC90E09EA78DA78DA59EA536
:1033C0000197F1F79EA78DA78FA598A9019798ABB4
:1033D0008FA78FA598A9009769F714C069A97AA942
:1033E0008BA99CA90E944900DC01CB0198AB8FA757
:1033F0008FA598A99CA78BA78BA59CA50197F1F7F2
:103400009CA78BA789AD8F5F89AF89AD843008F405
:1034100071CF8AAD9BAD01969BAF8AAF2AAD3BAD14
:103420008CAD9DAD2817390708F462CF1FC2FE018D
:10343000EF5BFF4F0190F081E02D8281813009F038
:10344000A2C01BAE1AAE96C019AE8BC0FE01EF5BD8
:10345000FF4F0190F081E02D408189AD282F30E0B1
:1034600088E090E002C0959587952A95E2F7982F1D
:10347000842F692F0E94B71280E090E0A0E0B0E4B2
:103480008FA398A7A9A7BAA76FA178A589A59AA580
:1034900020E030E04AEF54E40E941F02DC01CB013F
:1034A0008BA39CA3ADA3BEA36BA17CA18DA19EA168
:1034B00020E030E040E85FE30E94250488232CF4FC
:1034C00081E090E09AA389A33FC06BA17CA18DA16C
:1034D0009EA120E03FEF4FE757E40E94C503181676
:1034E0004CF56FA178A589A59AA520E030E040E2CF
:1034F00051E40E941F02DC01CB01BC01CD010E94FE
:103500004900DC01CB019AA389A30FC088EC90E0AD
:1035100098A38F8F8F8D98A10197F1F798A38F8F24
:1035200089A19AA101979AA389A389A19AA1009739
:1035300069F714C06BA17CA18DA19EA10E944900D6
:10354000DC01CB019AA389A389A19AA19E8F8D8FBB
:103550008D8D9E8D0197F1F79E8F8D8F89AD8F5F39
:1035600089AF89AD843008F471CF8AAD9BAD0196E7
:103570009BAF8AAF2AAD3BAD8CAD9DAD2817390707
:1035800008F462CF73C181E0FE01E05CFF4F8083ED
:103590006DC1FE01EF5BFF4F0190F081E02D818155
:1035A000813009F05EC1FE01EF5BFF4F0190F081B9
:1035B000E02D8281882309F0A2C01BAE1AAE96C00E
:1035C00019AE8BC0FE01EF5BFF4F0190F081E02D43
:1035D000408189AD282F30E081E090E002C0880F63
:1035E000991F2A95E2F7982F842F692F0E94321392
:1035F00080E090E0A0E0B0E4898F9A8FAB8FBC8F21
:10360000698D7A8D8B8D9C8D20E030E04AEF54E4FB
:103610000E941F02DC01CB018D8B9E8BAF8BB88F7C
:103620006D897E898F89988D20E030E040E85FE3E6
:103630000E94250488232CF481E090E09C8B8B8BE6
:103640003FC06D897E898F89988D20E03FEF4FE7DD
:1036500057E40E94C50318164CF5698D7A8D8B8D41
:103660009C8D20E030E040E251E40E941F02DC012A
:10367000CB01BC01CD010E944900DC01CB019C8B38
:103680008B8B0FC088EC90E09A8B898B89899A8903
:103690000197F1F79A8B898B8B899C8901979C8B79
:1036A0008B8B8B899C89009769F714C06D897E8903
:1036B0008F89988D0E944900DC01CB019C8B8B8BFC
:1036C0008B899C89988B8F878F8598890197F1F7D3
:1036D000988B8F8789AD8F5F89AF89AD843008F46F
:1036E00071CF8AAD9BAD01969BAF8AAF2AAD3BAD42
:1036F0008CAD9DAD2817390708F462CFB7C0FE0125
:10370000EF5BFF4F0190F081E02D8281813009F065
:10371000A2C01BAE1AAE96C019AE8BC0FE01EF5B05
:10372000FF4F0190F081E02D408189AD282F30E0DE
:1037300088E090E002C0959587952A95E2F7982F4A
:10374000842F692F0E94321380E090E0A0E0B0E463
:103750008B879C87AD87BE876B857C858D859E8595
:1037600020E030E04AEF54E40E941F02DC01CB016C
:103770008F839887A987BA876F81788589859A858D
:1037800020E030E040E85FE30E94250488232CF429
:1037900081E090E09E838D833FC06F81788589852D
:1037A0009A8520E03FEF4FE757E40E94C5031816C3
:1037B0004CF56B857C858D859E8520E030E040E270
:1037C00051E40E941F02DC01CB01BC01CD010E942B
:1037D0004900DC01CB019E838D830FC088EC90E013
:1037E0009C838B838B819C810197F1F79C838B83D6
:1037F0008D819E8101979E838D838D819E8100970F
:1038000069F714C06F81788589859A850E9449007F
:10381000DC01CB019E838D838D819E819A83898378
:1038200089819A810197F1F79A83898389AD8F5FA6
:1038300089AF89AD843008F471CF8AAD9BAD019614
:103840009BAF8AAF2AAD3BAD8CAD9DAD2817390734
:1038500008F462CF0BC081E0FE01E05CFF4F808383
:1038600005C081E0FE01E05CFF4F8083FE01E05C6B
:10387000FF4F8081CE5BDF4F0FB6F894DEBF0FBEE7
:10388000CDBFCF91DF910895DF93CF93CDB7DEB752
:10389000C454D0400FB6F894DEBF0FBECDBFFE01BA
:1038A000ED5BFF4F91838083FE01EE5BFF4F108243
:1038B000FE01E05CFF4F11821082FE01ED5BFF4FC5
:1038C0000190F081E02D83819481CC01A0E0B0E0F3
:1038D000BC01CD010E94A904DC01CB01BC01CD01DA
:1038E00020E030E044EB50E40E941903DC01CB01FE
:1038F000BC01CD0120E030E040E852E40E941F020C
:10390000DC01CB01BC01CD010E944900DC01CB01EF
:103910009FAF8EAF8EAD9FAD969587959695879507
:10392000969587959DAF8CAF1BAEFE01ED5BFF4F6B
:103930000190F081E02D8181882309F096C1FE017C
:10394000ED5BFF4F0190F081E02D8281882309F02B
:10395000C1C0FE01E05CFF4F11821082AFC081E068
:103960008AAF83E089AF81E08BAF98C08BAD882FA1
:1039700090E081709070882371F0FE01ED5BFF4F45
:103980000190F081E02D80816AAD0E94B7128AAD6E
:10399000880F8AAF0EC0FE01ED5BFF4F0190F081F2
:1039A000E02D808169AD0E94B71289AD0E943A2056
:1039B00089AF80E090E0A0E0B0E48DAB9EABAFAB10
:1039C000B8AF6DA97EA98FA998AD20E030E04AEF8D
:1039D00054E40E941F02DC01CB0189AB9AABABAB74
:1039E000BCAB69A97AA98BA99CA920E030E040E88A
:1039F0005FE30E94250488232CF481E090E098ABDB
:103A00008FA73FC069A97AA98BA99CA920E03FEFA5
:103A10004FE757E40E94C50318164CF56DA97EA91F
:103A20008FA998AD20E030E040E251E40E941F02EF
:103A3000DC01CB01BC01CD010E944900DC01CB01BE
:103A400098AB8FA70FC088EC90E09EA78DA78DA59F
:103A50009EA50197F1F79EA78DA78FA598A901971D
:103A600098AB8FA78FA598A9009769F714C069A98B
:103A70007AA98BA99CA90E944900DC01CB0198ABD3
:103A80008FA78FA598A99CA78BA78BA59CA501970D
:103A9000F1F79CA78BA78BAD8F5F8BAF8BAD893078
:103AA00008F464CFDE01A05CBF4FFE01E05CFF4F75
:103AB00080819181019611969C938E93FE01E05C2A
:103AC000FF4F208131818CAD9DAD2817390708F457
:103AD00046CF82C2FE01ED5BFF4F0190F081E02DE9
:103AE0008281813009F078C2FE01E05CFF4F1182D3
:103AF0001082AFC088E08AAF8CE089AF81E08BAFE5
:103B000098C08BAD882F90E081709070882371F001
:103B1000FE01ED5BFF4F0190F081E02D80816AADE9
:103B20000E94B7128AAD86958AAF0EC0FE01ED5B8A
:103B3000FF4F0190F081E02D808169AD0E94B712A6
:103B400089AD0E941D2089AF80E090E0A0E0B0E444
:103B50008FA398A7A9A7BAA76FA178A589A59AA5A9
:103B600020E030E04AEF54E40E941F02DC01CB0168
:103B70008BA39CA3ADA3BEA36BA17CA18DA19EA191
:103B800020E030E040E85FE30E94250488232CF425
:103B900081E090E09AA389A33FC06BA17CA18DA195
:103BA0009EA120E03FEF4FE757E40E94C50318169F
:103BB0004CF56FA178A589A59AA520E030E040E2F8
:103BC00051E40E941F02DC01CB01BC01CD010E9427
:103BD0004900DC01CB019AA389A30FC088EC90E0D7
:103BE00098A38F8F8F8D98A10197F1F798A38F8F4E
:103BF00089A19AA101979AA389A389A19AA1009763
:103C000069F714C06BA17CA18DA19EA10E944900FF
:103C1000DC01CB019AA389A389A19AA19E8F8D8FE4
:103C20008D8D9E8D0197F1F79E8F8D8F8BAD8F5F60
:103C30008BAF8BAD893008F464CFDE01A05CBF4F41
:103C4000FE01E05CFF4F80819181019611969C936B
:103C50008E93FE01E05CFF4F208131818CAD9DADE4
:103C60002817390708F446CFB7C1FE01ED5BFF4FB7
:103C70000190F081E02D8181813009F0A8C1FE0121
:103C8000ED5BFF4F0190F081E02D8281882309F0E8
:103C9000CDC0FE01E05CFF4F11821082BBC081E00D
:103CA0008AAF83E089AF81E08BAFA4C08BAD882F52
:103CB00090E081709070882371F0FE01ED5BFF4F02
:103CC0000190F081E02D80816AAD0E9432138AADAF
:103CD000880F8AAF1AC0FE01ED5BFF4F0190F081A3
:103CE000E02D808169AD0E94321389AD882F90E06C
:103CF000A0E0B0E0BC01CD010E945C0F80E20E9418
:103D00003A0B89AD0E943A2089AF80E090E0A0E0B4
:103D1000B0E4898F9A8FAB8FBC8F698D7A8D8B8D34
:103D20009C8D20E030E04AEF54E40E941F02DC0149
:103D3000CB018D8B9E8BAF8BB88F6D897E898F89E0
:103D4000988D20E030E040E85FE30E94250488235E
:103D50002CF481E090E09C8B8B8B3FC06D897E8939
:103D60008F89988D20E03FEF4FE757E40E94C5030D
:103D700018164CF5698D7A8D8B8D9C8D20E030E086
:103D800040E251E40E941F02DC01CB01BC01CD01E5
:103D90000E944900DC01CB019C8B8B8B0FC088EC0F
:103DA00090E09A8B898B89899A890197F1F79A8B90
:103DB000898B8B899C8901979C8B8B8B8B899C89A8
:103DC000009769F714C06D897E898F89988D0E944C
:103DD0004900DC01CB019C8B8B8B8B899C89988B58
:103DE0008F878F8598890197F1F7988B8F878BAD97
:103DF0008F5F8BAF8BAD893008F458CFDE01A05CAC
:103E0000BF4FFE01E05CFF4F8081918101961196CA
:103E10009C938E93FE01E05CFF4F208131818CAD3D
:103E20009DAD2817390708F43ACFD6C0FE01ED5BE7
:103E3000FF4F0190F081E02D8281813009F0C1C0F7
:103E4000FE01E05CFF4F11821082AFC088E08AAFB4
:103E50008CE089AF81E08BAF98C08BAD882F90E06C
:103E600081709070882371F0FE01ED5BFF4F01902F
:103E7000F081E02D80816AAD0E9432138AAD869573
:103E80008AAF0EC0FE01ED5BFF4F0190F081E02D87
:103E9000808169AD0E94321389AD0E941D2089AFD7
:103EA00080E090E0A0E0B0E48B879C87AD87BE8780
:103EB0006B857C858D859E8520E030E04AEF54E45B
:103EC0000E941F02DC01CB018F839887A987BA87E4
:103ED0006F81788589859A8520E030E040E85FE34E
:103EE0000E94250488232CF481E090E09E838D833A
:103EF0003FC06F81788589859A8520E03FEF4FE745
:103F000057E40E94C50318164CF56B857C858D859A
:103F10009E8520E030E040E251E40E941F02DC0177
:103F2000CB01BC01CD010E944900DC01CB019E8385
:103F30008D830FC088EC90E09C838B838B819C8168
:103F40000197F1F79C838B838D819E8101979E83DE
:103F50008D838D819E81009769F714C06F8178856C
:103F600089859A850E944900DC01CB019E838D835F
:103F70008D819E819A83898389819A810197F1F746
:103F80009A8389838BAD8F5F8BAF8BAD893008F4BB
:103F900064CFDE01A05CBF4FFE01E05CFF4F80817B
:103FA0009181019611969C938E93FE01E05CFF4FE8
:103FB000208131818CAD9DAD2817390708F446CF9B
:103FC0000BC0FE01EE5BFF4F81E0808305C0FE0168
:103FD000EE5BFF4F81E08083FE01EE5BFF4F80814F
:103FE000CC5BDF4F0FB6F894DEBF0FBECDBFCF91D5
:103FF000DF910895DF93CF9300D0CDB7DEB79A83DA
:104000008983E981FA818181882339F4E981FA8100
:10401000808160E00E94B7120BC0E981FA81818142
:10402000813031F4E981FA81808160E00E943213AD
:104030000F900F90CF91DF910895DF93CF9300D031
:10404000CDB7DEB78A8319828A81817089838A819C
:1040500086958A838981882321F08A8188608A8372
:1040600003C08A81877F8A838A810F900F90CF91C6
:10407000DF910895DF93CF9300D0CDB7DEB78A8369
:1040800019828A81869586958695817089838A8131
:10409000880F8A838981882321F08A8181608A83BD
:1040A00003C08A818E7F8A838A810F900F90CF917F
:1040B000DF910895DF93CF93CDB7DEB7A1970FB609
:1040C000F894DEBF0FBECDBF9F8F8E8F79A368A3FC
:1040D0001D8EE8A1F9A181E08083EE8DFF8D8281A4
:1040E000882309F0C3C0EE8DFF8D8381813009F0F4
:1040F0009CC0EE8DFF8D8081EE8DFF8D918126E03D
:1041000033E0692FA9010E94911180910603882351
:1041100009F06DC180E090E0A6E1B3E4898F9A8F49
:10412000AB8FBC8F698D7A8D8B8D9C8D20E030E0BC
:104130004AEF54E40E941F02DC01CB018D8B9E8B61
:10414000AF8BB88F6D897E898F89988D20E030E0A4
:1041500040E85FE30E94250488232CF481E090E08E
:104160009C8B8B8B3FC06D897E898F89988D20E0D9
:104170003FEF4FE757E40E94C50318164CF5698DD1
:104180007A8D8B8D9C8D20E030E040E251E40E94DE
:104190001F02DC01CB01BC01CD010E944900DC0102
:1041A000CB019C8B8B8B0FC088EC90E09A8B898B1A
:1041B00089899A890197F1F79A8B898B8B899C89D8
:1041C00001979C8B8B8B8B899C89009769F714C016
:1041D0006D897E898F89988D0E944900DC01CB0111
:1041E0009C8B8B8B8B899C89988B8F878F859889EB
:1041F0000197F1F7988B8F87EE8DFF8D8081EE8D83
:10420000FF8D918126E033E0692FA9010E94911171
:1042100080910603882321F4E8A1F9A11082E7C068
:10422000E8A1F9A181E08083E2C0EE8DFF8D83815A
:104230008823C9F4EE8DFF8D8081EE8DFF8D9181F5
:1042400028A139A1692FA9010E949111809106032B
:10425000882321F4E8A1F9A11082C9C0E8A1F9A13D
:1042600081E08083C4C081E08D8FC1C0EE8DFF8D61
:104270008281813009F0B9C0EE8DFF8D838181305C
:1042800009F097C0EE8DFF8D8081EE8DFF8D9181BD
:1042900026E033E0692FA9010E9491118091060365
:1042A000813009F0A4C080E090E0A6E1B3E48B8700
:1042B0009C87AD87BE876B857C858D859E8520E03C
:1042C00030E04AEF54E40E941F02DC01CB018F83EF
:1042D0009887A987BA876F81788589859A8520E034
:1042E00030E040E85FE30E94250488232CF481E05D
:1042F00090E09E838D833FC06F81788589859A8504
:1043000020E03FEF4FE757E40E94C50318164CF535
:104310006B857C858D859E8520E030E040E251E410
:104320000E941F02DC01CB01BC01CD010E944900AB
:10433000DC01CB019E838D830FC088EC90E09C83D1
:104340008B838B819C810197F1F79C838B838D817B
:104350009E8101979E838D838D819E81009769F751
:1043600014C06F81788589859A850E944900DC0197
:10437000CB019E838D838D819E819A8389838981E0
:104380009A810197F1F79A838983EE8DFF8D808161
:10439000EE8DFF8D918126E033E0692FA9010E9407
:1043A000911180910603813011F5E8A1F9A11082E5
:1043B0001EC0EE8DFF8D83818823A1F4EE8DFF8DCD
:1043C0008081EE8DFF8D918128A139A1692FA901EE
:1043D0000E94911180910603813049F4E8A1F9A16E
:1043E000108205C081E08D8F02C081E08D8F8D8DA0
:1043F000A1960FB6F894DEBF0FBECDBFCF91DF916F
:104400000895DF93CF9300D000D00F92CDB7DEB7E1
:104410009B838A837D836C831982EC81FD8181E09B
:104420008083EA81FB818281882309F076C0109223
:104430000803EA81FB818381813009F04DC0EA8164
:10444000FB818081EA81FB81918127E033E0692F44
:10445000A9010E94911180910703882309F0C4C02B
:10446000EA81FB818081EA81FB81918127E033E051
:10447000692FA9010E94911180910703882309F0F7
:10448000B3C080910A038F5F80930A0380910A036F
:10449000853198F080910803882361F4EC81FD81D7
:1044A0001082EA81FB810480F581E02D099581E08D
:1044B0008093080310920A0397C0809109038F5FCD
:1044C0008093090380910903853108F48DC010920F
:1044D00008031092090388C0EA81FB818381882345
:1044E000C9F4EA81FB818081EA81FB8191812C8181
:1044F0003D81692FA9010E949111809107038823B2
:1045000021F4EC81FD8110826FC0EC81FD8181E09E
:1045100080836AC081E0898367C0EA81FB818281F0
:10452000813009F05FC081E080930803EA81FB815C
:1045300083818130D9F5EA81FB818081EA81FB8129
:10454000918127E033E0692FA9010E9491118091A8
:104550000703813009F048C080910A038F5F809380
:104560000A0380910A03853190F08091080381301D
:1045700059F4EC81FD811082EA81FB810480F58190
:10458000E02D09951092080310920A032DC0809126
:1045900009038F5F8093090380910903853120F11E
:1045A00081E080930803109209031EC0EA81FB8119
:1045B00083818823A1F4EA81FB818081EA81FB81E8
:1045C00091812C813D81692FA9010E9491118091D7
:1045D0000703813049F4EC81FD81108205C081E040
:1045E000898302C081E0898389810F900F900F90A9
:1045F0000F900F90CF91DF910895DF93CF93CDB7B8
:10460000DEB760970FB6F894DEBF0FBECDBF9A83BA
:104610008983E981FA818081282F30E0388B2F87C8
:104620008F8598898130910509F4C1C02F8538891B
:104630002230310509F429C18F859889009709F046
:10464000D9C1E981FA818181282F30E03E872D8709
:104650008D859E858130910509F44AC02D853E8562
:10466000223031052CF48D859E85009769F073C04A
:104670002D853E852230310509F45FC08D859E85EC
:104680008330910531F167C0A3E5B0E0E3E5F0E0E8
:104690008081877F8C93A3E5B0E0E3E5F0E0808143
:1046A0008F7B8C93E981FA818481882349F0A9E585
:1046B000B0E0E9E5F0E0808181608C939C914BC093
:1046C000A9E5B0E0E9E5F0E080818E7F8C932C9144
:1046D00042C0A3E5B0E0E3E5F0E08081877F8C9302
:1046E000A3E5B0E0E3E5F0E0808180648C9333C023
:1046F000A3E5B0E0E3E5F0E0808188608C93A3E57A
:10470000B0E0E3E5F0E080818F7B8C93E981FA8172
:104710008481882349F0A9E5B0E0E9E5F0E08081F3
:1047200082608C933C9117C0A9E5B0E0E9E5F0E028
:1047300080818D7F8C938C910EC0A3E5B0E0E3E582
:10474000F0E0808188608C93A3E5B0E0E3E5F0E0E1
:10475000808180648C93A3E5B0E0E3E5F0E08081A4
:104760008F7C8C93A3E5B0E0E3E5F0E08081282F17
:10477000E981FA818281882F90E082959295907FDD
:104780009827807F9827822B8C93A3E5B0E0E3E500
:10479000F0E08081887F8C93A3E5B0E0E3E5F0E072
:1047A0009081E981FA818381892B8C9323C1AFE4C5
:1047B000B0E0EFE4F0E080818C7F8C93AFE4B0E078
:1047C000EFE4F0E08081982FE981FA8181818370A4
:1047D000892B8C93AEE4B0E0EEE4F0E08081877E3C
:1047E0008C93AEE4B0E0EEE4F0E08081282FE98124
:1047F000FA818181882F90E08C70880F991F822B1D
:104800008C93AFE4B0E0EFE4F0E080818F708C93A4
:10481000AFE4B0E0EFE4F0E08081282FE981FA8195
:104820008281882F90E082959295907F9827807F53
:104830009827822B8C93AEE4B0E0EEE4F0E0808128
:10484000887F8C93AEE4B0E0EEE4F0E09081E98103
:10485000FA818381892B8C93A9E5B0E0E9E5F0E04A
:104860008081877E8C93A9E5B0E0E9E5F0E0808166
:10487000282FE981FA818481882F90E0880F991F81
:10488000880F991F822B8C93B5C0E981FA818181B1
:10489000282F30E038872F838F81988581309105CC
:1048A00009F44AC02F813885223031052CF48F81DC
:1048B0009885009769F073C02F81388522303105C3
:1048C00009F45FC08F8198858330910531F167C00D
:1048D000A5E4B0E0E5E4F0E08081877F8C93A5E477
:1048E000B0E0E5E4F0E080818F7B8C93E981FA8190
:1048F0008481882349F0A9E5B0E0E9E5F0E0808112
:1049000080648C939C914BC0A9E5B0E0E9E5F0E0B0
:1049100080818F7B8C932C9142C0A5E4B0E0E5E4CC
:10492000F0E08081877F8C93A5E4B0E0E5E4F0E0DF
:10493000808180648C9333C0A5E4B0E0E5E4F0E0CE
:10494000808188608C93A5E4B0E0E5E4F0E08081AC
:104950008F7B8C93E981FA818481882349F0A9E5D2
:10496000B0E0E9E5F0E0808180688C933C9117C06D
:10497000A9E5B0E0E9E5F0E080818F778C938C9138
:104980000EC0A5E4B0E0E5E4F0E0808188608C939F
:10499000A5E4B0E0E5E4F0E0808180648C93A5E4D8
:1049A000B0E0E5E4F0E080818F7C8C93A5E4B0E09A
:1049B000E5E4F0E08081282FE981FA818281882F67
:1049C00090E082959295907F9827807F9827822B00
:1049D0008C93A5E4B0E0E5E4F0E08081887F8C93DF
:1049E000A5E4B0E0E5E4F0E09081E981FA8183811B
:1049F000892B8C9360960FB6F894DEBF0FBECDBFA7
:104A0000CF91DF910895DF93CF9300D0CDB7DEB77C
:104A10009A838983A3E5B0E0E3E5F0E080818F7CB1
:104A20008C93A3E5B0E0E3E5F0E08081282FE981F5
:104A3000FA818281882F90E082959295907F9827C5
:104A4000807F9827822B8C930F900F90CF91DF91CE
:104A50000895DF93CF930F92CDB7DEB78983E2E558
:104A6000F0E0898180830F90CF91DF910895DF93EB
:104A7000CF930F92CDB7DEB78983ECE5F0E0898163
:104A800080830F90CF91DF910895DF93CF93CDB7BF
:104A9000DEB727970FB6F894DEBF0FBECDBF9B835E
:104AA0008A837D836C8319828A819B81009721F49C
:104AB0008C819D810097F9F0EA81FB818181282F0B
:104AC00030E03F832E838E819F81009731F02E81CD
:104AD0003F812130310541F010C08C819D81909340
:104AE0000C0380930B0309C08C819D8190930E036E
:104AF00080930D0302C082E08983898127960FB6D7
:104B0000F894DEBF0FBECDBFCF91DF910895DF9344
:104B1000CF9300D0CDB7DEB79A838983AFE4B0E0FE
:104B2000EFE4F0E080818F708C93AFE4B0E0EFE4CD
:104B3000F0E08081282FE981FA818281882F90E03E
:104B400082959295907F9827807F9827822B8C93CF
:104B50000F900F90CF91DF910895DF93CF9300D006
:104B6000CDB7DEB79A838983E6E4F0E089819A8144
:104B7000918380830F900F90CF91DF910895DF9301
:104B8000CF9300D0CDB7DEB79A838983ECE4F0E011
:104B900089819A81918380830F900F90CF91DF91CB
:104BA0000895DF93CF9300D0CDB7DEB79A83898382
:104BB000EAE4F0E089819A81918380830F900F90DD
:104BC000CF91DF910895DF93CF9300D0CDB7DEB7BB
:104BD0009A838983E8E4F0E089819A8191838083D4
:104BE0000F900F90CF91DF910895DF93CF93CDB7C2
:104BF000DEB729970FB6F894DEBF0FBECDBF9B83FB
:104C00008A837D836C8319828A819B81009729F432
:104C10008C819D81009709F45BC0EA81FB818181D1
:104C2000282F30E039872887888599858430910539
:104C300091F0288539852C30310509F442C08885EA
:104C40009985009709F046C08C819D81909310034F
:104C500080930F033FC0EA81FB818281282F30E0DF
:104C60003F832E838E819F8184309105A1F02E8118
:104C70003F81253031052CF48E819F81009759F0BA
:104C800010C02E813F812830310529F08E819F810F
:104C90008C30910531F48C819D8190931203809327
:104CA0001103EA81FB818281882F90E00096843095
:104CB000910580F48C819D8190931403809313035C
:104CC00009C08C819D81909316038093150302C0C7
:104CD00082E08983898129960FB6F894DEBF0FBEE2
:104CE000CDBFCF91DF910895DF93CF9300D0CDB7A3
:104CF000DEB79A838983A5E4B0E0E5E4F0E0808143
:104D00008F7C8C93A5E4B0E0E5E4F0E08081282F6F
:104D1000E981FA818281882F90E082959295907F37
:104D20009827807F9827822B8C930F900F90CF919C
:104D3000DF910895DF93CF930F92CDB7DEB78983CC
:104D4000E4E4F0E0898180830F90CF91DF910895B2
:104D5000DF93CF930F92CDB7DEB78983E3E4F0E022
:104D6000898180830F90CF91DF910895DF93CF9356
:104D7000CDB7DEB727970FB6F894DEBF0FBECDBF15
:104D80009B838A837D836C8319828A819B810097B0
:104D900021F48C819D810097F9F0EA81FB8181816A
:104DA000282F30E03F832E838E819F81009731F042
:104DB0002E813F812130310541F010C08C819D81D1
:104DC000909318038093170309C08C819D81909361
:104DD0001A038093190302C082E089838981279690
:104DE0000FB6F894DEBF0FBECDBFCF91DF9108950F
:104DF0001F920F920FB60F9211242F933F934F9350
:104E00005F936F937F938F939F93AF93BF93EF9332
:104E1000FF93DF93CF93CDB7DEB7E0910D03F09111
:104E20000E030995CF91DF91FF91EF91BF91AF9163
:104E30009F918F917F916F915F914F913F912F91B2
:104E40000F900FBE0F901F9018951F920F920FB6E4
:104E50000F9211242F933F934F935F936F937F9300
:104E60008F939F93AF93BF93EF93FF93DF93CF9372
:104E7000CDB7DEB7E0910B03F0910C030995CF910C
:104E8000DF91FF91EF91BF91AF919F918F917F91B2
:104E90006F915F914F913F912F910F900FBE0F90A7
:104EA0001F9018951F920F920FB60F9211242F93F7
:104EB0003F934F935F936F937F938F939F93AF93A2
:104EC000BF93EF93FF93DF93CF93CDB7DEB7E0911E
:104ED0001103F09112030995CF91DF91FF91EF91AA
:104EE000BF91AF919F918F917F916F915F914F9102
:104EF0003F912F910F900FBE0F901F9018951F920A
:104F00000F920FB60F9211242F933F934F935F93FD
:104F10006F937F938F939F93AF93BF93EF93FF9381
:104F2000DF93CF93CDB7DEB7E0911303F091140375
:104F30000995CF91DF91FF91EF91BF91AF919F9133
:104F40008F917F916F915F914F913F912F910F9032
:104F50000FBE0F901F9018951F920F920FB60F92D1
:104F600011242F933F934F935F936F937F938F936E
:104F70009F93AF93BF93EF93FF93DF93CF93CDB7FF
:104F8000DEB7E0910F03F09110030995CF91DF9107
:104F9000FF91EF91BF91AF919F918F917F916F9111
:104FA0005F914F913F912F910F900FBE0F901F90E7
:104FB00018951F920F920FB60F9211242F933F93C3
:104FC0004F935F936F937F938F939F93AF93BF9311
:104FD000EF93FF93DF93CF93CDB7DEB7E091150347
:104FE000F09116030995CF91DF91FF91EF91BF9159
:104FF000AF919F918F917F916F915F914F913F9171
:105000002F910F900FBE0F901F9018951F920F9227
:105010000FB60F9211242F933F934F935F936F938B
:105020007F938F939F93AF93BF93EF93FF93DF9300
:10503000CF93CDB7DEB7E0911703F0911803099530
:10504000CF91DF91FF91EF91BF91AF919F918F91A0
:105050007F916F915F914F913F912F910F900FBE74
:105060000F901F9018951F920F920FB60F92112458
:105070002F933F934F935F936F937F938F939F9360
:10508000AF93BF93EF93FF93DF93CF93CDB7DEB78B
:10509000E0910D03F0910E030995CF91DF91FF91FF
:1050A000EF91BF91AF919F918F917F916F915F91A0
:1050B0004F913F912F910F900FBE0F901F90189519
:1050C000DF93CF9300D00F92CDB7DEB71B828B81D9
:1050D000897F8B83AAE2B0E0EAE2F0E080818B7FF7
:1050E0008C938B8186608B838B818F7C8B838B8170
:1050F000877F8B838B818F7B8B83ABE2B0E0EBE28E
:10510000F0E080818D7F8C9383E390E09A838983A4
:105110008B8180688B83E0E4F0E08B8180838B81DE
:105120008F778B83E9E2F0E089818083E0E4F0E02F
:1051300089819A81892F99278083AAE2B0E0EAE2E7
:10514000F0E0808188608C93AAE2B0E0EAE2F0E0CF
:10515000808180618C930F900F900F90CF91DF91A1
:105160000895DF93CF9300D000D000D0CDB7DEB745
:105170008E831D8219821A821B821C820BC0898138
:105180009A81AB81BC810196A11DB11D89839A834F
:10519000AB83BC83EBE2F0E08081829586958770DB
:1051A000882F90E081709070009761F489819A81D6
:1051B000AB81BC81803523EC920720E0A20720E080
:1051C000B207E8F289819A81AB81BC81803523ECFA
:1051D000920720E0A20720E0B20719F481E08D8356
:1051E0000BC0AAE2B0E0EAE2F0E080818E7F8C930F
:1051F000ECE2F0E08E8180838D8126960FB6F894E4
:10520000DEBF0FBECDBFCF91DF910895DF93CF9367
:10521000CDB7DEB727970FB6F894DEBF0FBECDBF70
:105220009F838E831D8219821A821B821C828E812B
:105230009F81009771F482E08D8347C089819A81B4
:10524000AB81BC810196A11DB11D89839A83AB837B
:10525000BC83EBE2F0E08081882364F089819A814D
:10526000AB81BC81803523EC920720E0A20720E0CF
:10527000B20720F389819A81AB81BC81803523EC10
:10528000920720E0A20720E0B20719F481E08D83A5
:105290001CC0ECE2F0E08081882F90E0EE81FF817D
:1052A00091838083EAE2F0E080818695882F90E008
:1052B00081709070882349F0EE81FF818081918117
:1052C0009160EE81FF81918380838D8127960FB657
:1052D000F894DEBF0FBECDBFCF91DF910895DF936D
:1052E000CF9300D00F92CDB7DEB79B838A8319820C
:1052F0008A819B81009719F482E0898321C0EBE2C7
:10530000F0E080818823DCF7ECE2F0E08081882FF8
:1053100090E0EA81FB8191838083EAE2F0E0808182
:105320008695882F90E081709070882349F0EA81FB
:10533000FB81808191819160EA81FB8191838083EF
:1053400089810F900F900F90CF91DF910895DF9397
:10535000CF9300D000D0CDB7DEB79C838B831A8269
:1053600019828B819C81009789F482E08A8319C01D
:105370008981282F30E08B819C81FC01E20FF31F93
:1053800080810E94B12889818F5F89838981282F3C
:1053900030E08B819C81FC01E20FF31F8081882328
:1053A00039F78A810F900F900F900F90CF91DF9176
:1053B0000895DF93CF9300D000D00F92CDB7DEB722
:1053C0009C838B836D831A8219828B819C810097C9
:1053D00019F482E08A839CC1198289C12B813C81A6
:1053E0008981882F90E0820F931F0E946F29898105
:1053F000823008F479C18981282F30E08B819C812B
:10540000FC01E20FF31F80818E3679F48981882FA9
:1054100090E09C01215030408B819C81FC01E20F87
:10542000F31F80818F3609F467C18981282F30E00E
:105430008B819C81FC01E20FF31F80818636E9F4A9
:105440008981882F90E09C01215030408B819C8184
:10545000FC01E20FF31F8081863679F48981882F61
:1054600090E09C01225030408B819C81FC01E20F36
:10547000F31F80818F3609F43FC18981282F30E0E6
:105480008B819C81FC01E20FF31F8081893759F5E4
:105490008981882F90E09C01215030408B819C8134
:1054A000FC01E20FF31F80818136E9F48981882FA6
:1054B00090E09C01225030408B819C81FC01E20FE6
:1054C000F31F80818C3679F48981882F90E09C01CC
:1054D000235030408B819C81FC01E20FF31F8081BF
:1054E000803709F409C18981282F30E08B819C81A4
:1054F000FC01E20FF31F8081803759F58981882FE5
:1055000090E09C01215030408B819C81FC01E20F96
:10551000F31F80818F36E9F48981882F90E09C0108
:10552000225030408B819C81FC01E20FF31F80816F
:10553000843779F48981882F90E09C012350304092
:105540008B819C81FC01E20FF31F8081833709F47A
:10555000D3C08981282F30E08B819C81FC01E20F30
:10556000F31F8081843709F047C08981882F90E03C
:105570009C01215030408B819C81FC01E20FF31F84
:1055800080818337C9F58981882F90E09C01225062
:1055900030408B819C81FC01E20FF31F80818537B5
:1055A00059F58981882F90E09C01235030408B81F0
:1055B0009C81FC01E20FF31F80818A36E9F4898126
:1055C000882F90E09C01245030408B819C81FC010D
:1055D000E20FF31F8081843679F48981882F90E06F
:1055E0009C01255030408B819C81FC01E20FF31F10
:1055F0008081813609F480C08981282F30E08B8139
:105600009C81FC01E20FF31F80818536C1F5898101
:10561000882F90E09C01215030408B819C81FC01BF
:10562000E20FF31F8081833751F58981882F90E045
:105630009C01225030408B819C81FC01E20FF31FC2
:1056400080818F36E1F48981882F90E09C0123507E
:1056500030408B819C81FC01E20FF31F80818C36EE
:1056600071F48981882F90E09C01245030408B8117
:105670009C81FC01E20FF31F80818336E9F189816F
:10568000282F30E08B819C81FC01E20FF31F808189
:105690008E3651F58981882F90E09C012150304051
:1056A0008B819C81FC01E20FF31F80818536E1F440
:1056B0008981882F90E09C01225030408B819C8111
:1056C000FC01E20FF31F8081803771F48981882FFC
:1056D00090E09C01235030408B819C81FC01E20FC3
:1056E000F31F80818F3641F089818F5F8983998193
:1056F0008D81981708F472CE8981882F90E09C01E3
:105700002F5F3F4F8B819C81FC01E20FF31F1082C2
:105710008A810F900F900F900F900F90CF91DF9193
:105720000895DF93CF9300D000D00F92CDB7DEB7AE
:105730009C838B836D831A8219828B819C81009755
:1057400019F482E08A8326C0198217C02B813C811C
:105750008981882F90E0820F931F0E9406298981FA
:10576000282F30E08B819C81FC01E20FF31F8081A8
:105770008D3039F089818F5F898399818D81981768
:1057800028F38981282F30E08B819C81FC01E20F76
:10579000F31F10828A810F900F900F900F900F903F
:1057A000CF91DF910895DF93CF9300D000D0CDB794
:1057B000DEB78A837C836B8319828B819C810097FF
:1057C00019F482E089831CC080911D038823B1F401
:1057D00081E080931D0310921E038A81809327032A
:1057E0008B819C8190931C0380931B03AAE2B0E001
:1057F000EAE2F0E0808180628C9302C083E08983DA
:1058000089810F900F900F900F90CF91DF910895A5
:10581000DF93CF9300D000D00F92CDB7DEB79B833C
:105820008A837D836C8319828C819D81009721F00E
:105830008A819B81009719F482E0898320C080913E
:105840001D038823D1F481E080931D0381E08093C0
:105850001E038A819B819093200380931F038C8178
:105860009D8190931C0380931B03AAE2B0E0EAE2BF
:10587000F0E0808180628C9302C083E0898389811B
:105880000F900F900F900F900F90CF91DF91089590
:10589000DF93CF9300D000D00F92CDB7DEB79B83BC
:1058A0008A837D836C8319828C819D81009721F08E
:1058B0008A819B81009719F482E0898320C08091BE
:1058C0001D038823D1F481E080931D0382E080933F
:1058D000D7028A819B8190932203809321038C813C
:1058E0009D819093240380932303AAE2B0E0EAE22F
:1058F000F0E0808180688C9302C083E08983898195
:105900000F900F900F900F900F90CF91DF9108950F
:10591000DF93CF9300D000D000D0CDB7DEB79B830C
:105920008A836C835E834D8319828D819E8100976B
:1059300021F08A819B81009719F482E0898323C03A
:1059400080911D038823E9F481E080931D0383E0A7
:105950008093D7028C81809328038A819B819093C6
:10596000200380931F038D819E8190932403809355
:105970002303AAE2B0E0EAE2F0E0808180688C9341
:1059800002C083E08983898126960FB6F894DEBF32
:105990000FBECDBFCF91DF9108951F920F920FB62A
:1059A0000F9211242F933F934F935F936F937F93A5
:1059B0008F939F93AF93BF93EF93FF93DF93CF9317
:1059C000CDB7DEB780911E038823A1F4AAE2B0E030
:1059D000EAE2F0E080818E7F8C93ECE2F0E080914F
:1059E00027038083E0911B03F0911C03099510921B
:1059F0001D033EC080911E038130D1F520911F030D
:105A00003091200380912503882F90E0F901E80F61
:105A1000F91F8081882389F4E0911B03F0911C0316
:105A2000099510921D03AAE2B0E0EAE2F0E080815D
:105A30008F7D8C93109225031BC0AAE2B0E0EAE2AE
:105A4000F0E080818E7F8C93ACE2B0E020911F0368
:105A50003091200380912503882F90E0F901E80F11
:105A6000F91F80818C93809125038F5F809325039C
:105A7000CF91DF91FF91EF91BF91AF919F918F9166
:105A80007F916F915F914F913F912F910F900FBE3A
:105A90000F901F9018951F920F920FB60F9211241E
:105AA0002F933F934F935F936F937F938F939F9326
:105AB000AF93BF93EF93FF93DF93CF93CDB7DEB751
:105AC0008091D702823049F5A0912103B091220341
:105AD000ECE2F0E08081882F90E011969C938E9309
