:100000000C942A000C9474120C94A1120C94CE122D
:100010000C9447000C9447000C9447000C94470044
:100020000C9447000C9447000C9447000C94470034
:100030000C9447000C9447000C9447000C94470024
:100040000C9447000C9447000C9447000C94470014
:100050000C94470011241FBECFE5D8E0DEBFCDBF12
:1000600011E0A0E6B0E0EAE3F7E402C005900D92EB
:10007000A43AB107D9F711E0A4EAB1E001C01D929A
:10008000A63BB107E1F70E94E61E0C949B230C945B
:100090000000EF92FF920F931F937B018C0120E0F1
:1000A00030E040E05FE40E94F50388238CF0C80153
:1000B000B70120E030E040E05FE40E94C1010E940F
:1000C00055049B01AC01205030404040504806C0D0
:1000D000C801B7010E9455049B01AC01B901CA01D6
:1000E0001F910F91FF90EF900895A0E0B0E0EBE733
:1000F000F0E00C946423DC012B01FA019C91923016
:1001000008F439C1EB018881823008F433C194309E
:1001100069F4843009F02FC111969C91119789815F
:10012000981709F428C1AEE6B0E025C1843009F47F
:1001300021C18230A9F4923009F01DC19A01AD01AC
:1001400088E0EA010990AE01E90109929E0181501F
:10015000C1F7E201898111969C918923818308C1AD
:10016000923009F407C112962D903C901397EB0141
:100170008A819B811496AD90BD90CD90DC901797AD
:10018000EC80FD800E811F819101281B390BB90184
:1001900037FF04C066277727621B730B6032710537
:1001A0000CF061C0121613066CF537014801062EDB
:1001B00004C096948794779467940A94D2F721E0C8
:1001C00030E040E050E004C0220F331F441F551FB1
:1001D0006A95D2F721503040404050402E213F21B7
:1001E00040235123211531054105510521F021E01E
:1001F00030E040E050E079018A01E628F72808293C
:1002000019293CC0232BD1F1260E371E350146019A
:10021000062E04C096948794779467940A94D2F734
:1002200021E030E040E050E004C0220F331F441FC3
:10023000551F6A95D2F721503040404050402A2146
:100240003B214C215D21211531054105510521F04E
:1002500021E030E040E050E059016A01A628B728CB
:10026000C828D9280BC0821593052CF01C01AA249C
:10027000BB24650103C0EE24FF24870111969C91E5
:10028000D20111968C91981709F445C0992339F041
:10029000A80197012A193B094C095D0906C0A6016E
:1002A00095012E193F09400B510B57FD08C01182D3
:1002B0003382228224833583468357831DC081E0A5
:1002C00081833382228288279927DC01821B930B4A
:1002D000A40BB50B84839583A683B7830DC0220F2F
:1002E000331F441F551F24833583468357838281E0
:1002F000938101979383828324813581468157813D
:10030000DA01C9010197A109B1098F5F9F4FAF4F72
:10031000BF4328F30BC0918333822282EA0CFB1C7B
:100320000C1D1D1DE482F5820683178383E0808304
:10033000248135814681578157FF1AC0C901AA27F8
:1003400097FDA095BA2F81709070A070B0705695EF
:10035000479537952795822B932BA42BB52B848318
:100360009583A683B7838281938101969383828349
:10037000DF0101C0D201CD01CDB7DEB7E2E10C94BF
:100380008023A0E2B0E0E7ECF1E00C9470236983F5
:100390007A838B839C832D833E834F835887E9E048
:1003A000EE2EF12CEC0EFD1ECE010196B7010E943F
:1003B00046068E010F5E1F4FCE010596B8010E94C2
:1003C00046068A8991E089278A8BC701B801AE0168
:1003D000475E5F4F0E9475000E947105A096E6E09F
:1003E0000C948C23A0E2B0E0E8EFF1E00C947023D1
:1003F00069837A838B839C832D833E834F835887C5
:10040000F9E0EF2EF12CEC0EFD1ECE010196B701A6
:100410000E9446068E010F5E1F4FCE010596B80161
:100420000E944606C701B801AE01475E5F4F0E94B9
:1004300075000E947105A096E6E00C948C23A0E262
:10044000B0E0E5E2F2E00C94642369837A838B8365
:100450009C832D833E834F835887CE010196BE0136
:10046000675F7F4F0E944606CE010596BE016F5E14
:100470007F4F0E9446069985923088F089898230A4
:10048000C8F0943019F4823051F404C0843029F457
:10049000923081F48EE690E0C6C0923049F420E0BC
:1004A0009A858A89981321E02A87CE010996BBC0D4
:1004B000823049F420E09A858A89981321E02A8BBA
:1004C000CE014196B0C02D843E844F8458886D88FB
:1004D0007E888F88988CEE24FF248701AA24BB2471
:1004E000650140E050E060E070E0E0E0F0E0C10174
:1004F00081709070892BE9F0E60CF71C081D191D1E
:100500009A01AB012A0D3B1D4C1D5D1D80E090E062
:10051000A0E0B0E0E614F7040805190520F481E036
:1005200090E0A0E0B0E0BA01A901480F591F6A1F8E
:100530007B1FAA0CBB1CCC1CDD1C97FE08C081E0F5
:1005400090E0A0E0B0E0A82AB92ACA2ADB2A3196B6
:10055000E032F10549F0660C771C881C991C569412
:10056000479437942794C3CFFA85EA892B893C892D
:100570008B859C85280F391F2E5F3F4F17C0CA01FE
:1005800081709070892B61F016950795F794E79428
:1005900080E090E0A0E0B0E8E82AF92A0A2B1B2BC3
:1005A00076956795579547952F5F3F4F77FDE7CF36
:1005B0000CC0440F551F661F771F17FD4160EE0CDE
:1005C000FF1C001F111F21503040403090E05907A0
:1005D00090E0690790E4790760F32B8F3C8FDB0193
:1005E000CA018F779070A070B07080349105A1051A
:1005F000B10561F447FD0AC0E114F10401051105DC
:1006000029F0405C5F4F6F4F7F4F40781A8EFE1786
:1006100011F081E08A8F4D8F5E8F6F8F78A383E01A
:10062000898FCE0149960E947105A096E2E10C9453
:100630008023A8E1B0E0EFE1F3E00C946C23698340
:100640007A838B839C832D833E834F835887B9E0C5
:10065000EB2EF12CEC0EFD1ECE010196B7010E948F
:1006600046068E010F5E1F4FCE010596B8010E940F
:1006700046062985223008F47EC03989323010F4CC
:10068000B8017CC08A859A8989278A87243011F02D
:10069000223031F4231709F06EC06EE670E06EC0B0
:1006A000343039F41D861E861F86188A1C861B86E8
:1006B00004C0323021F484E08987B7015FC02B8504
:1006C0003C858B899C89281B390B3C872B87ED84C3
:1006D000FE840F851889AD88BE88CF88D88CEA142F
:1006E000FB040C051D0540F4EE0CFF1C001F111F40
:1006F000215030403C872B8720E030E040E050E044
:1007000080E090E0A0E0B0E460E070E0EA14FB0478
:100710000C051D0540F0282B392B4A2B5B2BEA18C2
:10072000FB080C091D09B695A79597958795EE0CC2
:10073000FF1C001F111F6F5F7F4F6F31710531F775
:10074000DA01C9018F779070A070B0708034910584
:10075000A105B10561F427FD0AC0E114F10401050A
:10076000110529F0205C3F4F4F4F5F4F20782D87B8
:100770003E874F87588BBE01675F7F4FCB010E943A
:1007800071056896EAE00C948823A8E1B0E0EBECF0
:10079000F3E00C94702369837A838B839C832D838D
:1007A0003E834F83588789E0E82EF12CEC0EFD1E26
:1007B000CE010196B7010E9446068E010F5E1F4FC3
:1007C000CE010596B8010E9446068985823040F028
:1007D0008989823028F0C701B8010E94BE0601C095
:1007E0008FEF6896E6E00C948C23A8E1B0E0EBEF85
:1007F000F3E00C94702369837A838B839C832D832D
:100800003E834F83588789E0E82EF12CEC0EFD1EC5
:10081000CE010196B7010E9446068E010F5E1F4F62
:10082000CE010596B8010E9446068985823040F0C7
:100830008989823028F0C701B8010E94BE0601C034
:100840008FEF6896E6E00C948C23A8E1B0E0EBE231
:10085000F4E00C94702369837A838B839C832D83CB
:100860003E834F83588789E0E82EF12CEC0EFD1E65
:10087000CE010196B7010E9446068E010F5E1F4F02
:10088000CE010596B8010E9446068985823040F067
:100890008989823028F0C701B8010E94BE0601C0D4
:1008A00081E06896E6E00C948C23ACE0B0E0EBE5E8
:1008B000F4E00C94742369837A838B839C83CE0148
:1008C0000196BE016B5F7F4F0E9446068D8182308C
:1008D00061F1823050F1843021F48E81882351F10E
:1008E0002EC02F81388537FD20C06E812F31310514
:1008F0001CF06623F9F023C08EE190E0821B930B7D
:1009000029853A854B855C8504C056954795379572
:1009100027958A95D2F76623B1F05095409530958A
:1009200021953F4F4F4F5F4F0EC020E030E040E039
:1009300050E009C02FEF3FEF4FEF5FE704C020E02A
:1009400030E040E050E8B901CA012C96E2E00C9496
:100950009023A8E0B0E0EFEAF4E00C946C237B0174
:100960008C01611571058105910519F482E0898377
:1009700060C083E089838EE1C82ED12CDC82CB82DB
:10098000ED82FE820F831887C801B7010E942205FD
:10099000FC013197F7FF3BC0222733272E1B3F0B6B
:1009A00057016801022E04C0D694C794B794A79447
:1009B0000A94D2F740E050E060E070E081E090E01F
:1009C000A0E0B0E004C0880F991FAA1FBB1F2A95A2
:1009D000D2F70197A109B1098E219F21A023B1234C
:1009E0000097A105B10521F041E050E060E070E022
:1009F0004A295B296C297D294D835E836F83788723
:100A00008EE190E08E1B9F0B9C838B8312C03097EE
:100A100081F00E2E04C0EE0CFF1C001F111F0A9463
:100A2000D2F7ED82FE820F831887CE1ADF0ADC82AE
:100A3000CB821A82CE0101960E9471052896EAE0C7
:100A40000C948823EF92FF920F931F937B018C01EC
:100A500080E0E81680E0F80681E0080780E01807EB
:100A600088F48FEFE816F1040105110531F028F044
:100A700088E090E0A0E0B0E017C080E090E0A0E067
:100A8000B0E012C080E0E81680E0F80680E00807D9
:100A900081E0180728F088E190E0A0E0B0E004C011
:100AA00080E190E0A0E0B0E020E230E040E050E003
:100AB000281B390B4A0B5B0B04C016950795F7945E
:100AC000E7948A95D2F7F701EA58FF4F8081281BF7
:100AD000310941095109C9011F910F91FF90EF9010
:100AE0000895DF92EF92FF920F931F93FC01E48031
:100AF000F58006811781D1808081823048F480E0C2
:100B000090E0A0E1B0E0E82AF92A0A2B1B2BA5C04F
:100B1000843009F49FC0823021F4EE24FF24870141
:100B200005C0E114F1040105110519F4E0E0F0E05D
:100B300096C0628173819FEF623879070CF05BC0C9
:100B400022E83FEF261B370B2A3131052CF020E03D
:100B500030E040E050E02AC0B801A701022E04C0F6
:100B600076956795579547950A94D2F781E090E07E
:100B7000A0E0B0E004C0880F991FAA1FBB1F2A95F0
:100B8000D2F70197A109B1098E219F21A023B1239A
:100B90000097A105B10521F081E090E0A0E0B0E070
:100BA0009A01AB01282B392B4A2B5B2BDA01C901A7
:100BB0008F779070A070B07080349105A105B10559
:100BC00039F427FF09C0205C3F4F4F4F5F4F04C0EF
:100BD000215C3F4F4F4F5F4FE0E0F0E02030A0E05E
:100BE0003A07A0E04A07A0E45A0710F0E1E0F0E07D
:100BF00079018A0127C06038710564F5FB01E1586D
:100C0000FF4FD801C7018F779070A070B07080340B
:100C10009105A105B10539F4E7FE0DC080E490E02F
:100C2000A0E0B0E004C08FE390E0A0E0B0E0E80E08
:100C3000F91E0A1F1B1F17FF05C016950795F7948D
:100C4000E794319687E016950795F794E7948A958F
:100C5000D1F705C0EE24FF248701EFEFF0E06E2FFF
:100C6000679566276795902F9F77D794DD24D79453
:100C70008E2F8695492F462B582F5D29B701CA0123
:100C80001F910F91FF90EF90DF900895FC01DB0121
:100C9000408151812281622F6F7770E0221F2227CD
:100CA000221F9381892F880F822B282F30E0991FD4
:100CB0009927991F11969C93119721153105A9F534
:100CC000411551056105710511F482E037C082E8D4
:100CD0009FEF13969C938E9312979A01AB0167E056
:100CE000220F331F441F551F6A95D1F783E08C9361
:100CF0000DC0220F331F441F551F12968D919C91DA
:100D00001397019713969C938E931297203080E04F
:100D1000380780E0480780E4580758F314962D936D
:100D20003D934D935C93179708952F3F310579F4C8
:100D3000411551056105710519F484E08C930895FE
:100D400064FF03C081E08C9312C01C9210C02F5727
:100D5000304013963C932E93129783E08C9387E058
:100D6000440F551F661F771F8A95D1F7706414963C
:100D70004D935D936D937C93179708951F93DC01BA
:100D8000FB019C91923008F447C08081823008F4C6
:100D900043C0943051F411961C91843099F58181AF
:100DA000682F70E0611B71093FC0843021F09230E0
:100DB00031F48230B9F18181882389F12DC01196F7
:100DC0001C9111978230F1F081811817D9F4129695
:100DD0002D913C911397828193818217930794F010
:100DE00028173907BCF014968D919D910D90BC91F8
:100DF000A02D2481358146815781281739074A075C
:100E00005B0718F4112341F00AC082179307A40767
:100E1000B50740F4112319F061E070E005C06FEFF1
:100E20007FEF02C060E070E0CB011F910895DF9377
:100E3000CF93CDB7DEB7AC970FB6F894DEBF0FBE39
:100E4000CDBF8CA780EF8BA780E060E040E00E94E0
:100E5000A90D80E061E040E00E94A90D9BA58CA552
:100E600089238BA782E06BA50E94C20E80E062E01E
:100E700041E00E94A90D80E090E0A0E0B0E48FA3E3
:100E800098A7A9A7BAA76FA178A589A59AA520E0D8
:100E900030E04AEF54E40E941F02DC01CB018BA337
:100EA0009CA3ADA3BEA36BA17CA18DA19EA120E0BC
:100EB00030E040E85FE30E94250488232CF481E0C1
:100EC00090E09AA389A33FC06BA17CA18DA19EA1B4
:100ED00020E03FEF4FE757E40E94C50318164CF59A
:100EE0006FA178A589A59AA520E030E040E251E401
:100EF0000E941F02DC01CB01BC01CD010E94490010
:100F0000DC01CB019AA389A30FC088EC90E098A3E1
:100F10008F8F8F8D98A10197F1F798A38F8F89A15B
:100F20009AA101979AA389A389A19AA1009769F729
:100F300014C06BA17CA18DA19EA10E944900DC017F
:100F4000CB019AA389A389A19AA19E8F8D8F8D8DA4
:100F50009E8D0197F1F79E8F8D8F80E062E040E0DB
:100F60000E94A90D8091A401882309F48CC080EF10
:100F70008BA78BA5982F90958CA589238BA78BA5E4
:100F8000982F9295907F82E0692F0E94C20E80E098
:100F900062E041E00E94A90D80E090E0A0E0B0E4B2
:100FA000898F9A8FAB8FBC8F698D7A8D8B8D9C8D3D
:100FB00020E030E04AEF54E40E941F02DC01CB0144
:100FC0008D8B9E8BAF8BB88F6D897E898F89988D25
:100FD00020E030E040E85FE30E94250488232CF401
:100FE00081E090E09C8B8B8B3FC06D897E898F89DF
:100FF000988D20E03FEF4FE757E40E94C503181695
:101000004CF5698D7A8D8B8D9C8D20E030E040E22F
:1010100051E40E941F02DC01CB01BC01CD010E9402
:101020004900DC01CB019C8B8B8B0FC088EC90E0DE
:101030009A8B898B89899A890197F1F79A8B898B89
:101040008B899C8901979C8B8B8B8B899C890097C2
:1010500069F714C06D897E898F89988D0E94490037
:10106000DC01CB019C8B8B8B8B899C89988B8F8728
:101070008F8598890197F1F7988B8F8780E062E0E0
:1010800040E00E94A90D80E090E0A0E0B0E48B87F2
:101090009C87AD87BE876B857C858D859E8520E08E
:1010A00030E04AEF54E40E941F02DC01CB018F8341
:1010B0009887A987BA876F81788589859A8520E086
:1010C00030E040E85FE30E94250488232CF481E0AF
:1010D00090E09E838D833FC06F81788589859A8556
:1010E00020E03FEF4FE757E40E94C50318164CF588
:1010F0006B857C858D859E8520E030E040E251E463
:101100000E941F02DC01CB01BC01CD010E944900FD
:10111000DC01CB019E838D830FC088EC90E09C8323
:101120008B838B819C810197F1F79C838B838D81CD
:101130009E8101979E838D838D819E81009769F7A3
:1011400014C06F81788589859A850E944900DC01E9
:10115000CB019E838D838D819E819A838983898132
:101160009A810197F1F79A838983AC960FB6F89428
:10117000DEBF0FBECDBFCF91DF910895DF93CF9338
:1011800000D0CDB7DEB71A8280E060E040E00E9478
:10119000A90D80E061E041E00E94A90D19821CC008
:1011A0009E012E5F3F4F82E06981A9010E94100FCE
:1011B0008A81282F30E08981882F90E0A90102C020
:1011C000440F551F8A95E2F7CA01982F8A81890F2B
:1011D0008A8389818F5F89838981873008F38A8137
:1011E0000F900F90CF91DF910895DF93CF93CDB7FC
:1011F000DEB7AC970FB6F894DEBF0FBECDBF8CA79D
:1012000080EF8BA780E060E041E00E94A90D80E0C4
:1012100061E040E00E94A90D9BA58CA589238BA7C6
:1012200082E06BA50E94C20E80E062E041E00E9475
:10123000A90D80E090E0A0E0B0E48FA398A7A9A753
:10124000BAA76FA178A589A59AA520E030E04AEF5A
:1012500054E40E941F02DC01CB018BA39CA3ADA32D
:10126000BEA36BA17CA18DA19EA120E030E040E84F
:101270005FE30E94250488232CF481E090E09AA388
:1012800089A33FC06BA17CA18DA19EA120E03FEF6F
:101290004FE757E40E94C50318164CF56FA178A5D7
:1012A00089A59AA520E030E040E251E40E941F02A7
:1012B000DC01CB01BC01CD010E944900DC01CB0166
:1012C0009AA389A30FC088EC90E098A38F8F8F8D8D
:1012D00098A10197F1F798A38F8F89A19AA10197FF
:1012E0009AA389A389A19AA1009769F714C06BA159
:1012F0007CA18DA19EA10E944900DC01CB019AA393
:1013000089A389A19AA19E8F8D8F8D8D9E8D019726
:10131000F1F79E8F8D8F80E062E040E00E94A90D82
:1013200080EF8BA78BA5982F90958CA589238BA7F1
:101330008BA5982F9295907F82E0692F0E94C20E14
:1013400080E062E041E00E94A90D80E090E0A0E032
:10135000B0E4898F9A8FAB8FBC8F698D7A8D8B8D1E
:101360009C8D20E030E04AEF54E40E941F02DC0133
:10137000CB018D8B9E8BAF8BB88F6D897E898F89CA
:10138000988D20E030E040E85FE30E942504882348
:101390002CF481E090E09C8B8B8B3FC06D897E8923
:1013A0008F89988D20E03FEF4FE757E40E94C503F7
:1013B00018164CF5698D7A8D8B8D9C8D20E030E070
:1013C00040E251E40E941F02DC01CB01BC01CD01CF
:1013D0000E944900DC01CB019C8B8B8B0FC088ECF9
:1013E00090E09A8B898B89899A890197F1F79A8B7A
:1013F000898B8B899C8901979C8B8B8B8B899C8992
:10140000009769F714C06D897E898F89988D0E9435
:101410004900DC01CB019C8B8B8B8B899C89988B41
:101420008F878F8598890197F1F7988B8F8780E058
:1014300062E040E00E94A90D80E090E0A0E0B0E40E
:101440008B879C87AD87BE876B857C858D859E85C8
:1014500020E030E04AEF54E40E941F02DC01CB019F
:101460008F839887A987BA876F81788589859A85C0
:1014700020E030E040E85FE30E94250488232CF45C
:1014800081E090E09E838D833FC06F817885898560
:101490009A8520E03FEF4FE757E40E94C5031816F6
:1014A0004CF56B857C858D859E8520E030E040E2A3
:1014B00051E40E941F02DC01CB01BC01CD010E945E
:1014C0004900DC01CB019E838D830FC088EC90E046
:1014D0009C838B838B819C810197F1F79C838B8309
:1014E0008D819E8101979E838D838D819E81009742
:1014F00069F714C06F81788589859A850E944900B3
:10150000DC01CB019E838D838D819E819A838983AB
:1015100089819A810197F1F79A83898386E00E94F5
:101520001707AC960FB6F894DEBF0FBECDBFCF91B4
:10153000DF910895DF93CF93CDB7DEB7E8970FB66D
:10154000F894DEBF0FBECDBF80E090E0A0E2B2E431
:101550008DAB9EABAFABB8AF6DA97EA98FA998AD8F
:1015600020E030E04AEF54E40E941F02DC01CB018E
:1015700089AB9AABABABBCAB69A97AA98BA99CA987
:1015800020E030E040E85FE30E94250488232CF44B
:1015900081E090E098AB8FA73FC069A97AA98BA999
:1015A0009CA920E03FEF4FE757E40E94C5031816BF
:1015B0004CF56DA97EA98FA998AD20E030E040E2FE
:1015C00051E40E941F02DC01CB01BC01CD010E944D
:1015D0004900DC01CB0198AB8FA70FC088EC90E0ED
:1015E0009EA78DA78DA59EA50197F1F79EA78DA714
:1015F0008FA598A9019798AB8FA78FA598A9009759
:1016000069F714C069A97AA98BA99CA90E9449000D
:10161000DC01CB0198AB8FA78FA598A99CA78BA7BE
:101620008BA59CA50197F1F79CA78BA780E20E9450
:10163000170780E20E94170780E80E94170780E0E2
:1016400090E0A0E8BFE38FA398A7A9A7BAA76FA1CE
:1016500078A589A59AA520E030E04AEF54E40E94DD
:101660001F02DC01CB018BA39CA3ADA3BEA36BA186
:101670007CA18DA19EA120E030E040E85FE30E94C4
:10168000250488232CF481E090E09AA389A33FC02D
:101690006BA17CA18DA19EA120E03FEF4FE757E415
:1016A0000E94C50318164CF56FA178A589A59AA5C7
:1016B00020E030E040E251E40E941F02DC01CB0157
:1016C000BC01CD010E944900DC01CB019AA389A392
:1016D0000FC088EC90E098A38F8F8F8D98A1019711
:1016E000F1F798A38F8F89A19AA101979AA389A353
:1016F00089A19AA1009769F714C06BA17CA18DA163
:101700009EA10E944900DC01CB019AA389A389A173
:101710009AA19E8F8D8F8D8D9E8D0197F1F79E8F53
:101720008D8F80E00E94170780EC0E94170780E0F1
:1017300090E0A0E8BFE3898F9A8FAB8FBC8F698D53
:101740007A8D8B8D9C8D20E030E04AEF54E40E942E
:101750001F02DC01CB018D8B9E8BAF8BB88F6D8907
:101760007E898F89988D20E030E040E85FE30E9419
:10177000250488232CF481E090E09C8B8B8B3FC068
:101780006D897E898F89988D20E03FEF4FE757E480
:101790000E94C50318164CF5698D7A8D8B8D9C8D32
:1017A00020E030E040E251E40E941F02DC01CB0166
:1017B000BC01CD010E944900DC01CB019C8B8B8BCD
:1017C0000FC088EC90E09A8B898B89899A89019760
:1017D000F1F79A8B898B8B899C8901979C8B8B8BDA
:1017E0008B899C89009769F714C06D897E898F89E0
:1017F000988D0E944900DC01CB019C8B8B8B8B89DF
:101800009C89988B8F878F8598890197F1F7988BA2
:101810008F8780E00E94170780E10E94170780E011
:1018200090E0A0E0B0E48B879C87AD87BE876B8596
:101830007C858D859E8520E030E04AEF54E40E944F
:101840001F02DC01CB018F839887A987BA876F813C
:10185000788589859A8520E030E040E85FE30E9442
:10186000250488232CF481E090E09E838D833FC083
:101870006F81788589859A8520E03FEF4FE757E4AF
:101880000E94C50318164CF56B857C858D859E8559
:1018900020E030E040E251E40E941F02DC01CB0175
:1018A000BC01CD010E944900DC01CB019E838D83E8
:1018B0000FC088EC90E09C838B838B819C81019787
:1018C000F1F79C838B838D819E8101979E838D830D
:1018D0008D819E81009769F714C06F817885898515
:1018E0009A850E944900DC01CB019E838D838D8106
:1018F0009E819A83898389819A810197F1F79A83DE
:10190000898381E08093A401E8960FB6F894DEBF46
:101910000FBECDBFCF91DF910895DF93CF9300D05D
:101920000F92CDB7DEB79B838A8319820EC089815F
:10193000282F30E08A819B81FC01E20FF31F808118
:101940000E94F50889818F5F89838981282F30E083
:101950008A819B81FC01E20FF31F8081882339F784
:101960000F900F900F90CF91DF910895DF93CF9359
:1019700000D00F92CDB7DEB78A836B838A8188232C
:1019800051F48B81803120F08B81805C898309C088
:101990008B81898306C08A81813019F48B81805CB8
:1019A0008983898180580E9417070F900F900F90AC
:1019B000CF91DF910895DF93CF93CDB7DEB727970F
:1019C0000FB6F894DEBF0FBECDBF9C838B836D83B3
:1019D0004E832F831A828D81882F90E0880F991F64
:1019E000880F991F880F991F8A838A81805C0E94C3
:1019F000170719820EC08981282F30E08B819C81C6
:101A0000FC01E20FF31F80810E94F50889818F5F3E
:101A100089838981883078F38E816F810E94B60C2A
:101A20008D810E94F50827960FB6F894DEBF0FBE91
:101A3000CDBFCF91DF910895DF93CF9300D000D039
:101A4000CDB7DEB79C838B838B819C810E94530D25
:101A50008A838A8189831DC0898181500E947E0D7D
:101A60009C018B819C81B9010E944423CB01805D44
:101A70000E94F508898181500E947E0D9C018B8116
:101A80009C81B9010E9444239C838B83898181506E
:101A900089838981181604F30F900F900F900F908F
:101AA000CF91DF910895DF93CF9300D000D0CDB7D1
:101AB000DEB79B838A8319828A819B81009781F498
:101AC00081E08C8313C08A819B812AE030E0B901D8
:101AD0000E944423CB019B838A8389818F5F898302
:101AE0008A819B81009779F789818C838C810F9003
:101AF0000F900F900F90CF91DF910895DF93CF93C8
:101B000000D000D0CDB7DEB78C8381E090E09A831F
:101B100089831B8211C089819A819C01220F331F06
:101B2000C901880F991F880F991F820F931F9A83ED
:101B300089838B818F5F8B839B818C81981758F36E
:101B400089819A810F900F900F900F90CF91DF9124
:101B50000895DF93CF93CDB7DEB728970FB6F894EB
:101B6000DEBF0FBECDBF8A836B834C8319828C810D
:101B7000813009F079C08B81883008F072C08A8189
:101B8000282F30E038872F838F8198858130910509
:101B900049F12F813885223031052CF48F819885C9
:101BA000009761F05BC02F8138852230310571F1DB
:101BB0008F81988583309105E9F150C0ABE3B0E0A7
:101BC000EBE3F0E08081482F8B81282F30E081E02B
:101BD00090E0022E02C0880F991F0A94E2F7842B2E
:101BE0008C93C6C0A8E3B0E0E8E3F0E08081482F22
:101BF0008B81282F30E081E090E0022E02C0880F18
:101C0000991F0A94E2F7842B8C93B2C0A5E3B0E04D
:101C1000E5E3F0E08081482F8B81282F30E081E0E0
:101C200090E0022E02C0880F991F0A94E2F7842BDD
:101C30008C939EC0A2E3B0E0E2E3F0E08081482F05
:101C40008B81282F30E081E090E0022E02C0880FC7
:101C5000991F0A94E2F7842B8C938AC081E08983D0
:101C600087C081E0898384C08C81882309F07EC08D
:101C70008B81883008F077C08A81282F30E03E833E
:101C80002D838D819E818130910559F12D813E8179
:101C9000223031052CF48D819E81009769F060C05F
:101CA0002D813E812230310589F18D819E818330E5
:101CB000910509F440C054C0ABE3B0E0EBE3F0E0C1
:101CC0008081482F8B81282F30E081E090E0022E28
:101CD00002C0880F991F0A94E2F7809584238C93A1
:101CE00047C0A8E3B0E0E8E3F0E08081482F8B81B3
:101CF000282F30E081E090E0022E02C0880F991F6B
:101D00000A94E2F7809584238C9332C0A5E3B0E077
:101D1000E5E3F0E08081482F8B81282F30E081E0DF
:101D200090E0022E02C0880F991F0A94E2F7809576
:101D300084238C931DC0A2E3B0E0E2E3F0E0808155
:101D4000482F8B81282F30E081E090E0022E02C0E6
:101D5000880F991F0A94E2F7809584238C9308C01A
:101D600081E0898305C081E0898302C081E08983A5
:101D7000898128960FB6F894DEBF0FBECDBFCF91F4
:101D8000DF910895DF93CF9300D000D00F92CDB7AD
:101D9000DEB78A836B8319828A818830B0F58A81A5
:101DA000282F30E03D832C838C819D8181309105EB
:101DB000D1F02C813D81223031052CF48C819D8124
:101DC000009761F01FC02C813D812230310581F0E8
:101DD0008C819D818330910581F014C0EBE3F0E0AC
:101DE0008B81808314C0E8E3F0E08B8180830FC097
:101DF000E5E3F0E08B8180830AC0E2E3F0E08B81D1
:101E0000808305C081E0898302C081E08983898164
:101E10000F900F900F900F900F90CF91DF9108953A
:101E2000DF93CF93CDB7DEB727970FB6F894DEBF19
:101E30000FBECDBF8A836B835D834C8319828C81F7
:101E40009D81009709F47BC08B81883008F074C0B5
:101E50008A81282F30E03F832E834E815F8141307D
:101E6000510559F18E819F818230910534F42E8184
:101E70003F812115310569F05CC04E815F814230A0
:101E8000510579F18E819F818330910509F43DC020
:101E900050C0E9E3F0E08081282F30E08B81882F6B
:101EA00090E0A90102C0559547958A95E2F7CA01CD
:101EB0008170EC81FD81808344C0E6E3F0E08081A5
:101EC000282F30E08B81882F90E0A90102C0559522
:101ED00047958A95E2F7CA018170EC81FD81808384
:101EE00030C0E3E3F0E08081282F30E08B81882F41
:101EF00090E0A90102C0559547958A95E2F7CA017D
:101F00008170EC81FD8180831CC0E0E3F0E0808182
:101F1000282F30E08B81882F90E0A90102C05595D1
:101F200047958A95E2F7CA018170EC81FD81808333
:101F300008C081E0898305C081E0898302C082E016
:101F40008983898127960FB6F894DEBF0FBECDBF77
:101F5000CF91DF910895DF93CF9300D000D00F92FF
:101F6000CDB7DEB78A836B8319828B81883008F006
:101F700072C08A81282F30E03D832C838C819D8123
:101F80008130910549F12C813D81223031052CF4BD
:101F90008C819D81009761F05BC02C813D81223056
:101FA000310571F18C819D8183309105E9F150C03B
:101FB000ABE3B0E0EBE3F0E08081482F8B81282F8A
:101FC00030E081E090E0022E02C0880F991F0A9451
:101FD000E2F784278C9341C0A8E3B0E0E8E3F0E0A7
:101FE0008081482F8B81282F30E081E090E0022E05
:101FF00002C0880F991F0A94E2F784278C932DC0A2
:10200000A5E3B0E0E5E3F0E08081482F8B81282F45
:1020100030E081E090E0022E02C0880F991F0A9400
:10202000E2F784278C9319C0A2E3B0E0E2E3F0E08A
:102030008081482F8B81282F30E081E090E0022EB4
:1020400002C0880F991F0A94E2F784278C9305C079
:1020500081E0898302C081E0898389810F900F909C
:102060000F900F900F90CF91DF910895DF93CF9352
:1020700000D000D00F92CDB7DEB78A836B83198270
:102080008A81843008F062C08A81282F30E03D8345
:102090002C838C819D818130910529F12C813D819A
:1020A000223031052CF48C819D81009761F04BC06A
:1020B0002C813D812230310531F18C819D8183302D
:1020C000910589F140C0ABE3B0E0EBE3F0E0808143
:1020D000807F8C93ABE3B0E0EBE3F0E090818B8109
:1020E000892B8C9335C0A8E3B0E0E8E3F0E0808171
:1020F000807F8C93A8E3B0E0E8E3F0E090818B81EF
:10210000892B8C9325C0A5E3B0E0E5E3F0E0808166
:10211000807F8C93A5E3B0E0E5E3F0E090818B81D4
:10212000892B8C9315C0A2E3B0E0E2E3F0E080815C
:10213000807F8C93A2E3B0E0E2E3F0E090818B81BA
:10214000892B8C9305C081E0898302C081E089835B
:1021500089810F900F900F900F900F90CF91DF918A
:102160000895DF93CF9300D000D00F92CDB7DEB7A4
:102170008A836B8319828A81843008F087C08A81C0
:10218000282F30E03D832C838C819D818130910507
:1021900079F12C813D81223031052CF48C819D8197
:1021A000009769F070C02C813D8122303105C9F162
:1021B0008C819D818330910509F44CC064C0ABE3F0
:1021C000B0E0EBE3F0E080818F708C93ABE3B0E0A4
:1021D000EBE3F0E08081282F8B81882F90E08295BF
:1021E0009295907F9827807F9827822B8C9350C060
:1021F000A8E3B0E0E8E3F0E080818F708C93A8E37F
:10220000B0E0E8E3F0E08081282F8B81882F90E018
:1022100082959295907F9827807F9827822B8C9328
:1022200037C0A5E3B0E0E5E3F0E080818F708C93E8
:10223000A5E3B0E0E5E3F0E08081282F8B81882FD3
:1022400090E082959295907F9827807F9827822BA7
:102250008C931EC0A2E3B0E0E2E3F0E080818F70D7
:102260008C93A2E3B0E0E2E3F0E08081282F8B8141
:10227000882F90E082959295907F9827807F98276D
:10228000822B8C9305C081E0898302C081E0898321
:1022900089810F900F900F900F900F90CF91DF9149
:1022A0000895DF93CF93CDB7DEB7A5E5B0E0E5E5C0
:1022B000F0E080818C7F8C93A5E5B0E0E5E5F0E06F
:1022C000808182608C93ABE5B0E0EBE5F0E080814B
:1022D00080648C93CF91DF910895DF93CF9300D0EA
:1022E0000F92CDB7DEB79B838A8319828A819B8147
:1022F000009739F08A819B819093A6018093A50174
:1023000002C082E0898389810F900F900F90CF9156
:10231000DF910895DF93CF9300D0CDB7DEB78A83E6
:1023200019828A81843080F4A5E5B0E0E5E5F0E02B
:1023300080818C7F8C93A5E5B0E0E5E5F0E09081AD
:102340008A81892B8C9302C081E0898389810F90D7
:102350000F90CF91DF910895DF93CF93CDB7DEB784
:10236000A5E5B0E0E5E5F0E08081837F8C93A5E50D
:10237000B0E0E5E5F0E0808188608C93ABE5B0E00B
:10238000EBE5F0E0808180688C93CF91DF91089538
:10239000DF93CF9300D00F92CDB7DEB79B838A83B4
:1023A00019828A819B81009739F08A819B81909361
:1023B000A8018093A70102C082E0898389810F90E0
:1023C0000F900F90CF91DF910895DF93CF9300D0BE
:1023D000CDB7DEB78A8319828A818430B8F4A5E547
:1023E000B0E0E5E5F0E08081837F8C93A5E5B0E087
:1023F000E5E5F0E08081282F8A81882F90E0880F22
:10240000991F880F991F822B8C9302C081E08983CA
:1024100089810F900F90CF91DF910895DF93CF9333
:10242000CDB7DEB7A4E5B0E0E4E5F0E080818F7BD6
:102430008C93A4E5B0E0E4E5F0E080818C93ABE51B
:10244000B0E0EBE5F0E0808180628C93CF91DF918A
:102450000895DF93CF9300D00F92CDB7DEB79B8363
:102460008A8319828A819B81009739F08A819B81B6
:102470009093AA018093A90102C082E08983898197
:102480000F900F900F90CF91DF910895DF93CF932E
:1024900000D0CDB7DEB78A8319828A818230E0F41A
:1024A000A4E5B0E0E4E5F0E080818F7B8C93A4E5C7
:1024B000B0E0E4E5F0E08081282F8A81882F90E069
:1024C0000024969587950794969587950794982F5D
:1024D000802D822B8C9302C081E0898389810F90AB
:1024E0000F90CF91DF9108951F920F920FB60F9228
:1024F00011242F933F934F935F936F937F938F9309
:102500009F93AF93BF93EF93FF93DF93CF93CDB799
:10251000DEB7E091A501F091A6010995CF91DF9179
:10252000FF91EF91BF91AF919F918F917F916F91AB
:102530005F914F913F912F910F900FBE0F901F9081
:1025400018951F920F920FB60F9211242F933F935D
:102550004F935F936F937F938F939F93AF93BF93AB
:10256000EF93FF93DF93CF93CDB7DEB7E091A70151
:10257000F091A8010995CF91DF91FF91EF91BF9163
:10258000AF919F918F917F916F915F914F913F910B
:102590002F910F900FBE0F901F9018951F920F92C2
:1025A0000FB60F9211242F933F934F935F936F9326
:1025B0007F938F939F93AF93BF93EF93FF93DF939B
:1025C000CF93CDB7DEB7E091A901F091AA010995AB
:1025D000CF91DF91FF91EF91BF91AF919F918F913B
:1025E0007F916F915F914F913F912F910F900FBE0F
:1025F0000F901F901895DF93CF93CDB7DEB7AFE55F
:10260000B0E0EFE5F0E0808180688C93CF91DF91BE
:102610000895DF93CF93CDB7DEB7AFE5B0E0EFE538
:10262000F0E080818F778C93CF91DF910895DF93D5
:10263000CF9300D000D00F92CDB7DEB78FEF898354
:102640001A825EC08A81882F90E0FC01EA57FE4F13
:10265000908183E0692F40E00E94A90D1B823DC05C
:102660008B81882F90E0FC01E657FE4F90819E0100
:102670002C5F3F4F83E0692FA9010E94100F8C81CE
:10268000882341F58B81482F50E08A81282F30E044
:10269000CA01880F991F880F991F820F931FFC0191
:1026A000EA58FE4F808189830FC08B81882F90E08C
:1026B000FC01E657FE4F90819E012C5F3F4F83E067
:1026C000692FA9010E94100F8C81882371F38981E1
:1026D0008D831CC08B818F5F8B838B81843008F44A
:1026E000BFCF8A81882F90E0FC01EA57FE4F90818E
:1026F00083E0692F41E00E94A90D8A818F5F8A8360
:102700008A81843008F49ECF89818D838D810F90DA
:102710000F900F900F900F90CF91DF910895DF935E
:10272000CF9300D00F92CDB7DEB79B838A831982F7
:10273000EA81FB818281813059F4EA81FB818081C9
:10274000EA81FB819181692F41E00E94A90D12C0AD
:10275000EA81FB818281882359F4EA81FB818081AF
:10276000EA81FB819181692F40E00E94A90D02C09E
:1027700081E0898389810F900F900F90CF91DF9135
:102780000895DF93CF9300D00F92CDB7DEB79B8330
:102790008A831982EA81FB818281813059F4EA813E
:1027A000FB818081EA81FB819181692F40E00E9459
:1027B000A90D12C0EA81FB818281882359F4EA8144
:1027C000FB818081EA81FB819181692F41E00E9438
:1027D000A90D02C081E0898389810F900F900F902D
:1027E000CF91DF910895DF93CF9300D00F92CDB7B3
:1027F000DEB79B838A831982EA81FB8182818130E3
:1028000099F49091AB0181E089278093AB01EA8133
:10281000FB818081EA81FB8191812091AB01692F4D
:10282000422F0E94A90D1AC0EA81FB818281882370
:1028300099F49091AB0181E089278093AB01EA8103
:10284000FB818081EA81FB8191812091AB01692F1D
:10285000422F0E94A90D02C081E0898389810F90D7
:102860000F900F90CF91DF910895DF93CF93CDB765
:10287000DEB7EAE3F0E087E08083E7E3F0E083E0BF
:102880008083E4E3F0E080EF8083E1E3F0E080EF39
:102890008083EBE3F0E01082E8E3F0E084E0808303
:1028A000E5E3F0E01082E2E3F0E08FEF8083CF9188
:1028B000DF910895DF93CF9300D000D0CDB7DEB77E
:1028C0008A837C836B831982EB81FC8180818823DE
:1028D00091F4EB81FC8121818A81882F90E0FC01B9
:1028E000E257FE4F8081982F9095822F692F0E948A
:1028F000C20E898317C0EB81FC818081813081F415
:10290000EB81FC8121818A81882F90E0FC01E257D4
:10291000FE4F9081822F692F0E94C20E898302C0D0
:1029200081E0898389810F900F900F900F90CF9154
:10293000DF910895DF93CF9300D00F92CDB7DEB72C
:102940009B838A831982EA81FB818081882361F4D9
:10295000EA81FB818281EA81FB819381692F41E0D9
:102960000E94A90D898313C0EA81FB818081813097
:1029700061F4EA81FB818281EA81FB819381692F85
:1029800040E00E94A90D898302C081E0898389818A
:102990000F900F900F90CF91DF910895DF93CF9319
:1029A00000D00F92CDB7DEB79B838A831982EA816C
:1029B000FB818081882361F4EA81FB818281EA8145
:1029C000FB819381692F40E00E94A90D898313C088
:1029D000EA81FB818081813061F4EA81FB8182811F
:1029E000EA81FB819381692F41E00E94A90D8983CF
:1029F00002C081E0898389810F900F900F90CF9161
:102A0000DF910895DF93CF93CDB7DEB7C254D040A6
:102A10000FB6F894DEBF0FBECDBFFE01EF5BFF4FD8
:102A200091838083FE01E05CFF4F1082FE01EF5B2B
:102A3000FF4F0190F081E02D83819481CC01A0E0D3
:102A4000B0E0BC01CD010E94A904DC01CB01BC01B6
:102A5000CD0123E333E343E351E40E941903DC0196
:102A6000CB01BC01CD0120E030E040E852E40E94FF
:102A70001F02DC01CB01BC01CD010E944900DC0139
:102A8000CB019FAF8EAF8EAD9FAD969587959695F6
:102A900087959DAF8CAF1BAE1AAE19AEFE01EF5BF2
:102AA000FF4F0190F081E02D8181882309F05EC104
:102AB000FE01EF5BFF4F0190F081E02D82818823C2
:102AC00009F0A2C01BAE1AAE96C019AE8BC0FE01B3
:102AD000EF5BFF4F0190F081E02D408189AD282F01
:102AE00030E081E090E002C0880F991F2A95E2F75C
:102AF000982F842F692F0E94361080E090E0A0E08C
:102B0000B0E48DAB9EABAFABB8AF6DA97EA98FA97A
:102B100098AD20E030E04AEF54E40E941F02DC014F
:102B2000CB0189AB9AABABABBCAB69A97AA98BA93A
:102B30009CA920E030E040E85FE30E942504882360
:102B40002CF481E090E098AB8FA73FC069A97AA9E7
:102B50008BA99CA920E03FEF4FE757E40E94C503F3
:102B600018164CF56DA97EA98FA998AD20E030E02C
:102B700040E251E40E941F02DC01CB01BC01CD0107
:102B80000E944900DC01CB0198AB8FA70FC088ECF5
:102B900090E09EA78DA78DA59EA50197F1F79EA712
:102BA0008DA78FA598A9019798AB8FA78FA598A9F6
:102BB000009769F714C069A97AA98BA99CA90E94FA
:102BC0004900DC01CB0198AB8FA78FA598A99CA7E2
:102BD0008BA78BA59CA50197F1F79CA78BA789AD27
:102BE0008F5F89AF89AD843008F471CF8AAD9BAD1A
:102BF00001969BAF8AAF2AAD3BAD8CAD9DAD28173A
:102C0000390708F462CF1FC2FE01EF5BFF4F01904E
:102C1000F081E02D8281813009F0A2C01BAE1AAE96
:102C200096C019AE8BC0FE01EF5BFF4F0190F081A3
:102C3000E02D408189AD282F30E088E090E002C08F
:102C4000959587952A95E2F7982F842F692F0E94F2
:102C5000361080E090E0A0E0B0E48FA398A7A9A789
:102C6000BAA76FA178A589A59AA520E030E04AEF20
:102C700054E40E941F02DC01CB018BA39CA3ADA3F3
:102C8000BEA36BA17CA18DA19EA120E030E040E815
:102C90005FE30E94250488232CF481E090E09AA34E
:102CA00089A33FC06BA17CA18DA19EA120E03FEF35
:102CB0004FE757E40E94C50318164CF56FA178A59D
:102CC00089A59AA520E030E040E251E40E941F026D
:102CD000DC01CB01BC01CD010E944900DC01CB012C
:102CE0009AA389A30FC088EC90E098A38F8F8F8D53
:102CF00098A10197F1F798A38F8F89A19AA10197C5
:102D00009AA389A389A19AA1009769F714C06BA11E
:102D10007CA18DA19EA10E944900DC01CB019AA358
:102D200089A389A19AA19E8F8D8F8D8D9E8D0197EC
:102D3000F1F79E8F8D8F89AD8F5F89AF89AD84301C
:102D400008F471CF8AAD9BAD01969BAF8AAF2AADD7
:102D50003BAD8CAD9DAD2817390708F462CF73C128
:102D600081E0FE01E05CFF4F80836DC1FE01EF5BFF
:102D7000FF4F0190F081E02D8181813009F05EC12B
:102D8000FE01EF5BFF4F0190F081E02D82818823EF
:102D900009F0A2C01BAE1AAE96C019AE8BC0FE01E0
:102DA000EF5BFF4F0190F081E02D408189AD282F2E
:102DB00030E081E090E002C0880F991F2A95E2F789
:102DC000982F842F692F0E94B11080E090E0A0E03E
:102DD000B0E4898F9A8FAB8FBC8F698D7A8D8B8D84
:102DE0009C8D20E030E04AEF54E40E941F02DC0199
:102DF000CB018D8B9E8BAF8BB88F6D897E898F8930
:102E0000988D20E030E040E85FE30E9425048823AD
:102E10002CF481E090E09C8B8B8B3FC06D897E8988
:102E20008F89988D20E03FEF4FE757E40E94C5035C
:102E300018164CF5698D7A8D8B8D9C8D20E030E0D5
:102E400040E251E40E941F02DC01CB01BC01CD0134
:102E50000E944900DC01CB019C8B8B8B0FC088EC5E
:102E600090E09A8B898B89899A890197F1F79A8BDF
:102E7000898B8B899C8901979C8B8B8B8B899C89F7
:102E8000009769F714C06D897E898F89988D0E949B
:102E90004900DC01CB019C8B8B8B8B899C89988BA7
:102EA0008F878F8598890197F1F7988B8F8789ADE8
:102EB0008F5F89AF89AD843008F471CF8AAD9BAD47
:102EC00001969BAF8AAF2AAD3BAD8CAD9DAD281767
:102ED000390708F462CFB7C0FE01EF5BFF4F0190E6
:102EE000F081E02D8281813009F0A2C01BAE1AAEC4
:102EF00096C019AE8BC0FE01EF5BFF4F0190F081D1
:102F0000E02D408189AD282F30E088E090E002C0BC
:102F1000959587952A95E2F7982F842F692F0E941F
:102F2000B11080E090E0A0E0B0E48B879C87AD8793
:102F3000BE876B857C858D859E8520E030E04AEFDD
:102F400054E40E941F02DC01CB018F839887A9877C
:102F5000BA876F81788589859A8520E030E040E8DE
:102F60005FE30E94250488232CF481E090E09E8397
:102F70008D833FC06F81788589859A8520E03FEFFA
:102F80004FE757E40E94C50318164CF56B857C8506
:102F90008D859E8520E030E040E251E40E941F02D2
:102FA000DC01CB01BC01CD010E944900DC01CB0159
:102FB0009E838D830FC088EC90E09C838B838B81F4
:102FC0009C810197F1F79C838B838D819E81019772
:102FD0009E838D838D819E81009769F714C06F81D8
:102FE000788589859A850E944900DC01CB019E8302
:102FF0008D838D819E819A83898389819A810197AE
:10300000F1F79A83898389AD8F5F89AF89AD843069
:1030100008F471CF8AAD9BAD01969BAF8AAF2AAD04
:103020003BAD8CAD9DAD2817390708F462CF0BC0BE
:1030300081E0FE01E05CFF4F808305C081E0FE017E
:10304000E05CFF4F8083FE01E05CFF4F8081CE5B40
:10305000DF4F0FB6F894DEBF0FBECDBFCF91DF912B
:103060000895DF93CF93CDB7DEB7C454D0400FB6E9
:10307000F894DEBF0FBECDBFFE01ED5BFF4F918325
:103080008083FE01EE5BFF4F1082FE01E05CFF4F8C
:1030900011821082FE01ED5BFF4F0190F081E02D67
:1030A00083819481CC01A0E0B0E0BC01CD010E94FD
:1030B000A904DC01CB01BC01CD0120E030E044EBF0
:1030C00050E40E941903DC01CB01BC01CD0120E0DA
:1030D00030E040E852E40E941F02DC01CB01BC0159
:1030E000CD010E944900DC01CB019FAF8EAF8EADB8
:1030F0009FAD9695879596958795969587959DAF63
:103100008CAF1BAEFE01ED5BFF4F0190F081E02D17
:103110008181882309F096C1FE01ED5BFF4F01908C
:10312000F081E02D8281882309F0C1C0FE01E05CBE
:10313000FF4F11821082AFC081E08AAF83E089AF78
:1031400081E08BAF98C08BAD882F90E0817090703C
:10315000882371F0FE01ED5BFF4F0190F081E02DBF
:1031600080816AAD0E9436108AAD880F8AAF0EC08A
:10317000FE01ED5BFF4F0190F081E02D808169AD94
:103180000E94361089AD0E94231C89AF80E090E038
:10319000A0E0B0E48DAB9EABAFABB8AF6DA97EA99C
:1031A0008FA998AD20E030E04AEF54E40E941F025E
:1031B000DC01CB0189AB9AABABABBCAB69A97AA9FB
:1031C0008BA99CA920E030E040E85FE30E94250441
:1031D00088232CF481E090E098AB8FA73FC069A9C9
:1031E0007AA98BA99CA920E03FEF4FE757E40E9402
:1031F000C50318164CF56DA97EA98FA998AD20E0DE
:1032000030E040E251E40E941F02DC01CB01BC012E
:10321000CD010E944900DC01CB0198AB8FA70FC004
:1032200088EC90E09EA78DA78DA59EA50197F1F74C
:103230009EA78DA78FA598A9019798AB8FA78FA55B
:1032400098A9009769F714C069A97AA98BA99CA9C4
:103250000E944900DC01CB0198AB8FA78FA598A9EC
:103260009CA78BA78BA59CA50197F1F79CA78BA783
:103270008BAD8F5F8BAF8BAD893008F464CFDE01EF
:10328000A05CBF4FFE01E05CFF4F80819181019601
:1032900011969C938E93FE01E05CFF4F208131815B
:1032A0008CAD9DAD2817390708F446CF7EC2FE01CC
:1032B000ED5BFF4F0190F081E02D8281813009F0BC
:1032C00074C2FE01E05CFF4F11821082AFC088E043
:1032D0008AAF8CE089AF81E08BAF98C08BAD882F2F
:1032E00090E081709070882371F0FE01ED5BFF4FDC
:1032F0000190F081E02D80816AAD0E9436108AAD88
:1033000086958AAF0EC0FE01ED5BFF4F0190F08104
:10331000E02D808169AD0E94361089AD0E94061CA7
:1033200089AF80E090E0A0E0B0E48FA398A7A9A7C0
:10333000BAA76FA178A589A59AA520E030E04AEF49
:1033400054E40E941F02DC01CB018BA39CA3ADA31C
:10335000BEA36BA17CA18DA19EA120E030E040E83E
:103360005FE30E94250488232CF481E090E09AA377
:1033700089A33FC06BA17CA18DA19EA120E03FEF5E
:103380004FE757E40E94C50318164CF56FA178A5C6
:1033900089A59AA520E030E040E251E40E941F0296
:1033A000DC01CB01BC01CD010E944900DC01CB0155
:1033B0009AA389A30FC088EC90E098A38F8F8F8D7C
:1033C00098A10197F1F798A38F8F89A19AA10197EE
:1033D0009AA389A389A19AA1009769F714C06BA148
:1033E0007CA18DA19EA10E944900DC01CB019AA382
:1033F00089A389A19AA19E8F8D8F8D8D9E8D019716
:10340000F1F79E8F8D8F8BAD8F5F8BAF8BAD89303A
:1034100008F464CFDE01A05CBF4FFE01E05CFF4F0B
:1034200080819181019611969C938E93FE01E05CC0
:10343000FF4F208131818CAD9DAD2817390708F4ED
:1034400046CFB3C1FE01ED5BFF4F0190F081E02D4F
:103450008181813009F0A4C1FE01ED5BFF4F019035
:10346000F081E02D8281882309F0C9C0FE01E05C73
:10347000FF4F11821082B7C081E08AAF83E089AF2D
:1034800081E08BAFA0C08BAD882F90E081709070F1
:10349000882371F0FE01ED5BFF4F0190F081E02D7C
:1034A00080816AAD0E94B1108AAD880F8AAF16C0C4
:1034B000FE01ED5BFF4F0190F081E02D808169AD51
:1034C0000E94B11089AD882F90E00E941C0D80E20F
:1034D0000E94F50889AD0E94231C89AF80E090E02E
:1034E000A0E0B0E4898F9A8FAB8FBC8F698D7A8D05
:1034F0008B8D9C8D20E030E04AEF54E40E941F0247
:10350000DC01CB018D8B9E8BAF8BB88F6D897E8953
:103510008F89988D20E030E040E85FE30E94250429
:1035200088232CF481E090E09C8B8B8B3FC06D89CD
:103530007E898F89988D20E03FEF4FE757E40E9406
:10354000C50318164CF5698D7A8D8B8D9C8D20E006
:1035500030E040E251E40E941F02DC01CB01BC01DB
:10356000CD010E944900DC01CB019C8B8B8B0FC0ED
:1035700088EC90E09A8B898B89899A890197F1F779
:103580009A8B898B8B899C8901979C8B8B8B8B89E0
:103590009C89009769F714C06D897E898F89988D01
:1035A0000E944900DC01CB019C8B8B8B8B899C8911
:1035B000988B8F878F8598890197F1F7988B8F87E4
:1035C0008BAD8F5F8BAF8BAD893008F45CCFDE01A4
:1035D000A05CBF4FFE01E05CFF4F808191810196AE
:1035E00011969C938E93FE01E05CFF4F2081318108
:1035F0008CAD9DAD2817390708F43ECFD6C0FE012B
:10360000ED5BFF4F0190F081E02D8281813009F068
:10361000C1C0FE01E05CFF4F11821082AFC088E0A4
:103620008AAF8CE089AF81E08BAF98C08BAD882FDB
:1036300090E081709070882371F0FE01ED5BFF4F88
:103640000190F081E02D80816AAD0E94B1108AADB9
:1036500086958AAF0EC0FE01ED5BFF4F0190F081B1
:10366000E02D808169AD0E94B11089AD0E94061CD9
:1036700089AF80E090E0A0E0B0E48B879C87AD87C5
:10368000BE876B857C858D859E8520E030E04AEF86
:1036900054E40E941F02DC01CB018F839887A98725
:1036A000BA876F81788589859A8520E030E040E887
:1036B0005FE30E94250488232CF481E090E09E8340
:1036C0008D833FC06F81788589859A8520E03FEFA3
:1036D0004FE757E40E94C50318164CF56B857C85AF
:1036E0008D859E8520E030E040E251E40E941F027B
:1036F000DC01CB01BC01CD010E944900DC01CB0102
:103700009E838D830FC088EC90E09C838B838B819C
:103710009C810197F1F79C838B838D819E8101971A
:103720009E838D838D819E81009769F714C06F8180
:10373000788589859A850E944900DC01CB019E83AA
:103740008D838D819E819A83898389819A81019756
:10375000F1F79A8389838BAD8F5F8BAF8BAD893007
:1037600008F464CFDE01A05CBF4FFE01E05CFF4FB8
:1037700080819181019611969C938E93FE01E05C6D
:10378000FF4F208131818CAD9DAD2817390708F49A
:1037900046CF0BC0FE01EE5BFF4F81E0808305C08A
:1037A000FE01EE5BFF4F81E08083FE01EE5BFF4F89
:1037B0008081CC5BDF4F0FB6F894DEBF0FBECDBF6C
:1037C000CF91DF910895DF93CF9300D0CDB7DEB7CF
:1037D0009A838983E981FA818181882339F4E98197
:1037E000FA81808160E00E9436100BC0E981FA8185
:1037F0008181813031F4E981FA81808160E00E9429
:10380000B1100F900F90CF91DF910895DF93CF9378
:1038100000D0CDB7DEB78A8319828A81817089830F
:103820008A8186958A838981882321F08A818860AC
:103830008A8303C08A81877F8A838A810F900F9051
:10384000CF91DF910895DF93CF9300D0CDB7DEB74E
:103850008A8319828A818695869586958170898367
:103860008A81880F8A838981882321F08A818160F7
:103870008A8303C08A818E7F8A838A810F900F900A
:10388000CF91DF910895DF93CF93CDB7DEB7A197A6
:103890000FB6F894DEBF0FBECDBF9F8F8E8F79A37A
:1038A00068A31D8EE8A1F9A181E08083EE8DFF8DD4
:1038B0008281882309F0C3C0EE8DFF8D8381813022
:1038C00009F09CC0EE8DFF8D8081EE8DFF8D918182
:1038D0002CEA31E0692FA9010E94100F8091AC0100
:1038E000882309F06DC180E090E0A6E1B3E4898F00
:1038F0009A8FAB8FBC8F698D7A8D8B8D9C8D20E0DC
:1039000030E04AEF54E40E941F02DC01CB018D8BB2
:103910009E8BAF8BB88F6D897E898F89988D20E0C3
:1039200030E040E85FE30E94250488232CF481E026
:1039300090E09C8B8B8B3FC06D897E898F89988DA1
:1039400020E03FEF4FE757E40E94C50318164CF5FF
:10395000698D7A8D8B8D9C8D20E030E040E251E4C2
:103960000E941F02DC01CB01BC01CD010E94490075
:10397000DC01CB019C8B8B8B0FC088EC90E09A8B89
:10398000898B89899A890197F1F79A8B898B8B8921
:103990009C8901979C8B8B8B8B899C89009769F7FD
:1039A00014C06D897E898F89988D0E944900DC0141
:1039B000CB019C8B8B8B8B899C89988B8F878F8578
:1039C00098890197F1F7988B8F87EE8DFF8D808115
:1039D000EE8DFF8D91812CEA31E0692FA9010E94C3
:1039E000100F8091AC01882321F4E8A1F9A1108285
:1039F000E7C0E8A1F9A181E08083E2C0EE8DFF8DF0
:103A000083818823C9F4EE8DFF8D8081EE8DFF8D3B
:103A1000918128A139A1692FA9010E94100F8091DD
:103A2000AC01882321F4E8A1F9A11082C9C0E8A162
:103A3000F9A181E08083C4C081E08D8FC1C0EE8D8B
:103A4000FF8D8281813009F0B9C0EE8DFF8D8381B9
:103A5000813009F097C0EE8DFF8D8081EE8DFF8D56
:103A600091812CEA31E0692FA9010E94100F809109
:103A7000AC01813009F0A4C080E090E0A6E1B3E49D
:103A80008B879C87AD87BE876B857C858D859E8562
:103A900020E030E04AEF54E40E941F02DC01CB0139
:103AA0008F839887A987BA876F81788589859A855A
:103AB00020E030E040E85FE30E94250488232CF4F6
:103AC00081E090E09E838D833FC06F8178858985FA
:103AD0009A8520E03FEF4FE757E40E94C503181690
:103AE0004CF56B857C858D859E8520E030E040E23D
:103AF00051E40E941F02DC01CB01BC01CD010E94F8
:103B00004900DC01CB019E838D830FC088EC90E0DF
:103B10009C838B838B819C810197F1F79C838B83A2
:103B20008D819E8101979E838D838D819E810097DB
:103B300069F714C06F81788589859A850E9449004C
:103B4000DC01CB019E838D838D819E819A83898345
:103B500089819A810197F1F79A838983EE8DFF8D90
:103B60008081EE8DFF8D91812CEA31E0692FA901D2
:103B70000E94100F8091AC01813011F5E8A1F9A1EC
:103B800010821EC0EE8DFF8D83818823A1F4EE8DFF
:103B9000FF8D8081EE8DFF8D918128A139A1692F44
:103BA000A9010E94100F8091AC01813049F4E8A175
:103BB000F9A1108205C081E08D8F02C081E08D8F58
:103BC0008D8DA1960FB6F894DEBF0FBECDBFCF91FD
:103BD000DF910895DF93CF9300D000D00F92CDB73F
:103BE000DEB79B838A837D836C831982EC81FD81A0
:103BF00081E08083EA81FB818281882309F076C09D
:103C00001092AE01EA81FB818381813009F04DC0C1
:103C1000EA81FB818081EA81FB8191812DEA31E09B
:103C2000692FA9010E94100F8091AD01882309F02E
:103C3000C4C0EA81FB818081EA81FB8191812DEA08
:103C400031E0692FA9010E94100F8091AD018823F6
:103C500009F0B3C08091B0018F5F8093B001809173
:103C6000B001853198F08091AE01882361F4EC8138
:103C7000FD811082EA81FB810480F581E02D0995A8
:103C800081E08093AE011092B00197C08091AF01A6
:103C90008F5F8093AF018091AF01853108F48DC0B3
:103CA0001092AE011092AF0188C0EA81FB8183813E
:103CB0008823C9F4EA81FB818081EA81FB819181BB
:103CC0002C813D81692FA9010E94100F8091AD01C7
:103CD000882321F4EC81FD8110826FC0EC81FD818D
:103CE00081E080836AC081E0898367C0EA81FB81CB
:103CF0008281813009F05FC081E08093AE01EA816A
:103D0000FB8183818130D9F5EA81FB818081EA8161
:103D1000FB8191812DEA31E0692FA9010E94100FEA
:103D20008091AD01813009F048C08091B0018F5F72
:103D30008093B0018091B001853190F08091AE0107
:103D4000813059F4EC81FD811082EA81FB8104808D
:103D5000F581E02D09951092AE011092B0012DC0B1
:103D60008091AF018F5F8093AF018091AF0185316A
:103D700020F181E08093AE011092AF011EC0EA8174
:103D8000FB8183818823A1F4EA81FB818081EA8120
:103D9000FB8191812C813D81692FA9010E94100F27
:103DA0008091AD01813049F4EC81FD81108205C024
:103DB00081E0898302C081E0898389810F900F901F
:103DC0000F900F900F90CF91DF910895DF93CF93D5
:103DD000CDB7DEB7AC970FB6F894DEBF0FBECDBF40
:103DE0000E9435140E949A0A0E94FB120E940E1231
:103DF0008CEA91E20E9429121E8E9E01215E3F4FA5
:103E000039A728A780EA91E09BA78AA793E09CA7FF
:103E1000EAA5FBA500802AA53BA52F5F3F4F3BA746
:103E20002AA7E8A5F9A5008228A539A52F5F3F4F4D
:103E300039A728A73CA531503CA78CA5882341F77A
:103E400088E991E060E041E021E00E94DB0C809194
:103E5000B3019091B4012091B501692F422F0E94C6
:103E6000D7220E9417138D8F8D8D8F3FD1F38D8DAB
:103E7000E82FF0E0FFA3EEA32EA13FA12B323105E6
:103E800009F47FC08EA19FA18C3291058CF4EEA124
:103E9000FFA1E230F105D9F12EA13FA12330310578
:103EA00009F452C08EA19FA181309105A1F0CFCF1E
:103EB000EEA1FFA1ED33F10509F4DFC02EA13FA172
:103EC0002334310509F42BC28EA19FA18D329105B7
:103ED00009F493C0BCCF81E067E00E94B60C80E299
:103EE0000E94F50881E064E00E94B60C80E20E9426
:103EF000F50888E991E060E041E021E00E94DB0CF8
:103F000080E061E00E94B60C1092B201A0CF81E087
:103F100061E00E94B60C80E20E94F50881E067E053
:103F20000E94B60C80E20E94F50888E991E060E00A
:103F300041E024E00E94DB0C80E064E00E94B60CCB
:103F400081E08093B20183CF81E061E00E94B60CF2
:103F500080E20E94F50881E064E00E94B60C80E2F5
:103F60000E94F50888E991E060E041E027E00E94C6
:103F7000DB0C80E066E00E94B60C82E08093B20128
:103F800066CF8091B201E82FF0E0FDA3ECA32CA155
:103F90003DA121303105B9F08CA19DA18230910560
:103FA000F9F0ECA1FDA1309709F051CF8091B30158
:103FB0008F5F8093B3018091B301883109F047CFBF
:103FC0001092B30144CF8091B4018F5F8093B4010C
:103FD0008091B4018C3309F03ACF1092B40137CFFD
:103FE0008091B5018F5F8093B5018091B5018C33CD
:103FF00009F02DCF1092B5012ACF8091B201282F60
:1040000030E03BA32AA38AA19BA181309105C9F08E
:10401000EAA1FBA1E230F10511F12AA13BA1211592
:10402000310509F014CF8091B30181508093B30121
:104030008091B3018F3F09F00ACF87E18093B301EC
:1040400006CF8091B40181508093B4018091B40176
:104050008F3F09F0FCCE8BE38093B401F8CE8091C2
:10406000B50181508093B5018091B5018F3F09F072
:10407000EECE8BE38093B501EACE81E00E94170774
:104080008091B3019091B4012091B501692F422F25
:104090000E94B6218091B101813019F41092B101D2
:1040A000D6CE8091B3019091B4012091B501692FD2
:1040B000422F0E9468228091B101813019F4109240
:1040C000B101C5CE8091B3019091B4012091B501A9
:1040D000692F422F0E94A1228091B101813019F4F1
:1040E0001092B101B4CE81E060E00E94B60C80E68F
:1040F00090E00E948D0C1E8E01C181E061E041E0E4
:104100000E94A90DCE014F960E948F1380E090E08F
:10411000A6E1B4E4898F9A8FAB8FBC8F698D7A8DBD
:104120008B8D9C8D20E030E04AEF54E40E941F020A
:10413000DC01CB018D8B9E8BAF8BB88F6D897E8917
:104140008F89988D20E030E040E85FE30E942504ED
:1041500088232CF481E090E09C8B8B8B3FC06D8991
:104160007E898F89988D20E03FEF4FE757E40E94CA
:10417000C50318164CF5698D7A8D8B8D9C8D20E0CA
:1041800030E040E251E40E941F02DC01CB01BC019F
:10419000CD010E944900DC01CB019C8B8B8B0FC0B1
:1041A00088EC90E09A8B898B89899A890197F1F73D
:1041B0009A8B898B8B899C8901979C8B8B8B8B89A4
:1041C0009C89009769F714C06D897E898F89988DC5
:1041D0000E944900DC01CB019C8B8B8B8B899C89D5
:1041E000988B8F878F8598890197F1F7988B8F87A8
:1041F000CE014F960E94C11381E061E040E00E9431
:10420000A90DCE014F960E948F1380E090E0A6E1A9
:10421000B4E48B879C87AD87BE876B857C858D8555
:104220009E8520E030E04AEF54E40E941F02DC014A
:10423000CB018F839887A987BA876F817885898515
:104240009A8520E030E040E85FE30E94250488235F
:104250002CF481E090E09E838D833FC06F81788550
:1042600089859A8520E03FEF4FE757E40E94C50318
:1042700018164CF56B857C858D859E8520E030E099
:1042800040E251E40E941F02DC01CB01BC01CD01E0
:104290000E944900DC01CB019E838D830FC088EC16
:1042A00090E09C838B838B819C810197F1F79C83A9
:1042B0008B838D819E8101979E838D838D819E81CD
:1042C000009769F714C06F81788589859A850E9467
:1042D0004900DC01CB019E838D838D819E819A8371
:1042E000898389819A810197F1F79A838983CE0125
:1042F0004F960E94C1138E8D8F5F8E8F8E8D83306F
:1043000008F4FBCE81E00E9417071092B20188E901
:1043100091E060E041E021E00E94DB0C98CD81E07B
:104320000E9417071092B3011092B4011092B501C8
:104330008091B3019091B4012091B501692F422F72
:104340000E94D7221092B20188E991E060E041E03A
:1043500021E00E94DB0C7BCDDF93CF93CDB7DEB79E
:1043600081E08093B101CF91DF910895DF93CF93E6
:10437000CDB7DEB761970FB6F894DEBF0FBECDBFE5
:104380008F87688B498B89898B3309F094C08CE3C4
:10439000898B91C089898150898B8F8568894989EA
:1043A0000E94D7228091B101813099F48F8580934A
:1043B000B30188898093B40189898093B5011092F3
:1043C000B20188E991E060E041E021E00E94DB0C6D
:1043D00076C080E090E0AAEFB3E48B879C87AD873E
:1043E000BE876B857C858D859E8520E030E04AEF19
:1043F00054E40E941F02DC01CB018F839887A987B8
:10440000BA876F81788589859A8520E030E040E819
:104410005FE30E94250488232CF481E090E09E83D2
:104420008D833FC06F81788589859A8520E03FEF35
:104430004FE757E40E94C50318164CF56B857C8541
:104440008D859E8520E030E040E251E40E941F020D
:10445000DC01CB01BC01CD010E944900DC01CB0194
:104460009E838D830FC088EC90E09C838B838B812F
:104470009C810197F1F79C838B838D819E810197AD
:104480009E838D838D819E81009769F714C06F8113
:10449000788589859A850E944900DC01CB019E833D
:1044A0008D838D819E819A83898389819A810197E9
:1044B000F1F79A8389838989882309F06BCF619604
:1044C0000FB6F894DEBF0FBECDBFCF91DF91089538
:1044D000DF93CF9300D00F92CDB7DEB789836A8385
:1044E0004B838A818B3321F58CE38A8321C08BE354
:1044F0008B838A8181508A8389816A814B810E9462
:10450000B6218091B101813099F489818093B30102
:104510008A818093B4018B818093B5011092B2019E
:1045200088E991E060E041E021E00E94DB0C03C0FB
:104530008A818823E1F60F900F900F90CF91DF9141
:104540000895DF93CF9300D00F92CDB7DEB7898364
:104550006A834B8323C08BE38B838BE38A838981BC
:104560008150898389816A814B810E946822809170
:10457000B101813099F489818093B3018A8180935C
:10458000B4018B818093B5011092B20188E991E06A
:1045900060E041E021E00E94DB0C03C089818823B8
:1045A000D1F60F900F900F90CF91DF910895DF9388
:1045B000CF9300D00F92CDB7DEB789836A834B8348
:1045C00080E060E00E94B60C89819AE0692F0E9429
:1045D0003723992787FD90950E941C0D89819AE0C9
:1045E000692F0E943723892F992787FD90950E9474
:1045F0001C0D8AE30E94F50880E063E00E94B60C7F
:104600008A819AE0692F0E943723992787FD909528
:104610000E941C0D8A819AE0692F0E943723892FFE
:10462000992787FD90950E941C0D8AE30E94F5084A
:1046300080E066E00E94B60C8B819AE0692F0E94B0
:104640003723992787FD90950E941C0D8B819AE056
:10465000692F0E943723892F992787FD90950E9403
:104660001C0D0F900F900F90CF91DF91089587FB55
:10467000082E062687FD819567FD619519D00EF4F9
:10468000919507FC81950895AA1BBB1B51E107C0BA
:10469000AA1FBB1FA617B70710F0A61BB70B881FD2
:1046A000991F5A95A9F780959095BC01CD01089561
:1046B000991B79E004C0991F961708F0961B881F74
:1046C0007A95C9F7809508952F923F924F925F9205
:1046D0006F927F928F929F92AF92BF92CF92DF9212
:1046E000EF92FF920F931F93CF93DF93CDB7DEB777
:1046F000CA1BDB0B0FB6F894DEBF0FBECDBF09940B
:104700002A88398848885F846E847D848C849B8461
:10471000AA84B984C884DF80EE80FD800C811B816F
:10472000AA81B981CE0FD11D0FB6F894DEBF0FBE9E
:0A473000CDBFED010895F894FFCF0E
:10473A00497427732074696D65212E2E2E0000009E
:10474A000000000000000001020203030303040446
:10475A000404040404040505050505050505050505
:10476A0005050505050506060606060606060606E5
:10477A0006060606060606060606060606060606CF
:10478A0006060606060607070707070707070707B5
:10479A00070707070707070707070707070707079F
:1047AA00070707070707070707070707070707078F
:1047BA00070707070707070707070707070707077F
:1047CA000707070707070808080808080808080865
:1047DA00080808080808080808080808080808084F
:1047EA00080808080808080808080808080808083F
:1047FA00080808080808080808080808080808082F
:10480A00080808080808080808080808080808081E
:10481A00080808080808080808080808080808080E
:10482A0008080808080808080808080808080808FE
:10483A0008080808080808080808080808080808EE
:10484A000808080808080102032F0405062A0708B1
:10485A00092D43003D2B04050607000102033F060C
:10486A005B4F666D7D077F6F040E15040404040018
:04487A000100010038
:00000001FF
