:100000000C942A000C9476150C94A3150C94D0151E
:100010000C94BD290C9490290C9463290C947F288E
:100020000C94AC280C94D9280C9425280C945228B4
:100030000C9447000C9447000C9447000C94470024
:100040000C94C9080C9447000C9447000C9447008A
:100050000C94470011241FBECFE5D8E0DEBFCDBF12
:1000600011E0A0E6B0E0E2E4FDE502C005900D92EB
:10007000AA3AB107D9F711E0AAEAB1E001C01D928E
:10008000A63FB107E1F70E94F82A0C949F2E0C942A
:100090000000EF92FF920F931F937B018C0120E0F1
:1000A00030E040E05FE40E94F50388238CF0C80153
:1000B000B70120E030E040E05FE40E94C1010E940F
:1000C00055049B01AC01205030404040504806C0D0
:1000D000C801B7010E9455049B01AC01B901CA01D6
:1000E0001F910F91FF90EF900895A0E0B0E0EBE733
:1000F000F0E00C94682EDC012B01FA019C91923007
:1001000008F439C1EB018881823008F433C194309E
:1001100069F4843009F02FC111969C91119789815F
:10012000981709F428C1A2E7B0E025C1843009F48A
:1001300021C18230A9F4923009F01DC19A01AD01AC
:1001400088E0EA010990AE01E90109929E0181501F
:10015000C1F7E201898111969C918923818308C1AD
:10016000923009F407C112962D903C901397EB0141
:100170008A819B811496AD90BD90CD90DC901797AD
:10018000EC80FD800E811F819101281B390BB90184
:1001900037FF04C066277727621B730B6032710537
:1001A0000CF061C0121613066CF537014801062EDB
:1001B00004C096948794779467940A94D2F721E0C8
:1001C00030E040E050E004C0220F331F441F551FB1
:1001D0006A95D2F721503040404050402E213F21B7
:1001E00040235123211531054105510521F021E01E
:1001F00030E040E050E079018A01E628F72808293C
:1002000019293CC0232BD1F1260E371E350146019A
:10021000062E04C096948794779467940A94D2F734
:1002200021E030E040E050E004C0220F331F441FC3
:10023000551F6A95D2F721503040404050402A2146
:100240003B214C215D21211531054105510521F04E
:1002500021E030E040E050E059016A01A628B728CB
:10026000C828D9280BC0821593052CF01C01AA249C
:10027000BB24650103C0EE24FF24870111969C91E5
:10028000D20111968C91981709F445C0992339F041
:10029000A80197012A193B094C095D0906C0A6016E
:1002A00095012E193F09400B510B57FD08C01182D3
:1002B0003382228224833583468357831DC081E0A5
:1002C00081833382228288279927DC01821B930B4A
:1002D000A40BB50B84839583A683B7830DC0220F2F
:1002E000331F441F551F24833583468357838281E0
:1002F000938101979383828324813581468157813D
:10030000DA01C9010197A109B1098F5F9F4FAF4F72
:10031000BF4328F30BC0918333822282EA0CFB1C7B
:100320000C1D1D1DE482F5820683178383E0808304
:10033000248135814681578157FF1AC0C901AA27F8
:1003400097FDA095BA2F81709070A070B0705695EF
:10035000479537952795822B932BA42BB52B848318
:100360009583A683B7838281938101969383828349
:10037000DF0101C0D201CD01CDB7DEB7E2E10C94BF
:10038000842EA0E2B0E0E7ECF1E00C94742E6983D7
:100390007A838B839C832D833E834F835887E9E048
:1003A000EE2EF12CEC0EFD1ECE010196B7010E943F
:1003B00046068E010F5E1F4FCE010596B8010E94C2
:1003C00046068A8991E089278A8BC701B801AE0168
:1003D000475E5F4F0E9475000E947105A096E6E09F
:1003E0000C94902EA0E2B0E0E8EFF1E00C94742EB3
:1003F00069837A838B839C832D833E834F835887C5
:10040000F9E0EF2EF12CEC0EFD1ECE010196B701A6
:100410000E9446068E010F5E1F4FCE010596B80161
:100420000E944606C701B801AE01475E5F4F0E94B9
:1004300075000E947105A096E6E00C94902EA0E253
:10044000B0E0E5E2F2E00C94682E69837A838B8356
:100450009C832D833E834F835887CE010196BE0136
:10046000675F7F4F0E944606CE010596BE016F5E14
:100470007F4F0E9446069985923088F089898230A4
:10048000C8F0943019F4823051F404C0843029F457
:10049000923081F482E790E0C6C0923049F420E0C7
:1004A0009A858A89981321E02A87CE010996BBC0D4
:1004B000823049F420E09A858A89981321E02A8BBA
:1004C000CE014196B0C02D843E844F8458886D88FB
:1004D0007E888F88988CEE24FF248701AA24BB2471
:1004E000650140E050E060E070E0E0E0F0E0C10174
:1004F00081709070892BE9F0E60CF71C081D191D1E
:100500009A01AB012A0D3B1D4C1D5D1D80E090E062
:10051000A0E0B0E0E614F7040805190520F481E036
:1005200090E0A0E0B0E0BA01A901480F591F6A1F8E
:100530007B1FAA0CBB1CCC1CDD1C97FE08C081E0F5
:1005400090E0A0E0B0E0A82AB92ACA2ADB2A3196B6
:10055000E032F10549F0660C771C881C991C569412
:10056000479437942794C3CFFA85EA892B893C892D
:100570008B859C85280F391F2E5F3F4F17C0CA01FE
:1005800081709070892B61F016950795F794E79428
:1005900080E090E0A0E0B0E8E82AF92A0A2B1B2BC3
:1005A00076956795579547952F5F3F4F77FDE7CF36
:1005B0000CC0440F551F661F771F17FD4160EE0CDE
:1005C000FF1C001F111F21503040403090E05907A0
:1005D00090E0690790E4790760F32B8F3C8FDB0193
:1005E000CA018F779070A070B07080349105A1051A
:1005F000B10561F447FD0AC0E114F10401051105DC
:1006000029F0405C5F4F6F4F7F4F40781A8EFE1786
:1006100011F081E08A8F4D8F5E8F6F8F78A383E01A
:10062000898FCE0149960E947105A096E2E10C9453
:10063000842EA8E1B0E0EFE1F3E00C94702E698322
:100640007A838B839C832D833E834F835887B9E0C5
:10065000EB2EF12CEC0EFD1ECE010196B7010E948F
:1006600046068E010F5E1F4FCE010596B8010E940F
:1006700046062985223008F47EC03989323010F4CC
:10068000B8017CC08A859A8989278A87243011F02D
:10069000223031F4231709F06EC062E770E06EC0BB
:1006A000343039F41D861E861F86188A1C861B86E8
:1006B00004C0323021F484E08987B7015FC02B8504
:1006C0003C858B899C89281B390B3C872B87ED84C3
:1006D000FE840F851889AD88BE88CF88D88CEA142F
:1006E000FB040C051D0540F4EE0CFF1C001F111F40
:1006F000215030403C872B8720E030E040E050E044
:1007000080E090E0A0E0B0E460E070E0EA14FB0478
:100710000C051D0540F0282B392B4A2B5B2BEA18C2
:10072000FB080C091D09B695A79597958795EE0CC2
:10073000FF1C001F111F6F5F7F4F6F31710531F775
:10074000DA01C9018F779070A070B0708034910584
:10075000A105B10561F427FD0AC0E114F10401050A
:10076000110529F0205C3F4F4F4F5F4F20782D87B8
:100770003E874F87588BBE01675F7F4FCB010E943A
:1007800071056896EAE00C948C2EA8E1B0E0EBECE1
:10079000F3E00C94742E69837A838B839C832D837E
:1007A0003E834F83588789E0E82EF12CEC0EFD1E26
:1007B000CE010196B7010E9446068E010F5E1F4FC3
:1007C000CE010596B8010E9446068985823040F028
:1007D0008989823028F0C701B8010E94BE0601C095
:1007E0008FEF6896E6E00C94902EA8E1B0E0EBEF76
:1007F000F3E00C94742E69837A838B839C832D831E
:100800003E834F83588789E0E82EF12CEC0EFD1EC5
:10081000CE010196B7010E9446068E010F5E1F4F62
:10082000CE010596B8010E9446068985823040F0C7
:100830008989823028F0C701B8010E94BE0601C034
:100840008FEF6896E6E00C94902EA8E1B0E0EBE222
:10085000F4E00C94742E69837A838B839C832D83BC
:100860003E834F83588789E0E82EF12CEC0EFD1E65
:10087000CE010196B7010E9446068E010F5E1F4F02
:10088000CE010596B8010E9446068985823040F067
:100890008989823028F0C701B8010E94BE0601C0D4
:1008A00081E06896E6E00C94902EACE0B0E0EBE5D9
:1008B000F4E00C94782E69837A838B839C83CE0139
:1008C0000196BE016B5F7F4F0E9446068D8182308C
:1008D00061F1823050F1843021F48E81882351F10E
:1008E0002EC02F81388537FD20C06E812F31310514
:1008F0001CF06623F9F023C08EE190E0821B930B7D
:1009000029853A854B855C8504C056954795379572
:1009100027958A95D2F76623B1F05095409530958A
:1009200021953F4F4F4F5F4F0EC020E030E040E039
:1009300050E009C02FEF3FEF4FEF5FE704C020E02A
:1009400030E040E050E8B901CA012C96E2E00C9496
:10095000942EA8E0B0E0EFEAF4E00C94702E7B0156
:100960008C01611571058105910519F482E0898377
:1009700060C083E089838EE1C82ED12CDC82CB82DB
:10098000ED82FE820F831887C801B7010E942205FD
:10099000FC013197F7FF3BC0222733272E1B3F0B6B
:1009A00057016801022E04C0D694C794B794A79447
:1009B0000A94D2F740E050E060E070E081E090E01F
:1009C000A0E0B0E004C0880F991FAA1FBB1F2A95A2
:1009D000D2F70197A109B1098E219F21A023B1234C
:1009E0000097A105B10521F041E050E060E070E022
:1009F0004A295B296C297D294D835E836F83788723
:100A00008EE190E08E1B9F0B9C838B8312C03097EE
:100A100081F00E2E04C0EE0CFF1C001F111F0A9463
:100A2000D2F7ED82FE820F831887CE1ADF0ADC82AE
:100A3000CB821A82CE0101960E9471052896EAE0C7
:100A40000C948C2EEF92FF920F931F937B018C01DD
:100A500080E0E81680E0F80681E0080780E01807EB
:100A600088F48FEFE816F1040105110531F028F044
:100A700088E090E0A0E0B0E017C080E090E0A0E067
:100A8000B0E012C080E0E81680E0F80680E00807D9
:100A900081E0180728F088E190E0A0E0B0E004C011
:100AA00080E190E0A0E0B0E020E230E040E050E003
:100AB000281B390B4A0B5B0B04C016950795F7945E
:100AC000E7948A95D2F7F701E658FF4F8081281BFB
:100AD000310941095109C9011F910F91FF90EF9010
:100AE0000895DF92EF92FF920F931F93FC01E48031
:100AF000F58006811781D1808081823048F480E0C2
:100B000090E0A0E1B0E0E82AF92A0A2B1B2BA5C04F
:100B1000843009F49FC0823021F4EE24FF24870141
:100B200005C0E114F1040105110519F4E0E0F0E05D
:100B300096C0628173819FEF623879070CF05BC0C9
:100B400022E83FEF261B370B2A3131052CF020E03D
:100B500030E040E050E02AC0B801A701022E04C0F6
:100B600076956795579547950A94D2F781E090E07E
:100B7000A0E0B0E004C0880F991FAA1FBB1F2A95F0
:100B8000D2F70197A109B1098E219F21A023B1239A
:100B90000097A105B10521F081E090E0A0E0B0E070
:100BA0009A01AB01282B392B4A2B5B2BDA01C901A7
:100BB0008F779070A070B07080349105A105B10559
:100BC00039F427FF09C0205C3F4F4F4F5F4F04C0EF
:100BD000215C3F4F4F4F5F4FE0E0F0E02030A0E05E
:100BE0003A07A0E04A07A0E45A0710F0E1E0F0E07D
:100BF00079018A0127C06038710564F5FB01E1586D
:100C0000FF4FD801C7018F779070A070B07080340B
:100C10009105A105B10539F4E7FE0DC080E490E02F
:100C2000A0E0B0E004C08FE390E0A0E0B0E0E80E08
:100C3000F91E0A1F1B1F17FF05C016950795F7948D
:100C4000E794319687E016950795F794E7948A958F
:100C5000D1F705C0EE24FF248701EFEFF0E06E2FFF
:100C6000679566276795902F9F77D794DD24D79453
:100C70008E2F8695492F462B582F5D29B701CA0123
:100C80001F910F91FF90EF90DF900895FC01DB0121
:100C9000408151812281622F6F7770E0221F2227CD
:100CA000221F9381892F880F822B282F30E0991FD4
:100CB0009927991F11969C93119721153105A9F534
:100CC000411551056105710511F482E037C082E8D4
:100CD0009FEF13969C938E9312979A01AB0167E056
:100CE000220F331F441F551F6A95D1F783E08C9361
:100CF0000DC0220F331F441F551F12968D919C91DA
:100D00001397019713969C938E931297203080E04F
:100D1000380780E0480780E4580758F314962D936D
:100D20003D934D935C93179708952F3F310579F4C8
:100D3000411551056105710519F484E08C930895FE
:100D400064FF03C081E08C9312C01C9210C02F5727
:100D5000304013963C932E93129783E08C9387E058
:100D6000440F551F661F771F8A95D1F7706414963C
:100D70004D935D936D937C93179708951F93DC01BA
:100D8000FB019C91923008F447C08081823008F4C6
:100D900043C0943051F411961C91843099F58181AF
:100DA000682F70E0611B71093FC0843021F09230E0
:100DB00031F48230B9F18181882389F12DC01196F7
:100DC0001C9111978230F1F081811817D9F4129695
:100DD0002D913C911397828193818217930794F010
:100DE00028173907BCF014968D919D910D90BC91F8
:100DF000A02D2481358146815781281739074A075C
:100E00005B0718F4112341F00AC082179307A40767
:100E1000B50740F4112319F061E070E005C06FEFF1
:100E20007FEF02C060E070E0CB011F910895DF9377
:100E3000CF93CDB7DEB7A7E2B0E0E7E2F0E0808184
:100E40008F738C93A7E2B0E0E7E2F0E080818064EA
:100E50008C93A7E2B0E0E7E2F0E0808180628C93BF
:100E6000A6E2B0E0E6E2F0E08081887F8C93A6E223
:100E7000B0E0E6E2F0E0808186608C93A6E2B0E02C
:100E8000E6E2F0E080818F7D8C93A6E2B0E0E6E2BE
:100E9000F0E0808180688C93CF91DF910895DF939B
:100EA000CF93CDB7DEB728970FB6F894DEBF0FBE4D
:100EB000CDBF8E8378876F831D8219821A821B8231
:100EC0001C828091AA01882309F06EC081E0809382
:100ED000AA018F819885009709F463C08E818032C2
:100EE00008F05CC0A7E2B0E0E7E2F0E08081807E3D
:100EF0008C93A7E2B0E0E7E2F0E090818E81892B4D
:100F00008C93A6E2B0E0E6E2F0E0808180648C930E
:100F10000BC089819A81AB81BC810196A11DB11D55
:100F200089839A83AB83BC83E6E2F0E0808182957B
:100F30008F70882F90E081709070009761F48981A4
:100F40009A81AB81BC81803523EC920720E0A20717
:100F500020E0B207F0F289819A81AB81BC818035B3
:100F600023EC920720E0A20720E0B20719F481E009
:100F70008D831CC0A6E2B0E0E6E2F0E080818F7EC7
:100F80008C93E4E2F0E080819181892F9927EF81B1
:100F9000F885918380831092AA0108C081E08D8337
:100FA00005C082E08D8302C083E08D838D81289609
:100FB0000FB6F894DEBF0FBECDBFCF91DF9108957D
:100FC000DF93CF9300D000D000D0CDB7DEB78A83B7
:100FD0007C836B835E834D8319828091AA01882371
:100FE00009F040C081E08093AA011092AF018B818B
:100FF0009C81009721F48D819E81009781F18A81E7
:10100000803250F5A7E2B0E0E7E2F0E08081807E38
:101010008C93A7E2B0E0E7E2F0E090818A81892B2F
:101020008C938D819E819093AC018093AB018B81D9
:101030009C819093AE018093AD01A6E2B0E0E6E220
:10104000F0E0808180648C93A6E2B0E0E6E2F0E01C
:10105000808188608C9308C081E0898305C082E02C
:10106000898302C083E08983898126960FB6F8942C
:10107000DEBF0FBECDBFCF91DF910895DF93CF9339
:1010800000D00F92CDB7DEB79B838A8319828091FF
:10109000AA01882309F074C081E08093AA0181E04D
:1010A0008093AF01EA81FB8180819181009769F48F
:1010B000EA81FB8183819481009739F4EA81FB8185
:1010C00085819681009709F458C0EA81FB812081CF
:1010D00031818091B001882F90E0F901E80FF91F6C
:1010E0008081803208F046C0A7E2B0E0E7E2F0E09D
:1010F0008081807E8C93A7E2B0E0E7E2F0E040815F
:10110000EA81FB81208131818091B001882F90E0BC
:10111000F901E80FF91F8081842B8C93EA81FB8110
:10112000808191819093B2018093B101EA81FB812A
:10113000838194819093B4018093B301EA81FB8110
:10114000858196819093B6018093B501EA81FB81F8
:1011500082818093B701A6E2B0E0E6E2F0E0808110
:1011600080648C93A6E2B0E0E6E2F0E080818860E3
:101170008C9308C081E0898305C082E0898302C026
:1011800083E0898389810F900F900F90CF91DF9139
:1011900008951F920F920FB60F9211242F933F9331
:1011A0004F935F936F937F938F939F93AF93BF936F
:1011B000EF93FF93DF93CF93CDB7DEB78091AF016D
:1011C0008823D9F4A091AD01B091AE01E4E2F0E042
:1011D00080819181892F99278D939C931092AA01E8
:1011E000E091AB01F091AC010995A6E2B0E0E6E236
:1011F000F0E08081877F8C9358C08091AF0181306F
:1012000009F053C02091B5013091B6018091B00131
:10121000882F90E0880F991FD901A80FB91FE4E229
:10122000F0E080819181892F992711969C938E936C
:101230008091B0018F5F8093B0019091B001809157
:10124000B701981789F41092AA01E091B301F091C7
:10125000B4010995A6E2B0E0E6E2F0E08081877F84
:101260008C931092B00121C0A7E2B0E0E7E2F0E079
:101270008081807E8C93A7E2B0E0E7E2F0E04081DD
:101280002091B1013091B2018091B001882F90E09E
:10129000F901E80FF91F8081842B8C93A6E2B0E05E
:1012A000E6E2F0E0808180648C93CF91DF91FF9142
:1012B000EF91BF91AF919F918F917F916F915F91CE
:1012C0004F913F912F910F900FBE0F901F90189547
:1012D000DF93CF93CDB7DEB7AC970FB6F894DEBFF0
:1012E0000FBECDBF8CA780EF8BA780E060E040E011
:1012F0000E9431109BA58CA589238BA781E06BA54B
:101300000E944A1180E062E041E00E94311080E0DA
:1013100090E0A0E0B0E48FA398A7A9A7BAA76FA117
:1013200078A589A59AA520E030E04AEF54E40E9410
:101330001F02DC01CB018BA39CA3ADA3BEA36BA1B9
:101340007CA18DA19EA120E030E040E85FE30E94F7
:10135000250488232CF481E090E09AA389A33FC060
:101360006BA17CA18DA19EA120E03FEF4FE757E448
:101370000E94C50318164CF56FA178A589A59AA5FA
:1013800020E030E040E251E40E941F02DC01CB018A
:10139000BC01CD010E944900DC01CB019AA389A3C5
:1013A0000FC088EC90E098A38F8F8F8D98A1019744
:1013B000F1F798A38F8F89A19AA101979AA389A386
:1013C00089A19AA1009769F714C06BA17CA18DA196
:1013D0009EA10E944900DC01CB019AA389A389A1A7
:1013E0009AA19E8F8D8F8D8D9E8D0197F1F79E8F87
:1013F0008D8F80E062E040E00E9431108091B80162
:10140000882309F48CC080EF8BA78BA5982F90952B
:101410008CA589238BA78BA5982F9295907F81E02F
:10142000692F0E944A1180E062E041E00E94311081
:1014300080E090E0A0E0B0E4898F9A8FAB8FBC8F02
:10144000698D7A8D8B8D9C8D20E030E04AEF54E4DD
:101450000E941F02DC01CB018D8B9E8BAF8BB88F5E
:101460006D897E898F89988D20E030E040E85FE3C8
:101470000E94250488232CF481E090E09C8B8B8BC8
:101480003FC06D897E898F89988D20E03FEF4FE7BF
:1014900057E40E94C50318164CF5698D7A8D8B8D23
:1014A0009C8D20E030E040E251E40E941F02DC010C
:1014B000CB01BC01CD010E944900DC01CB019C8B1A
:1014C0008B8B0FC088EC90E09A8B898B89899A89E5
:1014D0000197F1F79A8B898B8B899C8901979C8B5B
:1014E0008B8B8B899C89009769F714C06D897E89E5
:1014F0008F89988D0E944900DC01CB019C8B8B8BDE
:101500008B899C89988B8F878F8598890197F1F7B4
:10151000988B8F8780E062E040E00E94311080E08D
:1015200090E0A0E0B0E48B879C87AD87BE876B8599
:101530007C858D859E8520E030E04AEF54E40E9452
:101540001F02DC01CB018F839887A987BA876F813F
:10155000788589859A8520E030E040E85FE30E9445
:10156000250488232CF481E090E09E838D833FC086
:101570006F81788589859A8520E03FEF4FE757E4B2
:101580000E94C50318164CF56B857C858D859E855C
:1015900020E030E040E251E40E941F02DC01CB0178
:1015A000BC01CD010E944900DC01CB019E838D83EB
:1015B0000FC088EC90E09C838B838B819C8101978A
:1015C000F1F79C838B838D819E8101979E838D8310
:1015D0008D819E81009769F714C06F817885898518
:1015E0009A850E944900DC01CB019E838D838D8109
:1015F0009E819A83898389819A810197F1F79A83E1
:101600008983AC960FB6F894DEBF0FBECDBFCF91E5
:10161000DF910895DF93CF9300D0CDB7DEB71A8264
:1016200080E060E040E00E94311080E061E041E055
:101630000E94311019821CC09E012E5F3F4F81E035
:101640006981A9010E9498118A81282F30E089813F
:10165000882F90E0A90102C0440F551F8A95E2F738
:10166000CA01982F8A81890F8A8389818F5F898334
:101670008981873008F38A810F900F90CF91DF9195
:101680000895DF93CF93CDB7DEB7AC970FB6F8943C
:10169000DEBF0FBECDBF8CA780EF8BA780E060E0E0
:1016A00041E00E9431109BA58CA589238BA781E086
:1016B0006BA50E944A1180E062E041E00E94311077
:1016C00080E090E0A0E0B0E48FA398A7A9A7BAA714
:1016D0006FA178A589A59AA520E030E04AEF54E4EF
:1016E0000E941F02DC01CB018BA39CA3ADA3BEA370
:1016F0006BA17CA18DA19EA120E030E040E85FE3DA
:101700000E94250488232CF481E090E09AA389A309
:101710003FC06BA17CA18DA19EA120E03FEF4FE7D0
:1017200057E40E94C50318164CF56FA178A589A54A
:101730009AA520E030E040E251E40E941F02DC0163
:10174000CB01BC01CD010E944900DC01CB019AA371
:1017500089A30FC088EC90E098A38F8F8F8D98A1FC
:101760000197F1F798A38F8F89A19AA101979AA366
:1017700089A389A19AA1009769F714C06BA17CA1E4
:101780008DA19EA10E944900DC01CB019AA389A3EF
:1017900089A19AA19E8F8D8F8D8D9E8D0197F1F7D6
:1017A0009E8F8D8F80E062E040E00E94311080EFDC
:1017B0008BA78BA5982F90958CA589238BA78BA59C
:1017C000982F9295907F81E0692F0E944A1180E0C6
:1017D00062E041E00E94311080E090E0A0E0B0E4DF
:1017E000898F9A8FAB8FBC8F698D7A8D8B8D9C8DF5
:1017F00020E030E04AEF54E40E941F02DC01CB01FC
:101800008D8B9E8BAF8BB88F6D897E898F89988DDC
:1018100020E030E040E85FE30E94250488232CF4B8
:1018200081E090E09C8B8B8B3FC06D897E898F8996
:10183000988D20E03FEF4FE757E40E94C50318164C
:101840004CF5698D7A8D8B8D9C8D20E030E040E2E7
:1018500051E40E941F02DC01CB01BC01CD010E94BA
:101860004900DC01CB019C8B8B8B0FC088EC90E096
:101870009A8B898B89899A890197F1F79A8B898B41
:101880008B899C8901979C8B8B8B8B899C8900977A
:1018900069F714C06D897E898F89988D0E944900EF
:1018A000DC01CB019C8B8B8B8B899C89988B8F87E0
:1018B0008F8598890197F1F7988B8F8780E062E098
:1018C00040E00E94311080E090E0A0E0B0E48B871F
:1018D0009C87AD87BE876B857C858D859E8520E046
:1018E00030E04AEF54E40E941F02DC01CB018F83F9
:1018F0009887A987BA876F81788589859A8520E03E
:1019000030E040E85FE30E94250488232CF481E066
:1019100090E09E838D833FC06F81788589859A850D
:1019200020E03FEF4FE757E40E94C50318164CF53F
:101930006B857C858D859E8520E030E040E251E41A
:101940000E941F02DC01CB01BC01CD010E944900B5
:10195000DC01CB019E838D830FC088EC90E09C83DB
:101960008B838B819C810197F1F79C838B838D8185
:101970009E8101979E838D838D819E81009769F75B
:1019800014C06F81788589859A850E944900DC01A1
:10199000CB019E838D838D819E819A8389838981EA
:1019A0009A810197F1F79A83898386E00E946809FA
:1019B000AC960FB6F894DEBF0FBECDBFCF91DF91CE
:1019C0000895DF93CF93CDB7DEB7E8970FB6F894BD
:1019D000DEBF0FBECDBF80E090E0A0E2B2E48DABF1
:1019E0009EABAFABB8AF6DA97EA98FA998AD20E033
:1019F00030E04AEF54E40E941F02DC01CB0189ABC6
:101A00009AABABABBCAB69A97AA98BA99CA920E026
:101A100030E040E85FE30E94250488232CF481E055
:101A200090E098AB8FA73FC069A97AA98BA99CA920
:101A300020E03FEF4FE757E40E94C50318164CF52E
:101A40006DA97EA98FA998AD20E030E040E251E475
:101A50000E941F02DC01CB01BC01CD010E944900A4
:101A6000DC01CB0198AB8FA70FC088EC90E09EA75C
:101A70008DA78DA59EA50197F1F79EA78DA78FA590
:101A800098A9019798AB8FA78FA598A9009769F798
:101A900014C069A97AA98BA99CA90E944900DC01FC
:101AA000CB0198AB8FA78FA598A99CA78BA78BA5D7
:101AB0009CA50197F1F79CA78BA780E20E9468097B
:101AC00080E20E94680980E80E94680980E090E056
:101AD000A0E8BFE38FA398A7A9A7BAA76FA178A58D
:101AE00089A59AA520E030E04AEF54E40E941F0245
:101AF000DC01CB018BA39CA3ADA3BEA36BA17CA1F6
:101B00008DA19EA120E030E040E85FE30E94250423
:101B100088232CF481E090E09AA389A33FC06BA1B5
:101B20007CA18DA19EA120E03FEF4FE757E40E94EA
:101B3000C50318164CF56FA178A589A59AA520E0D4
:101B400030E040E251E40E941F02DC01CB01BC0105
:101B5000CD010E944900DC01CB019AA389A30FC0EB
:101B600088EC90E098A38F8F8F8D98A10197F1F763
:101B700098A38F8F89A19AA101979AA389A389A17C
:101B80009AA1009769F714C06BA17CA18DA19EA1B9
:101B90000E944900DC01CB019AA389A389A19AA1E3
:101BA0009E8F8D8F8D8D9E8D0197F1F79E8F8D8FDE
:101BB00080E00E94680980EC0E94680980E090E063
:101BC000A0E8BFE3898F9A8FAB8FBC8F698D7A8D28
:101BD0008B8D9C8D20E030E04AEF54E40E941F0280
:101BE000DC01CB018D8B9E8BAF8BB88F6D897E898D
:101BF0008F89988D20E030E040E85FE30E94250463
:101C000088232CF481E090E09C8B8B8B3FC06D8906
:101C10007E898F89988D20E03FEF4FE757E40E943F
:101C2000C50318164CF5698D7A8D8B8D9C8D20E03F
:101C300030E040E251E40E941F02DC01CB01BC0114
:101C4000CD010E944900DC01CB019C8B8B8B0FC026
:101C500088EC90E09A8B898B89899A890197F1F7B2
:101C60009A8B898B8B899C8901979C8B8B8B8B8919
:101C70009C89009769F714C06D897E898F89988D3A
:101C80000E944900DC01CB019C8B8B8B8B899C894A
:101C9000988B8F878F8598890197F1F7988B8F871D
:101CA00080E00E94680980E10E94680980E090E07D
:101CB000A0E0B0E48B879C87AD87BE876B857C8571
:101CC0008D859E8520E030E04AEF54E40E941F029B
:101CD000DC01CB018F839887A987BA876F817885CC
:101CE00089859A8520E030E040E85FE30E94250482
:101CF00088232CF481E090E09E838D833FC06F8128
:101D0000788589859A8520E03FEF4FE757E40E9468
:101D1000C50318164CF56B857C858D859E8520E066
:101D200030E040E251E40E941F02DC01CB01BC0123
:101D3000CD010E944900DC01CB019E838D830FC041
:101D400088EC90E09C838B838B819C810197F1F7D9
:101D50009C838B838D819E8101979E838D838D8152
:101D60009E81009769F714C06F81788589859A856F
:101D70000E944900DC01CB019E838D838D819E8171
:101D80009A83898389819A810197F1F79A8389835C
:101D900081E08093B801E8960FB6F894DEBF0FBEDD
:101DA000CDBFCF91DF910895DF93CF9300D00F92F5
:101DB000CDB7DEB79B838A8319820EC08981282F15
:101DC00030E08A819B81FC01E20FF31F80810E9439
:101DD000410B89818F5F89838981282F30E08A8137
:101DE0009B81FC01E20FF31F8081882339F70F905C
:101DF0000F900F90CF91DF910895DF93CF9300D094
:101E00000F92CDB7DEB78A836B838A81882351F422
:101E10008B81803120F08B81805C898309C08B812C
:101E2000898306C08A81813019F48B81805C898323
:101E3000898180580E9468090F900F900F90CF9170
:101E4000DF910895DF93CF93CDB7DEB727970FB615
:101E5000F894DEBF0FBECDBF9C838B836D834E8312
:101E60002F831A828D81882F90E0880F991F880F09
:101E7000991F880F991F8A838A81805C0E94680954
:101E800019820EC08981282F30E08B819C81FC0152
:101E9000E20FF31F80810E94410B89818F5F89834C
:101EA0008981883078F38E816F810E94FD0E8D814B
:101EB0000E94410B27960FB6F894DEBF0FBECDBF30
:101EC000CF91DF910895DF93CF9300D000D000D061
:101ED000CDB7DEB76B837C838D839E838B819C81A2
:101EE0000E94AE0F8A838A8189832CC089818150A8
:101EF0000E94D90F9C0140E050E08B819C81AD8114
:101F0000BE81BC01CD010E94462EDA01C901805D6F
:101F10000E94410B898181500E94D90F9C0140E0B1
:101F200050E08B819C81AD81BE81BC01CD010E94BE
:101F3000462EDC01CB018B839C83AD83BE838981DC
:101F400081508983898118168CF226960FB6F894F1
:101F5000DEBF0FBECDBFCF91DF910895DF93CF934A
:101F600000D000D0CDB7DEB79B838A8319828A81E7
:101F70009B81009781F481E08C8313C08A819B81CF
:101F80002AE030E0B9010E94322ECB019B838A8384
:101F900089818F5F89838A819B81009779F7898105
:101FA0008C838C810F900F900F900F90CF91DF91C9
:101FB0000895DF93CF9300D000D0CDB7DEB78C83E8
:101FC00081E090E09A8389831B8211C089819A8184
:101FD0009C01220F331FC901880F991F880F991F79
:101FE000820F931F9A8389838B818F5F8B839B8161
:101FF0008C81981758F389819A810F900F900F90D8
:102000000F90CF91DF910895DF93CF9300D00F927F
:10201000CDB7DEB789837B836A838A819B81CC01BC
:10202000A0E0B0E02FEF30E040E050E0BC01CD0197
:102030000E94132EDC01CB0128E833E140E050E0A0
:10204000BC01CD010E94462EDA01C901982F898179
:10205000692F0E944A110F900F900F90CF91DF913E
:102060000895DF93CF93CDB7DEB728970FB6F894D6
:10207000DEBF0FBECDBF8A836B834C8319828C81F8
:10208000813009F079C08B81883008F072C08A8174
:10209000282F30E038872F838F81988581309105F4
:1020A00049F12F813885223031052CF48F819885B4
:1020B000009761F05BC02F8138852230310571F1C6
:1020C0008F81988583309105E9F150C0ABE3B0E092
:1020D000EBE3F0E08081482F8B81282F30E081E016
:1020E00090E0022E02C0880F991F0A94E2F7842B19
:1020F0008C93C6C0A8E3B0E0E8E3F0E08081482F0D
:102100008B81282F30E081E090E0022E02C0880F02
:10211000991F0A94E2F7842B8C93B2C0A5E3B0E038
:10212000E5E3F0E08081482F8B81282F30E081E0CB
:1021300090E0022E02C0880F991F0A94E2F7842BC8
:102140008C939EC0A2E3B0E0E2E3F0E08081482FF0
:102150008B81282F30E081E090E0022E02C0880FB2
:10216000991F0A94E2F7842B8C938AC081E08983BB
:1021700087C081E0898384C08C81882309F07EC078
:102180008B81883008F077C08A81282F30E03E8329
:102190002D838D819E818130910559F12D813E8164
:1021A000223031052CF48D819E81009769F060C04A
:1021B0002D813E812230310589F18D819E818330D0
:1021C000910509F440C054C0ABE3B0E0EBE3F0E0AC
:1021D0008081482F8B81282F30E081E090E0022E13
:1021E00002C0880F991F0A94E2F7809584238C938C
:1021F00047C0A8E3B0E0E8E3F0E08081482F8B819E
:10220000282F30E081E090E0022E02C0880F991F55
:102210000A94E2F7809584238C9332C0A5E3B0E062
:10222000E5E3F0E08081482F8B81282F30E081E0CA
:1022300090E0022E02C0880F991F0A94E2F7809561
:1022400084238C931DC0A2E3B0E0E2E3F0E0808140
:10225000482F8B81282F30E081E090E0022E02C0D1
:10226000880F991F0A94E2F7809584238C9308C005
:1022700081E0898305C081E0898302C081E0898390
:10228000898128960FB6F894DEBF0FBECDBFCF91DF
:10229000DF910895DF93CF9300D000D00F92CDB798
:1022A000DEB78A836B8319828A818830B0F58A8190
:1022B000282F30E03D832C838C819D8181309105D6
:1022C000D1F02C813D81223031052CF48C819D810F
:1022D000009761F01FC02C813D812230310581F0D3
:1022E0008C819D818330910581F014C0EBE3F0E097
:1022F0008B81808314C0E8E3F0E08B8180830FC082
:10230000E5E3F0E08B8180830AC0E2E3F0E08B81BB
:10231000808305C081E0898302C081E0898389814F
:102320000F900F900F900F900F90CF91DF91089525
:10233000DF93CF93CDB7DEB727970FB6F894DEBF04
:102340000FBECDBF8A836B835D834C8319828C81E2
:102350009D81009709F47BC08B81883008F074C0A0
:102360008A81282F30E03F832E834E815F81413068
:10237000510559F18E819F818230910534F42E816F
:102380003F812115310569F05CC04E815F8142308B
:10239000510579F18E819F818330910509F43DC00B
:1023A00050C0E9E3F0E08081282F30E08B81882F56
:1023B00090E0A90102C0559547958A95E2F7CA01B8
:1023C0008170EC81FD81808344C0E6E3F0E0808190
:1023D000282F30E08B81882F90E0A90102C055950D
:1023E00047958A95E2F7CA018170EC81FD8180836F
:1023F00030C0E3E3F0E08081282F30E08B81882F2C
:1024000090E0A90102C0559547958A95E2F7CA0167
:102410008170EC81FD8180831CC0E0E3F0E080816D
:10242000282F30E08B81882F90E0A90102C05595BC
:1024300047958A95E2F7CA018170EC81FD8180831E
:1024400008C081E0898305C081E0898302C082E001
:102450008983898127960FB6F894DEBF0FBECDBF62
:10246000CF91DF910895DF93CF9300D000D00F92EA
:10247000CDB7DEB78A836B8319828B81883008F0F1
:1024800072C08A81282F30E03D832C838C819D810E
:102490008130910549F12C813D81223031052CF4A8
:1024A0008C819D81009761F05BC02C813D81223041
:1024B000310571F18C819D8183309105E9F150C026
:1024C000ABE3B0E0EBE3F0E08081482F8B81282F75
:1024D00030E081E090E0022E02C0880F991F0A943C
:1024E000E2F784278C9341C0A8E3B0E0E8E3F0E092
:1024F0008081482F8B81282F30E081E090E0022EF0
:1025000002C0880F991F0A94E2F784278C932DC08C
:10251000A5E3B0E0E5E3F0E08081482F8B81282F30
:1025200030E081E090E0022E02C0880F991F0A94EB
:10253000E2F784278C9319C0A2E3B0E0E2E3F0E075
:102540008081482F8B81282F30E081E090E0022E9F
:1025500002C0880F991F0A94E2F784278C9305C064
:1025600081E0898302C081E0898389810F900F9087
:102570000F900F900F90CF91DF910895DF93CF933D
:1025800000D000D00F92CDB7DEB78A836B8319825B
:102590008A81843008F062C08A81282F30E03D8330
:1025A0002C838C819D818130910529F12C813D8185
:1025B000223031052CF48C819D81009761F04BC055
:1025C0002C813D812230310531F18C819D81833018
:1025D000910589F140C0ABE3B0E0EBE3F0E080812E
:1025E000807F8C93ABE3B0E0EBE3F0E090818B81F4
:1025F000892B8C9335C0A8E3B0E0E8E3F0E080815C
:10260000807F8C93A8E3B0E0E8E3F0E090818B81D9
:10261000892B8C9325C0A5E3B0E0E5E3F0E0808151
:10262000807F8C93A5E3B0E0E5E3F0E090818B81BF
:10263000892B8C9315C0A2E3B0E0E2E3F0E0808147
:10264000807F8C93A2E3B0E0E2E3F0E090818B81A5
:10265000892B8C9305C081E0898302C081E0898346
:1026600089810F900F900F900F900F90CF91DF9175
:102670000895DF93CF9300D000D00F92CDB7DEB78F
:102680008A836B8319828A81843008F087C08A81AB
:10269000282F30E03D832C838C819D8181309105F2
:1026A00079F12C813D81223031052CF48C819D8182
:1026B000009769F070C02C813D8122303105C9F14D
:1026C0008C819D818330910509F44CC064C0ABE3DB
:1026D000B0E0EBE3F0E080818F708C93ABE3B0E08F
:1026E000EBE3F0E08081282F8B81882F90E08295AA
:1026F0009295907F9827807F9827822B8C9350C04B
:10270000A8E3B0E0E8E3F0E080818F708C93A8E369
:10271000B0E0E8E3F0E08081282F8B81882F90E003
:1027200082959295907F9827807F9827822B8C9313
:1027300037C0A5E3B0E0E5E3F0E080818F708C93D3
:10274000A5E3B0E0E5E3F0E08081282F8B81882FBE
:1027500090E082959295907F9827807F9827822B92
:102760008C931EC0A2E3B0E0E2E3F0E080818F70C2
:102770008C93A2E3B0E0E2E3F0E08081282F8B812C
:10278000882F90E082959295907F9827807F982758
:10279000822B8C9305C081E0898302C081E089830C
:1027A00089810F900F900F900F900F90CF91DF9134
:1027B0000895DF93CF93CDB7DEB7A5E5B0E0E5E5AB
:1027C000F0E080818C7F8C93A5E5B0E0E5E5F0E05A
:1027D000808183608C93ABE5B0E0EBE5F0E0808135
:1027E00080648C93CF91DF910895DF93CF9300D0D5
:1027F0000F92CDB7DEB79B838A8319828A819B8132
:10280000009739F08A819B819093BA018093B90136
:1028100002C082E0898389810F900F900F90CF9141
:10282000DF910895DF93CF9300D0CDB7DEB78A83D1
:1028300019828A81843080F4A5E5B0E0E5E5F0E016
:1028400080818C7F8C93A5E5B0E0E5E5F0E0908198
:102850008A81892B8C9302C081E0898389810F90C2
:102860000F90CF91DF910895DF93CF93CDB7DEB76F
:10287000A5E5B0E0E5E5F0E08081837F8C93A5E5F8
:10288000B0E0E5E5F0E0808188608C93ABE5B0E0F6
:10289000EBE5F0E0808180688C93CF91DF91089523
:1028A000DF93CF9300D00F92CDB7DEB79B838A839F
:1028B00019828A819B81009739F08A819B8190934C
:1028C000BC018093BB0102C082E0898389810F90A3
:1028D0000F900F90CF91DF910895DF93CF9300D0A9
:1028E000CDB7DEB78A8319828A818430B8F4A5E532
:1028F000B0E0E5E5F0E08081837F8C93A5E5B0E072
:10290000E5E5F0E08081282F8A81882F90E0880F0C
:10291000991F880F991F822B8C9302C081E08983B5
:1029200089810F900F90CF91DF910895DF93CF931E
:10293000CDB7DEB7A4E5B0E0E4E5F0E080818F7BC1
:102940008C93A4E5B0E0E4E5F0E080818C93ABE506
:10295000B0E0EBE5F0E0808180628C93CF91DF9175
:102960000895DF93CF9300D00F92CDB7DEB79B834E
:102970008A8319828A819B81009739F08A819B81A1
:102980009093BE018093BD0102C082E0898389815A
:102990000F900F900F90CF91DF910895DF93CF9319
:1029A00000D0CDB7DEB78A8319828A818230E0F405
:1029B000A4E5B0E0E4E5F0E080818F7B8C93A4E5B2
:1029C000B0E0E4E5F0E08081282F8A81882F90E054
:1029D0000024969587950794969587950794982F48
:1029E000802D822B8C9302C081E0898389810F9096
:1029F0000F90CF91DF910895DF93CF9300D000D057
:102A0000CDB7DEB78A8319828A81282F30E03C83D4
:102A10002B838B819C818130910589F02B813C81B6
:102A200022303105A1F08B819C810097C1F4ABE588
:102A3000B0E0EBE5F0E080818F7B8C9312C0ABE5DA
:102A4000B0E0EBE5F0E080818F778C930AC0ABE5D6
:102A5000B0E0EBE5F0E080818F7D8C9302C081E0F7
:102A6000898389810F900F900F900F90CF91DF9104
:102A70000895DF93CF9300D000D0CDB7DEB78A831F
:102A800019828A81282F30E03C832B838B819C81A3
:102A90008130910589F02B813C8122303105A1F0F4
:102AA0008B819C810097C1F4ABE5B0E0EBE5F0E0F1
:102AB000808180648C9312C0ABE5B0E0EBE5F0E080
:102AC000808180688C930AC0ABE5B0E0EBE5F0E074
:102AD000808180628C9302C081E0898389810F901C
:102AE0000F900F900F90CF91DF9108951F920F924A
:102AF0000FB60F9211242F933F934F935F936F93D1
:102B00007F938F939F93AF93BF93EF93FF93DF9345
:102B1000CF93CDB7DEB7E091B901F091BA01099535
:102B2000CF91DF91FF91EF91BF91AF919F918F91E5
:102B30007F916F915F914F913F912F910F900FBEB9
:102B40000F901F9018951F920F920FB60F9211249D
:102B50002F933F934F935F936F937F938F939F93A5
:102B6000AF93BF93EF93FF93DF93CF93CDB7DEB7D0
:102B7000E091BB01F091BC010995CF91DF91FF91EC
:102B8000EF91BF91AF919F918F917F916F915F91E5
:102B90004F913F912F910F900FBE0F901F9018955E
:102BA0001F920F920FB60F9211242F933F934F93C2
:102BB0005F936F937F938F939F93AF93BF93EF93A5
:102BC000FF93DF93CF93CDB7DEB7E091BD01F091D6
:102BD000BE010995CF91DF91FF91EF91BF91AF9128
:102BE0009F918F917F916F915F914F913F912F9125
:102BF0000F900FBE0F901F901895DF93CF93CDB716
:102C0000DEB7AFE5B0E0EFE5F0E0808180688C935F
:102C1000CF91DF910895DF93CF93CDB7DEB7AFE5C6
:102C2000B0E0EFE5F0E080818F778C93CF91DF917A
:102C30000895DF93CF9300D000D00F92CDB7DEB7C9
:102C40008FEF89831A825EC08A81882F90E0FC0111
:102C5000E657FE4F908182E0692F40E00E943110DC
:102C60001B823DC08B81882F90E0FC01E257FE4F14
:102C700090819E012C5F3F4F82E0692FA9010E9445
:102C800098118C81882341F58B81482F50E08A81EF
:102C9000282F30E0CA01880F991F880F991F820FD3
:102CA000931FFC01E658FE4F808189830FC08B8102
:102CB000882F90E0FC01E257FE4F90819E012C5F2F
:102CC0003F4F82E0692FA9010E9498118C818823CF
:102CD00071F389818D831CC08B818F5F8B838B8186
:102CE000843008F4BFCF8A81882F90E0FC01E6573A
:102CF000FE4F908182E0692F41E00E9431108A816D
:102D00008F5F8A838A81843008F49ECF89818D8386
:102D10008D810F900F900F900F900F90CF91DF91BA
:102D20000895DF93CF9300D00F92CDB7DEB79B838A
:102D30008A831982EA81FB818281813059F4EA8198
:102D4000FB818081EA81FB819181692F41E00E94B2
:102D5000311012C0EA81FB818281882359F4EA8113
:102D6000FB818081EA81FB819181692F40E00E9493
:102D7000311002C081E0898389810F900F900F90FC
:102D8000CF91DF910895DF93CF9300D00F92CDB70D
:102D9000DEB79B838A831982EA81FB81828181303D
:102DA00059F4EA81FB818081EA81FB819181692F5D
:102DB00040E00E94311012C0EA81FB8182818823A9
:102DC00059F4EA81FB818081EA81FB819181692F3D
:102DD00041E00E94311002C081E0898389810F9017
:102DE0000F900F90CF91DF910895DF93CF9300D094
:102DF0000F92CDB7DEB79B838A831982EA81FB816C
:102E00008281813099F49091BF0181E0892780937C
:102E1000BF01EA81FB818081EA81FB819181209160
:102E2000BF01692F422F0E9431101AC0EA81FB8135
:102E30008281882399F49091BF0181E08927809352
:102E4000BF01EA81FB818081EA81FB819181209130
:102E5000BF01692F422F0E94311002C081E0898397
:102E600089810F900F900F90CF91DF910895DF939C
:102E7000CF93CDB7DEB7EAE3F0E087E88083E7E3FE
:102E8000F0E088EF8083E4E3F0E080EF8083E1E32B
:102E9000F0E01082EBE3F0E01082E8E3F0E0108273
:102EA000E5E3F0E08FEF8083E2E3F0E01082CF9182
:102EB000DF910895DF93CF9300D000D000D0CDB73D
:102EC000DEB786E0FE013196DF01982F1D929A95BC
:102ED000E9F781E089838EE08A8388E08B8382E052
:102EE0008C8380E29EE40E946925CE0101960E94B7
:102EF000EF2226960FB6F894DEBF0FBECDBFCF915E
:102F0000DF910895AF92BF92CF92DF92EF92FF923E
:102F10000F931F93DF93CF9300D000D000D0CDB795
:102F2000DEB79E838D8319821A821B821C828D815B
:102F30009E81CC01A0E0B0E000D000D0EDB7FEB79C
:102F4000319680839183A283B38360E070E080E058
:102F500090E024EB30E040E050E00F2EFEEEEF2E4C
:102F6000F2E0FF2EF0E00F2FF0E01F2FF02D0F2EDC
:102F7000F3ECAF2EF9E0BF2EF0E0CF2EF0E0DF2E25
:102F8000F02D0E94E2170F900F900F900F90DC0130
:102F9000CB0189839A83AB83BC8389819A810E9408
:102FA000982526960FB6F894DEBF0FBECDBFCF9101
:102FB000DF911F910F91FF90EF90DF90CF90BF9026
:102FC000AF900895AF92BF92CF92DF92EF92FF92AF
:102FD0000F931F93DF93CF93CDB7DEB764970FB6F0
:102FE000F894DEBF0FBECDBF6D837E838F8398873D
:102FF00029873A874B875C87ED86FE860F87188B7B
:10300000A98ABA8ACB8ADC8A19821A821B821C821C
:1030100029A13AA14BA15CA18D819E81AF81B88588
:1030200079018A01E81AF90A0A0B1B0B29893A89E6
:103030004B895C898D859E85AF85B889281B390BA6
:103040004A0B5B0BC801B7010E94132E7B018C0158
:1030500029853A854B855C858D819E81AF81B885B8
:10306000281B390B4A0B5B0BC801B7010E94462E87
:10307000DA01C9019C01AD018D859E85AF85B889B6
:10308000820F931FA41FB51F89839A83AB83BC83D0
:1030900089819A81AB81BC81BC01CD0164960FB658
:1030A000F894DEBF0FBECDBFCF91DF911F910F917E
:1030B000FF90EF90DF90CF90BF90AF900895DF9397
:1030C000CF9300D000D0CDB7DEB78A837C836B83EB
:1030D0001982EB81FC818081882391F4EB81FC8152
:1030E00021818A81882F90E0FC01EE56FE4F80817D
:1030F000982F9095822F692F0E944A11898317C0BB
:10310000EB81FC818081813081F4EB81FC81218124
:103110008A81882F90E0FC01EE56FE4F9081822F2D
:10312000692F0E944A11898302C081E089838981C5
:103130000F900F900F900F90CF91DF910895DF9334
:10314000CF9300D00F92CDB7DEB79B838A831982CD
:10315000EA81FB818081882361F4EA81FB8182819D
:10316000EA81FB819381692F41E00E9431108983BC
:1031700013C0EA81FB818081813061F4EA81FB81A7
:103180008281EA81FB819381692F40E00E943110A6
:10319000898302C081E0898389810F900F900F900D
:1031A000CF91DF910895DF93CF9300D00F92CDB7E9
:1031B000DEB79B838A831982EA81FB818081882321
:1031C00061F4EA81FB818281EA81FB819381692F2D
:1031D00040E00E943110898313C0EA81FB81808125
:1031E000813061F4EA81FB818281EA81FB819381F4
:1031F000692F41E00E943110898302C081E08983F8
:1032000089810F900F900F90CF91DF910895DF93F8
:10321000CF93CDB7DEB7C254D0400FB6F894DEBF1F
:103220000FBECDBFFE01EF5BFF4F91838083FE0198
:10323000E05CFF4F1082FE01EF5BFF4F0190F081D9
:10324000E02D83819481CC01A0E0B0E0BC01CD01F0
:103250000E94A904DC01CB01BC01CD0123E333E3CF
:1032600043E351E40E941903DC01CB01BC01CD0111
:1032700020E030E040E852E40E941F02DC01CB0174
:10328000BC01CD010E944900DC01CB019FAF8EAF94
:103290008EAD9FAD96958795969587959DAF8CAF92
:1032A0001BAE1AAE19AEFE01EF5BFF4F0190F0812D
:1032B000E02D8181882309F05EC1FE01EF5BFF4FA5
:1032C0000190F081E02D8281882309F0A2C01BAE1D
:1032D0001AAE96C019AE8BC0FE01EF5BFF4F019096
:1032E000F081E02D408189AD282F30E081E090E031
:1032F00002C0880F991F2A95E2F7982F842F692F13
:103300000E94BE1280E090E0A0E0B0E48DAB9EABE6
:10331000AFABB8AF6DA97EA98FA998AD20E030E022
:103320004AEF54E40E941F02DC01CB0189AB9AAB47
:10333000ABABBCAB69A97AA98BA99CA920E030E012
:1033400040E85FE30E94250488232CF481E090E0AC
:1033500098AB8FA73FC069A97AA98BA99CA920E047
:103360003FEF4FE757E40E94C50318164CF56DA9CF
:103370007EA98FA998AD20E030E040E251E40E94A0
:103380001F02DC01CB01BC01CD010E944900DC0120
:10339000CB0198AB8FA70FC088EC90E09EA78DA7BC
:1033A0008DA59EA50197F1F79EA78DA78FA598A93A
:1033B000019798AB8FA78FA598A9009769F714C0BC
:1033C00069A97AA98BA99CA90E944900DC01CB01BB
:1033D00098AB8FA78FA598A99CA78BA78BA59CA519
:1033E0000197F1F79CA78BA789AD8F5F89AF89AD56
:1033F000843008F471CF8AAD9BAD01969BAF8AAF44
:103400002AAD3BAD8CAD9DAD2817390708F462CFCE
:103410001FC2FE01EF5BFF4F0190F081E02D828122
:10342000813009F0A2C01BAE1AAE96C019AE8BC097
:10343000FE01EF5BFF4F0190F081E02D408189ADEF
:10344000282F30E088E090E002C0959587952A9576
:10345000E2F7982F842F692F0E94BE1280E090E03F
:10346000A0E0B0E48FA398A7A9A7BAA76FA178A5F9
:1034700089A59AA520E030E04AEF54E40E941F029B
:10348000DC01CB018BA39CA3ADA3BEA36BA17CA14C
:103490008DA19EA120E030E040E85FE30E9425047A
:1034A00088232CF481E090E09AA389A33FC06BA10C
:1034B0007CA18DA19EA120E03FEF4FE757E40E9441
:1034C000C50318164CF56FA178A589A59AA520E02B
:1034D00030E040E251E40E941F02DC01CB01BC015C
:1034E000CD010E944900DC01CB019AA389A30FC042
:1034F00088EC90E098A38F8F8F8D98A10197F1F7BA
:1035000098A38F8F89A19AA101979AA389A389A1D2
:103510009AA1009769F714C06BA17CA18DA19EA10F
:103520000E944900DC01CB019AA389A389A19AA139
:103530009E8F8D8F8D8D9E8D0197F1F79E8F8D8F34
:1035400089AD8F5F89AF89AD843008F471CF8AADC2
:103550009BAD01969BAF8AAF2AAD3BAD8CAD9DADC7
:103560002817390708F462CF73C181E0FE01E05CDF
:10357000FF4F80836DC1FE01EF5BFF4F0190F08133
:10358000E02D8181813009F05EC1FE01EF5BFF4FCC
:103590000190F081E02D8281882309F0A2C01BAE4A
:1035A0001AAE96C019AE8BC0FE01EF5BFF4F0190C3
:1035B000F081E02D408189AD282F30E081E090E05E
:1035C00002C0880F991F2A95E2F7982F842F692F40
:1035D0000E94391380E090E0A0E0B0E4898F9A8FD8
:1035E000AB8FBC8F698D7A8D8B8D9C8D20E030E008
:1035F0004AEF54E40E941F02DC01CB018D8B9E8BAD
:10360000AF8BB88F6D897E898F89988D20E030E0EF
:1036100040E85FE30E94250488232CF481E090E0D9
:103620009C8B8B8B3FC06D897E898F89988D20E024
:103630003FEF4FE757E40E94C50318164CF5698D1C
:103640007A8D8B8D9C8D20E030E040E251E40E9429
:103650001F02DC01CB01BC01CD010E944900DC014D
:10366000CB019C8B8B8B0FC088EC90E09A8B898B65
:1036700089899A890197F1F79A8B898B8B899C8923
:1036800001979C8B8B8B8B899C89009769F714C061
:103690006D897E898F89988D0E944900DC01CB015C
:1036A0009C8B8B8B8B899C89988B8F878F85988936
:1036B0000197F1F7988B8F8789AD8F5F89AF89ADBF
:1036C000843008F471CF8AAD9BAD01969BAF8AAF71
:1036D0002AAD3BAD8CAD9DAD2817390708F462CFFC
:1036E000B7C0FE01EF5BFF4F0190F081E02D8281BA
:1036F000813009F0A2C01BAE1AAE96C019AE8BC0C5
:10370000FE01EF5BFF4F0190F081E02D408189AD1C
:10371000282F30E088E090E002C0959587952A95A3
:10372000E2F7982F842F692F0E94391380E090E0F0
:10373000A0E0B0E48B879C87AD87BE876B857C85D6
:103740008D859E8520E030E04AEF54E40E941F0200
:10375000DC01CB018F839887A987BA876F81788531
:1037600089859A8520E030E040E85FE30E942504E7
:1037700088232CF481E090E09E838D833FC06F818D
:10378000788589859A8520E03FEF4FE757E40E94CE
:10379000C50318164CF56B857C858D859E8520E0CC
:1037A00030E040E251E40E941F02DC01CB01BC0189
:1037B000CD010E944900DC01CB019E838D830FC0A7
:1037C00088EC90E09C838B838B819C810197F1F73F
:1037D0009C838B838D819E8101979E838D838D81B8
:1037E0009E81009769F714C06F81788589859A85D5
:1037F0000E944900DC01CB019E838D838D819E81D7
:103800009A83898389819A810197F1F79A838983C1
:1038100089AD8F5F89AF89AD843008F471CF8AADEF
:103820009BAD01969BAF8AAF2AAD3BAD8CAD9DADF4
:103830002817390708F462CF0BC081E0FE01E05C75
:10384000FF4F808305C081E0FE01E05CFF4F808375
:10385000FE01E05CFF4F8081CE5BDF4F0FB6F89436
:10386000DEBF0FBECDBFCF91DF910895DF93CF9321
:10387000CDB7DEB7C454D0400FB6F894DEBF0FBE4C
:10388000CDBFFE01ED5BFF4F91838083FE01EE5BB8
:10389000FF4F1082FE01E05CFF4F11821082FE019B
:1038A000ED5BFF4F0190F081E02D83819481CC018D
:1038B000A0E0B0E0BC01CD010E94A904DC01CB0175
:1038C000BC01CD0120E030E044EB50E40E9419033C
:1038D000DC01CB01BC01CD0120E030E040E852E446
:1038E0000E941F02DC01CB01BC01CD010E944900F6
:1038F000DC01CB019FAF8EAF8EAD9FAD96958795C6
:1039000096958795969587959DAF8CAF1BAEFE01DA
:10391000ED5BFF4F0190F081E02D8181882309F05C
:1039200096C1FE01ED5BFF4F0190F081E02D828199
:10393000882309F0C1C0FE01E05CFF4F11821082B4
:10394000AFC081E08AAF83E089AF81E08BAF98C0E0
:103950008BAD882F90E081709070882371F0FE010C
:10396000ED5BFF4F0190F081E02D80816AAD0E94F8
:10397000BE128AAD880F8AAF0EC0FE01ED5BFF4F0D
:103980000190F081E02D808169AD0E94BE1289AD69
:103990000E942C2089AF80E090E0A0E0B0E48DABE5
:1039A0009EABAFABB8AF6DA97EA98FA998AD20E053
:1039B00030E04AEF54E40E941F02DC01CB0189ABE6
:1039C0009AABABABBCAB69A97AA98BA99CA920E047
:1039D00030E040E85FE30E94250488232CF481E076
:1039E00090E098AB8FA73FC069A97AA98BA99CA941
:1039F00020E03FEF4FE757E40E94C50318164CF54F
:103A00006DA97EA98FA998AD20E030E040E251E495
:103A10000E941F02DC01CB01BC01CD010E944900C4
:103A2000DC01CB0198AB8FA70FC088EC90E09EA77C
:103A30008DA78DA59EA50197F1F79EA78DA78FA5B0
:103A400098A9019798AB8FA78FA598A9009769F7B8
:103A500014C069A97AA98BA99CA90E944900DC011C
:103A6000CB0198AB8FA78FA598A99CA78BA78BA5F7
:103A70009CA50197F1F79CA78BA78BAD8F5F8BAFB0
:103A80008BAD893008F464CFDE01A05CBF4FFE012E
:103A9000E05CFF4F80819181019611969C938E93FB
:103AA000FE01E05CFF4F208131818CAD9DAD281778
:103AB000390708F446CF82C2FE01ED5BFF4F01904B
:103AC000F081E02D8281813009F078C2FE01E05C56
:103AD000FF4F11821082AFC088E08AAF8CE089AFBF
:103AE00081E08BAF98C08BAD882F90E08170907093
:103AF000882371F0FE01ED5BFF4F0190F081E02D16
:103B000080816AAD0E94BE128AAD86958AAF0EC0D2
:103B1000FE01ED5BFF4F0190F081E02D808169ADEA
:103B20000E94BE1289AD0E940F2089AF80E090E014
:103B3000A0E0B0E48FA398A7A9A7BAA76FA178A522
:103B400089A59AA520E030E04AEF54E40E941F02C4
:103B5000DC01CB018BA39CA3ADA3BEA36BA17CA175
:103B60008DA19EA120E030E040E85FE30E942504A3
:103B700088232CF481E090E09AA389A33FC06BA135
:103B80007CA18DA19EA120E03FEF4FE757E40E946A
:103B9000C50318164CF56FA178A589A59AA520E054
:103BA00030E040E251E40E941F02DC01CB01BC0185
:103BB000CD010E944900DC01CB019AA389A30FC06B
:103BC00088EC90E098A38F8F8F8D98A10197F1F7E3
:103BD00098A38F8F89A19AA101979AA389A389A1FC
:103BE0009AA1009769F714C06BA17CA18DA19EA139
:103BF0000E944900DC01CB019AA389A389A19AA163
:103C00009E8F8D8F8D8D9E8D0197F1F79E8F8D8F5D
:103C10008BAD8F5F8BAF8BAD893008F464CFDE0145
:103C2000A05CBF4FFE01E05CFF4F80819181019657
:103C300011969C938E93FE01E05CFF4F20813181B1
:103C40008CAD9DAD2817390708F446CFB7C1FE01EA
:103C5000ED5BFF4F0190F081E02D8181813009F013
:103C6000A8C1FE01ED5BFF4F0190F081E02D828144
:103C7000882309F0CDC0FE01E05CFF4F1182108265
:103C8000BBC081E08AAF83E089AF81E08BAFA4C085
:103C90008BAD882F90E081709070882371F0FE01C9
:103CA000ED5BFF4F0190F081E02D80816AAD0E94B5
:103CB00039138AAD880F8AAF1AC0FE01ED5BFF4F42
:103CC0000190F081E02D808169AD0E94391389ADAA
:103CD000882F90E0A0E0B0E0BC01CD010E94630F0E
:103CE00080E20E94410B89AD0E942C2089AF80E0C8
:103CF00090E0A0E0B0E4898F9A8FAB8FBC8F698D84
:103D00007A8D8B8D9C8D20E030E04AEF54E40E9448
:103D10001F02DC01CB018D8B9E8BAF8BB88F6D8921
:103D20007E898F89988D20E030E040E85FE30E9433
:103D3000250488232CF481E090E09C8B8B8B3FC082
:103D40006D897E898F89988D20E03FEF4FE757E49A
:103D50000E94C50318164CF5698D7A8D8B8D9C8D4C
:103D600020E030E040E251E40E941F02DC01CB0180
:103D7000BC01CD010E944900DC01CB019C8B8B8BE7
:103D80000FC088EC90E09A8B898B89899A8901977A
:103D9000F1F79A8B898B8B899C8901979C8B8B8BF4
:103DA0008B899C89009769F714C06D897E898F89FA
:103DB000988D0E944900DC01CB019C8B8B8B8B89F9
:103DC0009C89988B8F878F8598890197F1F7988BBD
:103DD0008F878BAD8F5F8BAF8BAD893008F458CF59
:103DE000DE01A05CBF4FFE01E05CFF4F808191814E
:103DF000019611969C938E93FE01E05CFF4F20810B
:103E000031818CAD9DAD2817390708F43ACFD6C063
:103E1000FE01ED5BFF4F0190F081E02D828181304A
:103E200009F0C1C0FE01E05CFF4F11821082AFC0FB
:103E300088E08AAF8CE089AF81E08BAF98C08BAD12
:103E4000882F90E081709070882371F0FE01ED5B07
:103E5000FF4F0190F081E02D80816AAD0E943913FF
:103E60008AAD86958AAF0EC0FE01ED5BFF4F0190D3
:103E7000F081E02D808169AD0E94391389AD0E94E7
:103E80000F2089AF80E090E0A0E0B0E48B879C87B2
:103E9000AD87BE876B857C858D859E8520E030E073
:103EA0004AEF54E40E941F02DC01CB018F83988704
:103EB000A987BA876F81788589859A8520E030E067
:103EC00040E85FE30E94250488232CF481E090E021
:103ED0009E838D833FC06F81788589859A8520E098
:103EE0003FEF4FE757E40E94C50318164CF56B856A
:103EF0007C858D859E8520E030E040E251E40E9483
:103F00001F02DC01CB01BC01CD010E944900DC0194
:103F1000CB019E838D830FC088EC90E09C838B83C4
:103F20008B819C810197F1F79C838B838D819E818E
:103F300001979E838D838D819E81009769F714C0C0
:103F40006F81788589859A850E944900DC01CB01C3
:103F50009E838D838D819E819A83898389819A81B5
:103F60000197F1F79A8389838BAD8F5F8BAF8BAD10
:103F7000893008F464CFDE01A05CBF4FFE01E05C35
:103F8000FF4F80819181019611969C938E93FE0143
:103F9000E05CFF4F208131818CAD9DAD2817390742
:103FA00008F446CF0BC0FE01EE5BFF4F81E080833B
:103FB00005C0FE01EE5BFF4F81E08083FE01EE5BFA
:103FC000FF4F8081CC5BDF4F0FB6F894DEBF0FBE92
:103FD000CDBFCF91DF910895DF93CF9300D0CDB7C0
:103FE000DEB79A838983E981FA818181882339F454
:103FF000E981FA81808160E00E94BE120BC0E981F4
:10400000FA818181813031F4E981FA81808160E037
:104010000E9439130F900F90CF91DF910895DF9395
:10402000CF9300D0CDB7DEB78A8319828A818170A1
:1040300089838A8186958A838981882321F08A8170
:1040400088608A8303C08A81877F8A838A810F90F0
:104050000F90CF91DF910895DF93CF9300D0CDB72C
:10406000DEB78A8319828A818695869586958170C6
:1040700089838A81880F8A838981882321F08A81B4
:1040800081608A8303C08A818E7F8A838A810F90B0
:104090000F90CF91DF910895DF93CF93CDB7DEB727
:1040A000A1970FB6F894DEBF0FBECDBF9F8F8E8F46
:1040B00079A368A31D8EE8A1F9A181E08083EE8D2C
:1040C000FF8D8281882309F0C3C0EE8DFF8D83812F
:1040D000813009F09CC0EE8DFF8D8081EE8DFF8DCB
:1040E000918120EC31E0692FA9010E949811809103
:1040F000C001882309F06DC180E090E0A6E1B3E43F
:10410000898F9A8FAB8FBC8F698D7A8D8B8D9C8DAB
:1041100020E030E04AEF54E40E941F02DC01CB01B2
:104120008D8B9E8BAF8BB88F6D897E898F89988D93
:1041300020E030E040E85FE30E94250488232CF46F
:1041400081E090E09C8B8B8B3FC06D897E898F894D
:10415000988D20E03FEF4FE757E40E94C503181603
:104160004CF5698D7A8D8B8D9C8D20E030E040E29E
:1041700051E40E941F02DC01CB01BC01CD010E9471
:104180004900DC01CB019C8B8B8B0FC088EC90E04D
:104190009A8B898B89899A890197F1F79A8B898BF8
:1041A0008B899C8901979C8B8B8B8B899C89009731
:1041B00069F714C06D897E898F89988D0E944900A6
:1041C000DC01CB019C8B8B8B8B899C89988B8F8797
:1041D0008F8598890197F1F7988B8F87EE8DFF8DEA
:1041E0008081EE8DFF8D918120EC31E0692FA90156
:1041F0000E9498118091C001882321F4E8A1F9A1BF
:104200001082E7C0E8A1F9A181E08083E2C0EE8DD1
:10421000FF8D83818823C9F4EE8DFF8D8081EE8D23
:10422000FF8D918128A139A1692FA9010E949811C0
:104230008091C001882321F4E8A1F9A11082C9C0AE
:10424000E8A1F9A181E08083C4C081E08D8FC1C065
:10425000EE8DFF8D8281813009F0B9C0EE8DFF8D2A
:104260008381813009F097C0EE8DFF8D8081EE8DC6
:10427000FF8D918120EC31E0692FA9010E949811F6
:104280008091C001813009F0A4C080E090E0A6E1F7
:10429000B3E48B879C87AD87BE876B857C858D85D6
:1042A0009E8520E030E04AEF54E40E941F02DC01CA
:1042B000CB018F839887A987BA876F817885898595
:1042C0009A8520E030E040E85FE30E9425048823DF
:1042D0002CF481E090E09E838D833FC06F817885D0
:1042E00089859A8520E03FEF4FE757E40E94C50398
:1042F00018164CF56B857C858D859E8520E030E019
:1043000040E251E40E941F02DC01CB01BC01CD015F
:104310000E944900DC01CB019E838D830FC088EC95
:1043200090E09C838B838B819C810197F1F79C8328
:104330008B838D819E8101979E838D838D819E814C
:10434000009769F714C06F81788589859A850E94E6
:104350004900DC01CB019E838D838D819E819A83F0
:10436000898389819A810197F1F79A838983EE8DF8
:10437000FF8D8081EE8DFF8D918120EC31E0692FE2
:10438000A9010E9498118091C001813011F5E8A126
:10439000F9A110821EC0EE8DFF8D83818823A1F4C8
:1043A000EE8DFF8D8081EE8DFF8D918128A139A149
:1043B000692FA9010E9498118091C001813049F4B0
:1043C000E8A1F9A1108205C081E08D8F02C081E0D3
:1043D0008D8F8D8DA1960FB6F894DEBF0FBECDBF29
:1043E000CF91DF910895DF93CF9300D000D00F924B
:1043F000CDB7DEB79B838A837D836C831982EC8182
:10440000FD8181E08083EA81FB818281882309F03C
:1044100076C01092C201EA81FB818381813009F06C
:104420004DC0EA81FB818081EA81FB81918121EC91
:1044300031E0692FA9010E9498118091C101882360
:1044400009F0C4C0EA81FB818081EA81FB8191810E
:1044500021EC31E0692FA9010E9498118091C101DE
:10446000882309F0B3C08091C4018F5F8093C40199
:104470008091C401853198F08091C201882361F454
:10448000EC81FD811082EA81FB810480F581E02DC1
:10449000099581E08093C2011092C40197C0809178
:1044A000C3018F5F8093C3018091C301853108F4FC
:1044B0008DC01092C2011092C30188C0EA81FB81B5
:1044C00083818823C9F4EA81FB818081EA81FB81B1
:1044D00091812C813D81692FA9010E9498118091C1
:1044E000C101882321F4EC81FD8110826FC0EC8131
:1044F000FD8181E080836AC081E0898367C0EA81B1
:10450000FB818281813009F05FC081E08093C2012C
:10451000EA81FB8183818130D9F5EA81FB81808149
:10452000EA81FB81918121EC31E0692FA9010E9490
:1045300098118091C101813009F048C08091C40177
:104540008F5F8093C4018091C401853190F0809188
:10455000C201813059F4EC81FD811082EA81FB8136
:104560000480F581E02D09951092C2011092C401DA
:104570002DC08091C3018F5F8093C3018091C301DF
:10458000853120F181E08093C2011092C3011EC0E9
:10459000EA81FB8183818823A1F4EA81FB81808108
:1045A000EA81FB8191812C813D81692FA9010E94C3
:1045B00098118091C101813049F4EC81FD81108214
:1045C00005C081E0898302C081E0898389810F90E1
:1045D0000F900F900F900F90CF91DF910895DF9380
:1045E000CF93CDB7DEB762970FB6F894DEBF0FBE9C
:1045F000CDBF9A838983E981FA818081282F30E0B9
:104600003A8B298B89899A898130910509F4C1C037
:1046100029893A892230310509F43FC189899A896B
:10462000009709F0EFC1E981FA818181282F30E0FC
:10463000388B2F878F8598898130910509F44AC07E
:104640002F853889223031052CF48F859889009781
:1046500069F073C02F8538892230310509F45FC0B5
:104660008F8598898330910531F167C0A3E5B0E06B
:10467000E3E5F0E08081877F8C93A3E5B0E0E3E59C
:10468000F0E080818F7B8C93E981FA81848188239B
:1046900049F0A9E5B0E0E9E5F0E0808181608C9324
:1046A0009C914BC0A9E5B0E0E9E5F0E080818E7F08
:1046B0008C932C9142C0A3E5B0E0E3E5F0E080816B
:1046C000877F8C93A3E5B0E0E3E5F0E08081806430
:1046D0008C9333C0A3E5B0E0E3E5F0E0808188602F
:1046E0008C93A3E5B0E0E3E5F0E080818F7B8C93D1
:1046F000E981FA818481882349F0A9E5B0E0E9E500
:10470000F0E0808182608C933C9117C0A9E5B0E015
:10471000E9E5F0E080818D7F8C938C910EC0A3E55C
:10472000B0E0E3E5F0E0808188608C93A3E5B0E041
:10473000E3E5F0E0808180648C93A3E5B0E0E3E5FD
:10474000F0E080818F7C8C93A3E5B0E0E3E5F0E0BE
:104750008081282FE981FA818281882F90E08295DB
:104760009295907F9827807F9827822B8C93A3E542
:10477000B0E0E3E5F0E08081887F8C93A3E5B0E0D2
:10478000E3E5F0E09081E981FA818381892B8C93C4
:1047900039C1AFE4B0E0EFE4F0E080818C7F8C932E
:1047A000AFE4B0E0EFE4F0E08081982FE981FA8196
:1047B00081818370892B8C93AEE4B0E0EEE4F0E06D
:1047C0008081877E8C93AEE4B0E0EEE4F0E08081FF
:1047D000282FE981FA818181882F90E08C70880FE1
:1047E000991F822B8C93AFE4B0E0EFE4F0E080817E
:1047F0008F708C93AFE4B0E0EFE4F0E08081282F7D
:10480000E981FA818281882F90E082959295907F4C
:104810009827807F9827822B8C93AEE4B0E0EEE45B
:10482000F0E08081887F8C93AEE4B0E0EEE4F0E0CD
:104830009081E981FA818381892B8C93E981FA81C6
:104840008581882349F0AEE4B0E0EEE4F0E08081B9
:1048500080648C939C9108C0AEE4B0E0EEE4F0E09C
:1048600080818F7B8C932C91A9E5B0E0E9E5F0E0A5
:104870008081837C8C93A9E5B0E0E9E5F0E080815C
:10488000282FE981FA818481882F90E0880F991F71
:10489000880F991F822B8C93B5C0E981FA818181A1
:1048A000282F30E038872F838F81988581309105BC
:1048B00009F44AC02F813885223031052CF48F81CC
:1048C0009885009769F073C02F81388522303105B3
:1048D00009F45FC08F8198858330910531F167C0FD
:1048E000A5E4B0E0E5E4F0E08081877F8C93A5E467
:1048F000B0E0E5E4F0E080818F7B8C93E981FA8180
:104900008481882349F0A9E5B0E0E9E5F0E0808101
:1049100080648C939C914BC0A9E5B0E0E9E5F0E0A0
:1049200080818F7B8C932C9142C0A5E4B0E0E5E4BC
:10493000F0E08081877F8C93A5E4B0E0E5E4F0E0CF
:10494000808180648C9333C0A5E4B0E0E5E4F0E0BE
:10495000808188608C93A5E4B0E0E5E4F0E080819C
:104960008F7B8C93E981FA818481882349F0A9E5C2
:10497000B0E0E9E5F0E0808180688C933C9117C05D
:10498000A9E5B0E0E9E5F0E080818F778C938C9128
:104990000EC0A5E4B0E0E5E4F0E0808188608C938F
:1049A000A5E4B0E0E5E4F0E0808180648C93A5E4C8
:1049B000B0E0E5E4F0E080818F7C8C93A5E4B0E08A
:1049C000E5E4F0E08081282FE981FA818281882F57
:1049D00090E082959295907F9827807F9827822BF0
:1049E0008C93A5E4B0E0E5E4F0E08081887F8C93CF
:1049F000A5E4B0E0E5E4F0E09081E981FA8183810B
:104A0000892B8C9362960FB6F894DEBF0FBECDBF94
:104A1000CF91DF910895DF93CF930F92CDB7DEB79B
:104A20008983E2E5F0E0898180830F90CF91DF9167
:104A30000895DF93CF930F92CDB7DEB78983ECE56E
:104A4000F0E0898180830F90CF91DF910895DF930B
:104A5000CF93CDB7DEB727970FB6F894DEBF0FBE62
:104A6000CDBF9B838A837D836C8319828A819B81DE
:104A7000009721F48C819D810097F9F0EA81FB81F8
:104A80008181282F30E03F832E838E819F81009784
:104A900031F02E813F812130310541F010C08C81F1
:104AA0009D819093C6018093C50109C08C819D8131
:104AB0009093C8018093C70102C082E089838981F5
:104AC00027960FB6F894DEBF0FBECDBFCF91DF9112
:104AD0000895DF93CF9300D0CDB7DEB79A83898353
:104AE000E6E4F0E089819A81918380830F900F90B2
:104AF000CF91DF910895DF93CF9300D0CDB7DEB78C
:104B00009A838983ECE4F0E089819A8191838083A0
:104B10000F900F90CF91DF910895DF93CF93CDB792
:104B2000DEB7ECE4F0E080819181CF91DF910895D0
:104B3000DF93CF9300D0CDB7DEB79A838983EAE4C1
:104B4000F0E089819A81918380830F900F90CF91BB
:104B5000DF910895DF93CF9300D0CDB7DEB79A836E
:104B60008983E8E4F0E089819A81918380830F90C2
:104B70000F90CF91DF910895DF93CF93CDB7DEB73C
:104B800029970FB6F894DEBF0FBECDBF9B838A83F3
:104B90007D836C8319828A819B81009729F48C81A3
:104BA0009D81009709F45DC0EA81FB818181282FF6
:104BB00030E0398728878885998584309105A1F070
:104BC000288539852C30310509F444C088859985BC
:104BD000009709F048C08C819D819093CA01809311
:104BE000C90110929C013FC0EA81FB818281282F7C
:104BF00030E03F832E838E819F8184309105A1F028
:104C00002E813F81253031052CF48E819F810097C4
:104C100059F010C02E813F812830310529F08E8156
:104C20009F818C30910531F48C819D819093CC01D2
:104C30008093CB01EA81FB818281882F90E00096EE
:104C40008430910580F48C819D819093CE01809376
:104C5000CD0109C08C819D819093D0018093CF01BB
:104C600002C082E08983898129960FB6F894DEBF5D
:104C70000FBECDBFCF91DF910895DF93CF93CDB716
:104C8000DEB7A9E5B0E0E9E5F0E080818B7F8C93A9
:104C9000CF91DF910895DF93CF93CDB7DEB7A9E52C
:104CA000B0E0E9E5F0E0808180628C93AEE4B0E0B2
:104CB000EEE4F0E0808180648C93CF91DF910895E1
:104CC000DF93CF93CDB7DEB7E6E4F0E0808191814A
:104CD000CF91DF910895DF93CF9300D000D0CDB76F
:104CE000DEB78A8319828A81282F30E03C832B83A8
:104CF0008B819C81009731F02B813C8121303105E3
:104D000049F010C0AEE4B0E0EEE4F0E080818F7BCB
:104D10008C930AC0AEE4B0E0EEE4F0E08081806401
:104D20008C9302C081E0898389810F900F900F904E
:104D30000F90CF91DF910895DF93CF93CDB7DEB77A
:104D4000A9E5B0E0E9E5F0E0808180628C93CF9145
:104D5000DF910895DF93CF93CDB7DEB7A9E5B0E03B
:104D6000E9E5F0E080818F7D8C93CF91DF9108950C
:104D7000DF93CF9300D00F92CDB7DEB79B838A83AA
:104D800019828A819B81009739F08A819B81909357
:104D9000D0018093CF0102C082E0898389810F9086
:104DA0000F900F90CF91DF910895DF93CF930F92E3
:104DB000CDB7DEB78983E4E4F0E0898180830F908A
:104DC000CF91DF910895DF93CF930F92CDB7DEB7E8
:104DD0008983E3E4F0E0898180830F90CF91DF91B4
:104DE0000895DF93CF93CDB7DEB727970FB6F8942A
:104DF000DEBF0FBECDBF9B838A837D836C83198208
:104E00008A819B81009721F48C819D810097F9F024
:104E1000EA81FB818181282F30E03F832E838E81C0
:104E20009F81009731F02E813F812130310541F083
:104E300010C08C819D819093D2018093D10109C0D3
:104E40008C819D819093D4018093D30102C082E034
:104E50008983898127960FB6F894DEBF0FBECDBF38
:104E6000CF91DF910895DF93CF93CDB7DEB76B97E6
:104E70000FB6F894DEBF0FBECDBF9B8B8A8B7D8BA8
:104E80006C8B4E8B1B861F82188619861A861E8293
:104E90001D8219821A821B821C82CE010C96988F69
:104EA0008F8BEEE9F1E0FA8FE98FF6E0FB8FE98D69
:104EB000FA8D0080898D9A8D01969A8F898FEF895E
:104EC000F88D00828F89988D0196988F8F8B9B8D9E
:104ED00091509B8FEB8DEE2351F78C899D89009724
:104EE00009F4A7C081E080939C018A899B89CC0149
:104EF000A0E0B0E028EE33E040E050E0BC01CD019E
:104F00000E94132EDC01CB0189839A83AB83BC837F
:104F100089819A81AB81BC818030F0E09F07F1E00C
:104F2000AF07F0E0BF07C0F489819A819095819521
:104F30009F4F9E838D838D819E810E947B2581E082
:104F400090E0A0E0B0E08093D5019093D601A093CB
:104F5000D701B093D80159C089819A81AB81BC81B6
:104F6000CD01AA27BB278F839887A987BA87898114
:104F70009A81AB81BC81A070B0700097A105B1058A
:104F800099F48F819885A985BA858093D5019093EE
:104F9000D601A093D701B093D8011E821D8280E074
:104FA00090E00E947B2531C089819A81AB81BC81D0
:104FB000BC01CD0120E030E041E050E00E94EA2950
:104FC000CC01A0E0B0E0DC019927882728EE33E08F
:104FD00040E050E0BC01CD010E94462EDA01C9013B
:104FE0009E838D838F819885A985BA850196A11DA1
:104FF000B11D8093D5019093D601A093D701B093B2
:10500000D8018D819E810E947B258D819E81909308
:10501000DA018093D9018C899D899093CA0180938C
:10502000C9018E898093DB01CE010C960E94EF228C
:1050300002C082E08B878B856B960FB6F894DEBF3B
:105040000FBECDBFCF91DF9108951F920F920FB683
:105050000F9211242F933F934F935F936F937F93FE
:105060008F939F93AF93BF93EF93FF93DF93CF9370
:10507000CDB7DEB7E091C701F091C8010995CF9196
:10508000DF91FF91EF91BF91AF919F918F917F91B0
:105090006F915F914F913F912F910F900FBE0F90A5
:1050A0001F9018951F920F920FB60F9211242F93F5
:1050B0003F934F935F936F937F938F939F93AF93A0
:1050C000BF93EF93FF93DF93CF93CDB7DEB7E0911C
:1050D000C501F091C6010995CF91DF91FF91EF9144
:1050E000BF91AF919F918F917F916F915F914F9100
:1050F0003F912F910F900FBE0F901F9018951F9208
:105100000F920FB60F9211242F933F934F935F93FB
:105110006F937F938F939F93AF93BF93EF93FF937F
:10512000DF93CF93CDB7DEB7E091CB01F091CC0107
:105130000995CF91DF91FF91EF91BF91AF919F9131
:105140008F917F916F915F914F913F912F910F9030
:105150000FBE0F901F9018951F920F920FB60F92CF
:1051600011242F933F934F935F936F937F938F936C
:105170009F93AF93BF93EF93FF93DF93CF93CDB7FD
:10518000DEB7E091CD01F091CE010995CF91DF918D
:10519000FF91EF91BF91AF919F918F917F916F910F
:1051A0005F914F913F912F910F900FBE0F901F90E5
:1051B00018951F920F920FB60F9211242F933F93C1
:1051C0004F935F936F937F938F939F93AF93BF930F
:1051D000EF93FF93DF93CF93CDB7DEB780919C0120
:1051E000813009F054C08091DC019091DD01A091E3
:1051F000DE01B091DF010196A11DB11D8093DC019C
:105200009093DD01A093DE01B093DF012091D501E1
:105210003091D6014091D7015091D8018091DC01A5
:105220009091DD01A091DE01B091DF0128173907CF
:105230004A075B07A9F58091DB018130A1F4E09179
:10524000C901F091CA0109958091D9019091DA01C3
:105250000E947B251092DC011092DD011092DE018C
:105260001092DF011DC08091DB018230C9F4E09112
:10527000C901F091CA0109950E943D261092DC01F6
:105280001092DD011092DE011092DF0109C08091C1
:105290009C01882329F4E091C901F091CA01099584
:1052A000CF91DF91FF91EF91BF91AF919F918F913E
:1052B0007F916F915F914F913F912F910F900FBE12
:1052C0000F901F9018951F920F920FB60F921124F6
:1052D0002F933F934F935F936F937F938F939F93FE
:1052E000AF93BF93EF93FF93DF93CF93CDB7DEB729
:1052F000E091CF01F091D0010995CF91DF91FF911D
:10530000EF91BF91AF919F918F917F916F915F913D
:105310004F913F912F910F900FBE0F901F901895B6
:105320001F920F920FB60F9211242F933F934F931A
:105330005F936F937F938F939F93AF93BF93EF93FD
:10534000FF93DF93CF93CDB7DEB7E091D101F0911A
:10535000D2010995CF91DF91FF91EF91BF91AF916C
:105360009F918F917F916F915F914F913F912F917D
:105370000F900FBE0F901F9018951F920F920FB6AF
:105380000F9211242F933F934F935F936F937F93CB
:105390008F939F93AF93BF93EF93FF93DF93CF933D
:1053A000CDB7DEB7E091D301F091D4010995CF914B
:1053B000DF91FF91EF91BF91AF919F918F917F917D
:1053C0006F915F914F913F912F910F900FBE0F9072
:1053D0001F901895DF93CF93CDB7DEB76A970FB6BE
:1053E000F894DEBF0FBECDBF6B8B7C8B8D8B9E8BFD
:1053F0002F8B388F498F5A8F8B899C89AD89BE89B5
:105400002F89388D498D5A8DBC01CD010E94462EC1
:10541000DA01C9018F87988BA98BBA8B8B899C89FC
:10542000AD89BE892F89388D498D5A8DBC01CD013A
:105430000E94462EDC01CB018B879C87AD87BE87FF
:105440001A861A821B821C821D8281E089838B85C9
:105450009C85AD85BE850097A105B10509F47CC08A
:105460008B899C89AD89BE892F89388D498D5A8D4C
:10547000BC01CD010E94462EDC01CB018E839F83AF
:10548000A887B9878E819F81A885B9852AE030E0F9
:1054900040E050E0BC01CD010E94132EDC01CB01A5
:1054A0008E839F83A887B9878E819F81A885B985C0
:1054B0002F89388D498D5A8DBC01CD010E94462E11
:1054C000DA01C9018B879C87AD87BE878E819F815A
:1054D000A885B9852F89388D498D5A8DBC01CD019C
:1054E0000E94462EDC01CB018F87988BA98BBA8B4B
:1054F0008981882F90E0A0E0B0E02A813B814C8137
:105500005D81BC01CD010E94132E9B01AC018B85F6
:105510009C85AD85BE85820F931FA41FB51F8A830E
:105520009B83AC83BD838E819F81A885B9858B8B3E
:105530009C8BAD8BBE8B8AE089838A858F5F8A873F
:105540008F859889A989BA890097A105B10521F0AD
:105550008A85833009F084CF8A819B816A960FB651
:10556000F894DEBF0FBECDBFCF91DF910895DF93DA
:10557000CF93CDB7DEB7A1E4B0E0E1E4F0E0808105
:1055800088608C93CF91DF910895DF93CF93CDB74F
:10559000DEB7A1E4B0E0E1E4F0E0808188618C93C3
:1055A000E1E4F0E01082CF91DF910895DF93CF9393
:1055B00000D0CDB7DEB78A8319828A81883080F423
:1055C000A1E4B0E0E1E4F0E08081887F8C93A1E485
:1055D000B0E0E1E4F0E090818A81892B8C9302C0F5
:1055E00081E0898389810F900F90CF91DF91089599
:1055F000DF93CF93CDB7DEB761970FB6F894DEBFD8
:105600000FBECDBF0E94371786E0FE013196DF0145
:10561000982F1D929A95E9F782E08A8382E08B8326
:1056200082E08C83DE011796BE87AD87E4EAF1E065
:10563000F88BEF87F6E0F98BAF85B8890C90EF8592
:10564000F8893196F88BEF87AD85BE850C92ED8594
:10565000FE853196FE87ED87F989F150F98B8989AE
:10566000882351F7CE0101960E94EF2280E40E9428
:1056700019250E94E10CCE0107960E94EF22CE016F
:1056800007962BE33CE2B9010E94BC258BE49CE227
:105690000E94B8260E94FD158091E0019091E101E1
:1056A000A091E201B091E3010097A105B10561F479
:1056B0008091EC019091ED01A091EE01B091EF018C
:1056C0000097A105B10541F380E060E00E94FD0E66
:1056D00080E690E00E94D40E8091E0019091E1017B
:1056E000A091E201B091E301BC01CD010E94630FE2
:1056F00081E060E00E94FD0E8AE690E00E94D40EF8
:105700008091EC019091ED01A091EE01B091EF013B
:10571000BC01CD010E94630F80E20E94410B809189
:10572000F0019091F101CC01A0E0B0E0BC01CD010D
:105730000E94630FB1CFEF92FF920F931F93DF93FD
:10574000CF93CDB7DEB78091F2018F5F8093F201E6
:105750008091F201813071F40E946026CC01A0E0BA
:10576000B0E08093E4019093E501A093E601B0934B
:10577000E70168C08091F201823089F50E946026BD
:10578000CC01A0E0B0E08093E8019093E901A09300
:10579000EA01B093EB012091E8013091E9014091D9
:1057A000EA015091EB018091E4019091E501A09113
:1057B000E601B091E70179018A01E81AF90A0A0BBA
:1057C0001B0BD801C7018093E0019093E101A093E6
:1057D000E201B093E30180E00E946B2633C0809128
:1057E000F201833079F50E946026CC01A0E0B0E0A0
:1057F0008093E4019093E501A093E601B093E70163
:105800002091E4013091E5014091E6015091E701DA
:105810008091E8019091E901A091EA01B091EB013A
:1058200079018A01E81AF90A0A0B1B0BD801C70192
:105830008093EC019093ED01A093EE01B093EF0102
:105840000E94AA26CF91DF911F910F91FF90EF90B8
:105850000895DF93CF93CDB7DEB780919D0191E09E
:10586000892780939D0180E067E041E00E9431102C
:10587000CF91DF910895DF93CF93CDB7DEB78091BD
:10588000F0019091F10101969093F1018093F00164
:10589000CF91DF910895DF93CF93CDB7DEB780919D
:1058A000F3018F5F8093F3018091F301813071F4F4
:1058B0000E946026CC01A0E0B0E08093E4019093C8
:1058C000E501A093E601B093E70191C08091F30157
:1058D0008230E9F50E946026CC01A0E0B0E0809320
:1058E000E8019093E901A093EA01B093EB01809164
:1058F000F0019091F101CC01A0E0B0E0DC0199272A
:1059000088279C018091E8019091E901A091EA012A
:10591000B091EB01280F391F8091E4019091E501CE
:10592000A091E601B091E701A901481B590BCA01FA
:10593000CC01A0E0B0E08093E0019093E101A0935E
:10594000E201B093E30180E00E946B2650C0809199
:10595000F301833009F04BC00E946026CC01A0E027
:10596000B0E08093E4019093E501A093E601B09349
:10597000E7018091F0019091F101CC01A0E0B0E04D
:10598000DC01992788279C018091E4019091E50131
:10599000A091E601B091E701A901480F591F80913C
:1059A000F0019091F101CC01A0E0B0E0DC01992779
:1059B00088279C018091E8019091E901A091EA017A
:1059C000B091EB01820F931F9A01281B390BC9017B
:1059D000CC01A0E0B0E08093EC019093ED01A093A6
:1059E000EE01B093EF010E943D260E94AA26CF91BE
:1059F000DF910895EF92FF920F931F93DF93CF9360
:105A0000CDB7DEB78091F4018F5F8093F401809170
:105A1000F401813029F480E090E00E947B2596C05B
:105A20008091F401823079F50E948D25CC01A0E0AF
:105A3000B0E08093E0019093E101A093E201B09384
:105A4000E3018091F0019091F101CC01A0E0B0E080
:105A5000AC01332722278091E0019091E101A091D0
:105A6000E201B091E301820F931FA41FB51F809341
:105A7000E0019093E101A093E201B093E30182E0A1
:105A80000E94121463C08091F401833009F05EC05B
:105A90000E948D25CC01A0E0B0E08093EC019093B2
:105AA000ED01A093EE01B093EF018091F001909190
:105AB000F101CC01A0E0B0E0AC01332722278091B6
:105AC000EC019091ED01A091EE01B091EF01820FF8
:105AD000931FA41FB51F8093EC019093ED01A09339
