:100000000C942A000C9447000C9447000C94470071
:100010000C9447000C9447000C9447000C94470044
:100020000C9447000C9447000C9447000C94470034
:100030000C9447000C9447000C9447000C94470024
:100040000C9469070C9447000C9447000C944700EB
:100050000C94470011241FBECFE5D8E0DEBFCDBF12
:1000600011E0A0E6B0E0E4EBF5E302C005900D92EC
:10007000A233B107D9F711E0A2E3B1E001C01D92AC
:10008000A334B107E1F70E94CA110C94D81A0C945A
:100090000000EF92FF920F931F937B018C0120E0F1
:1000A00030E040E05FE40E94490388238CF0C801FF
:1000B000B70120E030E040E05FE40E94C1010E940F
:1000C000A9039B01AC01205030404040504806C07D
:1000D000C801B7010E94A9039B01AC01B901CA0183
:1000E0001F910F91FF90EF900895A0E0B0E0EBE733
:1000F000F0E00C94A11ADC012B01FA019C919230E2
:1001000008F439C1EB018881823008F433C194309E
:1001100069F4843009F02FC111969C91119789815F
:10012000981709F428C1A0E1B1E025C1843009F491
:1001300021C18230A9F4923009F01DC19A01AD01AC
:1001400088E0EA010990AE01E90109929E0181501F
:10015000C1F7E201898111969C918923818308C1AD
:10016000923009F407C112962D903C901397EB0141
:100170008A819B811496AD90BD90CD90DC901797AD
:10018000EC80FD800E811F819101281B390BB90184
:1001900037FF04C066277727621B730B6032710537
:1001A0000CF061C0121613066CF537014801062EDB
:1001B00004C096948794779467940A94D2F721E0C8
:1001C00030E040E050E004C0220F331F441F551FB1
:1001D0006A95D2F721503040404050402E213F21B7
:1001E00040235123211531054105510521F021E01E
:1001F00030E040E050E079018A01E628F72808293C
:1002000019293CC0232BD1F1260E371E350146019A
:10021000062E04C096948794779467940A94D2F734
:1002200021E030E040E050E004C0220F331F441FC3
:10023000551F6A95D2F721503040404050402A2146
:100240003B214C215D21211531054105510521F04E
:1002500021E030E040E050E059016A01A628B728CB
:10026000C828D9280BC0821593052CF01C01AA249C
:10027000BB24650103C0EE24FF24870111969C91E5
:10028000D20111968C91981709F445C0992339F041
:10029000A80197012A193B094C095D0906C0A6016E
:1002A00095012E193F09400B510B57FD08C01182D3
:1002B0003382228224833583468357831DC081E0A5
:1002C00081833382228288279927DC01821B930B4A
:1002D000A40BB50B84839583A683B7830DC0220F2F
:1002E000331F441F551F24833583468357838281E0
:1002F000938101979383828324813581468157813D
:10030000DA01C9010197A109B1098F5F9F4FAF4F72
:10031000BF4328F30BC0918333822282EA0CFB1C7B
:100320000C1D1D1DE482F5820683178383E0808304
:10033000248135814681578157FF1AC0C901AA27F8
:1003400097FDA095BA2F81709070A070B0705695EF
:10035000479537952795822B932BA42BB52B848318
:100360009583A683B7838281938101969383828349
:10037000DF0101C0D201CD01CDB7DEB7E2E10C94BF
:10038000BD1AA0E2B0E0E7ECF1E00C94AD1A69838D
:100390007A838B839C832D833E834F835887E9E048
:1003A000EE2EF12CEC0EFD1ECE010196B7010E943F
:1003B000D2048E010F5E1F4FCE010596B8010E9438
:1003C000D2048A8991E089278A8BC701B801AE01DE
:1003D000475E5F4F0E9475000E94FD03A096E6E015
:1003E0000C94C91AA0E2B0E0E8EFF1E00C94AD1A69
:1003F00069837A838B839C832D833E834F835887C5
:10040000F9E0EF2EF12CEC0EFD1ECE010196B701A6
:100410000E94D2048E010F5E1F4FCE010596B801D7
:100420000E94D204C701B801AE01475E5F4F0E942F
:1004300075000E94FD03A096E6E00C94C91AA0E2A4
:10044000B0E0E5E2F2E00C94A11A69837A838B8331
:100450009C832D833E834F835887CE010196BE0136
:10046000675F7F4F0E94D204CE010596BE016F5E8A
:100470007F4F0E94D2049985923088F0898982301A
:10048000C8F0943019F4823051F404C0843029F457
:10049000923081F480E191E0C6C0923049F420E0CE
:1004A0009A858A89981321E02A87CE010996BBC0D4
:1004B000823049F420E09A858A89981321E02A8BBA
:1004C000CE014196B0C02D843E844F8458886D88FB
:1004D0007E888F88988CEE24FF248701AA24BB2471
:1004E000650140E050E060E070E0E0E0F0E0C10174
:1004F00081709070892BE9F0E60CF71C081D191D1E
:100500009A01AB012A0D3B1D4C1D5D1D80E090E062
:10051000A0E0B0E0E614F7040805190520F481E036
:1005200090E0A0E0B0E0BA01A901480F591F6A1F8E
:100530007B1FAA0CBB1CCC1CDD1C97FE08C081E0F5
:1005400090E0A0E0B0E0A82AB92ACA2ADB2A3196B6
:10055000E032F10549F0660C771C881C991C569412
:10056000479437942794C3CFFA85EA892B893C892D
:100570008B859C85280F391F2E5F3F4F17C0CA01FE
:1005800081709070892B61F016950795F794E79428
:1005900080E090E0A0E0B0E8E82AF92A0A2B1B2BC3
:1005A00076956795579547952F5F3F4F77FDE7CF36
:1005B0000CC0440F551F661F771F17FD4160EE0CDE
:1005C000FF1C001F111F21503040403090E05907A0
:1005D00090E0690790E4790760F32B8F3C8FDB0193
:1005E000CA018F779070A070B07080349105A1051A
:1005F000B10561F447FD0AC0E114F10401051105DC
:1006000029F0405C5F4F6F4F7F4F40781A8EFE1786
:1006100011F081E08A8F4D8F5E8F6F8F78A383E01A
:10062000898FCE0149960E94FD03A096E2E10C94C9
:10063000BD1AA8E1B0E0EFE1F3E00C94AD1A6983D4
:100640007A838B839C832D833E834F83588789E0F5
:10065000E82EF12CEC0EFD1ECE010196B7010E9492
:10066000D2048E010F5E1F4FCE010596B8010E9485
:10067000D2048985823040F08989823028F0C70110
:10068000B8010E944A0501C08FEF6896E6E00C941D
:10069000C91AA8E1B0E0EFE4F3E00C94AD1A698365
:1006A0007A838B839C832D833E834F83588789E095
:1006B000E82EF12CEC0EFD1ECE010196B7010E9432
:1006C000D2048E010F5E1F4FCE010596B8010E9425
:1006D000D2048985823040F08989823028F0C701B0
:1006E000B8010E944A0501C08FEF6896E6E00C94BD
:1006F000C91AA8E1B0E0EFE7F3E00C94AD1A698302
:100700007A838B839C832D833E834F83588789E034
:10071000E82EF12CEC0EFD1ECE010196B7010E94D1
:10072000D2048E010F5E1F4FCE010596B8010E94C4
:10073000D2048985823040F08989823028F0C7014F
:10074000B8010E944A0501C081E06896E6E00C9479
:10075000C91AACE0B0E0EFEAF3E00C94B11A698397
:100760007A838B839C83CE010196BE016B5F7F4FA2
:100770000E94D2048D81823061F1823050F1843048
:1007800021F48E81882351F12EC02F81388537FDC9
:1007900020C06E812F3131051CF06623F9F023C093
:1007A0008EE190E0821B930B29853A854B855C8511
:1007B00004C056954795379527958A95D2F76623B5
:1007C000B1F050954095309521953F4F4F4F5F4F79
:1007D0000EC020E030E040E050E009C02FEF3FEFD6
:1007E0004FEF5FE704C020E030E040E050E8B9019F
:1007F000CA012C96E2E00C94CD1ADF92EF92FF92A0
:100800000F931F93FC01E480F58006811781D1804E
:100810008081823048F480E090E0A0E1B0E0E82AF6
:10082000F92A0A2B1B2BA5C0843009F49FC0823003
:1008300021F4EE24FF24870105C0E114F104010531
:10084000110519F4E0E0F0E096C0628173819FEF3A
:10085000623879070CF05BC022E83FEF261B370BAC
:100860002A3131052CF020E030E040E050E02AC091
:10087000B801A701022E04C0769567955795479554
:100880000A94D2F781E090E0A0E0B0E004C0880FC5
:10089000991FAA1FBB1F2A95D2F70197A109B10979
:1008A0008E219F21A023B1230097A105B10521F03E
:1008B00081E090E0A0E0B0E09A01AB01282B392B59
:1008C0004A2B5B2BDA01C9018F779070A070B07052
:1008D00080349105A105B10539F427FF09C0205CDA
:1008E0003F4F4F4F5F4F04C0215C3F4F4F4F5F4F13
:1008F000E0E0F0E02030A0E03A07A0E04A07A0E402
:100900005A0710F0E1E0F0E079018A0127C0603871
:10091000710564F5FB01E158FF4FD801C7018F77DE
:100920009070A070B07080349105A105B10539F4C4
:10093000E7FE0DC080E490E0A0E0B0E004C08FE3EB
:1009400090E0A0E0B0E0E80EF91E0A1F1B1F17FFA1
:1009500005C016950795F794E794319687E01695AC
:100960000795F794E7948A95D1F705C0EE24FF2404
:100970008701EFEFF0E06E2F679566276795902F60
:100980009F77D794DD24D7948E2F8695492F462BB9
:10099000582F5D29B701CA011F910F91FF90EF9069
:1009A000DF900895FC01DB01408151812281622F9B
:1009B0006F7770E0221F2227221F9381892F880FD3
:1009C000822B282F30E0991F9927991F11969C930D
:1009D000119721153105A9F54115510561057105DD
:1009E00011F482E037C082E89FEF13969C938E93B8
:1009F00012979A01AB0167E0220F331F441F551F66
:100A00006A95D1F783E08C930DC0220F331F441FEA
:100A1000551F12968D919C911397019713969C9355
:100A20008E931297203080E0380780E0480780E4FA
:100A3000580758F314962D933D934D935C93179755
:100A400008952F3F310579F4411551056105710570
:100A500019F484E08C93089564FF03C081E08C93C3
:100A600012C01C9210C02F57304013963C932E9307
:100A7000129783E08C9387E0440F551F661F771F02
:100A80008A95D1F7706414964D935D936D937C9322
:100A9000179708951F93DC01FB019C91923008F495
:100AA00047C08081823008F443C0943051F41196DD
:100AB0001C91843099F58181682F70E0611B710968
:100AC0003FC0843021F0923031F48230B9F181811D
:100AD000882389F12DC011961C9111978230F1F075
:100AE00081811817D9F412962D913C911397828128
:100AF00093818217930794F028173907BCF0149656
:100B00008D919D910D90BC91A02D248135814681C0
:100B10005781281739074A075B0718F4112341F05A
:100B20000AC082179307A407B50740F4112319F0F0
:100B300061E070E005C06FEF7FEF02C060E070E041
:100B4000CB011F910895DF93CF93CDB7DEB7A7E216
:100B5000B0E0E7E2F0E080818F778C93A7E2B0E02D
:100B6000E7E2F0E08081805C8C93A7E2B0E0E7E20E
:100B7000F0E08081805E8C93A6E2B0E0E6E2F0E0F7
:100B80008081887F8C93A6E2B0E0E6E2F0E080818D
:100B900087608C93A6E2B0E0E6E2F0E080818058C6
:100BA0008C93CF91DF910895DF93CF93CDB7DEB7CC
:100BB00028970FB6F894DEBF0FBECDBF8E8378871F
:100BC0006F831D8219821A821B821C8280913A01D6
:100BD000882309F05EC081E080933A01A7E2B0E08B
:100BE000E7E2F0E08081807E8C93A7E2B0E0E7E26C
:100BF000F0E090818E81892B8C93A6E2B0E0E6E252
:100C0000F0E08081805C8C930BC089819A81AB81FC
:100C1000BC810196A11DB11D89839A83AB83BC83DE
:100C2000E6E2F0E0808182958F70882F90E08170FD
:100C30009070009761F489819A81AB81BC81803585
:100C400023EC920720E0A20720E0B207F1F68981A9
:100C50009A81AB81BC81803523EC920720E0A2070A
:100C600020E0B20719F481E08D8315C0A6E2B0E060
:100C7000E6E2F0E080818F7E8C93E5E2F0E0808117
:100C8000882F90E0EF81F8859183808310923A015C
:100C900002C083E08D838D8128960FB6F894DEBF65
:100CA0000FBECDBFCF91DF910895DF93CF9300D0DA
:100CB00000D000D0CDB7DEB78A837C836B835E83A0
:100CC0004D83198280913A018823D1F58D819E81CF
:100CD000009721F08B819C81009719F482E0898331
:100CE00031C010923D0181E080933A018D819E8157
:100CF00090933301809332018B819C8190933501D5
:100D000080933401A7E2B0E0E7E2F0E08081807EEA
:100D10008C93A7E2B0E0E7E2F0E090818A81892B32
:100D20008C93A6E2B0E0E6E2F0E08081805C8C93F8
:100D3000A6E2B0E0E6E2F0E08081885F8C9302C03A
:100D400083E08983898126960FB6F894DEBF0FBEB3
:100D5000CDBFCF91DF910895DF93CF9300D000D026
:100D6000CDB7DEB79C838B831A82EB81FC818581B2
:100D700096810097A9F180913A01882371F5198233
:100D80001DC0EB81FC81208131818981882F90E019
:100D9000F901E80FF91F4081EB81FC812381348147
:100DA0008981882F90E0880F991F280F391F842F81
:100DB000B9010E94D40589818F5F8983EB81FC8111
:100DC000928189818917E8F2EB81FC810580F681A7
:100DD000E02D099510923A0105C083E08A8302C094
:100DE00082E08A838A810F900F900F900F90CF91AD
:100DF000DF910895DF93CF9300D00F92CDB7DEB788
:100E00009B838A831982EA81FB8185819681009781
:100E100009F456C080913A01882309F04EC081E060
:100E200080933D0181E080933A01EA81FB818581D5
:100E300096819093330180933201EA81FB81808116
:100E400091819093370180933601EA81FB81828101
:100E50008093380110923901EA81FB81838194816A
:100E60009093350180933401A7E2B0E0E7E2F0E02F
:100E70008081807E8C93A7E2B0E0E7E2F0E04081E1
:100E8000EA81FB812081318180913901882F90E0B6
:100E9000F901E80FF91F8081842B8C93A6E2B0E062
:100EA000E6E2F0E08081805C8C93A6E2B0E0E6E2CE
:100EB000F0E08081885F8C9305C083E0898302C065
:100EC00082E0898389810F900F900F90CF91DF91FD
:100ED00008951F920F920FB60F9211242F933F93F4
:100EE0004F935F936F937F938F939F93AF93BF9332
:100EF000EF93FF93DF93CF93CDB7DEB780913D01A2
:100F00008823D1F4A0913401B0913501E5E2F0E0FD
:100F10008081882F90E08D939C9310923A01E0910C
:100F20003201F09133010995A6E2B0E0E6E2F0E08B
:100F30008081877F8C9355C080913D01813009F07D
:100F400050C0209134013091350180913901882FB2
:100F500090E0880F991FD901A80FB91FE5E2F0E0D2
:100F60008081882F90E011969C938E938091390117
:100F70008F5F8093390190913901809138019817E2
:100F800079F410923A01E0913201F0913301099520
:100F9000A6E2B0E0E6E2F0E08081877F8C9321C09A
:100FA000A7E2B0E0E7E2F0E08081807E8C93A7E2E8
:100FB000B0E0E7E2F0E04081209136013091370166
:100FC00080913901882F90E0F901E80FF91F8081A5
:100FD000842B8C93A6E2B0E0E6E2F0E08081805CB6
:100FE0008C93CF91DF91FF91EF91BF91AF919F9142
:100FF0008F917F916F915F914F913F912F910F90C2
:101000000FBE0F901F901895DF93CF93CDB7DEB72B
:10101000AC970FB6F894DEBF0FBECDBF8CA780EFA4
:101020008BA781E060E040E00E94950E81E061E0E6
:1010300040E00E94950E9BA58CA589238BA780E09C
:101040006BA50E94AA0F81E062E041E00E94950E2C
:1010500080E090E0A0E0B0E48FA398A7A9A7BAA78A
:101060006FA178A589A59AA520E030E04AEF54E465
:101070000E941F02DC01CB018BA39CA3ADA3BEA3E6
:101080006BA17CA18DA19EA120E030E040E85FE350
:101090000E94790388232CF481E090E09AA389A32D
:1010A0003FC06BA17CA18DA19EA120E03FEF4FE747
:1010B00057E40E94190318164CF56FA178A589A56D
:1010C0009AA520E030E040E251E40E941F02DC01DA
:1010D000CB01BC01CD010E944900DC01CB019AA3E8
:1010E00089A30FC088EC90E098A38F8F8F8D98A173
:1010F0000197F1F798A38F8F89A19AA101979AA3DD
:1011000089A389A19AA1009769F714C06BA17CA15A
:101110008DA19EA10E944900DC01CB019AA389A365
:1011200089A19AA19E8F8D8F8D8D9E8D0197F1F74C
:101130009E8F8D8F81E062E040E00E94950E80914D
:101140003B01882309F48CC080EF8BA78BA5982FD7
:1011500090958CA589238BA78BA5982F9295907F2E
:1011600080E0692F0E94AA0F81E062E041E00E94C6
:10117000950E80E090E0A0E0B0E4898F9A8FAB8F6D
:10118000BC8F698D7A8D8B8D9C8D20E030E04AEF8D
:1011900054E40E941F02DC01CB018D8B9E8BAF8B30
:1011A000B88F6D897E898F89988D20E030E040E886
:1011B0005FE30E94790388232CF481E090E09C8B0C
:1011C0008B8B3FC06D897E898F89988D20E03FEFA2
:1011D0004FE757E40E94190318164CF5698D7A8D74
:1011E0008B8D9C8D20E030E040E251E40E941F0294
:1011F000DC01CB01BC01CD010E944900DC01CB0127
:101200009C8B8B8B0FC088EC90E09A8B898B8989A3
:101210009A890197F1F79A8B898B8B899C89019721
:101220009C8B8B8B8B899C89009769F714C06D8987
:101230007E898F89988D0E944900DC01CB019C8BAF
:101240008B8B8B899C89988B8F878F859889019749
:10125000F1F7988B8F8781E062E040E00E94950E65
:1012600080E090E0A0E0B0E48B879C87AD87BE87EC
:101270006B857C858D859E8520E030E04AEF54E4C7
:101280000E941F02DC01CB018F839887A987BA8750
:101290006F81788589859A8520E030E040E85FE3BA
:1012A0000E94790388232CF481E090E09E838D8353
:1012B0003FC06F81788589859A8520E03FEF4FE7B1
:1012C00057E40E94190318164CF56B857C858D85B3
:1012D0009E8520E030E040E251E40E941F02DC01E4
:1012E000CB01BC01CD010E944900DC01CB019E83F2
:1012F0008D830FC088EC90E09C838B838B819C81D5
:101300000197F1F79C838B838D819E8101979E834A
:101310008D838D819E81009769F714C06F817885D8
:1013200089859A850E944900DC01CB019E838D83CB
:101330008D819E819A83898389819A810197F1F7B2
:101340009A838983AC960FB6F894DEBF0FBECDBFEB
:10135000CF91DF910895DF93CF9300D0CDB7DEB763
:101360001A8281E060E040E00E94950E81E061E039
:1013700041E00E94950E19821CC09E012E5F3F4FD6
:1013800080E06981A9010E94F20F8A81282F30E054
:101390008981882F90E0A90102C0440F551F8A95CA
:1013A000E2F7CA01982F8A81890F8A8389818F5F2A
:1013B00089838981873008F38A810F900F90CF91BC
:1013C000DF910895DF93CF93CDB7DEB7AC970FB61B
:1013D000F894DEBF0FBECDBF8CA780EF8BA781E056
:1013E00060E041E00E94950E81E061E040E00E94F3
:1013F000950E9BA58CA589238BA780E06BA50E94E9
:10140000AA0F81E062E041E00E94950E80E090E04A
:10141000A0E0B0E48FA398A7A9A7BAA76FA178A569
:1014200089A59AA520E030E04AEF54E40E941F020B
:10143000DC01CB018BA39CA3ADA3BEA36BA17CA1BC
:101440008DA19EA120E030E040E85FE30E94790397
:1014500088232CF481E090E09AA389A33FC06BA17C
:101460007CA18DA19EA120E03FEF4FE757E40E94B1
:10147000190318164CF56FA178A589A59AA520E047
:1014800030E040E251E40E941F02DC01CB01BC01CC
:10149000CD010E944900DC01CB019AA389A30FC0B2
:1014A00088EC90E098A38F8F8F8D98A10197F1F72A
:1014B00098A38F8F89A19AA101979AA389A389A143
:1014C0009AA1009769F714C06BA17CA18DA19EA180
:1014D0000E944900DC01CB019AA389A389A19AA1AA
:1014E0009E8F8D8F8D8D9E8D0197F1F79E8F8D8FA5
:1014F00081E062E040E00E94950E80EF8BA78BA513
:10150000982F90958CA589238BA78BA5982F9295C2
:10151000907F80E0692F0E94AA0F81E062E041E0A5
:101520000E94950E80E090E0A0E0B0E4898F9A8F51
:10153000AB8FBC8F698D7A8D8B8D9C8D20E030E0D8
:101540004AEF54E40E941F02DC01CB018D8B9E8B7D
:10155000AF8BB88F6D897E898F89988D20E030E0C0
:1015600040E85FE30E94790388232CF481E090E057
:101570009C8B8B8B3FC06D897E898F89988D20E0F5
:101580003FEF4FE757E40E94190318164CF5698D99
:101590007A8D8B8D9C8D20E030E040E251E40E94FA
:1015A0001F02DC01CB01BC01CD010E944900DC011E
:1015B000CB019C8B8B8B0FC088EC90E09A8B898B36
:1015C00089899A890197F1F79A8B898B8B899C89F4
:1015D00001979C8B8B8B8B899C89009769F714C032
:1015E0006D897E898F89988D0E944900DC01CB012D
:1015F0009C8B8B8B8B899C89988B8F878F85988907
:101600000197F1F7988B8F8781E062E040E00E94BC
:10161000950E80E090E0A0E0B0E48B879C87AD87DA
:10162000BE876B857C858D859E8520E030E04AEF06
:1016300054E40E941F02DC01CB018F839887A987A5
:10164000BA876F81788589859A8520E030E040E807
:101650005FE30E94790388232CF481E090E09E836D
:101660008D833FC06F81788589859A8520E03FEF23
:101670004FE757E40E94190318164CF56B857C85DB
:101680008D859E8520E030E040E251E40E941F02FB
:10169000DC01CB01BC01CD010E944900DC01CB0182
:1016A0009E838D830FC088EC90E09C838B838B811D
:1016B0009C810197F1F79C838B838D819E8101979B
:1016C0009E838D838D819E81009769F714C06F8101
:1016D000788589859A850E944900DC01CB019E832B
:1016E0008D838D819E819A83898389819A810197D7
:1016F000F1F79A83898386E00E940408AC960FB6BE
:10170000F894DEBF0FBECDBFCF91DF910895DF9378
:10171000CF93CDB7DEB7E8970FB6F894DEBF0FBE14
:10172000CDBF80E090E0A0E2B2E48DAB9EABAFAB6A
:10173000B8AF6DA97EA98FA998AD20E030E04AEF3F
:1017400054E40E941F02DC01CB0189AB9AABABAB26
:10175000BCAB69A97AA98BA99CA920E030E040E83C
:101760005FE30E94790388232CF481E090E098AB3A
:101770008FA73FC069A97AA98BA99CA920E03FEF58
:101780004FE757E40E94190318164CF56DA97EA97E
:101790008FA998AD20E030E040E251E40E941F02A2
:1017A000DC01CB01BC01CD010E944900DC01CB0171
:1017B00098AB8FA70FC088EC90E09EA78DA78DA552
:1017C0009EA50197F1F79EA78DA78FA598A90197D0
:1017D00098AB8FA78FA598A9009769F714C069A93E
:1017E0007AA98BA99CA90E944900DC01CB0198AB86
:1017F0008FA78FA598A99CA78BA78BA59CA50197C0
:10180000F1F79CA78BA780E20E94040880E20E9467
:10181000040880E80E94040880E090E0A0E8BFE3AC
:101820008FA398A7A9A7BAA76FA178A589A59AA5FC
:1018300020E030E04AEF54E40E941F02DC01CB01BB
:101840008BA39CA3ADA3BEA36BA17CA18DA19EA1E4
:1018500020E030E040E85FE30E94790388232CF425
:1018600081E090E09AA389A33FC06BA17CA18DA1E8
:101870009EA120E03FEF4FE757E40E94190318169E
:101880004CF56FA178A589A59AA520E030E040E24B
:1018900051E40E941F02DC01CB01BC01CD010E947A
:1018A0004900DC01CB019AA389A30FC088EC90E02A
:1018B00098A38F8F8F8D98A10197F1F798A38F8FA1
:1018C00089A19AA101979AA389A389A19AA10097B6
:1018D00069F714C06BA17CA18DA19EA10E94490053
:1018E000DC01CB019AA389A389A19AA19E8F8D8F38
:1018F0008D8D9E8D0197F1F79E8F8D8F80E00E94D8
:10190000040880EC0E94040880E090E0A0E8BFE3B7
:10191000898F9A8FAB8FBC8F698D7A8D8B8D9C8DC3
:1019200020E030E04AEF54E40E941F02DC01CB01CA
:101930008D8B9E8BAF8BB88F6D897E898F89988DAB
:1019400020E030E040E85FE30E94790388232CF434
:1019500081E090E09C8B8B8B3FC06D897E898F8965
:10196000988D20E03FEF4FE757E40E9419031816C7
:101970004CF5698D7A8D8B8D9C8D20E030E040E2B6
:1019800051E40E941F02DC01CB01BC01CD010E9489
:101990004900DC01CB019C8B8B8B0FC088EC90E065
:1019A0009A8B898B89899A890197F1F79A8B898B10
:1019B0008B899C8901979C8B8B8B8B899C89009749
:1019C00069F714C06D897E898F89988D0E944900BE
:1019D000DC01CB019C8B8B8B8B899C89988B8F87AF
:1019E0008F8598890197F1F7988B8F8780E00E9407
:1019F000040880E10E94040880E090E0A0E0B0E4E8
:101A00008B879C87AD87BE876B857C858D859E8502
:101A100020E030E04AEF54E40E941F02DC01CB01D9
:101A20008F839887A987BA876F81788589859A85FA
:101A300020E030E040E85FE30E94790388232CF443
:101A400081E090E09E838D833FC06F81788589859A
:101A50009A8520E03FEF4FE757E40E9419031816DC
:101A60004CF56B857C858D859E8520E030E040E2DD
:101A700051E40E941F02DC01CB01BC01CD010E9498
:101A80004900DC01CB019E838D830FC088EC90E080
:101A90009C838B838B819C810197F1F79C838B8343
:101AA0008D819E8101979E838D838D819E8100977C
:101AB00069F714C06F81788589859A850E944900ED
:101AC000DC01CB019E838D838D819E819A838983E6
:101AD00089819A810197F1F79A83898381E08093C4
:101AE0003B01E8960FB6F894DEBF0FBECDBFCF9195
:101AF000DF910895DF93CF9300D00F92CDB7DEB77B
:101B00009B838A8319820EC08981282F30E08A81C5
:101B10009B81FC01E20FF31F80810E94E209898111
:101B20008F5F89838981282F30E08A819B81FC0126
:101B3000E20FF31F8081882339F70F900F900F90E9
:101B4000CF91DF910895DF93CF9300D00F92CDB75F
:101B5000DEB78A836B838A81882351F48B8180313D
:101B600020F08B81805C898309C08B81898306C0CA
:101B70008A81813019F48B81805C898389818058C6
:101B80000E9404080F900F900F90CF91DF9108955D
:101B9000DF93CF93CDB7DEB727970FB6F894DEBFAC
:101BA0000FBECDBF9C838B836D834E832F831A82A0
:101BB0008D81882F90E0880F991F880F991F880FBB
:101BC000991F8A838A81805C0E94040819820EC052
:101BD0008981282F30E08B819C81FC01E20FF31F6B
:101BE00080810E94E20989818F5F898389818830A1
:101BF00078F38E816F810E94A30D8D810E94E2098E
:101C000027960FB6F894DEBF0FBECDBFCF91DF9100
:101C10000895DF93CF9300D000D0CDB7DEB79C837B
:101C20008B838B819C810E94400E8A838A81898369
:101C30001DC0898181500E946A0E9C018B819C810C
:101C4000B9010E948D1ACB01805D0E94E209898151
:101C500081500E946A0E9C018B819C81B9010E9477
:101C60008D1A9C838B838981815089838981181681
:101C700004F30F900F900F900F90CF91DF91089584
:101C8000DF93CF9300D000D0CDB7DEB79B838A839C
:101C900019828A819B81009779F41C8213C08A8102
:101CA0009B812AE030E0B9010E948D1ACB019B8311
:101CB0008A8389818F5F89838A819B81009779F7E5
:101CC00089818C838C810F900F900F900F90CF9112
:101CD000DF910895DF93CF9300D000D0CDB7DEB76A
:101CE0008C8381E090E09A8389831B8211C0898173
:101CF0009A819C01220F331FC901880F991F880FF9
:101D0000991F820F931F9A8389838B818F5F8B83A7
:101D10009B818C81981758F389819A810F900F903D
:101D20000F900F90CF91DF910895DF93CF93CDB7B0
:101D3000DEB728970FB6F894DEBF0FBECDBF8A83FB
:101D40006B834C8319828C81813009F075C08B8143
:101D5000883008F06EC08A81282F30E038872F83C2
:101D60008F8198858130910541F12F81388522300E
:101D700031052CF48F819885009761F057C02F8131
:101D800038852230310561F18F8198858330910546
:101D9000D1F14CC0ABE3B0E0EBE3F0E040818B81EC
:101DA000282F30E081E090E0022E02C0880F991FBA
:101DB0000A94E2F7840F8C93C3C0A8E3B0E0E8E391
:101DC000F0E040818B81282F30E081E090E0022E0E
:101DD00002C0880F991F0A94E2F7840F8C93B0C059
:101DE000A5E3B0E0E5E3F0E040818B81282F30E00F
:101DF00081E090E0022E02C0880F991F0A94E2F75A
:101E0000840F8C939DC0A2E3B0E0E2E3F0E0408158
:101E10008B81282F30E081E090E0022E02C0880FF5
:101E2000991F0A94E2F7840F8C938AC081E089831A
:101E300087C081E0898384C08C81882309F07EC0BB
:101E40008B81883008F077C08A81282F30E03E836C
:101E50002D838D819E818130910559F12D813E81A7
:101E6000223031052CF48D819E81009769F060C08D
:101E70002D813E812230310589F18D819E81833013
:101E8000910509F440C054C0ABE3B0E0EBE3F0E0EF
:101E90008081482F8B81282F30E081E090E0022E56
:101EA00002C0880F991F0A94E2F7809584238C93CF
:101EB00047C0A8E3B0E0E8E3F0E08081482F8B81E1
:101EC000282F30E081E090E0022E02C0880F991F99
:101ED0000A94E2F7809584238C9332C0A5E3B0E0A6
:101EE000E5E3F0E08081482F8B81282F30E081E00E
:101EF00090E0022E02C0880F991F0A94E2F78095A5
:101F000084238C931DC0A2E3B0E0E2E3F0E0808183
:101F1000482F8B81282F30E081E090E0022E02C014
:101F2000880F991F0A94E2F7809584238C9308C048
:101F300081E0898305C081E0898302C081E08983D3
:101F4000898128960FB6F894DEBF0FBECDBFCF9122
:101F5000DF910895DF93CF9300D000D00F92CDB7DB
:101F6000DEB78A836B8319828A81282F30E03D8314
:101F70002C838C819D8181309105D1F02C813D8114
:101F8000223031052CF48C819D81009761F01FC0B7
:101F90002C813D812230310581F08C819D818330FF
:101FA000910581F014C0EBE3F0E08B81808311C0D8
:101FB000E8E3F0E08B8180830CC0E5E3F0E08B8107
:101FC000808307C0E2E3F0E08B81808302C081E080
:101FD000898389810F900F900F900F900F90CF9170
:101FE000DF910895DF93CF93CDB7DEB727970FB674
:101FF000F894DEBF0FBECDBF8A836B835D834C83B5
:1020000019828B81883008F074C08A81282F30E0D3
:102010003F832E834E815F814130510559F18E817E
:102020009F818230910534F42E813F812115310545
:1020300069F05CC04E815F814230510579F18E813B
:102040009F818330910509F43DC050C0E9E3F0E081
:102050008081282F30E08B81882F90E0A90102C079
:10206000559547958A95E2F7CA018170EC81FD810B
:10207000808341C0E6E3F0E08081282F30E08B814F
:10208000882F90E0A90102C0559547958A95E2F7FF
:10209000CA018170EC81FD8180832DC0E3E3F0E013
:1020A0008081282F30E08B81882F90E0A90102C029
:1020B000559547958A95E2F7CA018170EC81FD81BB
:1020C000808319C0E0E3F0E08081282F30E08B812D
:1020D000882F90E0A90102C0559547958A95E2F7AF
:1020E000CA018170EC81FD81808305C081E0898314
:1020F00002C081E08983898127960FB6F894DEBFFC
:102100000FBECDBFCF91DF910895DF93CF9300D065
:1021100000D00F92CDB7DEB78A836B8319828B8193
:10212000883008F072C08A81282F30E03D832C83EC
:102130008C819D818130910549F12C813D81223036
:1021400031052CF48C819D81009761F05BC02C815E
:102150003D812230310571F18C819D818330910563
:10216000E9F150C0ABE3B0E0EBE3F0E08081482F51
:102170008B81282F30E081E090E0022E02C0880F92
:10218000991F0A94E2F784278C9341C0A8E3B0E03A
:10219000E8E3F0E08081482F8B81282F30E081E058
:1021A00090E0022E02C0880F991F0A94E2F784275C
:1021B0008C932DC0A5E3B0E0E5E3F0E08081482FEB
:1021C0008B81282F30E081E090E0022E02C0880F42
:1021D000991F0A94E2F784278C9319C0A2E3B0E018
:1021E000E2E3F0E08081482F8B81282F30E081E00E
:1021F00090E0022E02C0880F991F0A94E2F784270C
:102200008C9305C081E0898302C081E08983898144
:102210000F900F900F900F900F90CF91DF91089536
:10222000DF93CF93CDB7DEB7AFE5B0E0EFE5F0E0F9
:10223000808180588C93CF91DF910895DF93CF9365
:10224000CDB7DEB7AFE5B0E0EFE5F0E080818F77A6
:102250008C93CF91DF910895DF93CF9300D000D07E
:102260000F92CDB7DEB78FEF89831A825EC08A8165
:10227000882F90E0FC01E85DFE4F908183E0692F9C
:1022800040E00E94950E1B823DC08B81882F90E01C
:10229000FC01E45DFE4F90819E012C5F3F4F83E087
:1022A000692FA9010E94F20F8C81882341F58B814F
:1022B000482F50E08A81282F30E0CA01880F991FEB
:1022C000880F991F820F931FFC01E85EFE4F8081EB
:1022D00089830FC08B81882F90E0FC01E45DFE4F65
:1022E00090819E012C5F3F4F83E0692FA9010E94DE
:1022F000F20F8C81882371F389818D831CC08B81BF
:102300008F5F8B838B81843008F4BFCF8A81882FC5
:1023100090E0FC01E85DFE4F908183E0692F41E091
:102320000E94950E8A818F5F8A838A81843008F4A7
:102330009ECF89818D838D810F900F900F900F908C
:102340000F90CF91DF910895DF93CF93CDB7DEB794
:10235000EAE3F0E080EF8083E7E3F0E08FE580835D
:10236000E4E3F0E08CEF8083E1E3F0E080EF808352
:10237000EBE3F0E083E08083E8E3F0E080E2808359
:10238000E5E3F0E01082E2E3F0E08FEF8083CF91AD
:10239000DF9108950F931F93DF93CF93CDB7DEB7EF
:1023A000CA56D0400FB6F894DEBF0FBECDBF0E9414
:1023B000A4110E94A3050E94870B0E941011FE0128
:1023C000E659FF4F1082FE01E759FF4F83E08083FB
:1023D000FE01E959FF4F11821082FE01EB59FF4FB8
:1023E00082ED94E091838083FE01ED59FF4F81E0FF
:1023F00090E09183808381E00E94040880E690E071
:102400000E947A0DFE01E15AFF4F80E090E0AAEFB2
:10241000B3E480839183A283B3838E01055A1F4F57
:10242000FE01E15AFF4F608171818281938120E03A
:1024300030E04AEF54E40E941F02DC01CB01F801B6
:1024400080839183A283B383FE01E55AFF4F6081AD
:1024500071818281938120E030E040E85FE30E9457
:102460007903882344F4FE01E75AFF4F81E090E0AE
:102470009183808364C0FE01E55AFF4F60817181C2
:102480008281938120E03FEF4FE757E40E941903D8
:1024900018160CF043C0FE01E15AFF4F60817181B4
:1024A0008281938120E030E040E251E40E941F02EB
:1024B000DC01CB018E01075A1F4FBC01CD010E94E8
:1024C0004900DC01CB01F801918380831FC0FE012C
:1024D000E95AFF4F88EC90E091838083FE01E95A2E
:1024E000FF4F808191810197F1F7FE01E95AFF4F7B
:1024F00091838083DE01A75ABF4FFE01E75AFF4F49
:1025000080819181019711969C938E93FE01E75AE9
:10251000FF4F808191810097D1F627C08E01075A25
:102520001F4FFE01E55AFF4F6081718182819381C7
:102530000E944900DC01CB01F80191838083DE0118
:10254000AB5ABF4FFE01E75AFF4F808191818D93B7
:102550009C93FE01EB5AFF4F808191810197F1F727
:10256000FE01EB5AFF4F9183808381E00E940408B3
:102570008BE690E00E947A0D0E942C11FE01E65934
:10258000FF4F8083FE01E659FF4F80818F3FA1F30B
:10259000FE01E659FF4F80818A3078F5FE01E65949
:1025A000FF4F8081882F90E00E94090EFE01E959BB
:1025B000FF4FDE01AD59BF4F208131818D919C913C
:1025C0001197A901489F9001499F300D589F300DE8
:1025D0001124FE01E659FF4F8081882F90E0FE0113
:1025E000E959FF4F820F931F91838083FE01ED59BC
:1025F000FF4F8AE090E091838083FE01E659FF4F10
:1026000080818E3009F0B8CFFE01E959FF4FDE011D
:10261000AB59BF4F208131818D919C911197281723
:10262000390709F0C0C081E064E041E00E94950EE6
:10263000FE01EF5AFF4F80E090E0A8ECB3E4808306
:102640009183A283B3838E01035B1F4FFE01EF5A78
:10265000FF4F608171818281938120E030E04AEFF9
:1026600054E40E941F02DC01CB01F80180839183B6
:10267000A283B383FE01E35BFF4F6081718182819E
:10268000938120E030E040E85FE30E9479038823F3
:1026900044F4FE01E55BFF4F81E090E0918380838D
:1026A00064C0FE01E35BFF4F608171818281938191
:1026B00020E03FEF4FE757E40E94190318160CF093
:1026C00043C0FE01EF5AFF4F608171818281938187
:1026D00020E030E040E251E40E941F02DC01CB0127
:1026E0008E01055B1F4FBC01CD010E944900DC013A
:1026F000CB01F801918380831FC0FE01E75BFF4F90
:1027000088EC90E091838083FE01E75BFF4F80813E
:1027100091810197F1F7FE01E75BFF4F9183808381
:10272000DE01A55BBF4FFE01E55BFF4F808191811C
:10273000019711969C938E93FE01E55BFF4F80817C
:1027400091810097D1F627C08E01055B1F4FFE01D6
:10275000E35BFF4F60817181828193810E94490018
:10276000DC01CB01F80191838083DE01A95BBF4FBF
:10277000FE01E55BFF4F808191818D939C93FE016B
:10278000E95BFF4F808191810197F1F7FE01E95BE1
:10279000FF4F9183808381E064E040E00E94950ECA
:1027A0000E94961640CFDE01A759BF4FFE01E759A0
:1027B000FF4F808181508C93FE01E759FF4F80814C
:1027C000882309F00CC281E00E94040887E790E0AA
:1027D0000E947A0D81E069E00E94A30D83E30E94CC
:1027E000E209FE01ED5BFF4F80E090E0AAEFB3E469
:1027F00080839183A283B3838E01015C1F4FFE010E
:10280000ED5BFF4F608171818281938120E030E038
:102810004AEF54E40E941F02DC01CB01F8018083DF
:102820009183A283B383FE01FF96608171818281CF
:10283000938120E030E040E85FE30E947903882341
:102840002CF481E090E09EAF8DAF46C0FE01FF9674
:10285000608171818281938120E03FEF4FE757E4EF
:102860000E941903181664F5FE01ED5BFF4F6081AD
:1028700071818281938120E030E040E251E40E9446
:102880001F02DC01CB01BC01CD010E944900DC012B
:10289000CB019EAF8DAF0FC088EC90E09CAF8BAFAB
:1028A0008BAD9CAD0197F1F79CAF8BAF8DAD9EAD1D
:1028B00001979EAF8DAF8DAD9EAD009769F716C0A5
:1028C000FE01FF9660817181828193810E9449009F
:1028D000DC01CB019EAF8DAF8DAD9EAD9AAF89AFC0
:1028E00089AD9AAD0197F1F79AAF89AF81E069E0C0
:1028F0000E94A30D82E30E94E20980E090E0AAEF2B
:10290000B3E48DAB9EABAFABB8AF6DA97EA98FA979
:1029100098AD20E030E04AEF54E40E941F02DC0151
:10292000CB0189AB9AABABABBCAB69A97AA98BA93C
:102930009CA920E030E040E85FE30E94790388230F
:102940002CF481E090E098AB8FA73FC069A97AA9E9
:102950008BA99CA920E03FEF4FE757E40E941903A1
:1029600018164CF56DA97EA98FA998AD20E030E02E
:1029700040E251E40E941F02DC01CB01BC01CD0109
:102980000E944900DC01CB0198AB8FA70FC088ECF7
:1029900090E09EA78DA78DA59EA50197F1F79EA714
:1029A0008DA78FA598A9019798AB8FA78FA598A9F8
:1029B000009769F714C069A97AA98BA99CA90E94FC
:1029C0004900DC01CB0198AB8FA78FA598A99CA7E4
:1029D0008BA78BA59CA50197F1F79CA78BA781E0FE
:1029E00069E00E94A30D81E30E94E20980E090E08B
:1029F000AAEFB3E48FA398A7A9A7BAA76FA178A558
:102A000089A59AA520E030E04AEF54E40E941F0215
:102A1000DC01CB018BA39CA3ADA3BEA36BA17CA1C6
:102A20008DA19EA120E030E040E85FE30E947903A1
:102A300088232CF481E090E09AA389A33FC06BA186
:102A40007CA18DA19EA120E03FEF4FE757E40E94BB
:102A5000190318164CF56FA178A589A59AA520E051
:102A600030E040E251E40E941F02DC01CB01BC01D6
:102A7000CD010E944900DC01CB019AA389A30FC0BC
:102A800088EC90E098A38F8F8F8D98A10197F1F734
:102A900098A38F8F89A19AA101979AA389A389A14D
:102AA0009AA1009769F714C06BA17CA18DA19EA18A
:102AB0000E944900DC01CB019AA389A389A19AA1B4
:102AC0009E8F8D8F8D8D9E8D0197F1F79E8F8D8FAF
:102AD00081E00E940408FE01E759FF4F83E08083F4
:102AE000FE01ED59FF4F81E090E091838083FE016C
:102AF000E959FF4F1182108280E090E0AAEFB3E421
:102B0000898F9A8FAB8FBC8F698D7A8D8B8D9C8DC1
:102B100020E030E04AEF54E40E941F02DC01CB01C8
:102B20008D8B9E8BAF8BB88F6D897E898F89988DA9
:102B300020E030E040E85FE30E94790388232CF432
:102B400081E090E09C8B8B8B3FC06D897E898F8963
:102B5000988D20E03FEF4FE757E40E9419031816C5
:102B60004CF5698D7A8D8B8D9C8D20E030E040E2B4
:102B700051E40E941F02DC01CB01BC01CD010E9487
:102B80004900DC01CB019C8B8B8B0FC088EC90E063
:102B90009A8B898B89899A890197F1F79A8B898B0E
:102BA0008B899C8901979C8B8B8B8B899C89009747
:102BB00069F7DBCC6D897E898F89988D0E944900E9
:102BC000DC01CB019C8B8B8B8B899C89988B8F87AD
:102BD0008F8598890197F1F7988B8F87C6CC81E014
:102BE00063E041E00E94950E0E94581981E00E9426
:102BF000040884E890E00E947A0D81E060E00E9481
:102C0000A30D83E990E00E947A0D81E069E00E94C3
:102C1000A30DFE01E759FF4F8081992787FD90950D
:102C20000E94090E80E090E0AAEFB3E48B879C87B6
:102C3000AD87BE876B857C858D859E8520E030E0E5
:102C40004AEF54E40E941F02DC01CB018F83988776
:102C5000A987BA876F81788589859A8520E030E0D9
:102C600040E85FE30E94790388232CF481E090E040
:102C70009E838D833FC06F81788589859A8520E00A
:102C80003FEF4FE757E40E94190318164CF56B8588
:102C90007C858D859E8520E030E040E251E40E94F5
:102CA0001F02DC01CB01BC01CD010E944900DC0107
:102CB000CB019E838D830FC088EC90E09C838B8337
:102CC0008B819C810197F1F79C838B838D819E8101
:102CD00001979E838D838D819E81009769F714C033
:102CE0006F81788589859A850E944900DC01CB0136
:102CF0009E838D838D819E819A83898389819A8128
:102D00000197F1F79A83898381E063E040E00E94B4
:102D1000950EFE01ED59FF4F81E090E09183808395
:102D2000FE01E959FF4F118210821FCCDF93CF9330
:102D3000CDB7DEB763970FB6F894DEBF0FBECDBF39
:102D400080E80E9404088DE990E00E947A0D81E0FD
:102D500060E00E94A30D80EB90E00E947A0D0E943B
:102D60002C11882F90E09093410180934001809135
:102D70004001909141018F3F910589F3809140017D
:102D8000909141018130910509F00EC181E00E94CE
:102D900004088FEB90E00E947A0D1F8644C00E94C9
:102DA0002C11882F90E090934101809340018091F5
:102DB0004001909141018F3F910589F3809140013D
:102DC000909141018A30910540F5809140019091A8
:102DD00041010E94090E80913001282F30E080913E
:102DE000400190914101AC01249FC001259F900DAD
:102DF000349F900D1124982F80913C01890F80936E
:102E00003C01809130019AE0692F0E94811A8093E1
:102E100030018F858F5F8F8706C010923C018AE05A
:102E20008093300104C08F85823008F4B8CF80E0F1
:102E300090E0A8E4B3E48B879C87AD87BE876B8561
:102E40007C858D859E8520E030E04AEF54E40E9429
:102E50001F02DC01CB018F839887A987BA876F8116
:102E6000788589859A8520E030E040E85FE30E941C
:102E7000790388232CF481E090E09E838D833FC00A
:102E80006F81788589859A8520E03FEF4FE757E489
:102E90000E94190318164CF56B857C858D859E85DF
:102EA00020E030E040E251E40E941F02DC01CB014F
:102EB000BC01CD010E944900DC01CB019E838D83C2
:102EC0000FC088EC90E09C838B838B819C81019761
:102ED000F1F79C838B838D819E8101979E838D83E7
:102EE0008D819E81009769F714C06F8178858985EF
:102EF0009A850E944900DC01CB019E838D838D81E0
:102F00009E819A83898389819A810197F1F79A83B7
:102F1000898381E00E9404088FEB90E00E947A0D83
:102F20002EE331E042E159E180E0B9010E9455060B
:102F300080913C01282F30E080913E0190913F012B
:102F40002817390730F481E066E041E00E94950ED1
:102F500005C081E066E040E00E94950E0E942C11C1
:102F6000882F90E09093410180934001809140012F
:102F7000909141018E30910549F410923C018AE014
:102F80008093300181E00E9404080EC08FEF90E032
:102F900090934101809340018091400190914101C3
:102FA0008F3F910509F4B5CF809140019091410187
:102FB00082309105A1F581E00E94040887EC90E041
:102FC0000E947A0D22E431E081E065E0A9010E94CF
:102FD000F20F80914201882361F082E062E041E0DB
:102FE0000E94950E0E94581982E062E040E00E9423
:102FF000950E0E942C11882F90E0909341018093B0
:10300000400180914001909141018E30910539F04D
:1030100080914001909141018F3F910599F28091FB
:103020004001909141018330910509F08CC081E00D
:103030000E94040883ED90E00E947A0D81E060E038
:103040000E94A30D83EE90E00E947A0D0E942C1145
:10305000882F90E09093410180934001809140013E
:1030600090914101009709F455C0809140019091E1
:1030700041018530910508F04DC08091400190914B
:1030800041019B8B8A8B4A895B894230510509F14A
:103090008A899B898330910530F44A895B89413064
:1030A000510561F048C08A899B8983309105E1F020
:1030B0004A895B894430510511F13DC082E064E0EA
:1030C0000E9485108FEF90E0909341018093400122
:1030D00032C082E065E00E9485108FEF90E090930F
:1030E00041018093400127C082E066E00E94851084
:1030F0008FEF90E090934101809340011CC082E0EB
:1031000067E00E9485108FEF90E0909341018093DB
:10311000400111C080914001909141018E30910594
:1031200021F481E00E9404080EC08FEF90E090939C
:1031300041018093400180914001909141018F3F76
:10314000910509F483CF8091400190914101843031
:10315000910509F05EC081E00E94040883EF90E0D1
:103160000E947A0D0E942C11882F90E090934101CB
:103170008093400180914001909141018E309105F2
:1031800021F481E00E94040844C0809140019091A4
:103190004101009781F1809140019091410183307C
:1031A000910548F58091400190914101998B888B60
:1031B000488959894130510531F08889998982308F
:1031C000910569F01EC081E066E041E00E94950E25
:1031D0008FEF90E0909341018093400112C081E015
:1031E00066E040E00E94950E8FEF90E090934101E1
:1031F0008093400106C08FEF90E09093410180934F
:10320000400180914001909141018F3F910509F467
:10321000A9CF63960FB6F894DEBF0FBECDBFCF9196
:10322000DF910895DF93CF93CDB7DEB780913E0154
:1032300090913F01CC01A0E0B0E028E833E140E00C
:1032400050E0BC01CD010E94621ADC01CB01892F44
:103250009A2FAB2FBB2790933F0180933E01809123
:103260003E0190913F012AE030E0B9010E948D1AA1
:10327000CB0190933F0180933E0180E068E00E9483
:10328000A30D80913E0190913F010E94090E81E0C3
:1032900060E00E94A30D80913C01882F90E00E9485
:1032A000090E82E091E00E947A0DCF91DF9108959E
:1032B000DF93CF93CDB7DEB76D970FB6F894DEBF2F
:1032C0000FBECDBF1D8EF1C082E063E041E00E94E1
:1032D000950E80E090E0A8E4B2E4898F9A8FAB8FDE
:1032E000BC8F698D7A8D8B8D9C8D20E030E04AEF0C
:1032F00054E40E941F02DC01CB018D8B9E8BAF8BAF
:10330000B88F6D897E898F89988D20E030E040E804
:103310005FE30E94790388232CF481E090E09C8B8A
:103320008B8B3FC06D897E898F89988D20E03FEF20
:103330004FE757E40E94190318164CF5698D7A8DF2
:103340008B8D9C8D20E030E040E251E40E941F0212
:10335000DC01CB01BC01CD010E944900DC01CB01A5
:103360009C8B8B8B0FC088EC90E09A8B898B898922
:103370009A890197F1F79A8B898B8B899C890197A0
:103380009C8B8B8B8B899C89009769F714C06D8906
:103390007E898F89988D0E944900DC01CB019C8B2E
:1033A0008B8B8B899C89988B8F878F8598890197C8
:1033B000F1F7988B8F8782E063E040E00E94950EE2
:1033C00080E090E0A8E4B2E48B879C87AD87BE875D
:1033D0006B857C858D859E8520E030E04AEF54E446
:1033E0000E941F02DC01CB018F839887A987BA87CF
:1033F0006F81788589859A8520E030E040E85FE339
:103400000E94790388232CF481E090E09E838D83D1
:103410003FC06F81788589859A8520E03FEF4FE72F
:1034200057E40E94190318164CF56B857C858D8531
:103430009E8520E030E040E251E40E941F02DC0162
:10344000CB01BC01CD010E944900DC01CB019E8370
:103450008D830FC088EC90E09C838B838B819C8153
:103460000197F1F79C838B838D819E8101979E83C9
:103470008D838D819E81009769F714C06F81788557
:1034800089859A850E944900DC01CB019E838D834A
:103490008D819E819A83898389819A810197F1F731
:1034A0009A8389838D8D8F5F8D8F8D8D843108F404
:1034B0000BCF6D960FB6F894DEBF0FBECDBFCF9188
:1034C000DF910895629FD001739FF001829FE00D0C
:1034D000F11D649FE00DF11D929FF00D839FF00D93
:1034E000749FF00D659FF00D9927729FB00DE11D3F
:1034F000F91F639FB00DE11DF91FBD01CF0111241C
:103500000895991B79E004C0991F961708F0961B3F
:10351000881F7A95C9F780950895AA1BBB1B51E1B6
:1035200007C0AA1FBB1FA617B70710F0A61BB70B33
:10353000881F991F5A95A9F780959095BC01CD01D8
:1035400008952F923F924F925F926F927F928F9247
:103550009F92AF92BF92CF92DF92EF92FF920F9322
:103560001F93CF93DF93CDB7DEB7CA1BDB0B0FB62C
:10357000F894DEBF0FBECDBF09942A8839884888E9
:103580005F846E847D848C849B84AA84B984C8847F
:10359000DF80EE80FD800C811B81AA81B981CE0F76
:1035A000D11D0FB6F894DEBF0FBECDBFED0108955B
:0435B000F894FFCFBD
:1035B40057656C636F6D6520537200456E74657258
:1035C40020706173733A002020202053687574447E
:1035D4006F776E0020202020547279204167616942
:1035E4006E2100547269616C73203A2000312D41C0
:1035F4006972436F6E20322D536166654D6F6400AE
:10360400332D526F6F6D732020342D66616E0074FC
:10361400656D70203A20002053616665204D6F640B
:1036240065200028312920525F3120283329205277
:103634005F330028322920525F3220283429205257
:103644005F340046616E20312D4F4E20322D4F469F
:103654004600202A43202D20446F6E65202120003F
:1036640000000000000000000708090A0405060B1A
:103674000102030C0E000F0D0405060700010203EE
:023684000A003A
:00000001FF
