:100000000C942A000C9447000C9447000C94470071
:100010000C9447000C9447000C9447000C94470044
:100020000C9447000C9447000C9447000C94470034
:100030000C9466110C9447000C9447000C944700F4
:100040000C9447000C9447000C9447000C94470014
:100050000C94470011241FBECFE5D8E0DEBFCDBF12
:1000600010E0A0E6B0E0E8EEF4E202C005900D92E8
:10007000A237B107D9F710E0A2E7B0E001C01D92A6
:10008000A238B107E1F70E94DE110C9472120C94B1
:100090000000EF92FF920F931F937B018C0120E0F1
:1000A00030E040E05FE40E94490388238CF0C801FF
:1000B000B70120E030E040E05FE40E94C1010E940F
:1000C000A9039B01AC01205030404040504806C07D
:1000D000C801B7010E94A9039B01AC01B901CA0183
:1000E0001F910F91FF90EF900895A0E0B0E0EBE733
:1000F000F0E00C943B12DC012B01FA019C91923050
:1001000008F439C1EB018881823008F433C194309E
:1001100069F4843009F02FC111969C91119789815F
:10012000981709F428C1AAE6B0E025C1843009F483
:1001300021C18230A9F4923009F01DC19A01AD01AC
:1001400088E0EA010990AE01E90109929E0181501F
:10015000C1F7E201898111969C918923818308C1AD
:10016000923009F407C112962D903C901397EB0141
:100170008A819B811496AD90BD90CD90DC901797AD
:10018000EC80FD800E811F819101281B390BB90184
:1001900037FF04C066277727621B730B6032710537
:1001A0000CF061C0121613066CF537014801062EDB
:1001B00004C096948794779467940A94D2F721E0C8
:1001C00030E040E050E004C0220F331F441F551FB1
:1001D0006A95D2F721503040404050402E213F21B7
:1001E00040235123211531054105510521F021E01E
:1001F00030E040E050E079018A01E628F72808293C
:1002000019293CC0232BD1F1260E371E350146019A
:10021000062E04C096948794779467940A94D2F734
:1002200021E030E040E050E004C0220F331F441FC3
:10023000551F6A95D2F721503040404050402A2146
:100240003B214C215D21211531054105510521F04E
:1002500021E030E040E050E059016A01A628B728CB
:10026000C828D9280BC0821593052CF01C01AA249C
:10027000BB24650103C0EE24FF24870111969C91E5
:10028000D20111968C91981709F445C0992339F041
:10029000A80197012A193B094C095D0906C0A6016E
:1002A00095012E193F09400B510B57FD08C01182D3
:1002B0003382228224833583468357831DC081E0A5
:1002C00081833382228288279927DC01821B930B4A
:1002D000A40BB50B84839583A683B7830DC0220F2F
:1002E000331F441F551F24833583468357838281E0
:1002F000938101979383828324813581468157813D
:10030000DA01C9010197A109B1098F5F9F4FAF4F72
:10031000BF4328F30BC0918333822282EA0CFB1C7B
:100320000C1D1D1DE482F5820683178383E0808304
:10033000248135814681578157FF1AC0C901AA27F8
:1003400097FDA095BA2F81709070A070B0705695EF
:10035000479537952795822B932BA42BB52B848318
:100360009583A683B7838281938101969383828349
:10037000DF0101C0D201CD01CDB7DEB7E2E10C94BF
:100380005712A0E2B0E0E7ECF1E00C944712698369
:100390007A838B839C832D833E834F835887E9E048
:1003A000EE2EF12CEC0EFD1ECE010196B7010E943F
:1003B000D2048E010F5E1F4FCE010596B8010E9438
:1003C000D2048A8991E089278A8BC701B801AE01DE
:1003D000475E5F4F0E9475000E94FD03A096E6E015
:1003E0000C946312A0E2B0E0E8EFF1E00C94471245
:1003F00069837A838B839C832D833E834F835887C5
:10040000F9E0EF2EF12CEC0EFD1ECE010196B701A6
:100410000E94D2048E010F5E1F4FCE010596B801D7
:100420000E94D204C701B801AE01475E5F4F0E942F
:1004300075000E94FD03A096E6E00C946312A0E212
:10044000B0E0E5E2F2E00C943B1269837A838B839F
:100450009C832D833E834F835887CE010196BE0136
:10046000675F7F4F0E94D204CE010596BE016F5E8A
:100470007F4F0E94D2049985923088F0898982301A
:10048000C8F0943019F4823051F404C0843029F457
:10049000923081F48AE690E0C6C0923049F420E0C0
:1004A0009A858A89981321E02A87CE010996BBC0D4
:1004B000823049F420E09A858A89981321E02A8BBA
:1004C000CE014196B0C02D843E844F8458886D88FB
:1004D0007E888F88988CEE24FF248701AA24BB2471
:1004E000650140E050E060E070E0E0E0F0E0C10174
:1004F00081709070892BE9F0E60CF71C081D191D1E
:100500009A01AB012A0D3B1D4C1D5D1D80E090E062
:10051000A0E0B0E0E614F7040805190520F481E036
:1005200090E0A0E0B0E0BA01A901480F591F6A1F8E
:100530007B1FAA0CBB1CCC1CDD1C97FE08C081E0F5
:1005400090E0A0E0B0E0A82AB92ACA2ADB2A3196B6
:10055000E032F10549F0660C771C881C991C569412
:10056000479437942794C3CFFA85EA892B893C892D
:100570008B859C85280F391F2E5F3F4F17C0CA01FE
:1005800081709070892B61F016950795F794E79428
:1005900080E090E0A0E0B0E8E82AF92A0A2B1B2BC3
:1005A00076956795579547952F5F3F4F77FDE7CF36
:1005B0000CC0440F551F661F771F17FD4160EE0CDE
:1005C000FF1C001F111F21503040403090E05907A0
:1005D00090E0690790E4790760F32B8F3C8FDB0193
:1005E000CA018F779070A070B07080349105A1051A
:1005F000B10561F447FD0AC0E114F10401051105DC
:1006000029F0405C5F4F6F4F7F4F40781A8EFE1786
:1006100011F081E08A8F4D8F5E8F6F8F78A383E01A
:10062000898FCE0149960E94FD03A096E2E10C94C9
:100630005712A8E1B0E0EFE1F3E00C9447126983B0
:100640007A838B839C832D833E834F83588789E0F5
:10065000E82EF12CEC0EFD1ECE010196B7010E9492
:10066000D2048E010F5E1F4FCE010596B8010E9485
:10067000D2048985823040F08989823028F0C70110
:10068000B8010E944A0501C08FEF6896E6E00C941D
:100690006312A8E1B0E0EFE4F3E00C944712698341
:1006A0007A838B839C832D833E834F83588789E095
:1006B000E82EF12CEC0EFD1ECE010196B7010E9432
:1006C000D2048E010F5E1F4FCE010596B8010E9425
:1006D000D2048985823040F08989823028F0C701B0
:1006E000B8010E944A0501C08FEF6896E6E00C94BD
:1006F0006312A8E1B0E0EFE7F3E00C9447126983DE
:100700007A838B839C832D833E834F83588789E034
:10071000E82EF12CEC0EFD1ECE010196B7010E94D1
:10072000D2048E010F5E1F4FCE010596B8010E94C4
:10073000D2048985823040F08989823028F0C7014F
:10074000B8010E944A0501C081E06896E6E00C9479
:100750006312ACE0B0E0EFEAF3E00C944B12698373
:100760007A838B839C83CE010196BE016B5F7F4FA2
:100770000E94D2048D81823061F1823050F1843048
:1007800021F48E81882351F12EC02F81388537FDC9
:1007900020C06E812F3131051CF06623F9F023C093
:1007A0008EE190E0821B930B29853A854B855C8511
:1007B00004C056954795379527958A95D2F76623B5
:1007C000B1F050954095309521953F4F4F4F5F4F79
:1007D0000EC020E030E040E050E009C02FEF3FEFD6
:1007E0004FEF5FE704C020E030E040E050E8B9019F
:1007F000CA012C96E2E00C946712DF92EF92FF920E
:100800000F931F93FC01E480F58006811781D1804E
:100810008081823048F480E090E0A0E1B0E0E82AF6
:10082000F92A0A2B1B2BA5C0843009F49FC0823003
:1008300021F4EE24FF24870105C0E114F104010531
:10084000110519F4E0E0F0E096C0628173819FEF3A
:10085000623879070CF05BC022E83FEF261B370BAC
:100860002A3131052CF020E030E040E050E02AC091
:10087000B801A701022E04C0769567955795479554
:100880000A94D2F781E090E0A0E0B0E004C0880FC5
:10089000991FAA1FBB1F2A95D2F70197A109B10979
:1008A0008E219F21A023B1230097A105B10521F03E
:1008B00081E090E0A0E0B0E09A01AB01282B392B59
:1008C0004A2B5B2BDA01C9018F779070A070B07052
:1008D00080349105A105B10539F427FF09C0205CDA
:1008E0003F4F4F4F5F4F04C0215C3F4F4F4F5F4F13
:1008F000E0E0F0E02030A0E03A07A0E04A07A0E402
:100900005A0710F0E1E0F0E079018A0127C0603871
:10091000710564F5FB01E158FF4FD801C7018F77DE
:100920009070A070B07080349105A105B10539F4C4
:10093000E7FE0DC080E490E0A0E0B0E004C08FE3EB
:1009400090E0A0E0B0E0E80EF91E0A1F1B1F17FFA1
:1009500005C016950795F794E794319687E01695AC
:100960000795F794E7948A95D1F705C0EE24FF2404
:100970008701EFEFF0E06E2F679566276795902F60
:100980009F77D794DD24D7948E2F8695492F462BB9
:10099000582F5D29B701CA011F910F91FF90EF9069
:1009A000DF900895FC01DB01408151812281622F9B
:1009B0006F7770E0221F2227221F9381892F880FD3
:1009C000822B282F30E0991F9927991F11969C930D
:1009D000119721153105A9F54115510561057105DD
:1009E00011F482E037C082E89FEF13969C938E93B8
:1009F00012979A01AB0167E0220F331F441F551F66
:100A00006A95D1F783E08C930DC0220F331F441FEA
:100A1000551F12968D919C911397019713969C9355
:100A20008E931297203080E0380780E0480780E4FA
:100A3000580758F314962D933D934D935C93179755
:100A400008952F3F310579F4411551056105710570
:100A500019F484E08C93089564FF03C081E08C93C3
:100A600012C01C9210C02F57304013963C932E9307
:100A7000129783E08C9387E0440F551F661F771F02
:100A80008A95D1F7706414964D935D936D937C9322
:100A9000179708951F93DC01FB019C91923008F495
:100AA00047C08081823008F443C0943051F41196DD
:100AB0001C91843099F58181682F70E0611B710968
:100AC0003FC0843021F0923031F48230B9F181811D
:100AD000882389F12DC011961C9111978230F1F075
:100AE00081811817D9F412962D913C911397828128
:100AF00093818217930794F028173907BCF0149656
:100B00008D919D910D90BC91A02D248135814681C0
:100B10005781281739074A075B0718F4112341F05A
:100B20000AC082179307A407B50740F4112319F0F0
:100B300061E070E005C06FEF7FEF02C060E070E041
:100B4000CB011F910895DF93CF93CDB7DEB7AC975C
:100B50000FB6F894DEBF0FBECDBF8CA780EF8BA77A
:100B600081E060E040E00E94340C81E061E040E020
:100B70000E94340C9BA58CA589238BA780E06BA5D4
:100B80000E944D0D81E062E041E00E94340C80E063
:100B900090E0A0E0B0E48FA398A7A9A7BAA76FA19F
:100BA00078A589A59AA520E030E04AEF54E40E9498
:100BB0001F02DC01CB018BA39CA3ADA3BEA36BA141
:100BC0007CA18DA19EA120E030E040E85FE30E947F
:100BD000790388232CF481E090E09AA389A33FC095
:100BE0006BA17CA18DA19EA120E03FEF4FE757E4D0
:100BF0000E94190318164CF56FA178A589A59AA52E
:100C000020E030E040E251E40E941F02DC01CB0111
:100C1000BC01CD010E944900DC01CB019AA389A34C
:100C20000FC088EC90E098A38F8F8F8D98A10197CB
:100C3000F1F798A38F8F89A19AA101979AA389A30D
:100C400089A19AA1009769F714C06BA17CA18DA11D
:100C50009EA10E944900DC01CB019AA389A389A12E
:100C60009AA19E8F8D8F8D8D9E8D0197F1F79E8F0E
:100C70008D8F81E062E040E00E94340C8091720030
:100C8000882309F48CC080EF8BA78BA5982F9095B3
:100C90008CA589238BA78BA5982F9295907F80E0B8
:100CA000692F0E944D0D81E062E041E00E94340C0A
:100CB00080E090E0A0E0B0E4898F9A8FAB8FBC8F8A
:100CC000698D7A8D8B8D9C8D20E030E04AEF54E465
:100CD0000E941F02DC01CB018D8B9E8BAF8BB88FE6
:100CE0006D897E898F89988D20E030E040E85FE350
:100CF0000E94790388232CF481E090E09C8B8B8BFD
:100D00003FC06D897E898F89988D20E03FEF4FE746
:100D100057E40E94190318164CF5698D7A8D8B8D56
:100D20009C8D20E030E040E251E40E941F02DC0193
:100D3000CB01BC01CD010E944900DC01CB019C8BA1
:100D40008B8B0FC088EC90E09A8B898B89899A896C
:100D50000197F1F79A8B898B8B899C8901979C8BE2
:100D60008B8B8B899C89009769F714C06D897E896C
:100D70008F89988D0E944900DC01CB019C8B8B8B65
:100D80008B899C89988B8F878F8598890197F1F73C
:100D9000988B8F8781E062E040E00E94340C80E015
:100DA00090E0A0E0B0E48B879C87AD87BE876B8521
:100DB0007C858D859E8520E030E04AEF54E40E94DA
:100DC0001F02DC01CB018F839887A987BA876F81C7
:100DD000788589859A8520E030E040E85FE30E94CD
:100DE000790388232CF481E090E09E838D833FC0BB
:100DF0006F81788589859A8520E03FEF4FE757E43A
:100E00000E94190318164CF56B857C858D859E858F
:100E100020E030E040E251E40E941F02DC01CB01FF
:100E2000BC01CD010E944900DC01CB019E838D8372
:100E30000FC088EC90E09C838B838B819C81019711
:100E4000F1F79C838B838D819E8101979E838D8397
:100E50008D819E81009769F714C06F81788589859F
:100E60009A850E944900DC01CB019E838D838D8190
:100E70009E819A83898389819A810197F1F79A8368
:100E80008983AC960FB6F894DEBF0FBECDBFCF916D
:100E9000DF910895DF93CF9300D0CDB7DEB71A82EC
:100EA00081E060E040E00E94340C81E061E041E0DC
:100EB0000E94340C19821CC09E012E5F3F4F80E0BF
:100EC0006981A9010E94950D8A81282F30E08981CE
:100ED000882F90E0A90102C0440F551F8A95E2F7C0
:100EE000CA01982F8A81890F8A8389818F5F8983BC
:100EF0008981873008F38A810F900F90CF91DF911D
:100F00000895DF93CF93CDB7DEB7AC970FB6F894C3
:100F1000DEBF0FBECDBF8CA780EF8BA781E060E066
:100F200041E00E94340C81E061E040E00E94340C1A
:100F30009BA58CA589238BA780E06BA50E944D0DF6
:100F400081E062E041E00E94340C80E090E0A0E0AB
:100F5000B0E48FA398A7A9A7BAA76FA178A589A580
:100F60009AA520E030E04AEF54E40E941F02DC0121
:100F7000CB018BA39CA3ADA3BEA36BA17CA18DA130
:100F80009EA120E030E040E85FE30E9479038823DF
:100F90002CF481E090E09AA389A33FC06BA17CA1CF
:100FA0008DA19EA120E03FEF4FE757E40E94190377
:100FB00018164CF56FA178A589A59AA520E030E018
:100FC00040E251E40E941F02DC01CB01BC01CD01D3
:100FD0000E944900DC01CB019AA389A30FC088ECD1
:100FE00090E098A38F8F8F8D98A10197F1F798A328
:100FF0008F8F89A19AA101979AA389A389A19AA108
:10100000009769F714C06BA17CA18DA19EA10E94DD
:101010004900DC01CB019AA389A389A19AA19E8FE3
:101020008D8F8D8D9E8D0197F1F79E8F8D8F81E035
:1010300062E040E00E94340C80EF8BA78BA5982FD4
:1010400090958CA589238BA78BA5982F9295907F3F
:1010500080E0692F0E944D0D81E062E041E00E9436
:10106000340C80E090E0A0E0B0E4898F9A8FAB8FE1
:10107000BC8F698D7A8D8B8D9C8D20E030E04AEF9E
:1010800054E40E941F02DC01CB018D8B9E8BAF8B41
:10109000B88F6D897E898F89988D20E030E040E897
:1010A0005FE30E94790388232CF481E090E09C8B1D
:1010B0008B8B3FC06D897E898F89988D20E03FEFB3
:1010C0004FE757E40E94190318164CF5698D7A8D85
:1010D0008B8D9C8D20E030E040E251E40E941F02A5
:1010E000DC01CB01BC01CD010E944900DC01CB0138
:1010F0009C8B8B8B0FC088EC90E09A8B898B8989B5
:101100009A890197F1F79A8B898B8B899C89019732
:101110009C8B8B8B8B899C89009769F714C06D8998
:101120007E898F89988D0E944900DC01CB019C8BC0
:101130008B8B8B899C89988B8F878F85988901975A
:10114000F1F7988B8F8781E062E040E00E94340CD9
:1011500080E090E0A0E0B0E48B879C87AD87BE87FD
:101160006B857C858D859E8520E030E04AEF54E4D8
:101170000E941F02DC01CB018F839887A987BA8761
:101180006F81788589859A8520E030E040E85FE3CB
:101190000E94790388232CF481E090E09E838D8364
:1011A0003FC06F81788589859A8520E03FEF4FE7C2
:1011B00057E40E94190318164CF56B857C858D85C4
:1011C0009E8520E030E040E251E40E941F02DC01F5
:1011D000CB01BC01CD010E944900DC01CB019E8303
:1011E0008D830FC088EC90E09C838B838B819C81E6
:1011F0000197F1F79C838B838D819E8101979E835C
:101200008D838D819E81009769F714C06F817885E9
:1012100089859A850E944900DC01CB019E838D83DC
:101220008D819E819A83898389819A810197F1F7C3
:101230009A83898386E00E94A305AC960FB6F89442
:10124000DEBF0FBECDBFCF91DF910895DF93CF9367
:10125000CDB7DEB7E8970FB6F894DEBF0FBECDBFAF
:1012600080E090E0A0E2B2E48DAB9EABAFABB8AF54
:101270006DA97EA98FA998AD20E030E04AEF54E433
:101280000E941F02DC01CB0189AB9AABABABBCABBC
:1012900069A97AA98BA99CA920E030E040E85FE326
:1012A0000E94790388232CF481E090E098AB8FA70B
:1012B0003FC069A97AA98BA99CA920E03FEF4FE71D
:1012C00057E40E94190318164CF56DA97EA98FA941
:1012D00098AD20E030E040E251E40E941F02DC01C2
:1012E000CB01BC01CD010E944900DC01CB0198ABD0
:1012F0008FA70FC088EC90E09EA78DA78DA59EA517
:101300000197F1F79EA78DA78FA598A9019798AB94
:101310008FA78FA598A9009769F714C069A97AA922
:101320008BA99CA90E944900DC01CB0198AB8FA737
:101330008FA598A99CA78BA78BA59CA50197F1F7D2
:101340009CA78BA780E20E94A30580E20E94A305D0
:1013500080E80E94A30580E090E0A0E8BFE38FA3AF
:1013600098A7A9A7BAA76FA178A589A59AA520E0F3
:1013700030E04AEF54E40E941F02DC01CB018BA352
:101380009CA3ADA3BEA36BA17CA18DA19EA120E0D7
:1013900030E040E85FE30E94790388232CF481E089
:1013A00090E09AA389A33FC06BA17CA18DA19EA1CF
:1013B00020E03FEF4FE757E40E94190318164CF561
:1013C0006FA178A589A59AA520E030E040E251E41C
:1013D0000E941F02DC01CB01BC01CD010E9449002B
:1013E000DC01CB019AA389A30FC088EC90E098A3FD
:1013F0008F8F8F8D98A10197F1F798A38F8F89A177
:101400009AA101979AA389A389A19AA1009769F744
:1014100014C06BA17CA18DA19EA10E944900DC019A
:10142000CB019AA389A389A19AA19E8F8D8F8D8DBF
:101430009E8D0197F1F79E8F8D8F80E00E94A3050E
:1014400080EC0E94A30580E090E0A0E8BFE3898FD4
:101450009A8FAB8FBC8F698D7A8D8B8D9C8D20E0A0
:1014600030E04AEF54E40E941F02DC01CB018D8B77
:101470009E8BAF8BB88F6D897E898F89988D20E088
:1014800030E040E85FE30E94790388232CF481E098
:1014900090E09C8B8B8B3FC06D897E898F89988D66
:1014A00020E03FEF4FE757E40E94190318164CF570
:1014B000698D7A8D8B8D9C8D20E030E040E251E487
:1014C0000E941F02DC01CB01BC01CD010E9449003A
:1014D000DC01CB019C8B8B8B0FC088EC90E09A8B4E
:1014E000898B89899A890197F1F79A8B898B8B89E6
:1014F0009C8901979C8B8B8B8B899C89009769F7C2
:1015000014C06D897E898F89988D0E944900DC0105
:10151000CB019C8B8B8B8B899C89988B8F878F853C
:1015200098890197F1F7988B8F8780E00E94A30537
:1015300080E10E94A30580E090E0A0E0B0E48B870A
:101540009C87AD87BE876B857C858D859E8520E0D9
:1015500030E04AEF54E40E941F02DC01CB018F838C
:101560009887A987BA876F81788589859A8520E0D1
:1015700030E040E85FE30E94790388232CF481E0A7
:1015800090E09E838D833FC06F81788589859A85A1
:1015900020E03FEF4FE757E40E94190318164CF57F
:1015A0006B857C858D859E8520E030E040E251E4AE
:1015B0000E941F02DC01CB01BC01CD010E94490049
:1015C000DC01CB019E838D830FC088EC90E09C836F
:1015D0008B838B819C810197F1F79C838B838D8119
:1015E0009E8101979E838D838D819E81009769F7EF
:1015F00014C06F81788589859A850E944900DC0135
:10160000CB019E838D838D819E819A83898389817D
:101610009A810197F1F79A83898381E08093720020
:10162000E8960FB6F894DEBF0FBECDBFCF91DF9125
:101630000895DF93CF9300D00F92CDB7DEB79B8391
:101640008A8319820EC08981282F30E08A819B818C
:10165000FC01E20FF31F80810E94810789818F5F67
:1016600089838981282F30E08A819B81FC01E20FE8
:10167000F31F8081882339F70F900F900F90CF913F
:10168000DF910895DF93CF9300D00F92CDB7DEB7EF
:101690008A836B838A81882351F48B81803120F087
:1016A0008B81805C898309C08B81898306C08A8194
:1016B000813019F48B81805C8983898180580E94F4
:1016C000A3050F900F900F90CF91DF910895DF93B6
:1016D000CF93CDB7DEB727970FB6F894DEBF0FBE16
:1016E000CDBF9C838B836D834E832F831A828D8124
:1016F000882F90E0880F991F880F991F880F991FD6
:101700008A838A81805C0E94A30519820EC0898128
:10171000282F30E08B819C81FC01E20FF31F808138
:101720000E94810789818F5F89838981883078F35E
:101730008E816F810E94420B8D810E9481072796C6
:101740000FB6F894DEBF0FBECDBFCF91DF910895E5
:10175000DF93CF9300D000D0CDB7DEB79C838B83CF
:101760008B819C810E94DF0B8A838A8189831DC0C3
:10177000898181500E94090C9C018B819C81B90157
:101780000E942712CB01805D0E94810789818150D0
:101790000E94090C9C018B819C81B9010E94271237
:1017A0009C838B838981815089838981181604F3F6
:1017B0000F900F900F900F90CF91DF910895DF93CE
:1017C000CF9300D000D0CDB7DEB79B838A83198238
:1017D0008A819B81009779F41C8213C08A819B8146
:1017E0002AE030E0B9010E942712CB019B838A8353
:1017F00089818F5F89838A819B81009779F78981AD
:101800008C838C810F900F900F900F90CF91DF9170
:101810000895DF93CF9300D000D0CDB7DEB78C838F
:1018200081E090E09A8389831B8211C089819A812B
:101830009C01220F331FC901880F991F880F991F20
:10184000820F931F9A8389838B818F5F8B839B8108
:101850008C81981758F389819A810F900F900F907F
:101860000F90CF91DF910895DF93CF93CDB7DEB77F
:1018700028970FB6F894DEBF0FBECDBF8A836B8367
:101880004C8319828C81813009F079C08B8188303A
:1018900008F072C08A81282F30E038872F838F812B
:1018A00098858130910549F12F81388522303105A5
:1018B0002CF48F819885009761F05BC02F8138856B
:1018C0002230310571F18F81988583309105E9F1DE
:1018D00050C0ABE3B0E0EBE3F0E08081482F8B81B8
:1018E000282F30E081E090E0022E02C0880F991F7F
:1018F0000A94E2F7842B8C93C6C0A8E3B0E0E8E337
:10190000F0E08081482F8B81282F30E081E090E04B
:10191000022E02C0880F991F0A94E2F7842B8C9341
:10192000B2C0A5E3B0E0E5E3F0E08081482F8B8111
:10193000282F30E081E090E0022E02C0880F991F2E
:101940000A94E2F7842B8C939EC0A2E3B0E0E2E31A
:10195000F0E08081482F8B81282F30E081E090E0FB
:10196000022E02C0880F991F0A94E2F7842B8C93F1
:101970008AC081E0898387C081E0898384C08C81AB
:10198000882309F07EC08B81883008F077C08A8177
:10199000282F30E03E832D838D819E8181309105FB
:1019A00059F12D813E81223031052CF48D819E81AB
:1019B000009769F060C02D813E812230310589F1A8
:1019C0008D819E818330910509F440C054C0ABE302
:1019D000B0E0EBE3F0E08081482F8B81282F30E0EE
:1019E00081E090E0022E02C0880F991F0A94E2F76E
:1019F000809584238C9347C0A8E3B0E0E8E3F0E04F
:101A00008081482F8B81282F30E081E090E0022EEA
:101A100002C0880F991F0A94E2F7809584238C9363
:101A200032C0A5E3B0E0E5E3F0E08081482F8B8190
:101A3000282F30E081E090E0022E02C0880F991F2D
:101A40000A94E2F7809584238C931DC0A2E3B0E052
:101A5000E2E3F0E08081482F8B81282F30E081E0A5
:101A600090E0022E02C0880F991F0A94E2F7809539
:101A700084238C9308C081E0898305C081E0898339
:101A800002C081E08983898128960FB6F894DEBF71
:101A90000FBECDBFCF91DF910895DF93CF9300D0DC
:101AA00000D00F92CDB7DEB78A836B8319828A810B
:101AB000282F30E03D832C838C819D8181309105DE
:101AC000D1F02C813D81223031052CF48C819D8117
:101AD000009761F01FC02C813D812230310581F0DB
:101AE0008C819D818330910581F014C0EBE3F0E09F
:101AF0008B81808311C0E8E3F0E08B8180830CC090
:101B0000E5E3F0E08B81808307C0E2E3F0E08B81C6
:101B1000808302C081E0898389810F900F900F90AC
:101B20000F900F90CF91DF910895DF93CF93CDB7B2
:101B3000DEB727970FB6F894DEBF0FBECDBF8A83FE
:101B40006B835D834C8319828B81883008F074C06D
:101B50008A81282F30E03F832E834E815F81413080
:101B6000510559F18E819F818230910534F42E8187
:101B70003F812115310569F05CC04E815F814230A3
:101B8000510579F18E819F818330910509F43DC023
:101B900050C0E9E3F0E08081282F30E08B81882F6E
:101BA00090E0A90102C0559547958A95E2F7CA01D0
:101BB0008170EC81FD81808341C0E6E3F0E08081AB
:101BC000282F30E08B81882F90E0A90102C0559525
:101BD00047958A95E2F7CA018170EC81FD81808387
:101BE0002DC0E3E3F0E08081282F30E08B81882F47
:101BF00090E0A90102C0559547958A95E2F7CA0180
:101C00008170EC81FD81808319C0E0E3F0E0808188
:101C1000282F30E08B81882F90E0A90102C05595D4
:101C200047958A95E2F7CA018170EC81FD81808336
:101C300005C081E0898302C081E08983898127967C
:101C40000FB6F894DEBF0FBECDBFCF91DF910895E0
:101C5000DF93CF9300D000D00F92CDB7DEB78A8349
:101C60006B8319828B81883008F072C08A81282F9B
:101C700030E03D832C838C819D818130910549F139
:101C80002C813D81223031052CF48C819D8100977F
:101C900061F05BC02C813D812230310571F18C8176
:101CA0009D8183309105E9F150C0ABE3B0E0EBE3F7
:101CB000F0E08081482F8B81282F30E081E090E098
:101CC000022E02C0880F991F0A94E2F784278C9392
:101CD00041C0A8E3B0E0E8E3F0E08081482F8B81C9
:101CE000282F30E081E090E0022E02C0880F991F7B
:101CF0000A94E2F784278C932DC0A5E3B0E0E5E3D6
:101D0000F0E08081482F8B81282F30E081E090E047
:101D1000022E02C0880F991F0A94E2F784278C9341
:101D200019C0A2E3B0E0E2E3F0E08081482F8B81AC
:101D3000282F30E081E090E0022E02C0880F991F2A
:101D40000A94E2F784278C9305C081E0898302C05E
:101D500081E0898389810F900F900F900F900F90F1
:101D6000CF91DF910895DF93CF9300D000D0CDB70E
:101D7000DEB78A837C836B83198289810F900F90F1
:101D80000F900F90CF91DF910895DF93CF9300D004
:101D900000D00F92CDB7DEB79B838A837D836C839F
:101DA000198289810F900F900F900F900F90CF9113
:101DB000DF910895DF93CF93CDB7DEB7AFE5B0E005
:101DC000EFE5F0E0808180688C93CF91DF910895FA
:101DD000DF93CF93CDB7DEB7AFE5B0E0EFE5F0E04E
:101DE00080818F778C93CF91DF910895DF93CF938C
:101DF000CDB7DEB7EAE3F0E084E08083E7E3F0E02C
:101E000080EA8083E4E3F0E01082E1E3F0E0108216
:101E1000EBE3F0E01082E8E3F0E080E18083E5E3CB
:101E2000F0E01082E2E3F0E01082CF91DF910895BC
:101E3000DF93CF93CDB7DEB7ADE2B0E0EDE2F0E0F7
:101E4000808180618C93ADE2B0E0EDE2F0E08081D2
:101E50008F7D8C93ADE2B0E0EDE2F0E08081837F96
:101E60008C93ADE2B0E0EDE2F0E080818C93ADE2E6
:101E7000B0E0EDE2F0E080818C7F8C93AEE2B0E0E8
:101E8000EEE2F0E080818E7F8C93ADE2B0E0EDE297
:101E9000F0E0808181608C93ADE2B0E0EDE2F0E0B3
:101EA000808180648C93CF91DF910895DF93CF93ED
:101EB000CDB7DEB7ADE2B0E0EDE2F0E080818F7E3D
:101EC0008C93ADE2B0E0EDE2F0E0808180648C9331
:101ED000CF91DF910895DF93CF9300D000D000D051
:101EE000CDB7DEB78E831D8219821A821B821C82B7
:101EF000809173008823A9F581E080937300EFE25D
:101F0000F0E08E8180830BC089819A81AB81BC8196
:101F10000196A11DB11D89839A83AB83BC83EEE238
:101F2000F0E08081882364F089819A81AB81BC8153
:101F3000803221EA920727E0A20720E0B20720F3CF
:101F400089819A81AB81BC81803221EA920727E0A6
:101F5000A20720E0B20711F481E08D831092730094
:101F600002C083E08D838D8126960FB6F894DEBF84
:101F70000FBECDBFCF91DF910895DF93CF93CDB743
:101F8000DEB728970FB6F894DEBF0FBECDBF8E83A5
:101F900078876F831D8219821A821B821C828F812F
:101FA0009885009709F443C0809173008823E1F578
:101FB00081E080937300EFE2F0E08E8180830BC0BC
:101FC00089819A81AB81BC810196A11DB11D898354
:101FD0009A83AB83BC83EEE2F0E08081882364F0D7
:101FE00089819A81AB81BC81803221EA920727E006
:101FF000A20720E0B20720F389819A81AB81BC81DE
:10200000803221EA920727E0A20720E0B20719F404
:1020100081E08D8306C0EFE2F0E08081EF81F885FA
:1020200080831092730005C083E08D8302C082E03C
:102030008D838D8128960FB6F894DEBF0FBECDBF7D
:10204000CF91DF910895DF93CF93CDB7DEB7279778
:102050000FB6F894DEBF0FBECDBF9F838E831D8267
:1020600019821A821B821C828E819F810097B9F18E
:1020700080917300882381F581E080937300EFE203
:10208000F0E08FEF8083EEE2F0E08081882364F05F
:1020900089819A81AB81BC81803221EA920727E055
:1020A000A20720E0B20778F389819A81AB81BC81D5
:1020B000803221EA920727E0A20720E0B20719F454
:1020C00081E08D8306C0EFE2F0E08081EE81FF8148
:1020D00080831092730005C083E08D8302C082E08C
:1020E0008D838D8127960FB6F894DEBF0FBECDBFCE
:1020F000CF91DF910895DF93CF93CDB7DEB72797C8
:102100000FB6F894DEBF0FBECDBF9C838B837E835A
:102110006D834F831A8219828D819E81009709F108
:102120008B819C810097E9F017C08981282F30E0CE
:102130008B819C81FC01E20FF31F40818981282F54
:1021400030E08D819E81280F391F842FB9010E94B4
:10215000BD0F89818F5F898399818F81981728F3BB
:1021600002C082E08A838A8127960FB6F894DEBF88
:102170000FBECDBFCF91DF910895DF93CF9300D0F5
:1021800000D000D0CDB7DEB78A837C836B835E83BB
:102190004D8319828B819C81009741F18D819E81B5
:1021A000009721F1809173008823E9F481E0809306
:1021B000730010927F008D819E81909375008093B3
:1021C00074008B819C819093790080937800ADE2BC
:1021D000B0E0EDE2F0E0808180688C93EFE2F0E027
:1021E0008A81808305C083E0898302C082E089837D
:1021F000898126960FB6F894DEBF0FBECDBFCF9172
:10220000DF910895DF93CF93CDB7DEB728970FB650
:10221000F894DEBF0FBECDBF9B838A837D836C8322
:102220004E8338872F8319828C819D81009709F412
:1022300041C08A819B810097E9F18F819885009741
:10224000C9F180917300882391F581E08093730038
:1022500081E080937F008F819885909377008093B1
:1022600076008A819B8190937C0080937B008C8197
:102270009D8190937E0080937D008E81809380006D
:10228000ADE2B0E0EDE2F0E0808180688C931092E6
:102290007A00AFE2B0E080917A00282F30E08A81A6
:1022A0009B81FC01E20FF31F80818C9305C083E0CA
:1022B000898302C082E08983898128960FB6F894C9
:1022C000DEBF0FBECDBFCF91DF9108951F920F9259
:1022D0000FB60F9211242F933F934F935F936F93F9
:1022E0007F938F939F93AF93BF93EF93FF93DF936E
:1022F000CF93CDB7DEB780917F00882381F4A09182
:102300007800B0917900EFE2F0E080818C93E09169
:102310007400F09175000995109273003CC0809193
:102320007F008130C1F520917D0030917E00809149
:102330007A00882F90E0D901A80FB91FEFE2F0E0F2
:1023400080818C9380917A008F5F80937A00909146
:102350007A0080918000981779F410927300ADE2B2
:10236000B0E0EDE2F0E080818F778C93E091760031
:10237000F091770009950FC0AFE2B0E020917B00AB
:1023800030917C0080917A00882F90E0F901E80F6D
:10239000F91F80818C93CF91DF91FF91EF91BF91D5
:1023A000AF919F918F917F916F915F914F913F91ED
:1023B0002F910F900FBE0F901F901895DF93CF9322
:1023C000CDB7DEB769970FB6F894DEBF0FBECDBFAD
:1023D0000E94F60E0E94DA0E0E94180FCE0101969E
:1023E0009E8B8D8BE0E6F0E0F88FEF8BFAE0F98FB3
:1023F000EF89F88D00808F89988D0196988F8F8B4B
:10240000ED89FE8900828D899E8901969E8B8D8B38
:10241000998D9150998FE98DEE2351F79E01255F9B
:102420003F4FEBE1F2E1CE010196B9014AE09F0195
:102430000E940211FFCFDF93CF93CDB7DEB780E0CC
:1024400062E041E00E94340CCF91DF910895AA1B15
:10245000BB1B51E107C0AA1FBB1FA617B70710F08F
:10246000A61BB70B881F991F5A95A9F780959095C1
:10247000BC01CD0108952F923F924F925F926F92CF
:102480007F928F929F92AF92BF92CF92DF92EF9204
:10249000FF920F931F93CF93DF93CDB7DEB7CA1B85
:1024A000DB0B0FB6F894DEBF0FBECDBF09942A88B0
:1024B000398848885F846E847D848C849B84AA8458
:1024C000B984C884DF80EE80FD800C811B81AA81E5
:1024D000B981CE0FD11D0FB6F894DEBF0FBECDBFB0
:0824E000ED010895F894FFCF0F
:1024E8003132333435363738390000000000000007
:0224F8000000E2
:00000001FF
