:100000000C942A000C94E8140C9415150C944215C9
:100010000C94A8270C947B270C944E270C94C7268D
:100020000C94F4260C9421270C946D260C949A269B
:100030000C9447000C9447000C9447000C94470024
:100040000C94C9080C9447000C9447000C9447008A
:100050000C94470011241FBECFE5D8E0DEBFCDBF12
:1000600013E0A0E6B0E0EEEEF9E702C005900D92D5
:10007000A830B107D9F713E0A8E0B3E001C01D92A2
:10008000A533B107E1F70E9452280C94F53C0C947B
:100090000000EF92FF920F931F937B018C0120E0F1
:1000A00030E040E05FE40E94F50388238CF0C80153
:1000B000B70120E030E040E05FE40E94C1010E940F
:1000C00055049B01AC01205030404040504806C0D0
:1000D000C801B7010E9455049B01AC01B901CA01D6
:1000E0001F910F91FF90EF900895A0E0B0E0EBE733
:1000F000F0E00C94BE3CDC012B01FA019C919230A3
:1001000008F439C1EB018881823008F433C194309E
:1001100069F4843009F02FC111969C91119789815F
:10012000981709F428C1A7ECB1E025C1843009F47F
:1001300021C18230A9F4923009F01DC19A01AD01AC
:1001400088E0EA010990AE01E90109929E0181501F
:10015000C1F7E201898111969C918923818308C1AD
:10016000923009F407C112962D903C901397EB0141
:100170008A819B811496AD90BD90CD90DC901797AD
:10018000EC80FD800E811F819101281B390BB90184
:1001900037FF04C066277727621B730B6032710537
:1001A0000CF061C0121613066CF537014801062EDB
:1001B00004C096948794779467940A94D2F721E0C8
:1001C00030E040E050E004C0220F331F441F551FB1
:1001D0006A95D2F721503040404050402E213F21B7
:1001E00040235123211531054105510521F021E01E
:1001F00030E040E050E079018A01E628F72808293C
:1002000019293CC0232BD1F1260E371E350146019A
:10021000062E04C096948794779467940A94D2F734
:1002200021E030E040E050E004C0220F331F441FC3
:10023000551F6A95D2F721503040404050402A2146
:100240003B214C215D21211531054105510521F04E
:1002500021E030E040E050E059016A01A628B728CB
:10026000C828D9280BC0821593052CF01C01AA249C
:10027000BB24650103C0EE24FF24870111969C91E5
:10028000D20111968C91981709F445C0992339F041
:10029000A80197012A193B094C095D0906C0A6016E
:1002A00095012E193F09400B510B57FD08C01182D3
:1002B0003382228224833583468357831DC081E0A5
:1002C00081833382228288279927DC01821B930B4A
:1002D000A40BB50B84839583A683B7830DC0220F2F
:1002E000331F441F551F24833583468357838281E0
:1002F000938101979383828324813581468157813D
:10030000DA01C9010197A109B1098F5F9F4FAF4F72
:10031000BF4328F30BC0918333822282EA0CFB1C7B
:100320000C1D1D1DE482F5820683178383E0808304
:10033000248135814681578157FF1AC0C901AA27F8
:1003400097FDA095BA2F81709070A070B0705695EF
:10035000479537952795822B932BA42BB52B848318
:100360009583A683B7838281938101969383828349
:10037000DF0101C0D201CD01CDB7DEB7E2E10C94BF
:10038000DA3CA0E2B0E0E7ECF1E00C94CA3C69830F
:100390007A838B839C832D833E834F835887E9E048
:1003A000EE2EF12CEC0EFD1ECE010196B7010E943F
:1003B00046068E010F5E1F4FCE010596B8010E94C2
:1003C00046068A8991E089278A8BC701B801AE0168
:1003D000475E5F4F0E9475000E947105A096E6E09F
:1003E0000C94E63CA0E2B0E0E8EFF1E00C94CA3CEB
:1003F00069837A838B839C832D833E834F835887C5
:10040000F9E0EF2EF12CEC0EFD1ECE010196B701A6
:100410000E9446068E010F5E1F4FCE010596B80161
:100420000E944606C701B801AE01475E5F4F0E94B9
:1004300075000E947105A096E6E00C94E63CA0E2EF
:10044000B0E0E5E2F2E00C94BE3C69837A838B83F2
:100450009C832D833E834F835887CE010196BE0136
:10046000675F7F4F0E944606CE010596BE016F5E14
:100470007F4F0E9446069985923088F089898230A4
:10048000C8F0943019F4823051F404C0843029F457
:10049000923081F487EC91E0C6C0923049F420E0BC
:1004A0009A858A89981321E02A87CE010996BBC0D4
:1004B000823049F420E09A858A89981321E02A8BBA
:1004C000CE014196B0C02D843E844F8458886D88FB
:1004D0007E888F88988CEE24FF248701AA24BB2471
:1004E000650140E050E060E070E0E0E0F0E0C10174
:1004F00081709070892BE9F0E60CF71C081D191D1E
:100500009A01AB012A0D3B1D4C1D5D1D80E090E062
:10051000A0E0B0E0E614F7040805190520F481E036
:1005200090E0A0E0B0E0BA01A901480F591F6A1F8E
:100530007B1FAA0CBB1CCC1CDD1C97FE08C081E0F5
:1005400090E0A0E0B0E0A82AB92ACA2ADB2A3196B6
:10055000E032F10549F0660C771C881C991C569412
:10056000479437942794C3CFFA85EA892B893C892D
:100570008B859C85280F391F2E5F3F4F17C0CA01FE
:1005800081709070892B61F016950795F794E79428
:1005900080E090E0A0E0B0E8E82AF92A0A2B1B2BC3
:1005A00076956795579547952F5F3F4F77FDE7CF36
:1005B0000CC0440F551F661F771F17FD4160EE0CDE
:1005C000FF1C001F111F21503040403090E05907A0
:1005D00090E0690790E4790760F32B8F3C8FDB0193
:1005E000CA018F779070A070B07080349105A1051A
:1005F000B10561F447FD0AC0E114F10401051105DC
:1006000029F0405C5F4F6F4F7F4F40781A8EFE1786
:1006100011F081E08A8F4D8F5E8F6F8F78A383E01A
:10062000898FCE0149960E947105A096E2E10C9453
:10063000DA3CA8E1B0E0EFE1F3E00C94C63C69835A
:100640007A838B839C832D833E834F835887B9E0C5
:10065000EB2EF12CEC0EFD1ECE010196B7010E948F
:1006600046068E010F5E1F4FCE010596B8010E940F
:1006700046062985223008F47EC03989323010F4CC
:10068000B8017CC08A859A8989278A87243011F02D
:10069000223031F4231709F06EC067EC71E06EC0B0
:1006A000343039F41D861E861F86188A1C861B86E8
:1006B00004C0323021F484E08987B7015FC02B8504
:1006C0003C858B899C89281B390B3C872B87ED84C3
:1006D000FE840F851889AD88BE88CF88D88CEA142F
:1006E000FB040C051D0540F4EE0CFF1C001F111F40
:1006F000215030403C872B8720E030E040E050E044
:1007000080E090E0A0E0B0E460E070E0EA14FB0478
:100710000C051D0540F0282B392B4A2B5B2BEA18C2
:10072000FB080C091D09B695A79597958795EE0CC2
:10073000FF1C001F111F6F5F7F4F6F31710531F775
:10074000DA01C9018F779070A070B0708034910584
:10075000A105B10561F427FD0AC0E114F10401050A
:10076000110529F0205C3F4F4F4F5F4F20782D87B8
:100770003E874F87588BBE01675F7F4FCB010E943A
:1007800071056896EAE00C94E23CA8E1B0E0EBEC7D
:10079000F3E00C94CA3C69837A838B839C832D831A
:1007A0003E834F83588789E0E82EF12CEC0EFD1E26
:1007B000CE010196B7010E9446068E010F5E1F4FC3
:1007C000CE010596B8010E9446068985823040F028
:1007D0008989823028F0C701B8010E94BE0601C095
:1007E0008FEF6896E6E00C94E63CA8E1B0E0EBEF12
:1007F000F3E00C94CA3C69837A838B839C832D83BA
:100800003E834F83588789E0E82EF12CEC0EFD1EC5
:10081000CE010196B7010E9446068E010F5E1F4F62
:10082000CE010596B8010E9446068985823040F0C7
:100830008989823028F0C701B8010E94BE0601C034
:100840008FEF6896E6E00C94E63CA8E1B0E0EBE2BE
:10085000F4E00C94CA3C69837A838B839C832D8358
:100860003E834F83588789E0E82EF12CEC0EFD1E65
:10087000CE010196B7010E9446068E010F5E1F4F02
:10088000CE010596B8010E9446068985823040F067
:100890008989823028F0C701B8010E94BE0601C0D4
:1008A00081E06896E6E00C94E63CACE0B0E0EBE575
:1008B000F4E00C94CE3C69837A838B839C83CE01D5
:1008C0000196BE016B5F7F4F0E9446068D8182308C
:1008D00061F1823050F1843021F48E81882351F10E
:1008E0002EC02F81388537FD20C06E812F31310514
:1008F0001CF06623F9F023C08EE190E0821B930B7D
:1009000029853A854B855C8504C056954795379572
:1009100027958A95D2F76623B1F05095409530958A
:1009200021953F4F4F4F5F4F0EC020E030E040E039
:1009300050E009C02FEF3FEF4FEF5FE704C020E02A
:1009400030E040E050E8B901CA012C96E2E00C9496
:10095000EA3CA8E0B0E0EFEAF4E00C94C63C7B018E
:100960008C01611571058105910519F482E0898377
:1009700060C083E089838EE1C82ED12CDC82CB82DB
:10098000ED82FE820F831887C801B7010E942205FD
:10099000FC013197F7FF3BC0222733272E1B3F0B6B
:1009A00057016801022E04C0D694C794B794A79447
:1009B0000A94D2F740E050E060E070E081E090E01F
:1009C000A0E0B0E004C0880F991FAA1FBB1F2A95A2
:1009D000D2F70197A109B1098E219F21A023B1234C
:1009E0000097A105B10521F041E050E060E070E022
:1009F0004A295B296C297D294D835E836F83788723
:100A00008EE190E08E1B9F0B9C838B8312C03097EE
:100A100081F00E2E04C0EE0CFF1C001F111F0A9463
:100A2000D2F7ED82FE820F831887CE1ADF0ADC82AE
:100A3000CB821A82CE0101960E9471052896EAE0C7
:100A40000C94E23CEF92FF920F931F937B018C0179
:100A500080E0E81680E0F80681E0080780E01807EB
:100A600088F48FEFE816F1040105110531F028F044
:100A700088E090E0A0E0B0E017C080E090E0A0E067
:100A8000B0E012C080E0E81680E0F80680E00807D9
:100A900081E0180728F088E190E0A0E0B0E004C011
:100AA00080E190E0A0E0B0E020E230E040E050E003
:100AB000281B390B4A0B5B0B04C016950795F7945E
:100AC000E7948A95D2F7F701E153FE4F8081281B06
:100AD000310941095109C9011F910F91FF90EF9010
:100AE0000895DF92EF92FF920F931F93FC01E48031
:100AF000F58006811781D1808081823048F480E0C2
:100B000090E0A0E1B0E0E82AF92A0A2B1B2BA5C04F
:100B1000843009F49FC0823021F4EE24FF24870141
:100B200005C0E114F1040105110519F4E0E0F0E05D
:100B300096C0628173819FEF623879070CF05BC0C9
:100B400022E83FEF261B370B2A3131052CF020E03D
:100B500030E040E050E02AC0B801A701022E04C0F6
:100B600076956795579547950A94D2F781E090E07E
:100B7000A0E0B0E004C0880F991FAA1FBB1F2A95F0
:100B8000D2F70197A109B1098E219F21A023B1239A
:100B90000097A105B10521F081E090E0A0E0B0E070
:100BA0009A01AB01282B392B4A2B5B2BDA01C901A7
:100BB0008F779070A070B07080349105A105B10559
:100BC00039F427FF09C0205C3F4F4F4F5F4F04C0EF
:100BD000215C3F4F4F4F5F4FE0E0F0E02030A0E05E
:100BE0003A07A0E04A07A0E45A0710F0E1E0F0E07D
:100BF00079018A0127C06038710564F5FB01E1586D
:100C0000FF4FD801C7018F779070A070B07080340B
:100C10009105A105B10539F4E7FE0DC080E490E02F
:100C2000A0E0B0E004C08FE390E0A0E0B0E0E80E08
:100C3000F91E0A1F1B1F17FF05C016950795F7948D
:100C4000E794319687E016950795F794E7948A958F
:100C5000D1F705C0EE24FF248701EFEFF0E06E2FFF
:100C6000679566276795902F9F77D794DD24D79453
:100C70008E2F8695492F462B582F5D29B701CA0123
:100C80001F910F91FF90EF90DF900895FC01DB0121
:100C9000408151812281622F6F7770E0221F2227CD
:100CA000221F9381892F880F822B282F30E0991FD4
:100CB0009927991F11969C93119721153105A9F534
:100CC000411551056105710511F482E037C082E8D4
:100CD0009FEF13969C938E9312979A01AB0167E056
:100CE000220F331F441F551F6A95D1F783E08C9361
:100CF0000DC0220F331F441F551F12968D919C91DA
:100D00001397019713969C938E931297203080E04F
:100D1000380780E0480780E4580758F314962D936D
:100D20003D934D935C93179708952F3F310579F4C8
:100D3000411551056105710519F484E08C930895FE
:100D400064FF03C081E08C9312C01C9210C02F5727
:100D5000304013963C932E93129783E08C9387E058
:100D6000440F551F661F771F8A95D1F7706414963C
:100D70004D935D936D937C93179708951F93DC01BA
:100D8000FB019C91923008F447C08081823008F4C6
:100D900043C0943051F411961C91843099F58181AF
:100DA000682F70E0611B71093FC0843021F09230E0
:100DB00031F48230B9F18181882389F12DC01196F7
:100DC0001C9111978230F1F081811817D9F4129695
:100DD0002D913C911397828193818217930794F010
:100DE00028173907BCF014968D919D910D90BC91F8
:100DF000A02D2481358146815781281739074A075C
:100E00005B0718F4112341F00AC082179307A40767
:100E1000B50740F4112319F061E070E005C06FEFF1
:100E20007FEF02C060E070E0CB011F910895DF9377
:100E3000CF93CDB7DEB7A7E2B0E0E7E2F0E0808184
:100E40008F738C93A7E2B0E0E7E2F0E080818064EA
:100E50008C93A7E2B0E0E7E2F0E0808180628C93BF
:100E6000A6E2B0E0E6E2F0E08081887F8C93A6E223
:100E7000B0E0E6E2F0E0808186608C93A6E2B0E02C
:100E8000E6E2F0E080818F7D8C93A6E2B0E0E6E2BE
:100E9000F0E0808180688C93CF91DF910895DF939B
:100EA000CF93CDB7DEB728970FB6F894DEBF0FBE4D
:100EB000CDBF8E8378876F831D8219821A821B8231
:100EC0001C8280910803882309F06EC081E0809322
:100ED00008038F819885009709F463C08E81803262
:100EE00008F05CC0A7E2B0E0E7E2F0E08081807E3D
:100EF0008C93A7E2B0E0E7E2F0E090818E81892B4D
:100F00008C93A6E2B0E0E6E2F0E0808180648C930E
:100F10000BC089819A81AB81BC810196A11DB11D55
:100F200089839A83AB83BC83E6E2F0E0808182957B
:100F30008F70882F90E081709070009761F48981A4
:100F40009A81AB81BC81803523EC920720E0A20717
:100F500020E0B207F0F289819A81AB81BC818035B3
:100F600023EC920720E0A20720E0B20719F481E009
:100F70008D831CC0A6E2B0E0E6E2F0E080818F7EC7
:100F80008C93E4E2F0E080819181892F9927EF81B1
:100F9000F885918380831092080308C081E08D83D7
:100FA00005C082E08D8302C083E08D838D81289609
:100FB0000FB6F894DEBF0FBECDBFCF91DF9108957D
:100FC000DF93CF9300D000D000D0CDB7DEB78A83B7
:100FD0007C836B835E834D83198280910803882311
:100FE00009F040C081E08093080310920D038B81CB
:100FF0009C81009721F48D819E81009781F18A81E7
:10100000803250F5A7E2B0E0E7E2F0E08081807E38
:101010008C93A7E2B0E0E7E2F0E090818A81892B2F
:101020008C938D819E8190930A03809309038B8119
:101030009C8190930C0380930B03A6E2B0E0E6E260
:10104000F0E0808180648C93A6E2B0E0E6E2F0E01C
:10105000808188608C9308C081E0898305C082E02C
:10106000898302C083E08983898126960FB6F8942C
:10107000DEBF0FBECDBFCF91DF910895DF93CF9339
:1010800000D00F92CDB7DEB79B838A8319828091FF
:101090000803882309F074C081E08093080381E08D
:1010A00080930D03EA81FB8180819181009769F42F
:1010B000EA81FB8183819481009739F4EA81FB8185
:1010C00085819681009709F458C0EA81FB812081CF
:1010D000318180910E03882F90E0F901E80FF91F0C
:1010E0008081803208F046C0A7E2B0E0E7E2F0E09D
:1010F0008081807E8C93A7E2B0E0E7E2F0E040815F
:10110000EA81FB812081318180910E03882F90E05C
:10111000F901E80FF91F8081842B8C93EA81FB8110
:10112000808191819093100380930F03EA81FB816A
:10113000838194819093120380931103EA81FB8150
:10114000858196819093140380931303EA81FB8138
:10115000828180931503A6E2B0E0E6E2F0E08081B0
:1011600080648C93A6E2B0E0E6E2F0E080818860E3
:101170008C9308C081E0898305C082E0898302C026
:1011800083E0898389810F900F900F90CF91DF9139
:1011900008951F920F920FB60F9211242F933F9331
:1011A0004F935F936F937F938F939F93AF93BF936F
:1011B000EF93FF93DF93CF93CDB7DEB780910D030D
:1011C0008823D9F4A0910B03B0910C03E4E2F0E082
:1011D00080819181892F99278D939C931092080388
:1011E000E0910903F0910A030995A6E2B0E0E6E276
:1011F000F0E08081877F8C9358C080910D0381300F
:1012000009F053C0209113033091140380910E0311
:10121000882F90E0880F991FD901A80FB91FE4E229
:10122000F0E080819181892F992711969C938E936C
:1012300080910E038F5F80930E0390910E03809137
:101240001503981789F410920803E0911103F091A7
:1012500012030995A6E2B0E0E6E2F0E08081877F24
:101260008C9310920E0321C0A7E2B0E0E7E2F0E019
:101270008081807E8C93A7E2B0E0E7E2F0E04081DD
:1012800020910F033091100380910E03882F90E07E
:10129000F901E80FF91F8081842B8C93A6E2B0E05E
:1012A000E6E2F0E0808180648C93CF91DF91FF9142
:1012B000EF91BF91AF919F918F917F916F915F91CE
:1012C0004F913F912F910F900FBE0F901F90189547
:1012D000DF93CF93CDB7DEB7AC970FB6F894DEBFF0
:1012E0000FBECDBF8CA780EF8BA780E060E040E011
:1012F0000E941D109BA58CA589238BA781E06BA55F
:101300000E94361180E062E041E00E941D1080E002
:1013100090E0A0E0B0E48FA398A7A9A7BAA76FA117
:1013200078A589A59AA520E030E04AEF54E40E9410
:101330001F02DC01CB018BA39CA3ADA3BEA36BA1B9
:101340007CA18DA19EA120E030E040E85FE30E94F7
:10135000250488232CF481E090E09AA389A33FC060
:101360006BA17CA18DA19EA120E03FEF4FE757E448
:101370000E94C50318164CF56FA178A589A59AA5FA
:1013800020E030E040E251E40E941F02DC01CB018A
:10139000BC01CD010E944900DC01CB019AA389A3C5
:1013A0000FC088EC90E098A38F8F8F8D98A1019744
:1013B000F1F798A38F8F89A19AA101979AA389A386
:1013C00089A19AA1009769F714C06BA17CA18DA196
:1013D0009EA10E944900DC01CB019AA389A389A1A7
:1013E0009AA19E8F8D8F8D8D9E8D0197F1F79E8F87
:1013F0008D8F80E062E040E00E941D108091160316
:10140000882309F48CC080EF8BA78BA5982F90952B
:101410008CA589238BA78BA5982F9295907F81E02F
:10142000692F0E94361180E062E041E00E941D10A9
:1014300080E090E0A0E0B0E4898F9A8FAB8FBC8F02
:10144000698D7A8D8B8D9C8D20E030E04AEF54E4DD
:101450000E941F02DC01CB018D8B9E8BAF8BB88F5E
:101460006D897E898F89988D20E030E040E85FE3C8
:101470000E94250488232CF481E090E09C8B8B8BC8
:101480003FC06D897E898F89988D20E03FEF4FE7BF
:1014900057E40E94C50318164CF5698D7A8D8B8D23
:1014A0009C8D20E030E040E251E40E941F02DC010C
:1014B000CB01BC01CD010E944900DC01CB019C8B1A
:1014C0008B8B0FC088EC90E09A8B898B89899A89E5
:1014D0000197F1F79A8B898B8B899C8901979C8B5B
:1014E0008B8B8B899C89009769F714C06D897E89E5
:1014F0008F89988D0E944900DC01CB019C8B8B8BDE
:101500008B899C89988B8F878F8598890197F1F7B4
:10151000988B8F8780E062E040E00E941D1080E0A1
:1015200090E0A0E0B0E48B879C87AD87BE876B8599
:101530007C858D859E8520E030E04AEF54E40E9452
:101540001F02DC01CB018F839887A987BA876F813F
:10155000788589859A8520E030E040E85FE30E9445
:10156000250488232CF481E090E09E838D833FC086
:101570006F81788589859A8520E03FEF4FE757E4B2
:101580000E94C50318164CF56B857C858D859E855C
:1015900020E030E040E251E40E941F02DC01CB0178
:1015A000BC01CD010E944900DC01CB019E838D83EB
:1015B0000FC088EC90E09C838B838B819C8101978A
:1015C000F1F79C838B838D819E8101979E838D8310
:1015D0008D819E81009769F714C06F817885898518
:1015E0009A850E944900DC01CB019E838D838D8109
:1015F0009E819A83898389819A810197F1F79A83E1
:101600008983AC960FB6F894DEBF0FBECDBFCF91E5
:10161000DF910895DF93CF9300D0CDB7DEB71A8264
:1016200080E060E040E00E941D1080E061E041E069
:101630000E941D1019821CC09E012E5F3F4F81E049
:101640006981A9010E9484118A81282F30E0898153
:10165000882F90E0A90102C0440F551F8A95E2F738
:10166000CA01982F8A81890F8A8389818F5F898334
:101670008981873008F38A810F900F90CF91DF9195
:101680000895DF93CF93CDB7DEB7AC970FB6F8943C
:10169000DEBF0FBECDBF8CA780EF8BA780E060E0E0
:1016A00041E00E941D109BA58CA589238BA781E09A
:1016B0006BA50E94361180E062E041E00E941D109F
:1016C00080E090E0A0E0B0E48FA398A7A9A7BAA714
:1016D0006FA178A589A59AA520E030E04AEF54E4EF
:1016E0000E941F02DC01CB018BA39CA3ADA3BEA370
:1016F0006BA17CA18DA19EA120E030E040E85FE3DA
:101700000E94250488232CF481E090E09AA389A309
:101710003FC06BA17CA18DA19EA120E03FEF4FE7D0
:1017200057E40E94C50318164CF56FA178A589A54A
:101730009AA520E030E040E251E40E941F02DC0163
:10174000CB01BC01CD010E944900DC01CB019AA371
:1017500089A30FC088EC90E098A38F8F8F8D98A1FC
:101760000197F1F798A38F8F89A19AA101979AA366
:1017700089A389A19AA1009769F714C06BA17CA1E4
:101780008DA19EA10E944900DC01CB019AA389A3EF
:1017900089A19AA19E8F8D8F8D8D9E8D0197F1F7D6
:1017A0009E8F8D8F80E062E040E00E941D1080EFF0
:1017B0008BA78BA5982F90958CA589238BA78BA59C
:1017C000982F9295907F81E0692F0E94361180E0DA
:1017D00062E041E00E941D1080E090E0A0E0B0E4F3
:1017E000898F9A8FAB8FBC8F698D7A8D8B8D9C8DF5
:1017F00020E030E04AEF54E40E941F02DC01CB01FC
:101800008D8B9E8BAF8BB88F6D897E898F89988DDC
:1018100020E030E040E85FE30E94250488232CF4B8
:1018200081E090E09C8B8B8B3FC06D897E898F8996
:10183000988D20E03FEF4FE757E40E94C50318164C
:101840004CF5698D7A8D8B8D9C8D20E030E040E2E7
:1018500051E40E941F02DC01CB01BC01CD010E94BA
:101860004900DC01CB019C8B8B8B0FC088EC90E096
:101870009A8B898B89899A890197F1F79A8B898B41
:101880008B899C8901979C8B8B8B8B899C8900977A
:1018900069F714C06D897E898F89988D0E944900EF
:1018A000DC01CB019C8B8B8B8B899C89988B8F87E0
:1018B0008F8598890197F1F7988B8F8780E062E098
:1018C00040E00E941D1080E090E0A0E0B0E48B8733
:1018D0009C87AD87BE876B857C858D859E8520E046
:1018E00030E04AEF54E40E941F02DC01CB018F83F9
:1018F0009887A987BA876F81788589859A8520E03E
:1019000030E040E85FE30E94250488232CF481E066
:1019100090E09E838D833FC06F81788589859A850D
:1019200020E03FEF4FE757E40E94C50318164CF53F
:101930006B857C858D859E8520E030E040E251E41A
:101940000E941F02DC01CB01BC01CD010E944900B5
:10195000DC01CB019E838D830FC088EC90E09C83DB
:101960008B838B819C810197F1F79C838B838D8185
:101970009E8101979E838D838D819E81009769F75B
:1019800014C06F81788589859A850E944900DC01A1
:10199000CB019E838D838D819E819A8389838981EA
:1019A0009A810197F1F79A83898386E00E946809FA
:1019B000AC960FB6F894DEBF0FBECDBFCF91DF91CE
:1019C0000895DF93CF93CDB7DEB7E8970FB6F894BD
:1019D000DEBF0FBECDBF80E090E0A0E2B2E48DABF1
:1019E0009EABAFABB8AF6DA97EA98FA998AD20E033
:1019F00030E04AEF54E40E941F02DC01CB0189ABC6
:101A00009AABABABBCAB69A97AA98BA99CA920E026
:101A100030E040E85FE30E94250488232CF481E055
:101A200090E098AB8FA73FC069A97AA98BA99CA920
:101A300020E03FEF4FE757E40E94C50318164CF52E
:101A40006DA97EA98FA998AD20E030E040E251E475
:101A50000E941F02DC01CB01BC01CD010E944900A4
:101A6000DC01CB0198AB8FA70FC088EC90E09EA75C
:101A70008DA78DA59EA50197F1F79EA78DA78FA590
:101A800098A9019798AB8FA78FA598A9009769F798
:101A900014C069A97AA98BA99CA90E944900DC01FC
:101AA000CB0198AB8FA78FA598A99CA78BA78BA5D7
:101AB0009CA50197F1F79CA78BA780E20E9468097B
:101AC00080E20E94680980E80E94680980E090E056
:101AD000A0E8BFE38FA398A7A9A7BAA76FA178A58D
:101AE00089A59AA520E030E04AEF54E40E941F0245
:101AF000DC01CB018BA39CA3ADA3BEA36BA17CA1F6
:101B00008DA19EA120E030E040E85FE30E94250423
:101B100088232CF481E090E09AA389A33FC06BA1B5
:101B20007CA18DA19EA120E03FEF4FE757E40E94EA
:101B3000C50318164CF56FA178A589A59AA520E0D4
:101B400030E040E251E40E941F02DC01CB01BC0105
:101B5000CD010E944900DC01CB019AA389A30FC0EB
:101B600088EC90E098A38F8F8F8D98A10197F1F763
:101B700098A38F8F89A19AA101979AA389A389A17C
:101B80009AA1009769F714C06BA17CA18DA19EA1B9
:101B90000E944900DC01CB019AA389A389A19AA1E3
:101BA0009E8F8D8F8D8D9E8D0197F1F79E8F8D8FDE
:101BB00080E00E94680980EC0E94680980E090E063
:101BC000A0E8BFE3898F9A8FAB8FBC8F698D7A8D28
:101BD0008B8D9C8D20E030E04AEF54E40E941F0280
:101BE000DC01CB018D8B9E8BAF8BB88F6D897E898D
:101BF0008F89988D20E030E040E85FE30E94250463
:101C000088232CF481E090E09C8B8B8B3FC06D8906
:101C10007E898F89988D20E03FEF4FE757E40E943F
:101C2000C50318164CF5698D7A8D8B8D9C8D20E03F
:101C300030E040E251E40E941F02DC01CB01BC0114
:101C4000CD010E944900DC01CB019C8B8B8B0FC026
:101C500088EC90E09A8B898B89899A890197F1F7B2
:101C60009A8B898B8B899C8901979C8B8B8B8B8919
:101C70009C89009769F714C06D897E898F89988D3A
:101C80000E944900DC01CB019C8B8B8B8B899C894A
:101C9000988B8F878F8598890197F1F7988B8F871D
:101CA00080E00E94680980E10E94680980E090E07D
:101CB000A0E0B0E48B879C87AD87BE876B857C8571
:101CC0008D859E8520E030E04AEF54E40E941F029B
:101CD000DC01CB018F839887A987BA876F817885CC
:101CE00089859A8520E030E040E85FE30E94250482
:101CF00088232CF481E090E09E838D833FC06F8128
:101D0000788589859A8520E03FEF4FE757E40E9468
:101D1000C50318164CF56B857C858D859E8520E066
:101D200030E040E251E40E941F02DC01CB01BC0123
:101D3000CD010E944900DC01CB019E838D830FC041
:101D400088EC90E09C838B838B819C810197F1F7D9
:101D50009C838B838D819E8101979E838D838D8152
:101D60009E81009769F714C06F81788589859A856F
:101D70000E944900DC01CB019E838D838D819E8171
:101D80009A83898389819A810197F1F79A8389835C
:101D900081E080931603E8960FB6F894DEBF0FBE7D
:101DA000CDBFCF91DF910895DF93CF9300D00F92F5
:101DB000CDB7DEB79B838A8319820EC08981282F15
:101DC00030E08A819B81FC01E20FF31F80810E9439
:101DD000410B89818F5F89838981282F30E08A8137
:101DE0009B81FC01E20FF31F8081882339F70F905C
:101DF0000F900F90CF91DF910895DF93CF9300D094
:101E00000F92CDB7DEB78A836B838A81882351F422
:101E10008B81803120F08B81805C898309C08B812C
:101E2000898306C08A81813019F48B81805C898323
:101E3000898180580E9468090F900F900F90CF9170
:101E4000DF910895DF93CF93CDB7DEB727970FB615
:101E5000F894DEBF0FBECDBF9C838B836D834E8312
:101E60002F831A828D81882F90E0880F991F880F09
:101E7000991F880F991F8A838A81805C0E94680954
:101E800019820EC08981282F30E08B819C81FC0152
:101E9000E20FF31F80810E94410B89818F5F89834C
:101EA0008981883078F38E816F810E94FD0E8D814B
:101EB0000E94410B27960FB6F894DEBF0FBECDBF30
:101EC000CF91DF910895DF93CF9300D000D0CDB7AD
:101ED000DEB79C838B838B819C810E949A0F8A83BF
:101EE0008A8189831DC0898181500E94C50F9C0110
:101EF0008B819C81B9010E94883CCB01805D0E944E
:101F0000410B898181500E94C50F9C018B819C816E
:101F1000B9010E94883C9C838B838981815089838D
:101F20008981181604F30F900F900F900F90CF91A6
:101F3000DF910895DF93CF9300D000D0CDB7DEB707
:101F40009B838A8319828A819B81009781F481E037
:101F50008C8313C08A819B812AE030E0B9010E9402
:101F6000883CCB019B838A8389818F5F89838A81A7
:101F70009B81009779F789818C838C810F900F90DA
:101F80000F900F90CF91DF910895DF93CF9300D002
:101F900000D0CDB7DEB78C8381E090E09A8389834F
:101FA0001B8211C089819A819C01220F331FC901B4
:101FB000880F991F880F991F820F931F9A83898317
:101FC0008B818F5F8B839B818C81981758F38981DC
:101FD0009A810F900F900F900F90CF91DF910895FD
:101FE000DF93CF9300D00F92CDB7DEB789837B8389
:101FF0006A838A819B81CC01A0E0B0E02FEF30E0C2
:1020000040E050E0BC01CD010E94693CDC01CB0105
:1020100028E833E140E050E0BC01CD010E949C3C47
:10202000DA01C901982F8981692F0E9436110F901A
:102030000F900F90CF91DF910895DF93CF93CDB79D
:10204000DEB728970FB6F894DEBF0FBECDBF8A83E8
:102050006B834C8319828C81813009F079C08B812C
:10206000883008F072C08A81282F30E038872F83AB
:102070008F8198858130910549F12F8138852230F3
:1020800031052CF48F819885009761F05BC02F811A
:1020900038852230310571F18F8198858330910523
:1020A000E9F150C0ABE3B0E0EBE3F0E08081482F12
:1020B0008B81282F30E081E090E0022E02C0880F53
:1020C000991F0A94E2F7842B8C93C6C0A8E3B0E072
:1020D000E8E3F0E08081482F8B81282F30E081E019
:1020E00090E0022E02C0880F991F0A94E2F7842B19
:1020F0008C93B2C0A5E3B0E0E5E3F0E08081482F27
:102100008B81282F30E081E090E0022E02C0880F02
:10211000991F0A94E2F7842B8C939EC0A2E3B0E04F
:10212000E2E3F0E08081482F8B81282F30E081E0CE
:1021300090E0022E02C0880F991F0A94E2F7842BC8
:102140008C938AC081E0898387C081E0898384C0C1
:102150008C81882309F07EC08B81883008F077C09D
:102160008A81282F30E03E832D838D819E818130AE
:10217000910559F12D813E81223031052CF48D815C
:102180009E81009769F060C02D813E81223031052B
:1021900089F18D819E818330910509F440C054C03E
:1021A000ABE3B0E0EBE3F0E08081482F8B81282F98
:1021B00030E081E090E0022E02C0880F991F0A945F
:1021C000E2F7809584238C9347C0A8E3B0E0E8E36E
:1021D000F0E08081482F8B81282F30E081E090E073
:1021E000022E02C0880F991F0A94E2F7809584237B
:1021F0008C9332C0A5E3B0E0E5E3F0E08081482FA6
:102200008B81282F30E081E090E0022E02C0880F01
:10221000991F0A94E2F7809584238C931DC0A2E352
:10222000B0E0E2E3F0E08081482F8B81282F30E09E
:1022300081E090E0022E02C0880F991F0A94E2F715
:10224000809584238C9308C081E0898305C081E058
:10225000898302C081E08983898128960FB6F8942A
:10226000DEBF0FBECDBFCF91DF910895DF93CF9337
:1022700000D000D00F92CDB7DEB78A836B8319826E
:102280008A818830B0F58A81282F30E03D832C8305
:102290008C819D8181309105D1F02C813D8122304E
:1022A00031052CF48C819D81009761F01FC02C8139
:1022B0003D812230310581F08C819D8183309105F3
:1022C00081F014C0EBE3F0E08B81808314C0E8E37D
:1022D000F0E08B8180830FC0E5E3F0E08B818083A9
:1022E0000AC0E2E3F0E08B81808305C081E089834E
:1022F00002C081E0898389810F900F900F900F9029
:102300000F90CF91DF910895DF93CF93CDB7DEB7D4
:1023100027970FB6F894DEBF0FBECDBF8A836B83BD
:102320005D834C8319828C819D81009709F47BC069
:102330008B81883008F074C08A81282F30E03F8379
:102340002E834E815F814130510559F18E819F81ED
:102350008230910534F42E813F812115310569F0D9
:102360005CC04E815F814230510579F18E819F8141
:102370008330910509F43DC050C0E9E3F0E080816D
:10238000282F30E08B81882F90E0A90102C055955D
:1023900047958A95E2F7CA018170EC81FD818083BF
:1023A00044C0E6E3F0E08081282F30E08B81882F65
:1023B00090E0A90102C0559547958A95E2F7CA01B8
:1023C0008170EC81FD81808330C0E3E3F0E08081A7
:1023D000282F30E08B81882F90E0A90102C055950D
:1023E00047958A95E2F7CA018170EC81FD8180836F
:1023F0001CC0E0E3F0E08081282F30E08B81882F43
:1024000090E0A90102C0559547958A95E2F7CA0167
:102410008170EC81FD81808308C081E0898305C0E3
:1024200081E0898302C082E08983898127960FB683
:10243000F894DEBF0FBECDBFCF91DF910895DF933B
:10244000CF9300D000D00F92CDB7DEB78A836B83D5
:1024500019828B81883008F072C08A81282F30E081
:102460003D832C838C819D818130910549F12C81A4
:102470003D81223031052CF48C819D81009761F0E3
:102480005BC02C813D812230310571F18C819D81B1
:1024900083309105E9F150C0ABE3B0E0EBE3F0E04D
:1024A0008081482F8B81282F30E081E090E0022E40
:1024B00002C0880F991F0A94E2F784278C9341C0C9
:1024C000A8E3B0E0E8E3F0E08081482F8B81282F7B
:1024D00030E081E090E0022E02C0880F991F0A943C
:1024E000E2F784278C932DC0A5E3B0E0E5E3F0E0AC
:1024F0008081482F8B81282F30E081E090E0022EF0
:1025000002C0880F991F0A94E2F784278C9319C0A0
:10251000A2E3B0E0E2E3F0E08081482F8B81282F36
:1025200030E081E090E0022E02C0880F991F0A94EB
:10253000E2F784278C9305C081E0898302C081E0A3
:10254000898389810F900F900F900F900F90CF91FA
:10255000DF910895DF93CF9300D000D00F92CDB7D5
:10256000DEB78A836B8319828A81843008F062C067
:102570008A81282F30E03D832C838C819D8181309E
:10258000910529F12C813D81223031052CF48C817B
:102590009D81009761F04BC02C813D812230310537
:1025A00031F18C819D818330910589F140C0ABE38D
:1025B000B0E0EBE3F0E08081807F8C93ABE3B0E0B0
:1025C000EBE3F0E090818B81892B8C9335C0A8E3FD
:1025D000B0E0E8E3F0E08081807F8C93A8E3B0E096
:1025E000E8E3F0E090818B81892B8C9325C0A5E3F3
:1025F000B0E0E5E3F0E08081807F8C93A5E3B0E07C
:10260000E5E3F0E090818B81892B8C9315C0A2E3E8
:10261000B0E0E2E3F0E08081807F8C93A2E3B0E061
:10262000E2E3F0E090818B81892B8C9305C081E0FF
:10263000898302C081E0898389810F900F900F9078
:102640000F900F90CF91DF910895DF93CF9300D03B
:1026500000D00F92CDB7DEB78A836B8319828A814F
:10266000843008F087C08A81282F30E03D832C8396
:102670008C819D818130910579F12C813D812230C1
:1026800031052CF48C819D81009769F070C02C81FC
:102690003D8122303105C9F18C819D8183309105C6
:1026A00009F44CC064C0ABE3B0E0EBE3F0E0808140
:1026B0008F708C93ABE3B0E0EBE3F0E08081282FE8
:1026C0008B81882F90E082959295907F9827807FCC
:1026D0009827822B8C9350C0A8E3B0E0E8E3F0E0A9
:1026E00080818F708C93A8E3B0E0E8E3F0E0808114
:1026F000282F8B81882F90E082959295907F982744
:10270000807F9827822B8C9337C0A5E3B0E0E5E368
:10271000F0E080818F708C93A5E3B0E0E5E3F0E01A
:102720008081282F8B81882F90E082959295907FD1
:102730009827807F9827822B8C931EC0A2E3B0E05D
:10274000E2E3F0E080818F708C93A2E3B0E0E2E3FB
:10275000F0E08081282F8B81882F90E082959295E0
:10276000907F9827807F9827822B8C9305C081E0EB
:10277000898302C081E0898389810F900F900F9037
:102780000F900F90CF91DF910895DF93CF93CDB746
:10279000DEB7A5E5B0E0E5E5F0E080818C7F8C93C5
:1027A000A5E5B0E0E5E5F0E0808182608C93ABE5E3
:1027B000B0E0EBE5F0E0808180648C93CF91DF9115
:1027C0000895DF93CF9300D00F92CDB7DEB79B83F0
:1027D0008A8319828A819B81009739F08A819B8143
:1027E000909318038093170302C082E08983898144
:1027F0000F900F900F90CF91DF910895DF93CF93BB
:1028000000D0CDB7DEB78A8319828A81843080F404
:10281000A5E5B0E0E5E5F0E080818C7F8C93A5E54F
:10282000B0E0E5E5F0E090818A81892B8C9302C0CD
:1028300081E0898389810F900F90CF91DF91089576
:10284000DF93CF93CDB7DEB7A5E5B0E0E5E5F0E0E7
:102850008081837F8C93A5E5B0E0E5E5F0E08081A1
:1028600088608C93ABE5B0E0EBE5F0E080818068B8
:102870008C93CF91DF910895DF93CF9300D00F9287
:10288000CDB7DEB79B838A8319828A819B810097AB
:1028900039F08A819B8190931A038093190302C0B7
:1028A00082E0898389810F900F900F90CF91DF9103
:1028B0000895DF93CF9300D0CDB7DEB78A83198216
:1028C0008A818430B8F4A5E5B0E0E5E5F0E08081E8
:1028D000837F8C93A5E5B0E0E5E5F0E08081282FCB
:1028E0008A81882F90E0880F991F880F991F822B6B
:1028F0008C9302C081E0898389810F900F90CF91E2
:10290000DF910895DF93CF93CDB7DEB7A4E5B0E0B4
:10291000E4E5F0E080818F7B8C93A4E5B0E0E4E512
:10292000F0E080818C93ABE5B0E0EBE5F0E08081F6
:1029300080628C93CF91DF910895DF93CF9300D085
:102940000F92CDB7DEB79B838A8319828A819B81E0
:10295000009739F08A819B8190931C0380931B031D
:1029600002C082E0898389810F900F900F90CF91F0
:10297000DF910895DF93CF9300D0CDB7DEB78A8380
:1029800019828A818230E0F4A4E5B0E0E4E5F0E069
:1029900080818F7B8C93A4E5B0E0E4E5F0E080815A
:1029A000282F8A81882F90E0002496958795079498
:1029B000969587950794982F802D822B8C9302C033
:1029C00081E0898389810F900F90CF91DF910895E5
:1029D0001F920F920FB60F9211242F933F934F9394
:1029E0005F936F937F938F939F93AF93BF93EF9377
:1029F000FF93DF93CF93CDB7DEB7E0911703F0914C
:102A000018030995CF91DF91FF91EF91BF91AF919D
:102A10009F918F917F916F915F914F913F912F91F6
:102A20000F900FBE0F901F9018951F920F920FB628
:102A30000F9211242F933F934F935F936F937F9344
:102A40008F939F93AF93BF93EF93FF93DF93CF93B6
:102A5000CDB7DEB7E0911903F0911A030995CF9134
:102A6000DF91FF91EF91BF91AF919F918F917F91F6
:102A70006F915F914F913F912F910F900FBE0F90EB
:102A80001F9018951F920F920FB60F9211242F933B
:102A90003F934F935F936F937F938F939F93AF93E6
:102AA000BF93EF93FF93DF93CF93CDB7DEB7E09162
:102AB0001B03F0911C030995CF91DF91FF91EF91DA
:102AC000BF91AF919F918F917F916F915F914F9146
:102AD0003F912F910F900FBE0F901F901895DF938D
:102AE000CF93CDB7DEB7AFE5B0E0EFE5F0E08081A2
:102AF00080688C93CF91DF910895DF93CF93CDB70A
:102B0000DEB7AFE5B0E0EFE5F0E080818F778C9342
:102B1000CF91DF910895DF93CF9300D000D00F9233
:102B2000CDB7DEB78FEF89831A825EC08A81882F86
:102B300090E0FC01E152FD4F908182E0692F40E07E
:102B40000E941D101B823DC08B81882F90E0FC01EC
:102B5000ED51FD4F90819E012C5F3F4F82E0692F28
:102B6000A9010E9484118C81882341F58B81482F13
:102B700050E08A81282F30E0CA01880F991F880F02
:102B8000991F820F931FFC01E153FD4F80818983C0
:102B90000FC08B81882F90E0FC01ED51FD4F90819B
:102BA0009E012C5F3F4F82E0692FA9010E94841192
:102BB0008C81882371F389818D831CC08B818F5F09
:102BC0008B838B81843008F4BFCF8A81882F90E07B
:102BD000FC01E152FD4F908182E0692F41E00E94AB
:102BE0001D108A818F5F8A838A81843008F49ECF8A
:102BF00089818D838D810F900F900F900F900F9092
:102C0000CF91DF910895DF93CF9300D00F92CDB78E
:102C1000DEB79B838A831982EA81FB8182818130BE
:102C200059F4EA81FB818081EA81FB819181692FDE
:102C300041E00E941D1012C0EA81FB81828188233D
:102C400059F4EA81FB818081EA81FB819181692FBE
:102C500040E00E941D1002C081E0898389810F90AD
:102C60000F900F90CF91DF910895DF93CF9300D015
:102C70000F92CDB7DEB79B838A831982EA81FB81ED
:102C80008281813059F4EA81FB818081EA81FB8174
:102C90009181692F40E00E941D1012C0EA81FB81E2
:102CA0008281882359F4EA81FB818081EA81FB815A
:102CB0009181692F41E00E941D1002C081E089834B
:102CC00089810F900F900F90CF91DF910895DF933E
:102CD000CF9300D00F92CDB7DEB79B838A83198242
:102CE000EA81FB818281813099F490911D0381E01A
:102CF000892780931D03EA81FB818081EA81FB8122
:102D0000918120911D03692F422F0E941D101AC02E
:102D1000EA81FB818281882399F490911D0381E0EF
:102D2000892780931D03EA81FB818081EA81FB81F1
:102D3000918120911D03692F422F0E941D1002C016
:102D400081E0898389810F900F900F90CF91DF915F
:102D50000895DF93CF93CDB7DEB7EAE3F0E085EFD8
:102D60008083E7E3F0E08BEF8083E4E3F0E080EF43
:102D70008083E1E3F0E080EA8083EBE3F0E08AE047
:102D80008083E8E3F0E01082E5E3F0E08FEF8083FA
:102D9000E2E3F0E01082CF91DF910895DF93CF93CB
:102DA000CDB7DEB72A970FB6F894DEBF0FBECDBF02
:102DB000CE0101969F838E83E4EFF2E0F987E887E6
:102DC000F5E0FA87E885F985008088859985019680
:102DD00099878887EE81FF8100828E819F8101968D
:102DE0009F838E839A8591509A87EA85EE2351F7C7
:102DF00080E29EE40E942225CE0101960E9472226A
:102E00002A960FB6F894DEBF0FBECDBFCF91DF91EB
:102E10000895AF92BF92CF92DF92EF92FF920F93FD
:102E20001F93DF93CF9300D000D000D0CDB7DEB793
:102E30009E838D8319821A821B821C828D819E81C2
:102E4000CC01A0E0B0E000D000D0EDB7FEB73196E5
:102E500080839183A283B38360E070E080E090E0A0
:102E600024EB30E040E050E00F2EFEEEEF2EF2E0DB
:102E7000FF2EF0E00F2FF0E01F2FF02D0F2EF3ECC0
:102E8000AF2EF9E0BF2EF0E0CF2EF0E0DF2EF02DD8
:102E90000E9469170F900F900F900F90DC01CB01EB
:102EA00089839A83AB83BC8389819A810E9446255A
:102EB00026960FB6F894DEBF0FBECDBFCF91DF913F
:102EC0001F910F91FF90EF90DF90CF90BF90AF9048
:102ED0000895AF92BF92CF92DF92EF92FF920F933D
:102EE0001F93DF93CF93CDB7DEB764970FB6F894F7
:102EF000DEBF0FBECDBF6D837E838F83988729870A
:102F00003A874B875C87ED86FE860F87188BA98AE8
:102F1000BA8ACB8ADC8A19821A821B821C8229A176
:102F20003AA14BA15CA18D819E81AF81B8857901C9
:102F30008A01E81AF90A0A0B1B0B29893A894B897D
:102F40005C898D859E85AF85B889281B390B4A0B16
:102F50005B0BC801B7010E94693C7B018C0129858C
:102F60003A854B855C858D819E81AF81B885281B14
:102F7000390B4A0B5B0BC801B7010E949C3CDA017C
:102F8000C9019C01AD018D859E85AF85B889820FF1
:102F9000931FA41FB51F89839A83AB83BC83898148
:102FA0009A81AB81BC81BC01CD0164960FB6F894C7
:102FB000DEBF0FBECDBFCF91DF911F910F91FF906C
:102FC000EF90DF90CF90BF90AF900895DF93CF93B5
:102FD00000D000D0CDB7DEB78A837C836B831982A3
:102FE000EB81FC818081882391F4EB81FC8121813C
:102FF0008A81882F90E0FC01E951FD4F8081982F54
:103000009095822F692F0E943611898317C0EB811A
:10301000FC818081813081F4EB81FC8121818A8176
:10302000882F90E0FC01E951FD4F9081822F692F9C
:103030000E943611898302C081E0898389810F90C3
:103040000F900F900F90CF91DF910895DF93CF9362
:1030500000D00F92CDB7DEB79B838A831982EA81B5
:10306000FB818081882361F4EA81FB818281EA818E
:10307000FB819381692F41E00E941D10898313C059
:10308000EA81FB818081813061F4EA81FB81828168
:10309000EA81FB819381692F40E00E941D108983A2
:1030A00002C081E0898389810F900F900F90CF91AA
:1030B000DF910895DF93CF9300D00F92CDB7DEB7A5
:1030C0009B838A831982EA81FB818081882361F452
:1030D000EA81FB818281EA81FB819381692F40E053
:1030E0000E941D10898313C0EA81FB818081813099
:1030F00061F4EA81FB818281EA81FB819381692FFE
:1031000041E00E941D10898302C081E0898389818A
:103110000F900F900F90CF91DF910895DF93CF9391
:10312000CDB7DEB7C254D0400FB6F894DEBF0FBEA5
:10313000CDBFFE01EF5BFF4F91838083FE01E05C1A
:10314000FF4F1082FE01EF5BFF4F0190F081E02DF9
:1031500083819481CC01A0E0B0E0BC01CD010E944C
:10316000A904DC01CB01BC01CD0123E333E343E33C
:1031700051E40E941903DC01CB01BC01CD0120E028
:1031800030E040E852E40E941F02DC01CB01BC01A8
:10319000CD010E944900DC01CB019FAF8EAF8EAD07
:1031A0009FAD96958795969587959DAF8CAF1BAEF5
:1031B0001AAE19AEFE01EF5BFF4F0190F081E02DDA
:1031C0008181882309F05EC1FE01EF5BFF4F019012
:1031D000F081E02D8281882309F0A2C01BAE1AAED7
:1031E00096C019AE8BC0FE01EF5BFF4F0190F081DE
:1031F000E02D408189AD282F30E081E090E002C0D1
:10320000880F991F2A95E2F7982F842F692F0E9423
:10321000AA1280E090E0A0E0B0E48DAB9EABAFAB33
:10322000B8AF6DA97EA98FA998AD20E030E04AEF34
:1032300054E40E941F02DC01CB0189AB9AABABAB1B
:10324000BCAB69A97AA98BA99CA920E030E040E831
:103250005FE30E94250488232CF481E090E098AB82
:103260008FA73FC069A97AA98BA99CA920E03FEF4D
:103270004FE757E40E94C50318164CF56DA97EA9C7
:103280008FA998AD20E030E040E251E40E941F0297
:10329000DC01CB01BC01CD010E944900DC01CB0166
:1032A00098AB8FA70FC088EC90E09EA78DA78DA547
:1032B0009EA50197F1F79EA78DA78FA598A90197C5
:1032C00098AB8FA78FA598A9009769F714C069A933
:1032D0007AA98BA99CA90E944900DC01CB0198AB7B
:1032E0008FA78FA598A99CA78BA78BA59CA50197B5
:1032F000F1F79CA78BA789AD8F5F89AF89AD84302B
:1033000008F471CF8AAD9BAD01969BAF8AAF2AAD11
:103310003BAD8CAD9DAD2817390708F462CF1FC2B5
:10332000FE01EF5BFF4F0190F081E02D8281813043
:1033300009F0A2C01BAE1AAE96C019AE8BC0FE013A
:10334000EF5BFF4F0190F081E02D408189AD282F88
:1033500030E088E090E002C0959587952A95E2F7E5
:10336000982F842F692F0E94AA1280E090E0A0E09D
:10337000B0E48FA398A7A9A7BAA76FA178A589A53C
:103380009AA520E030E04AEF54E40E941F02DC01DD
:10339000CB018BA39CA3ADA3BEA36BA17CA18DA1EC
:1033A0009EA120E030E040E85FE30E9425048823EE
:1033B0002CF481E090E09AA389A33FC06BA17CA18B
:1033C0008DA19EA120E03FEF4FE757E40E94C50387
:1033D00018164CF56FA178A589A59AA520E030E0D4
:1033E00040E251E40E941F02DC01CB01BC01CD018F
:1033F0000E944900DC01CB019AA389A30FC088EC8D
:1034000090E098A38F8F8F8D98A10197F1F798A3E3
:103410008F8F89A19AA101979AA389A389A19AA1C3
:10342000009769F714C06BA17CA18DA19EA10E9499
:103430004900DC01CB019AA389A389A19AA19E8F9F
:103440008D8F8D8D9E8D0197F1F79E8F8D8F89AD1C
:103450008F5F89AF89AD843008F471CF8AAD9BADA1
:1034600001969BAF8AAF2AAD3BAD8CAD9DAD2817C1
:10347000390708F462CF73C181E0FE01E05CFF4FC1
:1034800080836DC1FE01EF5BFF4F0190F081E02D65
:103490008181813009F05EC1FE01EF5BFF4F019039
:1034A000F081E02D8281882309F0A2C01BAE1AAE04
:1034B00096C019AE8BC0FE01EF5BFF4F0190F0810B
:1034C000E02D408189AD282F30E081E090E002C0FE
:1034D000880F991F2A95E2F7982F842F692F0E9451
:1034E000251380E090E0A0E0B0E4898F9A8FAB8F45
:1034F000BC8F698D7A8D8B8D9C8D20E030E04AEFFA
:1035000054E40E941F02DC01CB018D8B9E8BAF8B9C
:10351000B88F6D897E898F89988D20E030E040E8F2
:103520005FE30E94250488232CF481E090E09C8BCB
:103530008B8B3FC06D897E898F89988D20E03FEF0E
:103540004FE757E40E94C50318164CF5698D7A8D34
:103550008B8D9C8D20E030E040E251E40E941F0200
:10356000DC01CB01BC01CD010E944900DC01CB0193
:103570009C8B8B8B0FC088EC90E09A8B898B898910
:103580009A890197F1F79A8B898B8B899C8901978E
:103590009C8B8B8B8B899C89009769F714C06D89F4
:1035A0007E898F89988D0E944900DC01CB019C8B1C
:1035B0008B8B8B899C89988B8F878F8598890197B6
:1035C000F1F7988B8F8789AD8F5F89AF89AD843094
:1035D00008F471CF8AAD9BAD01969BAF8AAF2AAD3F
:1035E0003BAD8CAD9DAD2817390708F462CFB7C04D
:1035F000FE01EF5BFF4F0190F081E02D8281813071
:1036000009F0A2C01BAE1AAE96C019AE8BC0FE0167
:10361000EF5BFF4F0190F081E02D408189AD282FB5
:1036200030E088E090E002C0959587952A95E2F712
:10363000982F842F692F0E94251380E090E0A0E04E
:10364000B0E48B879C87AD87BE876B857C858D8535
:103650009E8520E030E04AEF54E40E941F02DC0126
:10366000CB018F839887A987BA876F8178858985F1
:103670009A8520E030E040E85FE30E94250488233B
:103680002CF481E090E09E838D833FC06F8178852C
:1036900089859A8520E03FEF4FE757E40E94C503F4
:1036A00018164CF56B857C858D859E8520E030E075
:1036B00040E251E40E941F02DC01CB01BC01CD01BC
:1036C0000E944900DC01CB019E838D830FC088ECF2
:1036D00090E09C838B838B819C810197F1F79C8385
:1036E0008B838D819E8101979E838D838D819E81A9
:1036F000009769F714C06F81788589859A850E9443
:103700004900DC01CB019E838D838D819E819A834C
:10371000898389819A810197F1F79A83898389AD99
:103720008F5F89AF89AD843008F471CF8AAD9BADCE
:1037300001969BAF8AAF2AAD3BAD8CAD9DAD2817EE
:10374000390708F462CF0BC081E0FE01E05CFF4F57
:10375000808305C081E0FE01E05CFF4F8083FE01B5
:10376000E05CFF4F8081CE5BDF4F0FB6F894DEBF89
:103770000FBECDBFCF91DF910895DF93CF93CDB72B
:10378000DEB7C454D0400FB6F894DEBF0FBECDBF35
:10379000FE01ED5BFF4F91838083FE01EE5BFF4FE7
:1037A0001082FE01E05CFF4F11821082FE01ED5B92
:1037B000FF4F0190F081E02D83819481CC01A0E046
:1037C000B0E0BC01CD010E94A904DC01CB01BC0129
:1037D000CD0120E030E044EB50E40E941903DC010D
:1037E000CB01BC01CD0120E030E040E852E40E9472
:1037F0001F02DC01CB01BC01CD010E944900DC01AC
:10380000CB019FAF8EAF8EAD9FAD96958795969568
:103810008795969587959DAF8CAF1BAEFE01ED5BAE
:10382000FF4F0190F081E02D8181882309F096C13E
:10383000FE01ED5BFF4F0190F081E02D8281882336
:1038400009F0C1C0FE01E05CFF4F11821082AFC0E1
:1038500081E08AAF83E089AF81E08BAF98C08BAD08
:10386000882F90E081709070882371F0FE01ED5BED
:10387000FF4F0190F081E02D80816AAD0E94AA1275
:103880008AAD880F8AAF0EC0FE01ED5BFF4F01903D
:10389000F081E02D808169AD0E94AA1289AD0E945D
:1038A000AF1F89AF80E090E0A0E0B0E48DAB9EABAD
:1038B000AFABB8AF6DA97EA98FA998AD20E030E07D
:1038C0004AEF54E40E941F02DC01CB0189AB9AABA2
:1038D000ABABBCAB69A97AA98BA99CA920E030E06D
:1038E00040E85FE30E94250488232CF481E090E007
:1038F00098AB8FA73FC069A97AA98BA99CA920E0A2
:103900003FEF4FE757E40E94C50318164CF56DA929
:103910007EA98FA998AD20E030E040E251E40E94FA
:103920001F02DC01CB01BC01CD010E944900DC017A
:10393000CB0198AB8FA70FC088EC90E09EA78DA716
:103940008DA59EA50197F1F79EA78DA78FA598A994
:10395000019798AB8FA78FA598A9009769F714C016
:1039600069A97AA98BA99CA90E944900DC01CB0115
:1039700098AB8FA78FA598A99CA78BA78BA59CA573
:103980000197F1F79CA78BA78BAD8F5F8BAF8BADAA
:10399000893008F464CFDE01A05CBF4FFE01E05C1B
:1039A000FF4F80819181019611969C938E93FE0129
:1039B000E05CFF4F208131818CAD9DAD2817390728
:1039C00008F446CF7EC2FE01ED5BFF4F0190F0810F
:1039D000E02D8281813009F074C2FE01E05CFF4F6E
:1039E00011821082AFC088E08AAF8CE089AF81E09D
:1039F0008BAF98C08BAD882F90E08170907088233A
:103A000071F0FE01ED5BFF4F0190F081E02D8081B0
:103A10006AAD0E94AA128AAD86958AAF0EC0FE01D9
:103A2000ED5BFF4F0190F081E02D808169AD0E9438
:103A3000AA1289AD0E94921F89AF80E090E0A0E0B9
:103A4000B0E48FA398A7A9A7BAA76FA178A589A565
:103A50009AA520E030E04AEF54E40E941F02DC0106
:103A6000CB018BA39CA3ADA3BEA36BA17CA18DA115
:103A70009EA120E030E040E85FE30E942504882317
:103A80002CF481E090E09AA389A33FC06BA17CA1B4
:103A90008DA19EA120E03FEF4FE757E40E94C503B0
:103AA00018164CF56FA178A589A59AA520E030E0FD
:103AB00040E251E40E941F02DC01CB01BC01CD01B8
:103AC0000E944900DC01CB019AA389A30FC088ECB6
:103AD00090E098A38F8F8F8D98A10197F1F798A30D
:103AE0008F8F89A19AA101979AA389A389A19AA1ED
:103AF000009769F714C06BA17CA18DA19EA10E94C3
:103B00004900DC01CB019AA389A389A19AA19E8FC8
:103B10008D8F8D8D9E8D0197F1F79E8F8D8F8BAD43
:103B20008F5F8BAF8BAD893008F464CFDE01A05C72
:103B3000BF4FFE01E05CFF4F80819181019611969D
:103B40009C938E93FE01E05CFF4F208131818CAD10
:103B50009DAD2817390708F446CFB3C1FE01ED5BD0
:103B6000FF4F0190F081E02D8181813009F0A4C1E7
:103B7000FE01ED5BFF4F0190F081E02D82818823F3
:103B800009F0C9C0FE01E05CFF4F11821082B7C08E
:103B900081E08AAF83E089AF81E08BAFA0C08BADBD
:103BA000882F90E081709070882371F0FE01ED5BAA
:103BB000FF4F0190F081E02D80816AAD0E942513B6
:103BC0008AAD880F8AAF16C0FE01ED5BFF4F0190F2
:103BD000F081E02D808169AD0E94251389AD882F89
:103BE00090E00E94630F80E20E94410B89AD0E9429
:103BF000AF1F89AF80E090E0A0E0B0E4898F9A8F9A
:103C0000AB8FBC8F698D7A8D8B8D9C8D20E030E0E1
:103C10004AEF54E40E941F02DC01CB018D8B9E8B86
:103C2000AF8BB88F6D897E898F89988D20E030E0C9
:103C300040E85FE30E94250488232CF481E090E0B3
:103C40009C8B8B8B3FC06D897E898F89988D20E0FE
:103C50003FEF4FE757E40E94C50318164CF5698DF6
:103C60007A8D8B8D9C8D20E030E040E251E40E9403
:103C70001F02DC01CB01BC01CD010E944900DC0127
:103C8000CB019C8B8B8B0FC088EC90E09A8B898B3F
:103C900089899A890197F1F79A8B898B8B899C89FD
:103CA00001979C8B8B8B8B899C89009769F714C03B
:103CB0006D897E898F89988D0E944900DC01CB0136
:103CC0009C8B8B8B8B899C89988B8F878F85988910
:103CD0000197F1F7988B8F878BAD8F5F8BAF8BAD93
:103CE000893008F45CCFDE01A05CBF4FFE01E05CD0
:103CF000FF4F80819181019611969C938E93FE01D6
:103D0000E05CFF4F208131818CAD9DAD28173907D4
:103D100008F43ECFD6C0FE01ED5BFF4F0190F0816D
:103D2000E02D8281813009F0C1C0FE01E05CFF4FCF
:103D300011821082AFC088E08AAF8CE089AF81E049
:103D40008BAF98C08BAD882F90E0817090708823E6
:103D500071F0FE01ED5BFF4F0190F081E02D80815D
:103D60006AAD0E9425138AAD86958AAF0EC0FE010A
:103D7000ED5BFF4F0190F081E02D808169AD0E94E5
:103D8000251389AD0E94921F89AF80E090E0A0E0EA
:103D9000B0E48B879C87AD87BE876B857C858D85DE
:103DA0009E8520E030E04AEF54E40E941F02DC01CF
:103DB000CB018F839887A987BA876F81788589859A
:103DC0009A8520E030E040E85FE30E9425048823E4
:103DD0002CF481E090E09E838D833FC06F817885D5
:103DE00089859A8520E03FEF4FE757E40E94C5039D
:103DF00018164CF56B857C858D859E8520E030E01E
:103E000040E251E40E941F02DC01CB01BC01CD0164
:103E10000E944900DC01CB019E838D830FC088EC9A
:103E200090E09C838B838B819C810197F1F79C832D
:103E30008B838D819E8101979E838D838D819E8151
:103E4000009769F714C06F81788589859A850E94EB
:103E50004900DC01CB019E838D838D819E819A83F5
:103E6000898389819A810197F1F79A8389838BAD40
:103E70008F5F8BAF8BAD893008F464CFDE01A05C1F
:103E8000BF4FFE01E05CFF4F80819181019611964A
:103E90009C938E93FE01E05CFF4F208131818CADBD
:103EA0009DAD2817390708F446CF0BC0FE01EE5B25
:103EB000FF4F81E0808305C0FE01EE5BFF4F81E094
:103EC0008083FE01EE5BFF4F8081CC5BDF4F0FB63E
:103ED000F894DEBF0FBECDBFCF91DF910895DF9381
:103EE000CF9300D0CDB7DEB79A838983E981FA8179
:103EF0008181882339F4E981FA81808160E00E9420
:103F0000AA120BC0E981FA818181813031F4E98103
:103F1000FA81808160E00E9425130F900F90CF916D
:103F2000DF910895DF93CF9300D0CDB7DEB78A83BA
:103F300019828A81817089838A8186958A838981A1
:103F4000882321F08A8188608A8303C08A81877FE1
:103F50008A838A810F900F90CF91DF910895DF932C
:103F6000CF9300D0CDB7DEB78A8319828A81869538
:103F700086958695817089838A81880F8A83898155
:103F8000882321F08A8181608A8303C08A818E7FA1
:103F90008A838A810F900F90CF91DF910895DF93EC
:103FA000CF93CDB7DEB7A1970FB6F894DEBF0FBEA3
:103FB000CDBF9F8F8E8F79A368A31D8EE8A1F9A135
:103FC00081E08083EE8DFF8D8281882309F0C3C05C
:103FD000EE8DFF8D8381813009F09CC0EE8DFF8DC9
:103FE0008081EE8DFF8D91812EE133E0692FA90153
:103FF0000E94841180911E03882309F06DC180E026
:1040000090E0A6E1B3E4898F9A8FAB8FBC8F698D66
:104010007A8D8B8D9C8D20E030E04AEF54E40E9435
:104020001F02DC01CB018D8B9E8BAF8BB88F6D890E
:104030007E898F89988D20E030E040E85FE30E9420
:10404000250488232CF481E090E09C8B8B8B3FC06F
:104050006D897E898F89988D20E03FEF4FE757E487
:104060000E94C50318164CF5698D7A8D8B8D9C8D39
:1040700020E030E040E251E40E941F02DC01CB016D
:10408000BC01CD010E944900DC01CB019C8B8B8BD4
:104090000FC088EC90E09A8B898B89899A89019767
:1040A000F1F79A8B898B8B899C8901979C8B8B8BE1
:1040B0008B899C89009769F714C06D897E898F89E7
:1040C000988D0E944900DC01CB019C8B8B8B8B89E6
:1040D0009C89988B8F878F8598890197F1F7988BAA
:1040E0008F87EE8DFF8D8081EE8DFF8D91812EE18A
:1040F00033E0692FA9010E94841180911E03882357
:1041000021F4E8A1F9A11082E7C0E8A1F9A181E0BA
:104110008083E2C0EE8DFF8D83818823C9F4EE8D0C
:10412000FF8D8081EE8DFF8D918128A139A1692FAE
:10413000A9010E94841180911E03882321F4E8A123
:10414000F9A11082C9C0E8A1F9A181E08083C4C0AF
:1041500081E08D8FC1C0EE8DFF8D8281813009F0AD
:10416000B9C0EE8DFF8D8381813009F097C0EE8D4F
:10417000FF8D8081EE8DFF8D91812EE133E0692FDF
:10418000A9010E94841180911E03813009F0A4C00E
:1041900080E090E0A6E1B3E48B879C87AD87BE8783
:1041A0006B857C858D859E8520E030E04AEF54E468
:1041B0000E941F02DC01CB018F839887A987BA87F1
:1041C0006F81788589859A8520E030E040E85FE35B
:1041D0000E94250488232CF481E090E09E838D8347
:1041E0003FC06F81788589859A8520E03FEF4FE752
:1041F00057E40E94C50318164CF56B857C858D85A8
:104200009E8520E030E040E251E40E941F02DC0184
:10421000CB01BC01CD010E944900DC01CB019E8392
:104220008D830FC088EC90E09C838B838B819C8175
:104230000197F1F79C838B838D819E8101979E83EB
:104240008D838D819E81009769F714C06F81788579
:1042500089859A850E944900DC01CB019E838D836C
:104260008D819E819A83898389819A810197F1F753
:104270009A838983EE8DFF8D8081EE8DFF8D9181F4
:104280002EE133E0692FA9010E94841180911E0361
:10429000813011F5E8A1F9A110821EC0EE8DFF8DCD
:1042A00083818823A1F4EE8DFF8D8081EE8DFF8DBB
:1042B000918128A139A1692FA9010E9484118091BF
:1042C0001E03813049F4E8A1F9A1108205C081E004
:1042D0008D8F02C081E08D8F8D8DA1960FB6F894E1
:1042E000DEBF0FBECDBFCF91DF910895DF93CF9397
:1042F00000D000D00F92CDB7DEB79B838A837D8339
:104300006C831982EC81FD8181E08083EA81FB81ED
:104310008281882309F076C010922003EA81FB8114
:104320008381813009F04DC0EA81FB818081EA817F
:10433000FB8191812FE133E0692FA9010E94841153
:1043400080911F03882309F0C4C0EA81FB8180812A
:10435000EA81FB8191812FE133E0692FA9010E945D
:10436000841180911F03882309F0B3C08091220338
:104370008F5F8093220380912203853198F0809192
:104380002003882361F4EC81FD811082EA81FB81A6
:104390000480F581E02D099581E08093200310923F
:1043A000220397C0809121038F5F80932103809126
:1043B0002103853108F48DC010922003109221034F
:1043C00088C0EA81FB8183818823C9F4EA81FB816B
:1043D0008081EA81FB8191812C813D81692FA90136
:1043E0000E94841180911F03882321F4EC81FD81B8
:1043F00010826FC0EC81FD8181E080836AC081E022
:10440000898367C0EA81FB818281813009F05FC0C6
:1044100081E080932003EA81FB8183818130D9F59B
:10442000EA81FB818081EA81FB8191812FE133E088
:10443000692FA9010E94841180911F03813009F026
:1044400048C0809122038F5F8093220380912203D2
:10445000853190F080912003813059F4EC81FD8109
:104460001082EA81FB810480F581E02D099510928C
:104470002003109222032DC0809121038F5F80932F
:10448000210380912103853120F181E08093200375
:10449000109221031EC0EA81FB8183818823A1F44D
:1044A000EA81FB818081EA81FB8191812C813D81C0
:1044B000692FA9010E94841180911F03813049F462
:1044C000EC81FD81108205C081E0898302C081E01A
:1044D000898389810F900F900F900F900F90CF914B
:1044E000DF910895DF93CF93CDB7DEB760970FB616
:1044F000F894DEBF0FBECDBF9A838983E981FA812C
:104500008081282F30E0388B2F878F8598898130E4
:10451000910509F4C1C02F8538892230310509F48D
:1045200029C18F859889009709F0D9C1E981FA815D
:104530008181282F30E03E872D878D859E858130B3
:10454000910509F44AC02D853E85223031052CF4B1
:104550008D859E85009769F073C02D853E8522303C
:10456000310509F45FC08D859E858330910531F159
:1045700067C0A3E5B0E0E3E5F0E08081877F8C933E
:10458000A3E5B0E0E3E5F0E080818F7B8C93E981E7
:10459000FA818481882349F0A9E5B0E0E9E5F0E0FB
:1045A000808181608C939C914BC0A9E5B0E0E9E5E6
:1045B000F0E080818E7F8C932C9142C0A3E5B0E027
:1045C000E3E5F0E08081877F8C93A3E5B0E0E3E54D
:1045D000F0E0808180648C9333C0A3E5B0E0E3E534
:1045E000F0E0808188608C93A3E5B0E0E3E5F0E043
:1045F00080818F7B8C93E981FA818481882349F0C3
:10460000A9E5B0E0E9E5F0E0808182608C933C911F
:1046100017C0A9E5B0E0E9E5F0E080818D7F8C93DB
:104620008C910EC0A3E5B0E0E3E5F0E08081886006
:104630008C93A3E5B0E0E3E5F0E0808180648C93A7
:10464000A3E5B0E0E3E5F0E080818F7C8C93A3E507
:10465000B0E0E3E5F0E08081282FE981FA818281F2
:10466000882F90E082959295907F9827807F982759
:10467000822B8C93A3E5B0E0E3E5F0E08081887FB6
:104680008C93A3E5B0E0E3E5F0E09081E981FA8165
:104690008381892B8C9323C1AFE4B0E0EFE4F0E099
:1046A00080818C7F8C93AFE4B0E0EFE4F0E0808118
:1046B000982FE981FA8181818370892B8C93AEE4F4
:1046C000B0E0EEE4F0E08081877E8C93AEE4B0E071
:1046D000EEE4F0E08081282FE981FA818181882F42
:1046E00090E08C70880F991F822B8C93AFE4B0E020
:1046F000EFE4F0E080818F708C93AFE4B0E0EFE402
:10470000F0E08081282FE981FA818281882F90E072
:1047100082959295907F9827807F9827822B8C9303
:10472000AEE4B0E0EEE4F0E08081887F8C93AEE40C
:10473000B0E0EEE4F0E09081E981FA818381892B99
:104740008C93A9E5B0E0E9E5F0E08081877E8C9369
:10475000A9E5B0E0E9E5F0E08081282FE981FA8160
:104760008481882F90E0880F991F880F991F822BD2
:104770008C93B5C0E981FA818181282F30E0388798
:104780002F838F8198858130910509F44AC02F814C
:104790003885223031052CF48F819885009769F097
:1047A00073C02F8138852230310509F45FC08F81B5
:1047B00098858330910531F167C0A5E4B0E0E5E468
:1047C000F0E08081877F8C93A5E4B0E0E5E4F0E041
:1047D00080818F7B8C93E981FA818481882349F0E1
:1047E000A9E5B0E0E9E5F0E0808180648C939C91DC
:1047F0004BC0A9E5B0E0E9E5F0E080818F7B8C93C8
:104800002C9142C0A5E4B0E0E5E4F0E08081877F30
:104810008C93A5E4B0E0E5E4F0E0808180648C93C3
:1048200033C0A5E4B0E0E5E4F0E0808188608C93DB
:10483000A5E4B0E0E5E4F0E080818F7B8C93E98132
:10484000FA818481882349F0A9E5B0E0E9E5F0E048
:10485000808180688C933C9117C0A9E5B0E0E9E5C0
:10486000F0E080818F778C938C910EC0A5E4B0E04E
:10487000E5E4F0E0808188608C93A5E4B0E0E5E4B5
:10488000F0E0808180648C93A5E4B0E0E5E4F0E0A2
:1048900080818F7C8C93A5E4B0E0E5E4F0E080813A
:1048A000282FE981FA818281882F90E08295929564
:1048B000907F9827807F9827822B8C93A5E4B0E087
:1048C000E5E4F0E08081887F8C93A5E4B0E0E5E446
:1048D000F0E09081E981FA818381892B8C93609645
:1048E0000FB6F894DEBF0FBECDBFCF91DF91089514
:1048F000DF93CF9300D0CDB7DEB79A838983A3E54A
:10490000B0E0E3E5F0E080818F7C8C93A3E5B0E03C
:10491000E3E5F0E08081282FE981FA818281882F08
:1049200090E082959295907F9827807F9827822BA0
:104930008C930F900F90CF91DF910895DF93CF93D9
:104940000F92CDB7DEB78983E2E5F0E089818083FD
:104950000F90CF91DF910895DF93CF930F92CDB752
:10496000DEB78983ECE5F0E0898180830F90CF91F9
:10497000DF910895DF93CF93CDB7DEB727970FB6BA
:10498000F894DEBF0FBECDBF9B838A837D836C838B
:1049900019828A819B81009721F48C819D810097E7
:1049A000F9F0EA81FB818181282F30E03F832E835B
:1049B0008E819F81009731F02E813F81213031051A
:1049C00041F010C08C819D81909324038093230338
:1049D00009C08C819D81909326038093250302C09A
:1049E00082E08983898127960FB6F894DEBF0FBED7
:1049F000CDBFCF91DF910895DF93CF9300D0CDB796
:104A0000DEB79A838983AFE4B0E0EFE4F0E0808121
:104A10008F708C93AFE4B0E0EFE4F0E08081282F5A
:104A2000E981FA818281882F90E082959295907F2A
:104A30009827807F9827822B8C930F900F90CF918F
:104A4000DF910895DF93CF9300D0CDB7DEB79A837F
:104A50008983E6E4F0E089819A81918380830F90D5
:104A60000F90CF91DF910895DF93CF9300D0CDB712
:104A7000DEB79A838983ECE4F0E089819A8191839F
:104A800080830F900F90CF91DF910895DF93CF93A4
:104A900000D0CDB7DEB79A838983EAE4F0E089815C
:104AA0009A81918380830F900F90CF91DF91089529
:104AB000DF93CF9300D0CDB7DEB79A838983E8E444
:104AC000F0E089819A81918380830F900F90CF913C
:104AD000DF910895DF93CF93CDB7DEB729970FB657
:104AE000F894DEBF0FBECDBF9B838A837D836C832A
:104AF00019828A819B81009729F48C819D8100977E
:104B000009F45BC0EA81FB818181282F30E039877D
:104B10002887888599858430910591F02885398585
:104B20002C30310509F442C088859985009709F039
:104B300046C08C819D8190932803809327033FC0BA
:104B4000EA81FB818281282F30E03F832E838E8192
:104B50009F8184309105A1F02E813F812530310560
:104B60002CF48E819F81009759F010C02E813F81D7
:104B70002830310529F08E819F818C30910531F4E8
:104B80008C819D8190932A0380932903EA81FB8184
:104B90008281882F90E000968430910580F48C818A
:104BA0009D8190932C0380932B0309C08C819D8160
:104BB00090932E0380932D0302C082E08983898124
:104BC00029960FB6F894DEBF0FBECDBFCF91DF910F
:104BD0000895DF93CF9300D0CDB7DEB79A83898352
:104BE000A5E4B0E0E5E4F0E080818F7C8C93A5E45F
:104BF000B0E0E5E4F0E08081282FE981FA8182814C
:104C0000882F90E082959295907F9827807F9827B3
:104C1000822B8C930F900F90CF91DF910895DF93AB
:104C2000CF930F92CDB7DEB78983E4E4F0E08981BA
:104C300080830F90CF91DF910895DF93CF930F92F0
:104C4000CDB7DEB78983E3E4F0E0898180830F90FC
:104C5000CF91DF910895DF93CF93CDB7DEB727973C
:104C60000FB6F894DEBF0FBECDBF9B838A837D83D2
:104C70006C8319828A819B81009721F48C819D81AC
:104C80000097F9F0EA81FB818181282F30E03F8392
:104C90002E838E819F81009731F02E813F812130BC
:104CA000310541F010C08C819D8190933003809339
:104CB0002F0309C08C819D8190933203809331032F
:104CC00002C082E08983898127960FB6F894DEBFFF
:104CD0000FBECDBFCF91DF9108951F920F920FB6F7
:104CE0000F9211242F933F934F935F936F937F9372
:104CF0008F939F93AF93BF93EF93FF93DF93CF93E4
:104D0000CDB7DEB7E0912503F09126030995CF9149
:104D1000DF91FF91EF91BF91AF919F918F917F9123
:104D20006F915F914F913F912F910F900FBE0F9018
:104D30001F9018951F920F920FB60F9211242F9368
:104D40003F934F935F936F937F938F939F93AF9313
:104D5000BF93EF93FF93DF93CF93CDB7DEB7E0918F
:104D60002303F09124030995CF91DF91FF91EF91F7
:104D7000BF91AF919F918F917F916F915F914F9173
:104D80003F912F910F900FBE0F901F9018951F927B
:104D90000F920FB60F9211242F933F934F935F936F
:104DA0006F937F938F939F93AF93BF93EF93FF93F3
:104DB000DF93CF93CDB7DEB7E0912903F0912A03BB
:104DC0000995CF91DF91FF91EF91BF91AF919F91A5
:104DD0008F917F916F915F914F913F912F910F90A4
:104DE0000FBE0F901F9018951F920F920FB60F9243
:104DF00011242F933F934F935F936F937F938F93E0
:104E00009F93AF93BF93EF93FF93DF93CF93CDB770
:104E1000DEB7E0912B03F0912C030995CF91DF9140
:104E2000FF91EF91BF91AF919F918F917F916F9182
:104E30005F914F913F912F910F900FBE0F901F9058
:104E400018951F920F920FB60F9211242F933F9334
:104E50004F935F936F937F938F939F93AF93BF9382
:104E6000EF93FF93DF93CF93CDB7DEB7E0912703A6
:104E7000F09128030995CF91DF91FF91EF91BF91B8
:104E8000AF919F918F917F916F915F914F913F91E2
:104E90002F910F900FBE0F901F9018951F920F9299
:104EA0000FB60F9211242F933F934F935F936F93FD
:104EB0007F938F939F93AF93BF93EF93FF93DF9372
:104EC000CF93CDB7DEB7E0912D03F0912E03099576
:104ED000CF91DF91FF91EF91BF91AF919F918F9112
:104EE0007F916F915F914F913F912F910F900FBEE6
:104EF0000F901F9018951F920F920FB60F921124CA
:104F00002F933F934F935F936F937F938F939F93D1
:104F1000AF93BF93EF93FF93DF93CF93CDB7DEB7FC
:104F2000E0912F03F09130030995CF91DF91FF912C
:104F3000EF91BF91AF919F918F917F916F915F9111
:104F40004F913F912F910F900FBE0F901F9018958A
:104F50001F920F920FB60F9211242F933F934F93EE
:104F60005F936F937F938F939F93AF93BF93EF93D1
:104F7000FF93DF93CF93CDB7DEB7E0912503F09198
:104F800026030995CF91DF91FF91EF91BF91AF91EA
:104F90009F918F917F916F915F914F913F912F9151
:104FA0000F900FBE0F901F901895AF92BF92CF92A7
:104FB000DF92EF92FF920F931F93DF93CF93CDB7C2
:104FC000DEB764970FB6F894DEBF0FBECDBF6D831A
:104FD0007E838F83988729873A874B875C87ED8606
:104FE000FE860F87188BA98ABA8ACB8ADC8A198237
:104FF0001A821B821C8229A13AA14BA15CA18D813E
:105000009E81AF81B88579018A01E81AF90A0A0BF5
:105010001B0B29893A894B895C898D859E85AF85D3
:10502000B889281B390B4A0B5B0BC801B7010E94DA
:10503000693C7B018C0129853A854B855C858D8196
:105040009E81AF81B885281B390B4A0B5B0BC801C9
:10505000B7010E949C3CDA01C9019C01AD018D851C
:105060009E85AF85B889820F931FA41FB51F8983C2
:105070009A83AB83BC8389819A81AB81BC81BC015B
:10508000CD0164960FB6F894DEBF0FBECDBFCF91B1
:10509000DF911F910F91FF90EF90DF90CF90BF9025
:1050A000AF900895AF92BF92CF92DF92EF92FF92AE
:1050B0000F931F93DF93CF93CDB7DEB7CB53D14080
:1050C0000FB6F894DEBF0FBECDBF0E94A9160E9496
:1050D00017070E94E10CFE01E85EFE4F118210826C
:1050E000FE01E95EFE4F1082FE01EA5EFE4F83E0A4
:1050F0008083FE01EB5EFE4F1082FE01EC5EFE4FF0
:1051000081E08083FE01ED5EFE4F8CE08083FE0136
:10511000EF5EFE4F11821082FE01E15FFE4F1182B1
:105120001082FE01E35FFE4F82ED94E09183808365
:10513000FE01E55FFE4F81E090E09183808381E096
:105140000E94680980E690E00E94D40EFE01E95FAB
:10515000FE4F80E090E0AAEFB3E480839183A283C6
:10516000B3838E010D5F1E4FFE01E95FFE4F60812C
:1051700071818281938120E030E04AEF54E40E9403
:105180001F02DC01CB01F80180839183A283B383EA
:10519000FE01ED5FFE4F608171818281938120E08D
:1051A00030E040E85FE30E942504882344F4FE01D8
:1051B000EF5FFE4F81E090E09183808364C0FE0149
:1051C000ED5FFE4F608171818281938120E03FEF2E
:1051D0004FE757E40E94C50318160CF043C0FE01C8
:1051E000E95FFE4F608171818281938120E030E030
:1051F00040E251E40E941F02DC01CB018E010F5FEF
:105200001E4FBC01CD010E944900DC01CB01F80119
:10521000918380831FC0FE01E150FF4F88EC90E036
:1052200091838083FE01E150FF4F8081918101973E
:10523000F1F7FE01E150FF4F91838083DE01AF5F04
:10524000BE4FFE01EF5FFE4F808191810197119665
:105250009C938E93FE01EF5FFE4F808191810097BA
:10526000D1F628C08E010F5F1E4FFE01ED5FFE4F8D
:1052700060817181828193810E944900DC01CB01B0
:10528000F80191838083DE01A350BF4FFE01EF5FE1
:10529000FE4F8081918111969C938E93FE01E35085
:1052A000FF4F808191810197F1F7FE01E350FF4F9D
:1052B00091838083CE01845E9E4FC35DDE4F9983D0
:1052C0008883CD52D14023E033E0C15DDE4F398386
:1052D0002883CF52D14035E0CF5CDE4F3883C153B5
:1052E000D140C15DDE4FE881F981CF52D1400080CD
:1052F000C15DDE4F28813981CF52D1402F5F3F4FB2
:10530000C15DDE4F39832883CF52D140C35DDE4F6C
:10531000E881F981CD52D1400082C35DDE4F288102
:105320003981CD52D1402F5F3F4FC35DDE4F39836E
:105330002883CD52D140CF5CDE4F3881C153D1405C
:105340003150CF5CDE4F3883C153D140CF5CDE4F4C
:105350004881C153D140442321F6CE018F5D9E4F39
:10536000CE5CDE4F99838883C253D1408EEF92E0AA
:10537000CC5CDE4F99838883C453D14095E0CA5CEE
:10538000DE4F9883C653D140CC5CDE4FE881F98173
:10539000C453D1400080CC5CDE4F28813981C45396
:1053A000D1402F5F3F4FCC5CDE4F39832883C453FD
:1053B000D140CE5CDE4FE881F981C253D1400082FA
:1053C000CE5CDE4F28813981C253D1402F5F3F4FE1
:1053D000CE5CDE4F39832883C253D140CA5CDE4F96
:1053E0003881C653D1403150CA5CDE4F3883C65332
:1053F000D140CA5CDE4F4881C653D140442321F6D8
:10540000CE018A5D9E4FC95CDE4F99838883C75366
:10541000D14089EF92E0C75CDE4F99838883C953FE
:10542000D14095E0C55CDE4F9883CB53D140C75C3B
:10543000DE4FE881F981C953D1400080C75CDE4F5F
:1054400028813981C953D1402F5F3F4FC75CDE4F60
:1054500039832883C953D140C95CDE4FE881F98183
:10546000C753D1400082C95CDE4F28813981C753C0
:10547000D1402F5F3F4FC95CDE4F39832883C7532C
:10548000D140C55CDE4F3881CB53D1403150C55C33
:10549000DE4F3883CB53D140C55CDE4F4881CB53C0
:1054A000D140442321F6CE018A5D9E4F0E94722294
:1054B000CE018F5D9E4F0E94722281E00E9468099A
:1054C0008BE690E00E94D40E0E948B15FE01E95EEF
:1054D000FE4F8083FE01E95EFE4F80818F3FA1F386
:1054E000FE01E95EFE4F80818A3008F0F8C0FE01BF
:1054F000E95EFE4F8081882F90E00E94630FFE01DD
:10550000E750FF4F80E090E0A8ECB2E48083918305
:10551000A283B3838E010B501F4FFE01E750FF4F54
:10552000608171818281938120E030E04AEF54E410
:105530000E941F02DC01CB01F80180839183A283CA
:10554000B383FE01EB50FF4F6081718182819381B3
:1055500020E030E040E85FE30E942504882344F423
:10556000FE01ED50FF4F81E090E09183808364C0A5
:10557000FE01EB50FF4F608171818281938120E0B9
:105580003FEF4FE757E40E94C50318160CF043C0E5
:10559000FE01E750FF4F608171818281938120E09D
:1055A00030E040E251E40E941F02DC01CB018E0199
:1055B0000D501F4FBC01CD010E944900DC01CB0101
:1055C000F801918380831FC0FE01EF50FF4F88ECEC
:1055D00090E091838083FE01EF50FF4F80819181A5
:1055E0000197F1F7FE01EF50FF4F91838083DE01B9
:1055F000AD50BF4FFE01ED50FF4F8081918101976B
:1056000011969C938E93FE01ED50FF4F8081918106
:105610000097D1F627C08E010D501F4FFE01EB50B1
:10562000FF4F60817181828193810E944900DC017A
:10563000CB01F80191838083DE01A151BF4FFE01B0
:10564000ED50FF4F808191818D939C93FE01E1513C
:10565000FF4F808191810197F1F7FE01E151FF4FEA
:1056600091838083FE01ED5EFE4F8081982F9150E3
:1056700080E0692F0E94FD0EDE01AD5EBE4FFE018F
:10568000ED5EFE4F80818F5F8C938AE20E94410B1A
:10569000FE01E15FFE4FDE01A55FBE4F208131813B
:1056A0008D919C911197A901489F9001499F300DC0
:1056B000589F300D1124FE01E95EFE4F8081882F36
:1056C00090E0FE01E15FFE4F820F931F9183808384
:1056D000FE01E55FFE4F8AE090E091838083FE014A
:1056E000E95EFE4F8081833409F0EECEFE01E15F7A
:1056F000FE4FDE01A35FBE4F208131818D919C91D1
:1057000011972817390711F00C949F3881E00E94F7
:10571000680987E790E00E94D40E81E060E00E9473
:10572000FD0E88E890E00E94D40EFE01E551FF4F87
:1057300080E090E0AAEFB3E480839183A283B383F7
:105740008E0109511F4FFE01E551FF4F60817181AC
:105750008281938120E030E04AEF54E40E941F02EE
:10576000DC01CB01F80180839183A283B383FE0126
:10577000E951FF4F608171818281938120E030E0A7
:1057800040E85FE30E942504882344F4FE01EB51C6
:10579000FF4F81E090E09183808364C0FE01E95176
:1057A000FF4F608171818281938120E03FEF4FE75D
:1057B00057E40E94C50318160CF043C0FE01E551E2
:1057C000FF4F608171818281938120E030E040E26F
:1057D00051E40E941F02DC01CB018E010B511F4FCF
:1057E000BC01CD010E944900DC01CB01F80191838D
:1057F00080831FC0FE01ED51FF4F88EC90E0918344
:105800008083FE01ED51FF4F808191810197F1F777
:10581000FE01ED51FF4F91838083DE01AB51BF4FFD
:10582000FE01EB51FF4F80819181019711969C936E
:105830008E93FE01EB51FF4F808191810097D1F64D
:1058400027C08E010B511F4FFE01E951FF4F6081B0
:105850007181828193810E944900DC01CB01F801B2
:1058600091838083DE01AF51BF4FFE01EB51FF4FAB
:10587000808191818D939C93FE01EF51FF4F808138
:1058800091810197F1F7FE01EF51FF4F91838083E2
:1058900081E00E94680980E060E00E94FD0E85E9D9
:1058A00090E00E94D40EFE01E352FF4F80E090E0B2
:1058B000AAEFB3E480839183A283B3838E0107525E
:1058C0001F4FFE01E352FF4F6081718182819381FE
:1058D00020E030E04AEF54E40E941F02DC01CB01DB
:1058E000F80180839183A283B383FE01E752FF4FC7
:1058F000608171818281938120E030E040E85FE344
:105900000E942504882344F4FE01E952FF4F81E000
:1059100090E09183808364C0FE01E752FF4F608175
:1059200071818281938120E03FEF4FE757E40E942D
:10593000C50318160CF043C0FE01E352FF4F60810F
:1059400071818281938120E030E040E251E40E9445
:105950001F02DC01CB018E0109521F4FBC01CD019A
:105960000E944900DC01CB01F801918380831FC0B4
:10597000FE01EB52FF4F88EC90E091838083FE01A3
:10598000EB52FF4F808191810197F1F7FE01EB52BD
:10599000FF4F91838083DE01A952BF4FFE01E95280
:1059A000FF4F80819181019711969C938E93FE0108
:1059B000E952FF4F808191810097D1F627C08E0177
:1059C00009521F4FFE01E752FF4F608171818281B2
:1059D00093810E944900DC01CB01F801918380830F
:1059E000DE01AD52BF4FFE01E952FF4F8081918130
:1059F0008D939C93FE01ED52FF4F80819181019721
:105A0000F1F7FE01ED52FF4F9183808381E00E9408
:105A1000680983EA90E00E94D40E81E060E00E9471
:105A2000FD0E83EB90E00E94D40E0E948B15FE01C8
:105A3000E95EFE4F8083FE01E95EFE4F8081882390
:105A400031F0FE01E95EFE4F8081843058F0FE01A6
:105A5000E95EFE4F8FEF8083FE01E95EFE4F80819D
:105A60008F3F19F3FE01E95EFE4F8081282F30E061
:105A7000C55DDE4F39832883CB52D140C55DDE4FF3
:105A800048815981CB52D1404230510511F40C94D8
:105A9000B735C55DDE4F88819981CB52D1408330C7
:105AA000910511F40C944437C55DDE4FE881F9810E
:105AB000CB52D140E130F10509F0EDCE81E00E94FA
:105AC00068098CEB90E00E94D40EFE01E153FF4F79
:105AD00080E090E0AAEFB3E480839183A283B38354
